:020000040800F2
:1000000000A000201D120008611200086112000803
:10001000611200086112000861120008000000006F
:100020000000000000000000000000006112000855
:10003000611200080000000061120008611200084F
:1000400061120008611200086112000861120008C4
:1000500061120008611200086112000861120008B4
:1000600061120008611200086112000861120008A4
:100070006112000861120008611200086112000894
:100080006112000861120008611200086112000884
:100090006112000861120008611200084906000898
:1000A0006112000861120008611200086112000864
:1000B0006112000861120008611200086112000854
:1000C0006112000861120008611200086112000844
:1000D0006112000861120008611200086112000834
:1000E0006112000861120008611200086112000824
:1000F0006112000861120008611200086112000814
:100100000000000000000000000000006112000874
:100110006112000861120008611200087D050008E4
:1001200061120008611200086112000861120008E3
:1001300061120008611200080000000000000000C9
:10014000611200086112000861120008000000003E
:10015000000000000000000000000000000000009F
:100160000000000000000000611200086112000899
:100170006112000800000000000000000000000004
:10018000000000006112000880B483B000AF786006
:100190000B46FB70FB78002B06D00949084B5A69C7
:1001A0007B6813434B6106E00549054B5A697B6840
:1001B000DB4313404B6100BF0C37BD4680BC70472A
:1001C0000010024080B483B000AF78600B46FB7033
:1001D000FB78002B06D00949084B9A697B681343CA
:1001E0008B6106E00549054B9A697B68DB43134048
:1001F0008B6100BF0C37BD4680BC704700100240C9
:1002000080B483B000AF78600B46FB70FB78002BA6
:1002100006D00949084BDA697B681343CB6106E0D5
:100220000549054BDA697B68DB431340CB6100BFAE
:100230000C37BD4680BC70470010024080B483B0CC
:1002400000AF78607B681B782D3B482B00F2C480A0
:1002500001A252F823F000BFD5030008D90300081B
:10026000D90300087D030008810300088503000806
:10027000890300088D030008910300089503000816
:10028000990300089D030008A1030008D903000892
:10029000D9030008D9030008D9030008D9030008CE
:1002A000D9030008D9030008D1030008D9030008C6
:1002B000D9030008D9030008AD030008D9030008DA
:1002C000D9030008BD03000881030008D903000812
:1002D000D9030008A5030008D9030008D9030008C2
:1002E0007D030008B1030008D9030008D903000802
:1002F00091030008D9030008A9030008D9030008E6
:10030000D9030008D9030008D9030008D90300085D
:10031000D9030008D9030008D9030008D90300084D
:10032000D9030008D9030008D9030008C90300084D
:10033000D9030008B5030008D9030008D903000851
:10034000A1030008D9030008D9030008D903000855
:10035000D9030008D9030008D9030008D90300080D
:10036000CD030008D9030008D9030008C103000821
:10037000D9030008C5030008B90300083F232CE097
:1003800006232AE05B2328E04F2326E0662324E0AF
:100390006D2322E07D2320E007231EE07F231CE065
:1003A0006F231AE0382318E03E2316E0792314E087
:1003B000732312E05E2310E01C230EE076230CE092
:1003C00050230AE0782308E07C2306E05C2304E065
:1003D000772302E0402300E0002318460C37BD4697
:1003E00080BC704780B582B000AF786039601AE099
:1003F0003868FFF723FF03461A467B681A703B688C
:1004000001333B603B681B782E2B09D17B681B783E
:1004100063F07F03DAB27B681A703B6801333B609C
:100420007B6801337B603B681B78002BE0D100BF09
:100430000837BD4680BD00BF80B487B000AF78608C
:10044000396000237B6100233B610023FB600023B4
:100450007B617EE001227B6902FA03F33B613B682A
:100460001A683B691340FB60FA683B699A426DD198
:100470003B681B79012B03D03B681B79022B36D1DB
:100480007B689A687B695B00032101FA03F3DB4315
:100490001A407B689A607B689A683B685B7919466A
:1004A0007B695B0001FA03F31A437B689A607B68FF
:1004B0009B889AB27B699BB2012101FA03F39BB23C
:1004C000DB439BB213409AB27B689A807B689B881F
:1004D0009BB21AB23B689B7919467B699BB201FAC1
:1004E00003F31BB213431BB29AB27B689A807B68FA
:1004F0001A687B695B00032101FA03F3DB431A40AE
:100500007B681A607B681A683B681B7919467B69AF
:100510005B0001FA03F31A437B681A607B68DA68B0
:100520007B699BB25B00032101FA03F3DB431A40B2
:100530007B68DA607B68DA683B68DB7919467B693F
:100540005B0001FA03F31A437B68DA607B690133CD
:100550007B617B690F2B7FF67DAF00BF1C37BD46EB
:1005600080BC704780B500AF00F088F800F0E6F876
:1005700000F01EF900F03CF9FEE700BF98B500AFAF
:1005800001212B4800F038FE2A4B1B78002B0DD19F
:1005900000F094FB034619462748FFF723FF00F0BD
:1005A000D9FB034619462548FFF71CFF2449214B78
:1005B0001B781A46204B9B5C1AB21E4B1B781846C0
:1005C0001E4B1B5C1B021BB213431BB29BB28B82E4
:1005D0001C4B1C4A928A92B2D2B292B29A821948A9
:1005E000184B9B8A9BB21AB2124B1B78083301211D
:1005F00001FA03F319B20F4B1B780C33012404FAF0
:1006000003F31BB20B431BB213431BB29BB2838297
:10061000084B1B780133DAB2064B1A70054B1B7876
:10062000032B02D9034B00221A7000BF98BD00BFF4
:1006300000140040500A0020540A0020580A0020EC
:10064000000C00480004004880B500AF052000F011
:10065000EBF9062000F0E8F9072000F0E5F90820A2
:1006600000F0E2F9044A044B9B8A9BB283F4807346
:100670009BB2938200BF80BD0010004880B582B05D
:1006800000AF01214FF40030FFF77EFD01214FF450
:100690008020FFF779FD01214FF48010FFF774FDF2
:1006A00001214FF40010FFF76FFD4FF4F0733B6032
:1006B00000233B7102237B710223FB713B461946E9
:1006C0004FF09040FFF7B8FE4FF47F433B600123AB
:1006D0003B7101237B710023BB710023FB713B46FF
:1006E00019461348FFF7A8FE4FF6FF733B6001233E
:1006F0003B7101237B710023BB710023FB713B46DF
:1007000019460C48FFF798FE4FF47F433B600123E6
:100710003B7101237B710023BB710023FB713B46BE
:1007200019460548FFF788FE00BF0837BD4680BD63
:1007300000040048000C00480010004880B582B05A
:1007400000AF01210120FFF73DFD0521002000F051
:1007500089FD0621002000F085FD0721002000F022
:1007600081FD0821002000F07DFD00233B7108235E
:100770007B710123BB7105233B603B46184600F0AB
:1007800059F806233B603B46184600F053F8072310
:100790003B603B46184600F04DF808233B603B4663
:1007A000184600F047F800BF0837BD4680BD00BFBF
:1007B00080B582B000AF37233B7100237B710023EB
:1007C000BB710123FB713B1D184600F0FDFB172395
:1007D0003B7100237B710123BB710123FB713B1D26
:1007E000184600F0F1FB00BF0837BD4680BD00BFD2
:1007F00080B584B000AF01212020FFF701FD002368
:10080000FB8048F6A043BB800523BB603B1D194617
:10081000074800F03BFC0121054800F0ADFC012237
:100820000121034800F0C8FC00BF1037BD4680BD61
:100830000014004080B485B000AF78600023FB60F6
:10084000754BFB607B689B79002B00F0C8807B6850
:100850001B685B0903F1007303F502635B01184633
:100860007B681B685B0903F1007303F502635B019E
:100870001A687B681B6803F01F03012101FA03F368
:10088000DB43134003607B681B685B095A01634BC1
:10089000134418467B681B685B095A015F4B13447D
:1008A0001A687B681B6803F01F03012101FA03F338
:1008B000DB43134003607B681B791A467B681B6827
:1008C0005B095B011344FA681344FB60FB68FA6838
:1008D00012687968096801F01F01012000FA01F12E
:1008E0000A431A604C4BFB607B681B685B095A012A
:1008F0004B4B134418467B681B685B095A01484BF5
:1009000013441A687B681B6803F01F03012101FA76
:1009100003F3DB43134003607B681B685B095A01E8
:10092000404B134418467B681B685B095A013D4BDA
:1009300013441A687B681B6803F01F03012101FA46
:1009400003F3DB43134003607B685B79102B2ED1EC
:100950007B681B685B095A01314B134418467B685E
:100960001B685B095A012E4B13441B687A68126896
:1009700002F01F02012101FA02F2134303607B68B7
:100980001B685B095A01274B134418467B681B6898
:100990005B095A01234B13441B687A68126802F002
:1009A0001F02012101FA02F2134303602FE07B686A
:1009B0005B791A467B681B685B095B011344FA6824
:1009C0001344FB60FB68FA6812687968096801F0F3
:1009D0001F01012000FA01F10A431A6017E07B6849
:1009E0001B791A467B681B685B095B011344FA6834
:1009F0001344FB60FB68FA6811687A68126802F0B9
:100A00001F02012000FA02F2D2430A401A6000BF1E
:100A10001437BD4680BC7047000401400404014007
:100A2000080401400C04014080B483B000AF78603A
:100A30007B685B095A01074B134419467B6803F036
:100A40001F03012202FA03F30B6000BF0C37BD46FF
:100A500080BC70471404014098B500AF704B93F907
:100A60000030052B00F2D28001A252F823F000BF23
:100A7000890A0008A90A0008ED0A0008FD0A000812
:100A8000310B0008950B0008654B93F90130002BE2
:100A900002D0012B04D0B9E0624BD3E90234B8E0B4
:100AA000604BD3E90034B4E05D4B93F90130032B84
:100AB00000F2A78001A252F823F000BFCD0A00087F
:100AC000D50A0008DD0A0008E50A0008564BD3E9FC
:100AD00000349EE0544BD3E902349AE0524BD3E900
:100AE000043496E0504BD3E9063492E04F4B1B8818
:100AF000184600F03BFD03460C468AE0484B93F94C
:100B00000130012B08D0022B0AD0002B00D07DE051
:100B1000474BD3E900347CE0454BD3E9023478E01D
:100B2000434B1B8A184600F021FD03460C4670E03B
:100B30003B4B93F90130042B65D801A252F823F006
:100B4000550B00085D0B0008650B0008750B0008CD
:100B5000850B0008374BD3E900345AE0354BD3E915
:100B6000023456E0334B1B8A184600F0FFFC034664
:100B70000C464EE02F4B5B8A184600F0F7FC03460C
:100B80000C4646E02B4BDB8A184600F0EFFC034690
:100B90000C463EE0224B93F90130062B35D801A2DA
:100BA00052F823F0C10B0008C90B0008D10B000854
:100BB000D90B0008E10B0008E90B0008F10B000855
:100BC0001D4BD3E9003424E01B4BD3E9023420E071
:100BD000194BD3E904341CE0174BD3E9083418E06F
:100BE000154BD3E90C3414E0134BD3E90E3410E069
:100BF000114BB3F87030184600F0B8FC03460C46B1
:100C000007E000BF02E000BF00E000BF02A4D4E99B
:100C100000341846214698BDCDCCCCCCCCDC8E40DF
:100C20005C0A00200000002010000020180A0020AC
:100C3000380A0020300000205000002080B400AFAF
:100C40001A4B93F90030023B032B2AD801A252F829
:100C500023F000BF650C0008690C0008770C000841
:100C6000850C0008124B1DE0104B93F90130022B4C
:100C700014D10F4B16E00D4B93F90130012B0FDD12
:100C80000B4B0FE0094B93F90130002B02D0062BE0
:100C900002D006E0074B05E0054B03E000BF00E093
:100CA00000BF054B1846BD4680BC70475C0A00205B
:100CB000005E0008085E0008105E000898B500AFEE
:100CC0001A4B93F90030002B24D0194B93F90030C4
:100CD000012B05D0022B0BD0002B19D1154B23E093
:100CE000154B93F900301A46144B53F822301BE091
:100CF000114B93F9003019460F4B93F90130184608
:100D00000F4A0B46DB005B1A034452F823300BE01A
:100D10000C4B09E00C4BD3E900341A4623460B492F
:100D20000B4800F05BFF0A4B184698BDC800002036
:100D30005F0A0020185E00085C0A0020E000002026
:100D4000F8000020205E0008200A0020105E000845
:100D5000640A0020B0B500AF284B93F90030002B97
:100D600031D0274B93F90030012B0BD0022B19D037
:100D7000002B26D1234B93F900301A46224B53F80F
:100D8000223039E01F4B93F9003019461D4B93F97F
:100D9000013018461D4A0B46DB005B1A034452F82B
:100DA000233029E0FFF74AFF0546FFF755FE0346CB
:100DB0000C461A4623462946154800F00FFF144BEF
:100DC0001AE0144B18E0144B1B78002B0AD0134B7D
:100DD000D3E900341A46234611490D4800F0FEFEBF
:100DE0000B4B09E00F4BD3E900341A4623460C495C
:100DF000074800F0F3FE064B1846B0BDC8000020BF
:100E00005F0A00205C0A0020E0000020F8000020BB
:100E1000640A0020205E00081A0A0020280A002028
:100E2000105E0008300A002080B500AF1B4A1B4B43
:100E30001B6843F0010313601849184B5A68184B9C
:100E400013404B60154A154B1B6823F0847323F441
:100E500080331360114A114B1B6823F48023136005
:100E60000E4A0E4B5B6823F4FE0353600B4A0B4B98
:100E7000DB6A23F00F03D3620849084B1A6B094B56
:100E800013400B63054B00229A6000F00FF8064BED
:100E90004FF000629A6000BF80BD00BF00100240AA
:100EA0000CC07FF8CCFC00FF00ED00E080B483B004
:100EB00000AF00237B6000233B60324A314B1B684C
:100EC00043F4803313602F4B1B6803F400333B6003
:100ED0007B6801337B603B68002B03D17B68B3F5F3
:100EE000A06FF0D1274B1B6803F40033002B02D016
:100EF00001233B6001E000233B603B68012B3CD1B8
:100F0000214B12221A601F4A1E4B5B6853601D4A18
:100F10001C4B5B6853601B4A1A4B5B6843F480634D
:100F20005360184A174B5B6823F47C135360154ACF
:100F3000144B5B6843F4E8135360124A114B1B686F
:100F400043F08073136000BF0E4B1B6803F0007307
:100F5000002BF9D00B4A0B4B5B6823F00303536063
:100F6000084A084B5B6843F00203536000BF054B1F
:100F70005B6803F00C03082BF9D100BF0C37BD46AA
:100F800080BC7047001002400020024080B485B051
:100F900000AF78600A4B1B68002B02D1084B094A4E
:100FA0001A60074B1B68FB60054B1A687B6813448B
:100FB000034A1360FB6818461437BD4680BC70476F
:100FC0006C0A0020A80A002080B487B000AF7860C7
:100FD00000237B6100233B610F23FB607B68DB7890
:100FE000002B3AD0274BDB68DB4303F4E0631B0A9A
:100FF0007B617B69C3F104033B61FA687B6922FA78
:1010000003F3FB607B685B781A463B6902FA03F3E3
:101010007B617B689B781A46FB6813407A691343AF
:101020007B617B691B017B61174A7B681B7879694F
:10103000C9B213440A4683F80023134A7B681B781D
:101040005B09DBB218467B681B7803F01F030121A4
:1010500001FA03F342F820300FE00B497B681B785C
:101060005B09DBB218467B681B7803F01F03012283
:101070009A4000F1200341F8232000BF1C37BD46F1
:1010800080BC704700ED00E000E100E080B485B076
:1010900000AF786039600023FB817B681B88FB818F
:1010A0007B682C4A93420FD07B682B4A93420BD02B
:1010B0007B68B3F1804F07D07B68284A934203D006
:1010C0007B68274A934208D1FB8923F07003FB8198
:1010D0003B685A88FB891343FB817B68214A934212
:1010E0000CD07B68204A934208D0FB8923F44073DC
:1010F000FB813B681A89FB891343FB817B68FA8972
:101100001A803B685A687B68DA623B681A887B6899
:101110001A857B680F4A93420FD07B680E4A934230
:101120000BD07B68114A934207D07B68104A9342E8
:1011300003D07B680F4A934204D13B689B7A9AB2F2
:101140007B681A867B6801225A6100BF1437BD464E
:1011500080BC7047002C0140003401400004004076
:101160000008004000100040001400400040014012
:10117000004401400048014080B483B000AF786073
:101180000B46FB70FB78002B08D07B681B889BB25A
:1011900043F001039AB27B681A8007E07B681B88E2
:1011A0009BB223F001039AB27B681A8000BF0C3710
:1011B000BD4680BC704700BF80B483B000AF78608C
:1011C0000B467B8013467B707B78002B06D07B68B8
:1011D000DA687B881A437B68DA6007E07B68DB6843
:1011E0007A88D24392B21A407B68DA6000BF0C372B
:1011F000BD4680BC704700BF80B483B000AF78604C
:101200000B467B807B88DB439BB21A467B681A6166
:1012100000BF0C37BD4680BC704700BF002103E013
:101220000A4B5B584350043109480A4B42189A4212
:10123000F6D3094A02E0002342F8043B074B9A42E6
:10124000F9D3FFF7F1FDFFF78DF97047B45F0008A0
:1012500000000020140A0020180A0020A80A00201C
:10126000FEE7000090B484B000AF03460A46FB716D
:101270001346BB710023FB60BB7903F003039B00A3
:101280000F2202FA03F3FB601649BB799B08DBB21D
:101290001846144ABB799B08DBB2023352F823206C
:1012A000FB68DB431A40831C41F823200D48BB79BF
:1012B0009B08DBB21C460B4ABB799B08DBB20233AE
:1012C00052F82320F979BB7903F003039B0001FA5C
:1012D00003F31A43A31C40F8232000BF1037BD4678
:1012E00090BC70470000014081F0004102E000BF67
:1012F00083F0004330B54FEA41044FEA430594EAD6
:10130000050F08BF90EA020F1FBF54EA000C55EA10
:10131000020C7FEA645C7FEA655C00F0E2804FEAE1
:101320005454D4EB5555B8BF6D420CDD2C4480EAC3
:10133000020281EA030382EA000083EA010180EAF3
:10134000020281EA0303362D88BF30BD11F0004F41
:101350004FEA01314FF4801C4CEA113102D0404277
:1013600061EB410113F0004F4FEA03334CEA1333B2
:1013700002D0524263EB430394EA050F00F0A780CA
:10138000A4F10104D5F1200E0DDB02FA0EFC22FAC5
:1013900005F2801841F1000103FA0EF2801843FAB9
:1013A00005F359410EE0A5F120050EF1200E012AAA
:1013B00003FA0EFC28BF4CF0020C43FA05F3C018E8
:1013C00051EBE37101F0004507D54FF0000EDCF161
:1013D000000C7EEB00006EEB0101B1F5801F1BD30A
:1013E000B1F5001F0CD349085FEA30004FEA3C0C0E
:1013F00004F101044FEA445212F5800F80F09A8004
:10140000BCF1004F08BF5FEA500C50F1000041EB07
:10141000045141EA050130BD5FEA4C0C404141EB0B
:10142000010111F4801FA4F10104E9D191F0000F32
:1014300004BF01460020B1FA81F308BF2033A3F1B5
:101440000B03B3F120020CDA0C3208DD02F1140CAC
:10145000C2F10C0201FA0CF021FA02F10CE002F1E7
:101460001402D8BFC2F1200C01FA02F120FA0CFCE0
:10147000DCBF41EA0C019040E41AA2BF01EB045129
:10148000294330BD6FEA04041F3C1CDA0C340EDC27
:1014900004F11404C4F1200220FA04F001FA02F36A
:1014A00040EA030021FA04F345EA030130BDC4F128
:1014B0000C04C4F1200220FA02F001FA04F340EA1D
:1014C0000300294630BD21FA04F0294630BD94F0CE
:1014D000000F83F4801306BF81F480110134013DB5
:1014E0004EE77FEA645C18BF7FEA655C29D094EA26
:1014F000050F08BF90EA020F05D054EA000C04BFA4
:101500001946104630BD91EA030F1EBF002100208E
:1015100030BD5FEA545C05D14000494128BF41F02D
:10152000004130BD14F580043CBF01F5801130BD91
:1015300001F0004545F0FE4141F470014FF000001C
:1015400030BD7FEA645C1ABF194610467FEA655CCD
:101550001CBF0B46024650EA013406BF52EA03356F
:1015600091EA030F41F4002130BD00BF90F0000F5D
:1015700004BF0021704730B54FF4806404F1320499
:101580004FF000054FF0000150E700BF90F0000F52
:1015900004BF0021704730B54FF4806404F1320479
:1015A00010F0004548BF40424FF000013EE700BF49
:1015B00042004FEAE2014FEA31014FEA02701FBFD9
:1015C00012F07F4393F07F4F81F06051704792F0AB
:1015D000000F14BF93F07F4F704730B54FF4607425
:1015E00001F0004521F0004120E700BF50EA010270
:1015F00008BF704730B54FF000050AE050EA01021D
:1016000008BF704730B511F0004502D5404261EB8C
:1016100041014FF4806404F132045FEA915C3FF4CD
:10162000DCAE4FF003025FEADC0C18BF03325FEA66
:10163000DC0C18BF033202EBDC02C2F1200300FA1B
:1016400003FC20FA02F001FA03FE40EA0E0021FA40
:1016500002F11444C1E600BF70B54FF0FF0C4CF42A
:10166000E06C1CEA11541DBF1CEA135594EA0C0FE0
:1016700095EA0C0F00F0DEF82C4481EA030621EA1B
:101680004C5123EA4C5350EA013518BF52EA033556
:1016900041F4801143F4801338D0A0FB02CE4FF008
:1016A0000005E1FB02E506F00042E0FB03E54FF038
:1016B0000006E1FB03569CF0000F18BF4EF0010E30
:1016C000A4F1FF04B6F5007F64F5407404D25FEA2C
:1016D0004E0E6D4146EB060642EAC62141EA5551DF
:1016E0004FEAC52040EA5E504FEACE2EB4F1FD0C21
:1016F00088BFBCF5E06F1ED8BEF1004F08BF5FEA9F
:10170000500E50F1000041EB045170BD06F0004650
:1017100046EA010140EA020081EA0301B4EB5C04FD
:10172000C2BFD4EB0C0541EA045170BD41F48011F5
:101730004FF0000E013C00F3AB8014F1360FDEBF1A
:10174000002001F0004170BDC4F10004203C35DAF6
:101750000C341BDC04F11404C4F1200500FA05F379
:1017600020FA04F001FA05F240EA020001F000421A
:1017700021F0004110EBD37021FA04F642EB060190
:101780005EEA430E08BF20EAD37070BDC4F10C04BA
:10179000C4F1200500FA04F320FA05F001FA04F27E
:1017A00040EA020001F0004110EBD37041F100016A
:1017B0005EEA430E08BF20EAD37070BDC4F1200575
:1017C00000FA05F24EEA020E20FA04F301FA05F2DD
:1017D00043EA020321FA04F001F0004121FA04F285
:1017E00020EA020000EBD3705EEA430E08BF20EA55
:1017F000D37070BD94F0000F0FD101F0004640008F
:1018000041EB010111F4801F08BF013CF7D041EA10
:10181000060195F0000F18BF704703F00046520014
:1018200043EB030313F4801F08BF013DF7D043EAE5
:101830000603704794EA0C0F0CEA135518BF95EA9B
:101840000C0F0CD050EA410618BF52EA4306D1D122
:1018500081EA030101F000414FF0000070BD50EA41
:10186000410606BF1046194652EA430619D094EACB
:101870000C0F02D150EA013613D195EA0C0F05D1B5
:1018800052EA03361CBF104619460AD181EA030109
:1018900001F0004141F0FE4141F470014FF00000C1
:1018A00070BD41F0FE4141F4780170BD70B54FF05C
:1018B000FF0C4CF4E06C1CEA11541DBF1CEA1355DC
:1018C00094EA0C0F95EA0C0F00F0A7F8A4EB0504BE
:1018D00081EA030E52EA03354FEA013100F08880B5
:1018E0004FEA03334FF0805545EA131343EA12637E
:1018F0004FEA022245EA111545EA10654FEA002633
:101900000EF000419D4208BF964244F1FD0404F5EB
:10191000407402D25B084FEA3202B61A65EB030547
:101920005B084FEA32024FF480104FF4002CB6EB04
:10193000020E75EB030E22BFB61A754640EA0C0084
:101940005B084FEA3202B6EB020E75EB030E22BFC4
:10195000B61A754640EA5C005B084FEA3202B6EB05
:10196000020E75EB030E22BFB61A754640EA9C00C4
:101970005B084FEA3202B6EB020E75EB030E22BF94
:10198000B61A754640EADC0055EA060E18D04FEA52
:10199000051545EA16754FEA06164FEAC30343EAF2
:1019A00052734FEAC2025FEA1C1CC0D111F4801FBF
:1019B0000BD141EA00014FF000004FF0004CB6E7B8
:1019C00011F4801F04BF01430020B4F1FD0C88BF57
:1019D000BCF5E06F3FF6AFAEB5EB030C04BFB6EB62
:1019E000020C5FEA500C50F1000041EB045170BD55
:1019F0000EF0004E4EEA113114EB5C04C2BFD4EB82
:101A00000C0541EA045170BD41F480114FF0000E05
:101A1000013C90E645EA060E8DE60CEA135594EA81
:101A20000C0F08BF95EA0C0F3FF43BAF94EA0C0F84
:101A30000AD150EA01347FF434AF95EA0C0F7FF4F9
:101A400025AF104619462CE795EA0C0F06D152EA4D
:101A500003353FF4FDAE1046194622E750EA410631
:101A600018BF52EA43067FF4C5AE50EA41047FF442
:101A70000DAF52EA43057FF4EBAE12E74FF0FF3CA7
:101A800006E000BF4FF0010C02E000BF4FF0010C78
:101A90004DF804CD4FEA410C7FEA6C5C4FEA430CF1
:101AA00018BF7FEA6C5C1BD001B050EA410C0CBF40
:101AB00052EA430C91EA030F02BF90EA020F0020A2
:101AC000704710F1000F91EA030F58BF994208BF09
:101AD00090422CBFD8176FEAE37040F001007047C6
:101AE0004FEA410C7FEA6C5C02D150EA013C07D11D
:101AF0004FEA430C7FEA6C5CD6D152EA033CD3D068
:101B00005DF8040B704700BF8446104662468C4661
:101B10001946634600E000BF01B5FFF7B7FF002894
:101B200048BF10F1000F01BD4DF808EDFFF7F4FFBD
:101B30000CBF012000205DF808FB00BF4DF808ED48
:101B4000FFF7EAFF34BF012000205DF808FB00BF6B
:101B50004DF808EDFFF7E0FF94BF012000205DF88D
:101B600008FB00BF4DF808EDFFF7CEFF94BF012042
:101B700000205DF808FB00BF4DF808EDFFF7C4FF3B
:101B800034BF012000205DF808FB00BF4FEA41028E
:101B900012F5001215D211D56FF47873B3EB6252BF
:101BA00012D94FEAC12343F0004343EA505311F0E6
:101BB000004F23FA02F018BF404270474FF0000078
:101BC000704750EA013005D111F0004008BF6FF0B6
:101BD000004070474FF00000704700BF0EB4F0B5F2
:101BE0009CB021AB0F4953F8042B019305466FF0CD
:101BF0000044086802954FF402774FF6FF7602A979
:101C00000695ADF8147004940794ADF8166000F0D2
:101C10000BF8029B00221A701CB0BDE8F04003B024
:101C2000704700BFC80500202DE9F04FC1B00C4639
:101C3000099115460E930A9002F006FB036817936C
:101C4000184603F0DDF9A38916901E0603D5236913
:101C5000002B01F0198100231A4612932593249337
:101C600019930B93DFF864A4149230AB2393994635
:101C70001592A84698F800304446EBB1252B02D1C6
:101C80001AE0252B03D014F8013F002BF9D1C8EB43
:101C900004058DB1249B259AC9F8008001332A449C
:101CA000072BC9F804502592249300F3A68009F16C
:101CB00008090B9B2B440B932378002B00F0A68084
:101CC00000231A468DF86F3019460C9307934FF096
:101CD000FF3B637804F101085D4608F10108A3F1B8
:101CE0002000582800F22584DFE810F08803230440
:101CF0002304900323042304230423042304230440
:101D00009703A50323045D00E2002304FE00050100
:101D10000501050105010501050105010501050193
:101D2000230423042304230423042304230423047B
:101D300023042304150181022304810223042304C4
:101D400023042304C60223042304CD022304230412
:101D5000230423042304F702230423042503230478
:101D6000230423042304230423042304230423043B
:101D700023046603790381028102810281037903CE
:101D800023042304D1032304DB03A3006400EE0334
:101D90002304F5032304AA0323042304BC030C989F
:101DA0000E9340420C90079B43F00403079398F86E
:101DB000003092E70E98AB46002104688DF86F1052
:101DC000071D0798302378228B458DF870304FF02F
:101DD00000058DF8712040F00203C0F2C78320F0A7
:101DE000800343F00203079354EA05030E9700F0C3
:101DF00093830F461192B348CEE223AA09990A9819
:101E000003F06CF948B90DF1C00952E7259B23B1E5
:101E10000A98099923AA03F061F9099B9B8913F099
:101E2000400F0B9B18BF4FF0FF33184641B0BDE881
:101E3000F08F1193AB46002A41F02382079A12F0EB
:101E4000200300F02E820E9F073727F0070300279C
:101E500003F10801BB450E91D3E900458DF86F7081
:101E6000C0F2528722F08003079354EA050300F082
:101E7000758330AEE20842EA4572E90804F00703D0
:101E80000D461446303354EA050206F8013DF1D1FF
:101E9000079AD10740F18480302B00F081803022F6
:101EA000731E06F8012C30AAD21A0D921E467AE053
:101EB00098F800302A2B08F1010401F0B181A3F158
:101EC0003000092898BF002501F2648114F8013B15
:101ED00005EB850500EB4505A3F130000928F5D990
:101EE00045EAE575A046FAE6079B43F080030793B1
:101EF00098F80030F1E6A3F1300000231C4618F8F2
:101F0000013B04EB840400EB4404A3F130000928F6
:101F1000F5D90C94E3E61193AB46002A41F0C98150
:101F2000079B43F010030793079B980640F1308509
:101F30000E9F073727F00707D7E9002307F10801AD
:101F40000E9114461D46002A73F10003C0F25B8512
:101F5000BBF1000F9DF86F70C0F23885079B23F02E
:101F60008003079354EA050300F0DB81002D08BFCE
:101F70000A2CC0F0DB8130AE204629460A2200231D
:101F800003F04AFD303206F8012D20462946002391
:101F90000A2203F041FD04460D4654EA0503EBD145
:101FA00030AB9B1B0D930D9B5B45B8BF5B46089305
:101FB0000023139317B1089B01330893079B13F079
:101FC00002030F9302D0089B02330893079B13F080
:101FD0008403109340F0D7820C9B089A9D1A002D21
:101FE00040F3D182102D2599249A374F27DD18967A
:101FF00048461024B946099E2F460A9D04E0103F2A
:10200000102F00F1080016DD01322F4B2492103101
:10201000072A259180E81800F1DD23AA31462846D9
:1020200003F05CF800287FF4F8AE103F102F2599DC
:10203000249A30A8E8DC189E3D464F46814601327E
:102040006C18072A25942492C9F80070C9F8045026
:1020500000F328849DF86F7009F1080977B1249B7B
:10206000013301340DF16F010122072B25942493D4
:1020700089E8060000F3A08309F108090F9B6BB102
:10208000249B013302341CA90222072B259424939C
:1020900089E8060000F39C8309F10809109B802B56
:1020A00000F0D5820D9BC3EB0B07002F39DD074AEB
:1020B000249B0F92102F28DD22464FF0100B0A9D13
:1020C000099C0AE05C5E00087C5E0008285E00084F
:1020D000103F102F09F1080916DD01331032072BCC
:1020E0002592249389E8000CF2DD23AA2146284694
:1020F00002F0F4FF00287FF490AE103F102F259AD5
:10210000249B0DF1C009E8DC144601330F9A249397
:102110003C44072B259489E8840000F3418309F1AE
:102120000809079BDA0500F13082249B0D99C9F854
:10213000006001330C44072B2594C9F80410249344
:1021400000F3188309F10809079B59073FD50C9B39
:10215000089A9D1A002D3ADD102D249BBC4F23DDDB
:1021600022461026DDF828B0099C04E0103D102D11
:1021700009F1080917DD0133B54924931032072B03
:10218000259289E84200F1DD23AA2146584602F053
:10219000A5FF00287FF441AE103D102D259A249B09
:1021A0000DF1C009E7DC144601332C44072B2594BC
:1021B0002493C9F80070C9F8045008DD23AA0999CE
:1021C0000A9802F08BFF00287FF427AE259C0B9B1A
:1021D0000C9A08998A42ACBF9B185B180B93002C91
:1021E00040F0D482002324930DF1C00942E51193FD
:1021F000AB46002A41F059800E9F073727F00703AE
:1022000003F108020E921A6814925B681593159BED
:10221000149D23F00044284621464FF0FF328D4B99
:1022200003F0E4FB002840F0C184284621464FF02B
:10223000FF32884BFFF78CFC002840F0B7841498DD
:10224000159900220023FFF779FC002840F04B8706
:102250009DF86F70804E814B079921F080010791A6
:10226000119903224FF0000B08924729D8BF1E4650
:102270000D92CDF84CB09DE6079B43F00803079301
:1022800098F8003029E51193AB46002A41F0098007
:10229000079B43F010030793079A12F020037FF483
:1022A000D2AD079911F0100200F007850E988DF855
:1022B0006F30BBF1000F046800F104074FF0000518
:1022C000C0F221850A4622F08002079254EA0502F4
:1022D0000E9700F043811F46CBE51193AB46002AD1
:1022E00040F0D787079B43F010030793079A12F03B
:1022F000200300F032830E9F073727F007030027E3
:1023000003F10801BB450E91D3E900458DF86F70CC
:10231000C0F25C8322F08003079354EA05037FF444
:1023200025AEBBF1000F00F0FE80002440AE30343B
:1023300006F8414D34E61193AB46002A40F0A587DC
:10234000079B47489D0640F197800E9F073727F06F
:102350000703D3E9004503F108020E92079A12F031
:10236000010700F0418254EA050300F0F5849DF86E
:1023700044208DF871200027079A8DF86F70302364
:10238000BB458DF8703042F00203C0F2A98622F0FE
:10239000800343F00203079330AE230904F00F01DA
:1023A00043EA05732A091C461546435C06F8013DBD
:1023B00054EA0503F1D1F3E50E9911930A688DF8FB
:1023C000982000230A461F468DF86F3004320123FF
:1023D0000893BB4613970E920D9326AEEEE511932C
:1023E000AB46002A3FF4A0AD8DF86F109CE5079B2B
:1023F00043F04003079398F800306EE498F80030FB
:1024000000297FF46AAC0122202166E4079B43F097
:102410000103079398F800305FE40E9C23680C9347
:1024200018460028234603F10403FFF6B8AC0E93C8
:1024300098F8003051E498F8003001222B214CE448
:102440001193AB46002A3FF451AF8DF86F104DE762
:102450007C5E0008FFFFEF7F3C5E0008385E0008EE
:10246000485E00081193AB46002A40F00387079BA3
:1024700099489D063FF569AF079BDC0640F15E84F5
:102480000E9A1346043314680E93002566E798F8F5
:1024900000306C2B00F0E184079840F010000790AA
:1024A0001BE4002A40F0DB86079B9B0640F12F844B
:1024B0000E9A0B991368CD170846043229460E92DE
:1024C000C3E90001FFF7D6BB079B43F02003079346
:1024D00098F8003001E40E9A1193166800248DF8E4
:1024E0006F40171D002E00F0BD85002DC0F20F8536
:1024F0002A462146304602F063F9002800F004869F
:10250000831B0D93A34623EAE3730E970893CDF83C
:102510004CB09DF86F704DE56F481192BBF1000F04
:1025200040F073815F464FF0000BCDF834B030AE11
:1025300039E51193002A40F0B086119A002A3FF441
:1025400065AC002301211F4608918DF898208DF875
:102550006F309B4613930D9126AE2FE5BBF1000F14
:1025600000F0DD8500270024002582E45A48079307
:10257000119254EA05030E974FF000077FF40CAF59
:102580000024002508E7259C68E5119B652B40F396
:10259000A9801498159900220023FFF7C5FA002896
:1025A00000F03581249B4D4AC9F8002001330134E5
:1025B0000122072B25942493C9F8042000F3E68315
:1025C00009F108091D9B129A934203DB079BDB0765
:1025D0007FF5BAAD249B1699179AC9F800200133EC
:1025E0000C44072B2594C9F80410249300F33F846E
:1025F00009F10809129B5D1E002D7FF7A5AD384A31
:10260000249B0F92102D40F3E68110260A9FDDF8DF
:1026100024B005E009F10809103D102D40F3DB81DD
:1026200001331034072B25942493C9F800A0C9F86E
:102630000460EFDD23AA5946384602F04FFD00281A
:102640007FF4EBAB259C249B0DF1C009E4E70C9BC8
:10265000089A9F1A002F7FF725AD214A249B0F92DD
:10266000102F2BDD4A462146B946102537460A9CD5
:10267000099E06E0A9F11009B9F1100F02F1080254
:1026800018DD01331031072B25912493C2F800A0E7
:102690005560EFDD23AA3146204602F01FFD0028D9
:1026A0007FF4BBABA9F11009B9F1100F2599249B58
:1026B00030AAE6DC3E460C464F46914601330F9A5F
:1026C00024933C44072B259489E8840000F3458239
:1026D00009F10809E6E400BF5C5E0008785E0008C6
:1026E000285E0008129B249D012B40F308820135CF
:1026F00001340123072D25942495C9F80060C9F8F9
:10270000043000F30D8209F10809169A179BC9F8E5
:10271000003001351444072D25942495C9F8042070
:1027200000F30E8209F1080900231498159900227C
:10273000FFF7FAF9129B002840F0C380013B0135F6
:1027400001361C44072D24952594C9F80060C9F86A
:10275000043000F3F58009F10809199AC9F804203A
:10276000013514441FAB072D25942495C9F800307A
:102770007FF7E8AC23AA09990A9802F0AFFC002879
:102780007FF44BAB259C0DF1C009DDE423AA099928
:102790000A9802F0A3FC00283FF424ADFFF73DBBEC
:1027A00023AA09990A9802F099FC00287FF435AB16
:1027B000259C0DF1C009B4E423AA09990A9802F0F6
:1027C0008DFC00287FF429AB259C0DF1C00955E450
:1027D00023AA09990A9802F081FC00287FF41DAB16
:1027E000259C0DF1C00959E4BBF1000F8DF86F7005
:1027F000C0F2D88222F08003079354EA05037FF4E5
:10280000CBADBBF1000F3FF48DAE0027B8E61D9DA8
:10281000002D40F3CA82139B129A9342A8BF13461D
:10282000002B1D460DDD249BC9F8006001332C44AC
:10283000072B2594C9F80450249300F39C8309F1D5
:102840000809139B002DA8BF5B1B002B1D4640F3FE
:10285000F680BA4A249B0F92102D40F38A822246BA
:102860001027DDF828B0099C05E009F10809103DA2
:10287000102D40F37D8201331032072B25922493D3
:10288000C9F800A0C9F80470EFDD23AA2146584614
:1028900002F024FC00287FF4C0AA259A249B0DF1A5
:1028A000C009E4E723AA09990A9802F017FC002856
:1028B0007FF4B3AA9DF86F70259C0DF1C009FFF756
:1028C000CDBB5E1E002E7FF748AF9C4B0F93102EA2
:1028D0002CDDCDF834801027B046DDF828B0099EF5
:1028E00006E0A8F11008B8F1100F09F108091ADD87
:1028F00001351034072D25942495C9F800A0C9F896
:102900000470EEDD23AA3146584602F0E7FB0028AA
:102910007FF483AAA8F11008B8F1100F259C249D1C
:102920000DF1C009E4DC4646DDF834800F9B01352B
:102930003444072D2594249589E848007FF70BAF90
:1029400023AA09990A9802F0C9FB00287FF465AA16
:10295000259C249D0DF1C009FFE6079911F0100296
:1029600000F008810E988DF86F30BBF1000F0468FD
:1029700000F104074FF0000526DB0A4622F0800232
:10298000079254EA05020E971F467FF4EFAAC8E4A7
:10299000079BD9062AD4079B5A0627D50E99B1F969
:1029A00000400431E51722462B460E91FFF7CBBAC3
:1029B0000E998DF86F30BBF1000F0C6801F1040720
:1029C0004FF0000580F247820E971F4654EA050338
:1029D0007FF4CCAAAAE401330F9A24932C44072B4A
:1029E000259489E824007FF7ADABC3E60E9A1468FE
:1029F00013460433E51722460E93002A2B4673F143
:102A00000003BFF6A5AA64424FF02D0765EB45050C
:102A1000BBF1000F8DF86F70FFF6A8AA079B23F09B
:102A200080030793FFF7A2BA23AA09990A9802F034
:102A300055FB00287FF4F1A9259C0DF1C009139ADC
:102A40001D9B32441746129A934247DB079AD507DB
:102A500044D412990E44F51BCB1A9D42A8BF1D46C3
:102A6000002D2E460DDD249AC9F8007001322C4449
:102A7000072A2594C9F80450249200F30B8309F126
:102A80000809002EACBF9D1B1D46002D7FF75CABD7
:102A90002A4A249B0F92102D9DDD10260A9FDDF8F7
:102AA00024B004E009F10809103D102D93DD013335
:102AB0001034072B25942493C9F800A0C9F80460AA
:102AC000F0DD23AA5946384602F008FB00287FF4BF
:102AD000A4A9259C249B0DF1C009E5E7249A16982A
:102AE0001799C9F8001001320444072A2594C9F83F
:102AF0000400249200F3A98209F10809A9E7079BC1
:102B0000D8073FF5F4AD013501340123072D259495
:102B10002495C9F80060C9F804307FF71CAE0FE7B0
:102B200023AA09990A9802F0D9FA00287FF475A916
:102B3000259C249D0DF1C009E7E500BF285E000833
:102B400023AA09990A9802F0C9FA00287FF465A916
:102B5000259C249D0DF1C009E6E523AA09990A9850
:102B600002F0BCFA00287FF458A9259C0DF1C00999
:102B7000FFF798BA079911F040033FF419AF0E9888
:102B80008DF86F20BBF1000F048800F104074FF0AF
:102B90000005C0F2B98121F08003079354EA0503D0
:102BA0000E9717467FF4E2A9FFF7BBBB149C2246A1
:102BB0002046159C2346214602F018FF002840F0CD
:102BC0001783119BBBF1FF3F23F020030D9300F00F
:102BD0007082472B00F09281079B43F4807310931F
:102BE000159B1F1E149B0893BBBF3B4603F1004778
:102BF00000232D230F93119B662B00F05D82462B43
:102C000000F051810D9B089A452B21A81EA90CBFED
:102C10000BF101055D46049003911DA802213B467E
:102C20000290019500910A9800F0E2FB119B672B3E
:102C3000064640F09082079BDA0740F1AF82741994
:102C40000898394600220023FEF76EFF002840F066
:102C50009081219B9C4206D930215A1C21921970E7
:102C6000219B9C42F9D89B1B12930D9B472B00F094
:102C70007981119B652B40F37D82119B662B1D9BF7
:102C8000139300F05B82139A12998A42C0F2308249
:102C9000079BD90700F1848222EAE2730D92672232
:102CA00011920F9A002A40F053810893109B0793CA
:102CB00093469DF86F70FFF77DB9079911F04003B7
:102CC00015D00E988DF86F20BBF1000F048800F12D
:102CD00004074FF0000516DB21F08003079354EA48
:102CE00005030E973FF43AAC1746FFF7C2B80E99AA
:102CF0008DF86F30BBF1000F0C6801F104074FF045
:102D0000000580F2A5800E970027FFF7B2B8079B59
:102D1000DF060BD4079B5E0608D50E9A13680432B3
:102D20000E92BDF82C201A80FEF7A4BF0E9A1368ED
:102D300004320E920B9A1A60FEF79CBF0E9A079B04
:102D400013F0400F134603F104030CBF14681488FA
:102D50000E930025FFF702BB0027BB458DF86F706F
:102D6000FFF60EAC079B23F080030793FFF7D6BB5B
:102D7000144601330F9A24932C44072B259489E899
:102D800024003FF751AE09F1080958E623AA099932
:102D90000A9802F0A3F900287FF43FA8259C0DF1C2
:102DA000C0090FE40E9FFFF7E4BB249BB54AC9F8A6
:102DB0000020013301340122072B25942493C9F804
:102DC000042000F38E8009F108092DB9129B1BB96C
:102DD000079BDF077FF5B8A9249B1699179AC9F8B6
:102DE000002001330C44072B2594C9F804102493C8
:102DF00000F3C28109F108096D42002D40F39B8068
:102E0000A14A0F92102D40F3C38022461027DDF80F
:102E100028B0099C05E009F10809103D102D40F388
:102E2000B68001331032072B25922493C9F800A0F5
:102E3000C9F80470EFDD23AA2146584602F04EF986
:102E400000287EF4EAAF259A249B0DF1C009E4E73F
:102E5000079AFFF738BA079A90E5079B43F02003DB
:102E6000079308F1010898F80030FEF736BF23AA4F
:102E700009990A9802F032F900287EF4CEAF259C19
:102E80000DF1C009FFF7B6BB40210A9801F0E0F947
:102E9000099A10601061002800F0E581099A40232A
:102EA0005361FEF7D8BE21A81EA9049003911DA866
:102EB00003210290089ACDF804B03B4600910A988D
:102EC00000F096FA5D460646119B462B06EB05047C
:102ED0007FF4B6AE3378302B00F07C811D9D2C44FE
:102EE000AEE623AA09990A9802F0F8F800287EF4C1
:102EF00094AF1D9D259C0DF1C00966E7BBF1000F45
:102F000008BF4FF0010B67E60E9717465EE53046A7
:102F100002F076F8A34603460D90FFF7F4BA23AA11
:102F200009990A9802F0DAF800287EF476AF259C19
:102F3000249B0DF1C0091299C9F8006001330C44BB
:102F4000072B25942493C9F804107FF7FBA811E4FC
:102F50002D270893109B07938DF86F704FF0000B8F
:102F6000FFF729B81D9BDD1C1EDB9B451CDB139363
:102F700089E6234677E623AA09990A9802F0AEF873
:102F800000287EF44AAF259C0DF1C00959E414468F
:102F900001330F9A24932C44072B259489E82400AD
:102FA000BDDC09F10809C6E7119A023A1192013B0A
:102FB000002B9DF844201D93B8BF5B428DF87C2008
:102FC000B4BF2D222B22092B8DF87D2040F3F180F8
:102FD0000DF18B0004462D4A82FB0321DA17C2EB68
:102FE000A10202EB8201A3EB410303F13001092AA4
:102FF000134604F8011DEEDC21463033DAB201F845
:10300000012D884240F23A810DF17E01234601E014
:1030100013F8012B01F8012B9842F9D1431C1B1B1B
:103020000DF17E0213441FAA9B1A129A1993012ACA
:1030300013440D9340F3EA800D9B169A134400222B
:103040000D93139223EAE3732BE623AA09990A98B6
:1030500002F044F800287EF4E0AE1D9B259C0DF1A3
:10306000C009F6E4062D2B4628BF06230D9323EA5C
:10307000E373B3460E97139637460893044EFEF754
:1030800099BF00BF785E0008285E00086766666624
:10309000705E000823AA09990A9802F01FF8002818
:1030A0007EF4BBAE1D9B129A259CD31A0DF1C0096C
:1030B000E7E44FF0060B8FE521A81EA904900391C9
:1030C0001DA803210290089ACDF804B03B46009158
:1030D0000A9800F08DF95D46064600EB0B04F9E610
:1030E0000793FFF759B92D278DF86F70FFF7B2B826
:1030F000169A129B1344139A0D93002A7EDD6722C1
:1031000023EAE3731192CCE525EAE5730E97089361
:103110000D95834613909DF86F70FEF74BBF079B8C
:10312000DB075F4605D540AE302306F8413DFEF78C
:1031300037BFCDF834B030AEFEF735BF002B7DDDA4
:10314000BBF1000F3DD1079AD4073AD41A460D922D
:1031500023EAE373A5E5119B472B7FF470AD079B32
:10316000DB073FF5B1AE219B9B1B12930D9B472BB9
:103170003FF4F8AE1D9B1AE723AA09990A9801F0BB
:10318000ADFF00287EF449AE1D9D259C249B0DF1CA
:10319000C00931E6A0460025FEF7A1BD219B62E5EE
:1031A000169A139B134467220D93119223EAE3733B
:1031B00077E5303330228DF87F308DF87E2020ABDC
:1031C00031E7139B169A9D1805EB0B030D9323EA29
:1031D000E37366E50898394600220023FEF7A4FC55
:1031E00000287FF47BAEC5F101051D952C4427E531
:1031F000324E334B9DF86F70FFF72EB8139B0D9A2C
:10320000C3F101031A4413460D9278E7079B13F0AC
:1032100001037FF411AF13930D9B23EAE37340E5A1
:103220000E9898F8013005680430002D0E90A046E5
:10323000BEF653AD4FF0FF35FEF74FBDBBF1000FAB
:1032400002D1079BD80707D5169B5D1C05EB0B0326
:103250000D9323EAE37324E501230D9321E58DF813
:103260006F10FFF721B90A9A0C2313604FF0FF305B
:10327000FEF7DCBD8DF86F10FFF7F9B80DF17E0396
:10328000D1E68DF86F10FEF7D9BD8DF86F10FFF7FE
:1032900057B88DF86F10FFF725B88DF86F10FFF74E
:1032A0004CB98DF86F10FEF7F3BF8DF86F10FEF775
:1032B000A3BF8DF86F10FEF733BE00BF445E000859
:1032C000405E000802690B69934200F38D802DE98E
:1032D000F04F03F1FF3801F1140700F1140B57F818
:1032E00028205BF828304FEA880483B00132B3FB12
:1032F000F2F90BEB0403009407EB040A0193B9F114
:10330000000F39D00025BC46DE462B465CF8046B26
:10331000DEF80020B4B209FB0455360C2C0C09FB76
:103320000644ADB25B1BA6B213FA82F3C6EB12469B
:1033300006EB23469BB243EA0643E2454EF8043BC4
:103340004FEA14454FEA2643E0D2009B5BF8033076
:1033500093B9019C231F9B450CD254F8043C4BB9F4
:10336000A4F1080302E01A68043B1AB99B4508F16E
:10337000FF38F8D3C0F81080044601F017FD00288C
:103380002EDB09F101095D46002357F8041B28686C
:103390008AB29A1A090C12FA80F2C1EB104303EBBD
:1033A000224391B241EA0341BA4545F8041B4FEA72
:1033B0002343EAD25BF828200BEB880382B91A1F5B
:1033C00093450BD253F8042C42B9083B02E01A682B
:1033D000043B1AB99B4508F1FF38F8D3C4F81080B4
:1033E000484603B0BDE8F08F0020704700000000A1
:1033F0002DE9F04F016C97B08146239C92469B4685
:1034000049B1426C4A60012393408B6001F0ECFAB1
:103410000023C9F84030BBF1000FD84633DB00234E
:103420002360A54B1A4608EA0303934214D0504682
:10343000594600220023FEF777FB054648B3229A3F
:1034400001231360249B002B00F0C5809B4818606B
:10345000013817B0BDE8F08F229A42F20F73136063
:10346000BAF1000F00F0A2809548249B002BF0D009
:10347000C378002B00F0B18000F10803249A136098
:1034800017B0BDE8F08F01232BF000482360C3463E
:10349000C7E714AA15AB0192009352465B46484613
:1034A00001F02EFD5FEA1854089040F08880149DCA
:1034B000159C2C4404F23243202B40F39182C3F13B
:1034C000400304F2124008FA03F82AFA00F040EA36
:1034D0000800FEF74BF80123013CA1F1F8711093AD
:1034E0000022784BFDF704FF6DA3D3E90023FEF71C
:1034F000B3F86DA3D3E90023FDF7FCFE0646204692
:103500000F46FEF743F86AA3D3E90023FEF7A4F8B9
:1035100002460B4630463946FDF7ECFE06460F469E
:10352000FEF734FB00220490002330463946FEF7B4
:1035300005FB002840F03082049E162E00F22982FE
:10354000614B03EBC603D3E9000152465B46FEF72D
:1035500013FB002800F04982731E049300230C9390
:103560002C1B631E029300F1328200230593049BFF
:10357000002BC0F22382029A0B93114619440023B8
:1035800002910A93209B092B29D8052B40F35886DA
:10359000043B20930025209B023B032B00F2358641
:1035A000DFE813F02C03280237035904444B474A41
:1035B000C8F31300002814BF1846104655E7CBF394
:1035C000130343F07F5110955046A4F2FF3441F4A9
:1035D0004011149D84E73E483BE7C31C4EE70021A1
:1035E000C9F844104846209101F0D8F94FF0FF3354
:1035F0000693209A0D93012307902192C9F8400069
:103600000993159B002BC0F2D180049A0E2A00F377
:10361000CD802D4B03EBC203D3E90034CDE9023456
:10362000219B002BC0F2008356465F465046594608
:10363000DDE902AB52465B46FEF738F9FEF7A6FA23
:103640000446FDF7A3FF52465B46FEF705F80B461E
:10365000024639463046FDF74BFE079D04F1300324
:103660002B70069B012B06460F4605F1010562D023
:103670000022184BFDF7F0FF0022002306460F46FC
:10368000FEF752FA00287ED1CDF81490DDF818A08C
:10369000DDF81CB0DDE9028929E000BFAFF300804E
:1036A00061436F63A787D23FB3C8608B288AC63F48
:1036B000FB799F501344D33F0000F07F795E0008F0
:1036C000985E00080000F83FB05E00088C5E0008BD
:1036D000785E000800002440FDF7BEFF00220023B2
:1036E00006460F46FEF720FA002840F0B783424610
:1036F0004B4630463946FEF7D9F8FEF747FA0446FE
:10370000FDF744FF42464B46FDF7A6FF02460B4637
:1037100030463946FDF7ECFD04F1300E05F801EBBB
:10372000CBEB050ED64506460F464FF00002B04BD8
:10373000D2D1DDF8149032463B4630463946FDF78B
:10374000D9FD06460F4602460B46DDE90201FEF7AB
:10375000F5F940B932463B46DDE90201FEF7E4F9EE
:1037600088B1E3070FD515F8014C079A6B1E04E0EA
:103770009A4200F02C8413F8014D392C03F1010515
:10378000F6D001341C700899484601F02DF900224A
:10379000049B2A70229A01331360249B002B00F0B3
:1037A000A78307981D6017B0BDE8F08F099A002A1B
:1037B00000F01281209A012A40F35882069B0A9A4F
:1037C0005F1EBA42C0F29783D71B069B002BC0F244
:1037D0008A84059D069B059A1A440592029A012146
:1037E0001A444846029201F097F9064665B10299DB
:1037F00000290B4608DDA942059AA8BF2B46D21A1C
:10380000ED1ACB1A059202930A9B002B40F3FC821F
:10381000099A002A00F00182002F00F0FE81314653
:103820003A46484601F01AFADDF820800146424641
:103830000646484601F07AF941460446484601F0FA
:10384000D3F80A9BDB1B0A9340F0E681012148462E
:1038500001F062F90B9B8046002B00F019820146B3
:103860001A46484601F0FAF9209B012B804640F3A6
:10387000F8820027D8F8103008EB8303186901F0AC
:10388000FDF8C0F12000029A104410F01F0000F073
:10389000F681C0F12003042B40F3CA84059BC0F1DC
:1038A0001C00034405931346034405440293059BFF
:1038B000002B05DD21461A46484601F01FFA044652
:1038C000029B002B05DD41461A46484601F016FAD8
:1038D00080460C9B002B40F07C82069B002B40F323
:1038E0009582099B002B40F0F581DDF81CB0069F06
:1038F0005D4602E001F082F8044641462046FFF7AB
:10390000E1FC00F1300A05F801ABCBEB0503BB424B
:103910004FF00A024FF0000321464846EADB079BBE
:10392000069A012AACBF9B1801331D464FF0000BCD
:1039300021460122484601F0E1F94146089001F094
:1039400035FA002840F30D8315F8012C07996B1EFA
:1039500004E08B4200F0788213F8012D392A03F13C
:103960000105F6D001321A704146484601F03CF894
:10397000002E3FF408AFBBF1000F05D0B34503D0D4
:103980005946484601F030F83146484601F02CF8D7
:10399000F9E601230C93E3E5DDF810804046FDF7DE
:1039A000F5FD02460B4630463946FEF7BDF80028C5
:1039B0007FF4C2AD08F1FF330493BDE5059A049B83
:1039C000D21A5B420A93002305920B93DAE55B421D
:1039D000059300230293CAE50A9F059D099E05E70A
:1039E000C3F120080AFA08F073E50C90B8E500BFAF
:1039F0000000244000230993049B219A13440D9353
:103A00000133002B069340F38382069C2646002157
:103A1000172EC9F844100BD9012204235B0003F1CF
:103A20001400B042114602F10102F7D9C9F844105E
:103A3000484600F0B3FF0E2C0790C9F840003FF64F
:103A4000E0AD002D3FF4DDAD04995746D84600297E
:103A5000CDE90E7840F39282914B01F00F020E11E6
:103A600003EBC203F006D3E9004540F14C828D4BD5
:103A700050465946D3E90823FDF718FF06F00F0614
:103A800082468B464FF0030886B1864FF10709D571
:103A900020462946D7E90023FDF7DEFD08F101089D
:103AA00004460D46761007F10807EFD122462B4653
:103AB00050465946FDF7FAFE06460F460C9B43B1A9
:103AC0000022794B30463946FEF738F8002840F09E
:103AD00020834046FDF75AFD32463B46FDF7BCFDCC
:103AE000724B0022FDF706FC069B0446A1F15075BF
:103AF000002B00F0DF81049BDDF818801193099BF7
:103B0000002B00F09782664B694903EBC80353E929
:103B100002230020FDF7CAFE22462B46FDF7E8FBF4
:103B200082468B4630463946FEF730F80446FDF7AC
:103B30002DFD02460B4630463946FDF7D9FB3034A1
:103B4000079DE4B206460F462C7002460B465046CF
:103B500059460135FEF710F800284CD132463B4655
:103B600000205149FDF7C4FB02460B46504659461A
:103B7000FEF702F8002840F00D83B8F1010F40F382
:103B8000B381079B98440DE000204749FDF7B0FB47
:103B900052465B46FDF7D2FF002840F0FB824545C8
:103BA00000F0A281504659460022424BFDF754FDD9
:103BB0000022404B82468B4630463946FDF74CFD8D
:103BC0000F460646FDF7E2FF0446FDF7DFFC02461E
:103BD0000B4630463946FDF78BFB3034E4B2524693
:103BE0005B4605F8014B06460F46FDF7A7FF324638
:103BF0003B460028C8D0119B0493C4E500230993D9
:103C0000219B002B40F389811E461C460D93069391
:103C1000FDE601230993F3E708940A9A08994846B8
:103C200001F01CF8044611E6069B002B3FF7FCACA4
:103C300040F0DA820022204BDDE90201FDF70CFDA5
:103C400052465B46FDF78EFFDDF818804646002899
:103C500000F0F280219B079DDB43049341464846D8
:103C600000F0C2FE002E3FF48EAD8DE6109A002AC1
:103C700000F0418203F233430A9F059DABE51C200F
:103C8000059B03440593029B0344054402930EE6FF
:103C9000209B012B40F382820B9F0120F3E500BFA4
:103CA000B05E0008785F00080000F03F00001C4094
:103CB0000000E03F00002440000014403146002393
:103CC0000A22484600F09AFE0D9B002B064640F360
:103CD00097820693002D05DD31462A46484601F0BD
:103CE0000DF80646002F40F07C810596069B079A4A
:103CF000DDF814B0013BD31808930AF001030993CF
:103D00001746C24651462046FFF7DCFA31460546C3
:103D1000204601F04BF85A4602905146484601F0C1
:103D200065F8C268804605F13003002A49D1014692
:103D30002046069301F03AF841460590484600F0C7
:103D400053FE059A069B2AB9209919B909990029A9
:103D500000F0368202990029C0F2E48005D1209952
:103D600019B90999002900F0DD80002A00F34D817E
:103D7000089A3B7007F101089742454600F05481CC
:103D8000214600230A22484600F038FE5E450446DC
:103D900031464FF000034FF00A0248460BD000F0C6
:103DA0002DFE5946064600230A22484600F026FE0C
:103DB00047468346A6E700F021FE4746064683466F
:103DC000A0E701464846059300F00EFE0122059B40
:103DD000C0E74146204600F0E9FF0028BFF67DAD70
:103DE0002146049C0023013C0A224846049400F02A
:103DF00005FE099B0446002B7FF460AF0D9B002B52
:103E000040F3F681069370E5089C1FE5209B022B8A
:103E10007FF767AD069B002B40F079814146052274
:103E2000484600F0EBFD01468046204600F0BEFF0C
:103E3000002808947FF70EAF049A079931230132C6
:103E400004920B704D1C09E7049A01320492079A00
:103E50003123137088E501230993CDE5DDF8149033
:103E600091E4BAF1000F7FF404ADCBF31303002B00
:103E700040F03F812BF000473F0D3F0537B1059BD8
:103E800001330593029B0133029301270B9B012011
:103E9000002B3FF4F8ACEDE44046FDF777FB3246EB
:103EA0003B46FDF7D9FB0022BF4BFDF723FA044642
:103EB000A1F15075304639460022BC4BFDF718FA87
:103EC00022462B4606460F46FDF756FE8046002842
:103ED00040F00581224605F1004330463946FDF7A2
:103EE0002DFE08B14646B5E6DDE90EABFFF789BB0E
:103EF0000798FFF7AEBA0A9B0B9A0A97FB1A1A4467
:103F00000B92002761E4DDE90EAB4FF00208BBE540
:103F10001C460021C9F844108AE5012421940D941F
:103F20000694F6E7002AD046CDF814B09A4611DD83
:103F300021460122484600F0E1FE4146044600F0D9
:103F400035FF002840F34981BAF1390F00F00681AE
:103F500005F1310AB34687F800A07D1C059E089440
:103F600002E504D11AF0010F01D0EDE4154615F871
:103F7000013C302B05F1FF32F8D0F5E4049B5C42A4
:103F8000002C00F0BF808A4B04F00F0203EBC20349
:103F9000D3E90023DDE90E01FDF75EFB241106469F
:103FA0000F4600F02A81834D4FF00208E20709D541
:103FB00030463946D5E90023FDF74EFB08F10108EC
:103FC00006460F46641005F10805EFD176E507991E
:103FD00030220A70049A15F8014C01320492FFF75E
:103FE000D0BB7168484600F0D9FC33699A1C05467D
:103FF000920006F10C010C3000F032FC294601223F
:10400000484600F07BFE059070E6392BCDF814B0E1
:10401000D04600F0A38003F1010AB34687F800A060
:104020007D1C059E08949FE45A46D046B3469A46A6
:1040300016467DE45E4908F1FF3A01EBCA012246CB
:104040002B46D1E90001FDF707FBCDE91201394606
:104050003046FDF79BFD0446FDF798FA02460B46F5
:1040600030463946FDF744F9079A3034B8F1010F6C
:1040700006460F46147002F101051ED0079B03EBA4
:10408000080BA84600224C4B30463946FDF7E4FAAF
:104090000F460646FDF77AFD0446FDF777FA303401
:1040A00002460B4630463946FDF722F908F8014B27
:1040B000C34506460F46E5D1554400223F4BDDE996
:1040C0001201FDF717F932463B46FDF737FD002890
:1040D0004CD0119B049315F8014CFFF746BB4FF0F1
:1040E00000084646A8E6059B069A9D1A0023FFF79E
:1040F00072BB0027CAE6149B0A9F059DC3F13603D5
:10410000FFF769BBDDE90E674FF00208D6E40894BB
:10411000A0E5069B002B3FF4BFAE0D9B002B7FF765
:10412000E3AE0022244B30463946FDF795FA0646A9
:104130000F4608F10100FDF729FA32463B46FDF72C
:104140008BFA0022184BFDF7D5F8049ADDF834807D
:10415000013A0446A1F150751192D0E43922B346D8
:104160000894059E3A707D1CFFF7F0BBDDE9122331
:1041700000201249FDF7BCF832463B46FDF7FCFC37
:1041800008B9B1E6154615F8013C302B05F1FF32B0
:10419000F8D030E5119B0493FFF7E7BABAF1000FAE
:1041A0007FF47AAD61E600BF00001C4000001440BF
:1041B000B05E0008785F0008000024400000E03F87
:1041C000392BCDF814B0D046DDF808B09A46C5D0EA
:1041D000BBF1000F3FF7BCAEBCE67FF4BBAE1AF0FC
:1041E000010F3FF4B7AEAFE64FF00008464631E5A9
:1041F000209B022B21DC0D9B04E64FF002085DE4BE
:10420000209B022B19DC0D9B63E50024C9F8444078
:104210002146484600F0C2FB4FF0FF3306930D9352
:10422000012307902194C9F840000993FFF7E9B9E9
:104230003FF43DABC0F13C0022E50D9B0693E9E560
:104240000125FFF7A8B900BF00487047CC05002042
:104250002DE9F04F01F10B05162D83B0064640F213
:104260009F8035F0070500F1BF80A94200F2BC80B5
:1042700000F090FBB5F5FC7FC0F09C826B0A00F06B
:10428000BA80042B00F28381A80900F1390E4FEAAD
:104290004E033830C44F07EB8303A3F108015C6879
:1042A000A14207D1ACE0002A80F2AC80E468A142D0
:1042B00000F0A680636823F003035A1B0F2AF2DD87
:1042C000B9493C6901F1080E744500F0B381636897
:1042D00023F003035A1B0F2A00F39981002AC1F827
:1042E00014E0C1F810E080F29E80B3F5007F80F00A
:1042F0006781DB0803F1010C01229B1002FA03F332
:104300004A6851F83C80C4F8088001EBCC091A4394
:10431000A9F10803E3604A6041F83C40C8F80C404A
:10432000831001249C40944200F28A80144206D1FA
:1043300020F003006400144200F10400FAD007EBFF
:10434000C009CC468046DCF80C108C4507D173E1DF
:10435000002A80F28181C9688C4500F06D814B682C
:1043600023F003035A1B0F2AF2DD0C46D1F80CC0D0
:1043700054F8088F4B1945F001054D6042F00101DA
:10438000C8F80CC03046CCF808807B613B61C3F8AC
:104390000CE0C3F808E059609A5000F0FDFA1FE005
:1043A000102921D800F0F6FA1025062302207E4FAE
:1043B00007EB8303A3F108025C68944200F0458197
:1043C0006368E168A56823F00303234430465A6814
:1043D000E96042F001028D605A6000F0DDFA0834B5
:1043E000204603B0BDE8F08F00240C232046336044
:1043F00003B0BDE8F08F80234FF0400E3F2049E727
:1044000070465DE72344E1685A68A56842F00102FE
:10441000E96030468D605A6000F0BEFA08342046EC
:1044200003B0BDE8F08F234430465A6842F00102E1
:104430005A6000F0B1FA0834204603B0BDE8F08FAE
:10444000BC68636823F00308A84504D3C5EB0803E0
:104450000F2B00F38C80554BDFF860911A68D9F868
:10446000003001332A4404EB080A00F0608102F5B1
:1044700080520F3222F47F6222F00F021146304642
:10448000019200F099FDB0F1FF3F8346019A00F0E0
:104490005881824500F2FC80454B1968DA45114489
:1044A000196000F05381D9F80000DFF810E1013005
:1044B0001BBFCAEB0B0A5144CEF800B019601BF0C9
:1044C000070100F01781C1F10800C1F58051834454
:1044D00008315A44C2F30B02C2EB01094946304687
:1044E000019300F069FD431C019B00F03F81CBEB81
:1044F00000024A4442F001021968C7F808B0494472
:10450000BC42CBF804201960DFF8A49016D0B8F1B3
:104510000F0F40F2FD806268A8F10C0323F007033F
:10452000E01802F001024FF0050E1A430F2B6260F3
:10453000C0F804E0C0F808E000F21C811D4BBC6824
:104540001A68914288BF19601B4B1A6891426268D1
:1045500088BF196022F003029542A2EB050301D83F
:104560000F2B04DC304600F017FA002438E76219FC
:1045700043F0010345F0010565603046BA605360C1
:1045800000F00AFA0834204603B0BDE8F08F142B7F
:1045900071D9542B00F2A480280B00F16F0E4FEA62
:1045A0004E036E3076E600BF04060020780A002035
:1045B0007C0A0020740A0020700A0020100A0020E3
:1045C0005A0A042A5ED9142A00F2B38002F15C016F
:1045D00049005B3207EB810C57F82110DFF8DC81D2
:1045E000ACF1080C8C4500F088804A6822F0030288
:1045F000934202D289688C45F7D1D1F80CC07A6811
:10460000C4F80CC0A160CCF80840CC6088E66319FF
:1046100042F0010745F00105656030464B610B61D2
:10462000C3F80CE0C3F808E05F609A50083400F06B
:10463000B3F9D5E64A6873E608F1010818F0030FEC
:104640000CF1080C7FF47FAE30E0DC68A34208BFB9
:1046500002303FF435AEB3E60B440C465A68C968E5
:1046600054F8085F42F001025A603046E9608D60FC
:1046700000F092F9B4E603F15C0E03F15B004FEA3F
:104680004E0307E69A0902F1390149003832A1E7E1
:10469000BC424A4B3FF400AF9C68626822F00302C0
:1046A0005AE759F80839994540F0828010F0030F15
:1046B00000F1FF30F5D17B6823EA04037B606400DE
:1046C0009C423FF6BDAE002C3FF4BAAE1C424046C1
:1046D0007FF435AE64001C4200F10400FAD02EE6EF
:1046E000B3F5AA7F18D8E80B00F1780E4FEA4E0315
:1046F0007730CFE54FF48051EBE60121D8F8043054
:10470000921001FA02F21A43C8F80420614677E7D2
:104710000123CBF8043025E740F25452934220D8CD
:10472000A80C00F17D0E4FEA4E037C30B2E510324A
:10473000A4E6542A26D81A0B02F16F0149006E3202
:1047400048E7BC68626822F0030205E7CAF30B0081
:1047500000287FF4A8AE4244BB6842F001025A60D0
:10476000ECE6FE234FF07F0E7E2093E501224FF012
:104770000009C1E604F10801304600F0ADFDD9F8AA
:104780000010DBE6B2F5AA7F05D8DA0B02F178015A
:10479000490077321EE740F254518A4205D89A0CFC
:1047A00002F17D0149007C3214E7FE217E2211E7EF
:1047B0007B6884E7E808431C5B00F8E504060020FA
:1047C00001F0FF01102A2BDB10F0070F08D010F8C2
:1047D000013B013A8B422DD010F0070F42B3F6D1C6
:1047E000F0B441EA012141EA014122F007047FF0DF
:1047F00000070023F0E80256083C85EA010586EA36
:10480000010685FA47F5A3FA87F586FA47F6A5FA71
:1048100087F68EB9EED1F0BC01F0FF0102F007027D
:1048200032B110F8013B013A83EA010313B1F8D128
:104830000020704701387047002D06BF3546033809
:10484000073815F0010F07D1013015F4807F02BF42
:10485000013015F4C03F0130F0BC0138704700BF93
:10486000844641EA000313F003036DD1403A41D37B
:1048700051F8043B40F8043B51F8043B40F8043B3A
:1048800051F8043B40F8043B51F8043B40F8043B2A
:1048900051F8043B40F8043B51F8043B40F8043B1A
:1048A00051F8043B40F8043B51F8043B40F8043B0A
:1048B00051F8043B40F8043B51F8043B40F8043BFA
:1048C00051F8043B40F8043B51F8043B40F8043BEA
:1048D00051F8043B40F8043B51F8043B40F8043BDA
:1048E00051F8043B40F8043B51F8043B40F8043BCA
:1048F000403ABDD2303211D351F8043B40F8043B6A
:1049000051F8043B40F8043B51F8043B40F8043BA9
:1049100051F8043B40F8043B103AEDD20C3205D379
:1049200051F8043B40F8043B043AF9D2043208D071
:10493000D2071CBF11F8013B00F8013B01D30B88E3
:1049400003806046704700BF082A13D38B078DD0C1
:1049500010F003038AD0C3F10403D21ADB071CBF93
:1049600011F8013B00F8013B80D331F8023B20F8FD
:10497000023B7BE7043AD9D3013A11F8013B00F836
:10498000013BF9D20B7803704B7843708B788370BE
:1049900060467047704700BF704700BFC36C70B57A
:1049A00005460C464BB153F8240080B1026843F829
:1049B000242000230361C36070BD2122042100F084
:1049C0000DFCE86403460028EDD1002070BD0121F4
:1049D00001FA04F6721D2846920000F0FFFB002841
:1049E000F3D044608660E4E731B1C36C4A6853F8A1
:1049F0002200086043F82210704700BFF0B50C6930
:104A000083B00D46064601F1140E0027DEF80000C3
:104A100081B202FB01310B0C000C02FB003389B2A6
:104A2000013701EB0341BC424EF8041B4FEA13432C
:104A3000ECDC3BB1AA68944207DA05EB840201344E
:104A400053612C61284603B0F0BD696801930131C0
:104A50003046FFF7A3FF2A69023205F10C01074631
:104A600092000C30FFF7FCFEF26C6968019B52F873
:104A70002100286042F821503D46DEE7030C1B046C
:104A8000B3B90004102310F07F4F04BF00020833B5
:104A900010F0704F04BF0001043310F0404F04BF0A
:104AA00080000233002807DB420003D42020704737
:104AB0000023E8E7581C704718467047036813F056
:104AC000070207D0D90720D49A0720D49B08036097
:104AD0000220704799B209B91B0C102213F0FF0F86
:104AE00004BF1B0A0832190704BF1B0904329907C7
:104AF00004BF9B080232D90704D45B0801D12020EF
:104B000070470132036010467047002070475B0811
:104B100003600120704700BF10B50C460121FFF76C
:104B20003DFF01224461026110BD00BF2DE9F04F3D
:104B30000D691769BD4283B00C46164604DA2A4651
:104B400034463D460E461746A368616805EB0708E4
:104B50009845C8BF0131FFF721FF00F1140C0CEBA1
:104B60008809CC45009005D26346002143F8041B18
:104B70009945FBD806F1140202EB870A04F11403ED
:104B8000524503EB850E54D2CDF80490994652F865
:104B9000043B1FFA83FBBBF1000F20D000204F46DF
:104BA0006646054600E01E4657F8044B3068A1B241
:104BB00083B20BFB0131240C000C4B190BFB0400DE
:104BC00000EB134099B2334641EA0041BE454FEA3B
:104BD000104543F8041BE6D8756052F8043C5FEAC0
:104BE000134B20D0DCF80030674618464D460021B4
:104BF00000E037462C88000C0BFB040001449CB2FB
:104C00003E4644EA014346F8043B786855F8044BB5
:104C100083B2240C0BFB043404EB1143AE454FEA82
:104C20001341E6D87B6092450CF1040CAFD8DDF857
:104C30000490B8F1000F0BDD59F8043CA9F1040908
:104C40001BB105E059F8043D13B9B8F10108F9D1D9
:104C50000098C0F8108003B0BDE8F08F12F0030395
:104C60002DE9F041144607462ED10E46A4101CD063
:104C7000BD6C95B3E3074FF0000806D4641014D060
:104C80002868A8B10546E307F8D52A4631463846D4
:104C9000FFF74CFFB6B17268FB6C641053F822103A
:104CA000316043F822600646EAD13046BDE8F08123
:104CB0002A4629463846FFF739FF2860C0F80080A9
:104CC0000546E0E70646D9E75A1E0B4D002355F886
:104CD0002220FFF793FE0646C8E701213846FFF77A
:104CE0005DFE40F27121012200234161026105460F
:104CF000B8640360BEE700BFA05F00082DE9F0477D
:104D000091460A698B684FEA691404EB020808F1BE
:104D100001059D420E468246496804DD5B009D42C6
:104D200001F10101FADC5046FFF738FE002C00F1DA
:104D3000140238DD02EB8403002142F8041B934285
:104D4000FBD1346906F1140119F01F0901EB840E3F
:104D500021D0C9F1200200240F6807FA09FC4CEAAF
:104D600004049C4643F8044B51F8044B8E4524FA46
:104D700002F4F1D8CCF804400CB108F10205DAF8DD
:104D80004C307268013D53F822100561316043F8E0
:104D90002260BDE8F087043B51F8042B43F8042F50
:104DA0008E45F9D8EBE71346CBE700BF02690B69E4
:104DB000D21A12D19B0014301431194410B4034498
:104DC00001E098420BD253F8044D51F8042D94425F
:104DD000F7D007D3012010BC704710467047002061
:104DE00010BC70474FF0FF30F5E700BF2DE9F843E6
:104DF0000B690F4611695B1A002B904617D1890089
:104E000007F1140208F114055318294401E09A42ED
:104E10005ED253F8046D51F8044DA642F7D060D22B
:104E20003B46144647464FF00109984606E05DDBD5
:104E300007F1140502F114044FF000097968FFF737
:104E4000ADFDD8F810303E69C0F80C9004EB830C2F
:104E5000A64605EB860700F1140400235EF8041B48
:104E600055F8048B8AB213FA88F3090C9A1AC1EB2D
:104E7000184303EB224392B242EA0342F44544F85A
:104E8000042B4FEA2343E9D8AF4217D9A446294659
:104E900051F804EB13FA8EF2131403EB1E4392B293
:104EA00042EA03428F424CF8042B4FEA2343EFD8E7
:104EB000ED433D4425F0030504352C44043C22B960
:104EC00054F8043D013E002BFAD00661BDE8F8839A
:104ED0000021FFF763FD0122002302614361BDE869
:104EE000F8832C464FF000091546A7E73B4607F12B
:104EF000140408F1140547464FF0010998469DE750
:104F00002DE9F04182B001211C46C3F30A57154632
:104F1000089EFFF743FDC4F3130480460FB144F429
:104F2000801401941DB302A840F8085DFFF7C6FD88
:104F3000002834D19DE80C00C8F81420002B0CBFC9
:104F400001210221C8F81830C8F81010DFB908EBA9
:104F50008103A0F2324030601869FFF78FFD099B92
:104F6000C0EB41101860404602B0BDE8F08101A8D6
:104F7000FFF7A4FD019BC8F8143001212030C8F8C8
:104F80001010002FE3D0099BA7F233470744C0F16C
:104F9000350037601860404602B0BDE8F0819DE8FA
:104FA0000C00C0F1200103FA01F10A43C340019350
:104FB000C8F81420C2E700BF38B5074C00230546E7
:104FC00008462360FBF7E2FF431C00D038BD23688E
:104FD000002BFBD02B6038BDA40A0020000000008D
:104FE00000000000000000000000000000000000C1
:104FF00000000000000000000000000000000000B1
:1050000090F800F06DE9024520F007016FF0000C08
:1050100010F0070491F820F040F049804FF00004B0
:105020006FF00700D1E9002391F840F000F108008B
:1050300082FA4CF2A4FA8CF283FA4CF3A2FA8CF3C3
:105040004BBBD1E9022382FA4CF200F10800A4FA2A
:105050008CF283FA4CF3A2FA8CF3E3B9D1E904237E
:1050600082FA4CF200F10800A4FA8CF283FA4CF3B5
:10507000A2FA8CF37BB9D1E9062301F1200182FA6F
:105080004CF200F10800A4FA8CF283FA4CF3A2FA75
:105090008CF3002BC6D0002A04BF04301A4612BA83
:1050A000B2FA82F2FDE8024500EBD2007047D1E986
:1050B000002304F00305C4F100004FEAC50514F015
:1050C000040F91F840F00CFA05F562EA05021CBFE6
:1050D00063EA050362464FF00004A9E72DE9F04FAB
:1050E000936883B09046002B72D083464FF000093E
:1050F000166808688B680D464C46002C45D09C42CB
:105100001F469A4646D3AB8913F4906F2DD06F6932
:10511000296907EB4707C1EB000A07EBD777601C4B
:105120007F105044B8423A4684BF07463A465B0572
:1051300033D511465846FFF78BF8002837D0524632
:1051400029690190FFF78CFBAA89019B22F49062E8
:1051500042F08002AA81CAEB070203EB0A006F61EA
:105160002B612860AA602746A2465246494600F0B5
:105170009BF9D8F80820AB682868DB1B5044141B47
:10518000AB602860C8F8084014B3D6F80090746883
:105190000836B2E72746A246E7E7584600F036FA57
:1051A00003460028D7D12969584600F095F80C230A
:1051B000CBF80030AB89002243F040034FF0FF30C2
:1051C000AB81C8F80820C8F8042003B0BDE8F08F10
:1051D0000020C8F8040003B0BDE8F08F10B502FB52
:1051E00001F1FFF735F80446D8B150F8042C22F04D
:1051F0000302043A242A18D8132A14D900231B2A9C
:105200000360436016D9242A8360C36011BF00F194
:1052100010020361436100F1180200231360536020
:105220009360204610BD0246F7E7002100F0A0F988
:10523000204610BD00F10802EFE700BFF8B5234F8C
:105240000C460646FFF7A6FBBB685D6825F0030524
:10525000291B01F6EF7121F47F6121F00F01A1F507
:105260008054B4F5805F07DB00213046FFF7A4FED1
:10527000BB682B44984204D03046FFF78DFB0020DA
:10528000F8BD61423046FFF797FE01300DD0104B5C
:10529000BA6819682D1B45F001053046091B556099
:1052A0001960FFF779FB0120F8BD00213046FFF7B8
:1052B00083FEBA68831A0F2BDEDD064C044924688E
:1052C00043F00103001B53600860D5E7040600208B
:1052D0007C0A0020100A0020002945D02DE9F04169
:1052E0000D468046FFF756FB55F8047C6A4927F0C7
:1052F0000103A5F10804E2188E685068B24220F05C
:10530000030062D0FE0750600BD455F8087CE41B04
:1053100001F1080EA56875453B446FD0E768EF6062
:10532000BD6015186D68ED0742D543F0010262605B
:10533000E350B3F5007F18D2DB085A1C4D6851F8D2
:105340003270A76001209B1000FA03F301EBC2004A
:105350001D430838E0604D6041F83240FC60404633
:10536000BDE8F041FFF718BB70475A0A042A53D82A
:105370009A0902F139077F0002F1380501EB870035
:1053800051F827204449083890424DD0516821F007
:1053900003018B4202D292689042F7D1D068E0605C
:1053A000A2608460D4604046BDE8F041FFF7F4BAE3
:1053B00095683A4FBD4203443FD0D068E86043F05F
:1053C000010285606260E350B3E7FF07034407D43E
:1053D00055F8082CA41A1344A068E268C2609060D3
:1053E0002F4A126843F00100934260608C60B6D38C
:1053F0002C4B40461968FFF721FFB0E711184968A8
:10540000C90744D49168D268CA60034443F00100DC
:1054100091606060E350A2E7142A17D802F15C079C
:105420007F0002F15B05A9E7AA104B68012505FA88
:1054300002F213434B600246B1E743F001024C61B4
:105440000C61E560A5606260E35088E7542A06D8E5
:105450001A0B02F16F077F0002F16E058EE7B2F5BD
:10546000AA7F06D8DA0B02F178077F0002F17705F0
:1054700084E740F25450824206D89A0C02F17D072C
:105480007F0002F17C0579E7FE277E2576E743F071
:1054900001026260E35062E7040600200C0600206F
:1054A0000C0A0020780A00208842F0B50DD98B182C
:1054B00098420AD28118002A51D09A1A13F8014D45
:1054C00001F8014D9342F9D1F0BD0F2A48D941EAC4
:1054D00000039B0746D100F1100401F110031546AB
:1054E00053F8106C44F8106C53F80C6C44F80C6CC6
:1054F00053F8086C44F8086C103D53F8046C44F8F9
:10550000046C0F2D03F1100304F11004E8D8A2F18C
:10551000100323F00F0302F00F0E1033BEF1030F40
:105520001944034421D91E1F0D467446043C55F806
:10553000047B46F8047F032CF8D8AEF1040424F071
:10554000030404342344214402F0030262B1013B0A
:105550000A4411F8014B03F8014F8A42F9D1F0BD1A
:105560000346F3E70346F2E7F0BD7246EEE700BFFD
:1055700070B4840746D0541E002A41D0CDB20346F1
:1055800002E0621EE4B3144603F8015B9A07F8D107
:10559000032C2ED9CDB245EA05250F2C45EA054549
:1055A00019D903F110022646103E0F2E42F8105C66
:1055B00042F80C5C42F8085C42F8045C02F110020C
:1055C000F2D8A4F1100222F00F0204F00F041032FE
:1055D000032C13440DD91E462246043A032A46F8EA
:1055E000045BFAD8221F22F003020432134404F0B1
:1055F00003042CB1C9B21C4403F8011BA342FBD124
:1056000070BC704714460346C2E700BF2DE9F04F57
:10561000174683B0002900F0C1800E46814607F18D
:105620000B05FFF7B7F956F804EC162D2EF003041E
:10563000A6F1080840D810221546AF4241D894423E
:1056400075DAC94B996808EB04008842416800F09C
:10565000D98021F0010303445B68DB077DD51EF090
:10566000010F35D039464846FEF7F2FD0746E0B156
:1056700056F8043C23F001034344A0F108029A4287
:1056800000F04481221F242A00F23181132A00F203
:105690000481034632461168196051685960926866
:1056A0009A6031464846FFF717FE4846FFF774F9FF
:1056B000384603B0BDE8F08F25F00705002D2A46D7
:1056C000BBDA0C230020C9F8003003B0BDE8F08F2E
:1056D00056F8083CC3EB080ADAF8043023F0030C50
:1056E00004EB0C039342BDDB5746DAF80C1057F875
:1056F000080F221F242AC160886000F21781132A34
:1057000040F212813168CAF808107168CAF80C10AA
:105710001B2A00F22B8108360AF110023168116051
:1057200071685160B16891603E461C46D046631B6B
:105730000F2B1DD8D8F8043003F001032343444451
:10574000C8F80430636843F0010363604846FFF71C
:1057500023F9304603B0BDE8F08F21F00301214466
:10576000914221DBC36882680C46D3609A60DEE711
:10577000D8F8042008EB050102F00102154343F0BC
:1057800001020B44C8F804504A605A6842F0010212
:1057900008315A604846FFF79FFDD7E7114603B02E
:1057A000BDE8F04FFEF754BD1EF0010F7FF45AAF75
:1057B00056F8083CC3EB080ADAF8043023F0030C6F
:1057C00001EB0C0E96458BDBC36882685746D360AD
:1057D0009A6057F8081FDAF80C30CB60221F242A91
:1057E000996000F29980132A62D93368CAF80830A8
:1057F0007368CAF80C301B2A00F2A08008360AF140
:10580000100356E021F0030BA34405F1100083457B
:1058100059DA1EF0010F7FF425AF56F8081CC1EBD2
:10582000080ADAF8041021F0030CE34458453FF766
:1058300057AF5746DAF80C1057F8080F221F242AE2
:10584000C160886000F2B480132A40F2A5803168FC
:10585000CAF808107168CAF80C101B2A00F2AF8051
:1058600008360AF110023168116071685160B16840
:1058700091600AEB0501C5EB0B0242F00102996051
:105880004A60DAF8043003F001031D434846CAF8C1
:105890000450FFF781F838465CE7336803607368AB
:1058A00043601B2A27D800F1080306F10802F2E63C
:1058B0003B4632681A6072685A60B2689A603E4627
:1058C0007446D04633E708EB0501C5EB0B0B4BF0F4
:1058D000010299604A6056F8043C03F001031D433D
:1058E000484646F8045CFFF757F8304632E7314641
:1058F000FFF7DAFDD5E6B3688360F368C360242A56
:1059000028D000F1100306F11002C4E650F8043C60
:1059100023F003031C440AE7314638467446D04658
:10592000FFF7C2FD3E4602E73A46F7E63146384603
:105930001C46D046FFF7B8FD3E46F8E6B368CAF805
:105940001030F368CAF81430242A1BD010360AF13C
:105950001803AEE7336903617369436106F1180206
:1059600000F1180397E600BF04060020B168CAF8EA
:105970001010F168CAF81410242A0FD010360AF15A
:105980001802CBE63369CAF818307369CAF81C30BC
:1059900018360AF120038CE73A4664E73269CAF800
:1059A00018207269CAF81C2018360AF12002B5E6E0
:1059B000314638460193FFF777FD019B59E7B168FF
:1059C000CAF81010F168CAF81410242A03D010364F
:1059D0000AF1180247E73269CAF818207269CAF852
:1059E0001C2018360AF120023DE700BF4FEA410CA7
:1059F0007FEA6C5C02D150EA013C0AD14FEA430CC9
:105A00007FEA6C5C02D152EA033C02D14FF0000005
:105A100070474FF00100704753B94AB9002908BFD9
:105A200000281CBF4FF0FF314FF0FF3000F07EB96F
:105A3000ADF1080C6DE904CE00F006F8DDF804E0E5
:105A4000DDE9022304B070472DE9F0478C460E468D
:105A50000446089D002B50D18A4217466CD9B2FAF1
:105A600082FEBEF1000F0BD0CEF1200420FA04F428
:105A700001FA0EF644EA060C02FA0EF700FA0EF4EA
:105A80004FEA1749220CBCFBF9F01FFA87F809FB13
:105A900010C642EA064600FB08F3B34209D9F619DC
:105AA00000F1FF3280F02281B34240F21F810238C0
:105AB0003E44F61AA2B2B6FBF9F309FB136642EABA
:105AC000064403FB08F8A04509D9E41903F1FF32A5
:105AD00080F00A81A04540F20781023B3C44C8EBBC
