:020000040800F2
:1000000000A00020D92800081D2900081D2900088B
:100010001D2900081D2900081D29000800000000F6
:100020000000000000000000000000001D29000882
:100030001D290008000000001D2900081D290008D6
:100040001D2900081D2900081D2900081D29000878
:100050001D2900081D2900081D2900081D29000868
:100060001D2900081D2900081D2900081D29000858
:100070001D2900081D2900081D2900081D29000848
:100080001D2900081D2900081D2900081D29000838
:100090001D2900081D2900081D2900085915000800
:1000A0001D2900081D2900081D2900081D29000818
:1000B0001D290008E10F00088D1100081D29000806
:1000C0001D2900081D2900081D2900081D290008F8
:1000D0001D2900081D2900081D2900081D290008E8
:1000E0001D2900081D2900081D2900081D290008D8
:1000F0001D2900081D2900081D2900081D290008C8
:100100000000000000000000000000001D290008A1
:100110001D2900081D2900081D2900083D1400089C
:100120001D2900081D2900081D2900081D29000897
:100130001D2900081D290008000000000000000023
:100140001D2900081D2900081D29000800000000C5
:10015000000000000000000000000000000000009F
:1001600000000000000000001D2900081D290008F3
:100170001D29000800000000000000000000000031
:10018000000000001D29000880B400AF1A4A1A4B75
:100190001B6843F0010313601749174B5A68174B4C
:1001A00013404B60144A144B1B6823F0847323F4F0
:1001B00080331360104A104B1B6823F480231360B4
:1001C0000D4A0D4B5B6823F4FE0353600A4A0A4B49
:1001D000DB6A23F47F5323F03F03D3620649064BC7
:1001E0001A6B074B13400B63034B00229A6000BF4E
:1001F000BD4680BC704700BF0010024000C0FFF841
:10020000CCFC000F80B483B000AF0346FB71044AFE
:10021000FB79136000BF0C37BD4680BC704700BF40
:100220000000424280B483B000AF78603960094A70
:10023000084B5B6823F4741353600648054B5A68F7
:1002400079683B680B431343436000BF0C37BD46DE
:1002500080BC70470010024080B483B000AF0346FA
:10026000FB71044AFB79136000BF0C37BD4680BCAC
:10027000704700BF6000424280B485B000AF786034
:100280000023FB60094B5B68FB60FB6823F0030302
:10029000FB60FA687B681343FB60044AFB685360A9
:1002A00000BF1437BD4680BC704700BF001002403D
:1002B00080B485B000AF78600023FB60094B5B68B9
:1002C000FB60FB6823F0F003FB60FA687B68134374
:1002D000FB60044AFB68536000BF1437BD4680BC16
:1002E000704700BF0010024080B485B000AF786056
:1002F0000023FB60094B5B68FB60FB6823F4E06351
:10030000FB60FA687B681343FB60044AFB68536038
:1003100000BF1437BD4680BC704700BF00100240CC
:1003200080B485B000AF78600023FB60094B5B6848
:10033000FB60FB6823F46053FB607B68DB00FA68BA
:100340001343FB60034AFB68536000BF1437BD468C
:1003500080BC70470010024080B485B000AF786068
:100360000023FB607B681B0FFB60FB68002B06D043
:100370000B4A0B4BDB6A23F47853D36205E0084A3F
:10038000074BDB6A23F4F873D3620549044BDA6A3E
:100390007B681343CB6200BF1437BD4680BC7047F7
:1003A0000010024080B483B000AF78600B46FB7051
:1003B000FB78002B06D00949084B5A697B68134328
:1003C0004B6106E00549054B5A697B68DB431340E6
:1003D0004B6100BF0C37BD4680BC70470010024027
:1003E00080B483B000AF78600B46FB70FB78002BC5
:1003F00006D00949084B9A697B6813438B6106E074
:100400000549054B9A697B68DB4313408B6100BF4C
:100410000C37BD4680BC70470010024080B483B0EA
:1004200000AF78600B46FB70FB78002B06D00949C3
:10043000084BDA697B681343CB6106E00549054B3D
:10044000DA697B68DB431340CB6100BF0C37BD46E4
:1004500080BC70470010024090B583B000AF00230D
:10046000FB7112E097F9072097F9073003F1007349
:1004700003F57A439B001B689D4941F8223097F9A8
:100480000730DBB20133DBB2FB7197F90730182B71
:10049000E8DD974B1B6843F22102934240F0238131
:1004A000934B5B689AB2934B1A80914B9B685AB2FC
:1004B000914B1A708E4BDB68184604F095FD4FF097
:1004C00000028E4B04F020FF03460C468C4AC2E922
:1004D0000034874B1B69184604F086FD4FF000027C
:1004E000864B04F011FF03460C46864AC2E90034ED
:1004F0007F4B5B69184604F077FD4FF000027F4B9D
:1005000004F002FF03460C467E4AC2E90234784BEF
:100510009B69184604F068FD4FF00002774B04F029
:10052000F3FE03460C46784AC2E90034704BDB699F
:10053000184604F059FD4FF00002704B04F0E4FE41
:1005400003460C46704AC2E90234694B1B6A1846DE
:1005500004F04AFD4FF00002684B04F0D5FE03465C
:100560000C46694AC2E90434614B5B6A184604F0E0
:100570003BFD4FF00002614B04F0C6FE03460C4603
:10058000614AC2E906345A4B9B6A184604F02CFDB6
:100590004FF00002594B04F0B7FE03460C465B4A8D
:1005A000C2E90034524BDB6A184604F01DFD4FF0DF
:1005B0000002524B04F0A8FE03460C46534AC2E91F
:1005C00002344B4B1B6B9AB2504B1A82484B5B6BFD
:1005D000184604F009FD4FF00002484B04F094FE69
:1005E00003460C464A4AC2E90034414B9B6B18460D
:1005F00004F0FAFC4FF00002404B04F085FE034685
:100600000C46434AC2E90234394BDB6B9AB2404B89
:100610001A82374B1B6C9AB23D4B5A82344B5B6C3F
:100620009AB23B4B9A82324B9B6C184604F0DCFC2E
:100630004FF00002374B04F067FE03460C46364A83
:10064000C2E900342A4BDB6C184604F0CDFC4FF0B5
:1006500000022A4B04F058FE03460C462E4AC2E91B
:100660000234234B1B6D184604F0BEFC4FF0000211
:10067000284B04F049FE03460C46274AC2E90434DD
:100680001B4B5B6D184604F0AFFC4FF000021B4B98
:1006900004F03AFE03460C461F4AC2E90834144BE4
:1006A0009B6D184604F0A0FC4FF00002134B04F0C1
:1006B0002BFE03460C46184AC2E90C340C4BDB6D8A
:1006C000184604F091FC4FF000020C4B04F01CFEA5
:1006D00003460C46104AC2E90E34054B1B6E9AB213
:1006E0000D4BA3F8702000BF0C37BD4690BD00BF76
:1006F000500A0020000000200200002000002440DA
:1007000008000020100000202000002040000020F1
:1007100058000020000059407000002080B500AF54
:10072000074B00229A7400221021064802F074FF41
:1007300000224FF48061044802F06EFF00BF80BDCC
:10074000400000200008004800100048F8B500AF45
:10075000264B1B78002B46D0254B1B8A002B0CD038
:10076000244BD3E90001244BD3E900341A46234635
:1007700004F0ECFA03460C460BE01F4BD3E90001F2
:100780001C4BD3E900341A46234604F0DFFA034633
:100790000C461A4AC2E90034154BD3E90001174B45
:1007A000D3E900341A46234604F0F6FE0346002B34
:1007B00003D00F4B01229A7416E00D4BD3E902349B
:1007C0001D4684F000460D4BD3E900341A462346FB
:1007D0002846314604F0F4FE0346002B04D0044BB7
:1007E00000229A7400E000BFF8BD00BF02000020A4
:1007F00040000020C80A002008000020B80A00209D
:1008000080B485B000AF786039600023FB607B68FE
:10081000DB68FB60FA68194B1340FB603B681A68A1
:100820003B685B681A433B689B681A433B68DB681C
:100830001A433B681B691A433B685B691A433B6870
:100840009B691343FA681343FB607B68FA68DA60BC
:100850007B681B6BFB60FB6823F00F03FB603B684E
:100860001B7F013B1A46FB681343FB607B68FA68F9
:100870001A6300BF1437BD4680BC704707C0FFFD38
:1008800080B485B000AF786039600023FB607B687E
:10089000B3F1A04F03D07B681C4A934207D11C4B95
:1008A0009B68FB60FA681B4B1340FB6006E01A4B29
:1008B0009B68FB60FA68174B1340FB603B681A6843
:1008C0003B685B681A433B689B681A433B68DB687C
:1008D0001B031A433B681B7C1B021343FA68134338
:1008E000FB607B68B3F1A04F03D07B68074A93425B
:1008F00003D1074AFB68936002E0074AFB689360F4
:1009000000BF1437BD4680BC704700BF00010050D7
:1009100000030050E010FCFF0007005080B483B0DB
:1009200000AF78600B46FB70FB78002B06D07B682D
:100930009B6843F001027B689A6005E07B689B68D6
:1009400043F002027B689A6000BF0C37BD4680BC52
:10095000704700BF80B485B000AF7860084611468C
:100960001A460346FB700B46BB7013467B70002390
:10097000FB600023BB60BB78042B21D87B681B6B1A
:10098000FB60BA7813465B0013445B001A461F23D2
:100990009340BB60BB68DB43FA681340FB60F978A7
:1009A000BA7813465B0013445B0001FA03F3BB60A3
:1009B000FA68BB681343FB607B68FA681A6374E0EB
:1009C000BB78092B23D87B685B6BFB60BB785A1F15
:1009D00013465B0013445B001A461F239340BB6021
:1009E000BB68DB43FA681340FB60F978BB785A1F99
:1009F00013465B0013445B0001FA03F3BB60FA6823
:100A0000BB681343FB607B68FA685A634DE0BB78B0
:100A10000E2B25D87B689B6BFB60BB78A3F10A0289
:100A200013465B0013445B001A461F239340BB60D0
:100A3000BB68DB43FA681340FB60F978BB78A3F12D
:100A40000A0213465B0013445B0001FA03F3BB6028
:100A5000FA68BB681343FB607B68FA689A6324E01A
:100A60007B68DB6BFB60BB78A3F10F0213465B0076
:100A700013445B001A461F239340BB60BB68DB43F3
:100A8000FA681340FB60F978BB78A3F10F021346B4
:100A90005B0013445B0001FA03F3BB60FA68BB68B8
:100AA0001343FB607B68FA68DA63FB78092B23D970
:100AB0007B689B69FB60FB78A3F10A0213465B002D
:100AC0001344072202FA03F3BB607B689A69BB6890
:100AD000DB431A407B689A617B6899697878FB7878
:100AE000A3F10A0213465B00134400FA03F341EA40
:100AF00003027B689A611FE07B685B69FB60FB789F
:100B00005A1E13465B001344382202FA03F3BB60FB
:100B10007B685A69BB68DB431A407B685A617B6813
:100B200059697878FA7813465B00134400FA03F3A6
:100B300041EA03027B685A6100BF1437BD4680BC9E
:100B4000704700BF80B483B000AF78607B689B685B
:100B500043F004027B689A6000BF0C37BD4680BC3E
:100B6000704700BF80B483B000AF78600B46FB7065
:100B7000FB78002B06D07B68DB6843F001027B68C2
:100B8000DA6005E07B68DB6823F001027B68DA60ED
:100B900000BF0C37BD4680BC704700BF80B483B037
:100BA00000AF786039607B68DB6823F002027B6805
:100BB000DA607B68DA683B681A437B68DA6000BFFA
:100BC0000C37BD4680BC704780B483B000AF7860FE
:100BD0007B681B782D3B482B00F2C68001A252F89F
:100BE00023F000BF650D0008690D0008690D0008BD
:100BF000090D00080D0D0008110D0008150D000865
:100C0000190D00081D0D0008210D0008250D000814
:100C1000290D00082D0D0008690D0008690D000858
:100C2000690D0008690D0008690D0008690D0008CC
:100C3000690D00085D0D0008690D0008690D0008C8
:100C4000690D0008390D0008690D0008690D0008DC
:100C5000490D00080D0D0008690D0008690D000818
:100C6000310D0008690D0008690D0008090D000824
:100C70003D0D0008690D0008690D00081D0D0008F4
:100C8000690D0008350D0008690D0008690D0008A0
:100C9000690D0008690D0008690D0008690D00085C
:100CA000690D0008690D0008690D0008690D00084C
:100CB000690D0008690D0008550D0008690D000850
:100CC000410D0008690D0008690D00082D0D000890
:100CD000690D0008690D0008690D0008690D00081C
:100CE000690D0008690D0008610D0008590D000824
:100CF000690D0008690D00084D0D0008690D000818
:100D0000510D0008450D00083F232EE006232CE07E
:100D10005B232AE04F2328E0662326E06D2324E0AE
:100D20007D2322E0072320E07F231EE06F231CE0C9
:100D300038231AE03E2318E0792316E0732314E0E9
:100D40005E2312E01C2310E076230EE050230CE01B
:100D500078230AE07C2308E05C2306E0772304E0A4
:100D6000542302E0402300E0002318460C37BD4620
:100D700080BC704780B582B000AF786039601AE0FF
:100D80003868FFF721FF03461A467B681A703B68F4
:100D900001333B603B681B782E2B09D17B681B78A5
:100DA00063F07F03DAB27B681A703B6801333B6003
:100DB0007B6801337B603B681B78002BE0D100BF70
:100DC0000837BD4680BD00BF80B487B000AF7860F3
:100DD000396000237B6100233B610023FB6000231B
:100DE0007B617EE001227B6902FA03F33B613B6891
:100DF0001A683B691340FB60FA683B699A426DD1FF
:100E00003B681B79012B03D03B681B79022B36D141
:100E10007B689A687B695B00032101FA03F3DB437B
:100E20001A407B689A607B689A683B685B791946D0
:100E30007B695B0001FA03F31A437B689A607B6865
:100E40009B889AB27B699BB2012101FA03F39BB2A2
:100E5000DB439BB213409AB27B689A807B689B8885
:100E60009BB21AB23B689B7919467B699BB201FA27
:100E700003F31BB213431BB29AB27B689A807B6860
:100E80001A687B695B00032101FA03F3DB431A4014
:100E90007B681A607B681A683B681B7919467B6916
:100EA0005B0001FA03F31A437B681A607B68DA6817
:100EB0007B699BB25B00032101FA03F3DB431A4019
:100EC0007B68DA607B68DA683B68DB7919467B69A6
:100ED0005B0001FA03F31A437B68DA607B69013334
:100EE0007B617B690F2B7FF67DAF00BF1C37BD4652
:100EF00080BC704780B485B000AF78600B467B80C3
:100F000013467B700023FB600023BB607A787B88EC
:100F100003F007039B0002FA03F3FB607B88DB0806
:100F20009BB218467B88DB089BB21A467B68083266
:100F300053F822207B8803F007039B000F2101FA5E
:100F400003F3DB4302EA03017B6800F1080243F884
:100F500022107B88DB089BB21A467B68083253F864
:100F60002220FB681343BB607B88DB089BB21A46D8
:100F70007B680832B96843F8221000BF1437BD46B9
:100F800080BC704798B500AF114B93F90030DAB2CE
:100F9000104B1A70104BD3E90034104AC2E90034E8
:100FA00000F054FC00F070FC00F004FD00F03CFD8B
:100FB00000F072FD00F0E8FD00F03EFE00F098FE4B
:100FC000FFF74AFA02F0FAFA02F092FCFEE700BFDD
:100FD00002000020E20A002008000020E80A0020A9
:100FE000F8B500AF01215C4801F064FC5B4B1B6865
:100FF000B3F57A7F05DA594B1B680133574A136002
:101000000AE0574A564B9B8A9BB283F400739BB20B
:101010009382524B00221A6002F08CFA0346184663
:1010200003F0E2FF05460E464E4BD3E900014D4B5F
:10103000D3E902341A46234603F088FE03460C46E1
:101040001A4623462846314604F034F803460C4637
:10105000184621463EA3D3E9002304F055F9034680
:101060000C46184621463F4BD3E902341A46234624
:1010700003F06EFE03460C463B4AC2E900343B4B8C
:101080001B88002B02D0012B18D03BE0FFF75EFB42
:10109000374B9B7C9BB21B019BB21A4610213548F3
:1010A00002F0BAFA324B9B7C9BB29B029BB21A466F
:1010B0004FF480612A4802F0AFFA47E002F0FEFAEE
:1010C0002D4B9B7D1B011AB22B4BDB7D5B011BB2B1
:1010D00013431BB29BB21A463021264802F09CFAF9
:1010E000254B9B7D9B021AB2234BDB7DDB021BB29F
:1010F00013431BB29BB21A464FF44061184802F0EA
:101100008BFA23E01D4B1B780133DAB21B4B1A70AC
:101110001A4B1B78322B18D9184B00221A7002F088
:10112000E7FB02F09BFC164BD3E90A014FF00002EB
:10113000144B03F0BFFF03460C461846214604F04B
:1011400091FA03469AB2104B1A8000BF00BFF8BD57
:101150000000000000FEAF4000040040F00A002044
:101160000010004810000020C80A002000000020E5
:10117000400000200008004858000020DD0A002040
:101180007000002000002440C40A0020F8B500AF21
:101190000121934801F08EFB924BD3E90001924B61
:1011A000D3E902341A46234603F0D0FD03460C4629
:1011B000184621464FF000028C4B03F07BFF03469C
:1011C0000C461D462646884BD3E90001864BD3E9E1
:1011D00002341A46234603F0B9FD03460C461A466C
:1011E00023462846314604F08FF803460C4618463D
:1011F000214604F037FA0346DAB27D4B1A707C4B75
:101200001B78184603F0F0FE7A4BD3E90034012234
:1012100015461A46234604F0DDF90346002B01D19A
:1012200000231D46EBB21A46734B1A70704B1B78A5
:10123000184603F0D9FE6F4BD3E90234012215465C
:101240001A46234604F0C6F90346002B01D10023B9
:101250001D46EBB21A46694B1A70654B1B7818464F
:1012600003F0C2FE634BD3E90434012215461A464B
:10127000234604F091F90346002B01D100231D46BB
:10128000EBB21A465E4B1A70594B1B78184603F0A6
:10129000ABFE584BD3E90634012215461A462346C5
:1012A00004F07AF90346002B01D100231D46EBB26E
:1012B0001A46544B1A70544802F08AF9534802F007
:1012C00087F9534802F084F9524802F081F95248F4
:1012D00002F07EF9514802F07BF9474802F078F9B4
:1012E000464802F075F9464802F072F9454802F0A6
:1012F0006FF94B4B1B8842F6DF62934206D8484B8E
:101300001B8801339AB2464B1A8023E0454BD3E940
:101310000001454BD3E900341A46234604F032F964
:101320000346002B07D0414B93F900301A46404B3F
:101330001B789A420BD03D4B93F90030DAB23C4B0C
:101340001A70384BD3E90034374AC2E90034344BC1
:1013500000221A80354B93F900309BB21B029BB2DE
:101360001A464FF48071334802F056F9224BDB786D
:101370001B031AB2214BDB785B031BB213431AB277
:101380001F4BDB789B031BB213431AB21D4BDB7858
:10139000DB031BB213431BB29BB21A464FF47041DE
:1013A000244802F039F9144BDB781AB2134BDB787E
:1013B0005B001BB213431AB2114BDB789B001BB2CC
:1013C00013431AB20F4BDB78DB001BB213431BB283
:1013D0009BB21A460F21184802F01EF900BFF8BD53
:1013E00000080040C80A00201000002000005940FA
:1013F000E10A00202000002000010020040100205C
:10140000080100200C010020E8000020EC00002072
:10141000F0000020F4000020F8000020FC00002074
:10142000DE0A002008000020E80A00200200002058
:10143000E20A0020001000480008004898B500AFFC
:1014400001213D4801F036FA3C4B1B783B2B06D876
:101450003A4B1B780133DAB2384B1A700CE0374B39
:1014600000221A70364B1B78002B0CBF012300237F
:10147000DBB21A46324B1A70324B1B78002B0DD15F
:1014800000F0BAFE034619462F48FFF773FC00F040
:10149000FFFE034619462D48FFF76CFC2C49294BEB
:1014A0001B781A46284B9B5C1AB2264B1B781846B1
:1014B000264B1B5C1B021BB213431BB29BB28B82DD
:1014C000244B244A928A92B2D2B292B29A821D4B93
:1014D0001B780833012202FA03F400F059FF034697
:1014E0001A46184B1B789A4203D1154B1B78002BD8
:1014F00001D0012200E00022124B1B780C3302FACB
:1015000003F344EA03001349124B9B8A9BB21AB2BD
:1015100003B213431BB29BB28B820A4B1B7801337D
:10152000DAB2084B1A70074B1B78032B02D9054B14
:1015300000221A7000BF98BD00140040DC0A002091
:10154000E00A0020D00A0020D40A0020D80A002097
:10155000000C00480004004880B500AF052000F0F2
:10156000E3FC062000F0E0FC072000F0DDFC082092
:1015700000F0DAFC4FF090431B8A9BB203F020038B
:10158000002B01D0012300E00023DAB26B4B1A706C
:101590004FF090431B8A9BB203F04003002B01D015
:1015A000012300E00023DAB2654B1A704FF090433C
:1015B0001B8A9BB203F08003002B01D0012300E0C3
:1015C0000023DAB25F4B1A704FF090431B8A9BB234
:1015D00003F48073002B01D0012300E00023DAB272
:1015E000594B1A704FF090431B8A9BB203F0800353
:1015F000002B01D0012300E00023DAB2534B1A7014
:101600004FF090431B8A9BB203F48073002B01D0F0
:10161000012300E00023DAB24D4B1A70474BDB7810
:10162000002B0CD04FF090431B8A9BB203F0200399
:10163000002B04D100F0F8FC404B0022DA70404B44
:10164000DB78002B0CD04FF090431B8A9BB203F049
:101650004003002B04D100F027FD394B0022DA7043
:101660003A4BDB78002B10D04FF090431B8A9BB293
:1016700003F08003002B08D1364B01221A70334B44
:101680000022DA702F4B0022DA70314BDB78002B0E
:1016900023D04FF090431B8A9BB203F48073002B3E
:1016A0001BD12C4B93F90030002B05D0294B002285
:1016B0001A7000F051FE0AE0274B93F90030002B1E
:1016C0000CBF01230023DBB25AB2234B1A70204B0C
:1016D0000022DA701C4B0022DA701A4BDB78002BE8
:1016E00012D04FF090431B8A9BB203F08003002B73
:1016F0000AD100F01BFD134B0022DA70174B0022B9
:101700001A70174B00221A700F4BDB78002B12D087
:101710004FF090431B8A9BB203F48073002B0AD1D5
:1017200000F032FD084B0022DA700C4B00221A70D8
:101730000B4B00221A7000BF80BD00BFE8000020E4
:10174000EC000020F4000020F0000020FC0000204D
:10175000F8000020C00A002002000020E00A00205B
:10176000DC0A002080B485B000AF786039600023C7
:10177000FB607B681B68FB60FB6823F4FF4323F07E
:101780007003FB603B689A683B681B6A1A433B68BE
:101790001B691A433B685B691A433B689B691A43A0
:1017A0003B68DB691A433B685B6A1A433B689B6A88
:1017B0001343FA681343FB607B68FA681A603B685E
:1017C0009B891A467B685A603B681A687B689A60F6
:1017D0003B685A687B68DA6000BF1437BD4680BC3E
:1017E000704700BF80B483B000AF78600B46FB70D9
:1017F000FB78002B06D07B681B6843F001027B68F6
:101800001A6006E07B681A684FF6FE7313407A6828
:10181000136000BF0C37BD4680BC704780B483B0F6
:1018200000AF0346FB71084997F907305B09FA7965
:1018300002F01F02012000FA02F241F8232000BF4B
:101840000C37BD4680BC704700E100E080B500AFBA
:10185000FEF79AFC0120FEF7D5FC4FF46011002042
:10186000FEF7E0FC0120FEF7F7FC0220FEF704FD86
:101870000020FEF71DFD4FF4A060FEF735FD0020AF
:10188000FEF74EFD00BF80BD80B582B000AF0121E4
:101890004FF40030FEF786FD01214FF48020FEF763
:1018A00081FD01214FF40020FEF77CFD01214FF462
:1018B0008010FEF777FD01214FF40010FEF772FD56
:1018C00002233B6003233B713B4619464FF0904097
:1018D000FFF77AFA4FF4F0733B6000233B71022369
:1018E0007B710223FB713B4619464FF09040FFF796
:1018F0006BFA4FF400733B6002233B7101237B7151
:101900000023BB713B4619464FF09040FFF75CFA4D
:10191000062209214FF09040FFF7ECFA4FF47F4385
:101920003B6001233B7101237B710023BB710023CA
:10193000FB713B4619461B48FFF746FA4FF6FF730B
:101940003B6001233B7101237B710023BB710023AA
:10195000FB713B4619461448FFF736FA3F233B60BC
:1019600001233B7101237B710023BB710023FB71B9
:101970003B4619460D48FFF727FA4FF47F433B607B
:1019800001233B7101237B710023BB710023FB7199
:101990003B4619460648FFF717FA00BF0837BD4611
:1019A00080BD00BF00040048000C0048000800484B
:1019B0000010004880B582B000AF01210120FEF781
:1019C0000FFD0521002001F073FD0621002001F02C
:1019D0006FFD0721002001F06BFD0821002001F0C0
:1019E00067FD00233B7110237B710123BB7105232D
:1019F0003B603B46184600F09DF906233B603B46A2
:101A0000184600F097F907233B603B46184600F064
:101A100091F908233B603B46184600F08BF900BF64
:101A20000837BD4680BD00BF80B582B000AF1D2322
:101A30003B7100237B710023BB710123FB713B1DB4
:101A4000184600F083FD1E233B7100237B710323A6
:101A5000BB710123FB713B1D184600F077FD372356
:101A60003B7100237B710223BB710123FB713B1D82
:101A7000184600F06BFD17233B7100237B71012397
:101A8000BB710123FB713B1D184600F05FFD00BFD9
:101A90000837BD4680BD00BF80B584B000AF0121CE
:101AA0004FF40060FEF79CFC01210220FEF7B6FC1B
:101AB00001210420FEF7B2FC01212020FEF7AEFC3C
:101AC0000023FB802023BB804FF47A73BB603B1D57
:101AD0001946294800F09CFD0121274800F00EFE20
:101AE0000121254800F0AAFE0023FB806423BB806F
:101AF0004FF4A073BB600023BB813B1D19461F48F8
:101B000000F086FD01211D4800F0F8FD01220121B1
:101B10001A4800F0AFFE0023FB804FF47A73BB80BD
:101B20004FF44873BB600023BB813B1D194614482A
:101B300000F06EFD0121124800F0E0FD01220121BC
:101B40000F4800F097FE0023FB806423BB804FF416
:101B50004873BB603B1D19460A4800F059FD01213E
:101B6000084800F0CBFD01220121064800F082FE6A
:101B700000BF1037BD4680BD002C0140000400406E
:101B8000000800400014004080B58EB000AF012175
:101B90004FF08050FEF706FC4FF49870FEF7DCFB28
:101BA00000237B600023BB604FF40043FB600223F3
:101BB0003B6100233B753B1D19464FF0A040FEF7EB
:101BC0005FFE01214FF0A040FEF7CCFF02214FF055
:101BD000A040FEF7E3FF4FF40053BB610023FB611D
:101BE00000233B6200237B620023BB620023FB6275
:101BF00000233B63012387F8343007F118031946AB
:101C00004FF0A040FEF7FCFD01214FF0A040FEF791
:101C100085FE0323012202214FF0A040FEF79AFE29
:101C20001220FFF7FBFD4FF0A040FEF78BFF00BF37
:101C30003837BD4680BD00BF80B58CB000AF0121F4
:101C40000120FEF7AFFB244B7B60244BBB600023DD
:101C5000FB6001233B8200237B610023BB614FF4C7
:101C60008073FB614FF480633B6220237B624FF4FF
:101C70000053BB620023FB623B1D19461848FFF767
:101C800071FD184B7B60184BBB600023FB60012388
:101C90003B8200237B610023BB614FF48073FB61B7
:101CA0004FF480633B6220237B624FF40053BB629E
:101CB0004FF48043FB623B1D19460C48FFF752FD71
:101CC00001210748FFF78EFD01210848FFF78AFD33
:101CD00000BF3037BD4680BD40000050C20A002022
:101CE00008000240C40A0020382C014030000240A5
:101CF00080B586B000AF4FF47A73FB6060237B60E1
:101D000001233B8104237B8100233B8200237B82D0
:101D10004FF48073BB824FF40073FB823B1D194666
:101D2000034800F00BFD00BF1837BD4680BD00BF63
:101D3000002C014080B485B000AF78600023FB60C8
:101D4000754BFB607B689B79002B00F0C8807B683B
:101D50001B685B0903F1007303F502635B0118461E
:101D60007B681B685B0903F1007303F502635B0189
:101D70001A687B681B6803F01F03012101FA03F353
:101D8000DB43134003607B681B685B095A01634BAC
:101D9000134418467B681B685B095A015F4B134468
:101DA0001A687B681B6803F01F03012101FA03F323
:101DB000DB43134003607B681B791A467B681B6812
:101DC0005B095B011344FA681344FB60FB68FA6823
:101DD00012687968096801F01F01012000FA01F119
:101DE0000A431A604C4BFB607B681B685B095A0115
:101DF0004B4B134418467B681B685B095A01484BE0
:101E000013441A687B681B6803F01F03012101FA61
:101E100003F3DB43134003607B681B685B095A01D3
:101E2000404B134418467B681B685B095A013D4BC5
:101E300013441A687B681B6803F01F03012101FA31
:101E400003F3DB43134003607B685B79102B2ED1D7
:101E50007B681B685B095A01314B134418467B6849
:101E60001B685B095A012E4B13441B687A68126881
:101E700002F01F02012101FA02F2134303607B68A2
:101E80001B685B095A01274B134418467B681B6883
:101E90005B095A01234B13441B687A68126802F0ED
:101EA0001F02012101FA02F2134303602FE07B6855
:101EB0005B791A467B681B685B095B011344FA680F
:101EC0001344FB60FB68FA6812687968096801F0DE
:101ED0001F01012000FA01F10A431A6017E07B6834
:101EE0001B791A467B681B685B095B011344FA681F
:101EF0001344FB60FB68FA6811687A68126802F0A4
:101F00001F02012000FA02F2D2430A401A6000BF09
:101F10001437BD4680BC70470004014004040140F2
:101F2000080401400C04014080B483B000AF786025
:101F30007B685B095A01074B134419467B6803F021
:101F40001F03012202FA03F30B6000BF0C37BD46EA
:101F500080BC70471404014080B483B000AF0346D6
:101F6000FB710A4B93F90030002B02D0012B02D0F9
:101F700006E0052305E097F90730054AD35600E04F
:101F8000002318460C37BD4680BC7047F70A002076
:101F90008C98000890B585B000AF0346FB71204BCC
:101FA00093F90030013B23EAE373FB731C4B93F975
:101FB00000301A461B4B9B561A4697F907301344BC
:101FC000002B08DA97F90F30164AD3561846FFF758
:101FD000C3FF034620E0124B93F900301A46114B21
:101FE0009B561A4697F90730D41897F90F300D4AC7
:101FF000D3561846FFF7B0FF03469C4201DD00238D
:102000000AE0074B93F900301A46064B9B56DAB2AA
:10201000FB791344DBB25BB218461437BD4690BD62
:10202000F70A0020F40A002098B500AF194B93F985
:102030000030002B21D0184B93F90030002B0FDD1E
:10204000164800F069FD034604331B78303BDBB2D1
:1020500058B2114B93F90030104A012100F07CFE78
:102060000F4B93F900301C464FF0FF30FFF792FF03
:1020700003461A46094B1A550AE00A4B1B78002BF7
:1020800003D0012001F0FCF802E0012001F05AF930
:1020900000BF98BDC00A0020F80A0020F40A002002
:1020A000F70A00200200002098B500AF1A4B93F900
:1020B0000030002B21D0194B93F90030002B10DD9C
:1020C000174800F029FD034604331B78303BDBB290
:1020D00058B2124B93F90030114A4FF0FF3100F023
:1020E0003BFE104B93F900301C460120FFF752FFD6
:1020F00003461A460A4B1A550CE00B4B1B78002B73
:1021000004D04FF0FF3001F0BBF803E04FF0FF3098
:1021100001F018F900BF98BDC00A0020F80A00209D
:10212000F40A0020F70A00200200002080B400AF6B
:10213000124B93F90030002B1CD0114B93F9003057
:10214000012B09DC0E4B93F90030DBB20133DBB21B
:102150005AB20B4B1A700DE00A4B93F90030032B67
:1021600008DC084B93F90030DBB20133DBB25AB222
:10217000044B1A7000BFBD4680BC7047C00A0020E7
:10218000F70A0020F80A002080B400AF164B93F93C
:102190000030002B23D0154B93F90030002B15D1C4
:1021A000134B93F90030002B19DD114B93F90030DC
:1021B0001A46104B002199540D4B93F90030DBB2B5
:1021C000013BDBB25AB20A4B1A7008E0074B93F995
:1021D0000030DBB2013BDBB25AB2044B1A7000BFD5
:1021E000BD4680BC704700BFC00A0020F80A00202E
:1021F000F70A0020F40A002098B500AF1A4B93F9B3
:102200000030002B24D0194B93F90030012B05D05E
:10221000022B0BD0002B19D1154B23E0154B93F952
:1022200000301A46144B53F822301BE0114B93F93F
:10223000003019460F4B93F9013018460F4A0B46F0
:10224000DB005B1A034452F823300BE00C4B09E02F
:102250000C4BD3E900341A4623460B490B4803F0D4
:1022600027FA0A4B184698BDC00A0020F70A00203A
:1022700094980008F40A0020100100202801002092
:102280009C980008C80A0020A4980008FC0A0020B6
:10229000B0B500AF264B93F90030002B33D0254B5F
:1022A00093F90030012B0BD0022B19D0002B28D131
:1022B000214B93F900301A46204B53F8223035E079
:1022C0001D4B93F9003019461B4B93F9013018460A
:1022D0001B4A0B46DB005B1A034452F8233025E00F
:1022E000154800F019FC0546134800F019FB034699
:1022F0000C461A4623462946124803F0D9F9114BD9
:1023000014E0114B12E0114B1B78002B0AD0104B3C
:10231000D3E90A341A4623460E490A4803F0C8F99D
:10232000084B03E0074801F089F8064B1846B0BD9A
:10233000C00A0020F70A0020F40A00201001002043
:1023400028010020FC0A00209C98000802000020C0
:1023500070000020A498000880B400AF094B002250
:102360001A70084B00225A70064B00229A70064BD6
:1023700000221A70054B00221A7000BFBD4680BCB7
:10238000704700BFF40A0020F70A0020F80A002076
:1023900080B400AF044B93F90030DBB2013BDBB2F9
:1023A0001846BD4680BC7047F80A002080B500AFD3
:1023B0001B4A1B4B1B6843F0010313601849184B61
:1023C0005A68184B13404B60154A154B1B6823F095
:1023D000847323F480331360114A114B1B6823F478
:1023E000802313600E4A0E4B5B6823F4FE03536098
:1023F0000B4A0B4BDB6A23F00F03D3620849084BEF
:102400001A6B094B13400B63054B00229A6000F0D6
:102410000FF8064B4FF000629A6000BF80BD00BF0E
:10242000001002400CC07FF8CCFC00FF00ED00E083
:1024300080B483B000AF00237B6000233B60324A4E
:10244000314B1B6843F4803313602F4B1B6803F43C
:1024500000333B607B6801337B603B68002B03D11A
:102460007B68B3F5A06FF0D1274B1B6803F40033F2
:10247000002B02D001233B6001E000233B603B685E
:10248000012B3CD1214B12221A601F4A1E4B5B6864
:1024900053601D4A1C4B5B6853601B4A1A4B5B68B8
:1024A00043F480635360184A174B5B6823F47C1332
:1024B0005360154A144B5B6843F4E8135360124AA7
:1024C000114B1B6843F08073136000BF0E4B1B68F9
:1024D00003F00073002BF9D00B4A0B4B5B6823F021
:1024E00003035360084A084B5B6843F002035360E0
:1024F00000BF054B5B6803F00C03082BF9D100BF4C
:102500000C37BD4680BC70470010024000200240DE
:1025100080B485B000AF78600A4B1B68002B02D1F5
:10252000084B094A1A60074B1B68FB60054B1A6889
:102530007B681344034A1360FB6818461437BD4692
:1025400080BC7047040B0020F00C002080B487B0E2
:1025500000AF786000237B6100233B610F23FB60A9
:102560007B68DB78002B3AD0274BDB68DB4303F436
:10257000E0631B0A7B617B69C3F104033B61FA687A
:102580007B6922FA03F3FB607B685B781A463B6940
:1025900002FA03F37B617B689B781A46FB68134061
:1025A0007A6913437B617B691B017B61174A7B68F6
:1025B0001B787969C9B213440A4683F80023134A89
:1025C0007B681B785B09DBB218467B681B7803F0DD
:1025D0001F03012101FA03F342F820300FE00B49F9
:1025E0007B681B785B09DBB218467B681B7803F0BD
:1025F0001F0301229A4000F1200341F8232000BF6D
:102600001C37BD4680BC704700ED00E000E100E0F3
:1026100080B485B000AF786039600023FB817B68AF
:102620001B88FB817B682C4A93420FD07B682B4A26
:1026300093420BD07B68B3F1804F07D07B68284A68
:10264000934203D07B68274A934208D1FB8923F049
:102650007003FB813B685A88FB891343FB817B68CD
:10266000214A93420CD07B68204A934208D0FB89D0
:1026700023F44073FB813B681A89FB891343FB8178
:102680007B68FA891A803B685A687B68DA623B6823
:102690001A887B681A857B680F4A93420FD07B6843
:1026A0000E4A93420BD07B68114A934207D07B6855
:1026B000104A934203D07B680F4A934204D13B688F
:1026C0009B7A9AB27B681A867B6801225A6100BFA6
:1026D0001437BD4680BC7047002C014000340140D7
:1026E00000040040000800400010004000140040BA
:1026F00000400140004401400048014080B483B0E4
:1027000000AF78600B46FB70FB78002B08D07B682D
:102710001B889BB243F001039AB27B681A8007E0E2
:102720007B681B889BB223F001039AB27B681A80F6
:1027300000BF0C37BD4680BC704700BF80B487B077
:1027400000AF786039600023FB6000237B610023C9
:102750003B617B681B6A23F010027B681A627B680E
:102760001B6A7B617B685B683B617B689B69FB6084
:10277000FB6823F0807323F4E043FB60FB6823F4E1
:102780004073FB603B681B681B02FA681343FB60E5
:102790007B6923F020037B613B689B891B017A697D
:1027A00013437B613B689B881B017A6913437B6100
:1027B0007B68204A934203D07B681F4A934227D10B
:1027C0007B6923F080037B613B68DB891B017A69AD
:1027D00013437B617B6923F040037B613B68DB88AB
:1027E0001B017A6913437B613B6923F480633B617E
:1027F0003B6923F400633B613B681B8A9B003A6999
:1028000013433B613B685B8A9B003A6913433B611E
:102810007B683A695A607B68FA689A613B689A6893
:102820007B689A637B687A691A6200BF1C37BD4671
:1028300080BC7047002C01400034014080B483B05C
:1028400000AF78600B46FB70FB78002B06D07B68EE
:102850005B6C43F400427B685A6405E07B685B6C08
:10286000C3F30E027B685A6400BF0C37BD4680BCC0
:10287000704700BF80B483B000AF78600B467B80A8
:1028800013467B707B78002B06D07B68DA687B88E8
:102890001A437B68DA6007E07B68DB687A88D2439A
:1028A00092B21A407B68DA6000BF0C37BD4680BC2C
:1028B000704700BF80B483B000AF78600B467B8068
:1028C0007B88DB439BB21A467B681A6100BF0C37DA
:1028D000BD4680BC704700BF002103E00A4B5B5837
:1028E0004350043109480A4B42189A42F6D3094A28
:1028F00002E0002342F8043B074B9A42F9D3FFF76A
:1029000055FDFEF73FFB70476C9A00080000002061
:102910004C0A0020500A0020F00C0020FEE70000C6
:1029200090B583B000AF78607B6893F90030052BD9
:1029300000F2D88001A252F823F000BF5529000808
:1029400077290008BD290008CD290008032A0008BE
:10295000692A00087B68013393F90030002B02D00C
:10296000012B04D0BEE0664BD3E90234BDE0644BDA
:10297000D3E90034B9E07B68013393F90030032BCD
:1029800000F2AB8001A252F823F000BF9D2900089D
:10299000A5290008AD290008B5290008594BD3E93D
:1029A0000034A2E0574BD3E902349EE0554BD3E903
:1029B00004349AE0534BD3E9063496E0524B1B881B
:1029C000184602F001FB03460C468EE07B6801339B
:1029D00093F90030012B08D0022B0AD0002B00D035
:1029E00080E04A4BD3E900347FE0484BD3E902341E
:1029F0007BE0464B1B8A184602F0E6FA03460C467B
:102A000073E07B68013393F90030042B67D801A28F
:102A100052F823F0292A0008312A0008392A000830
:102A2000492A0008592A0008394BD3E900345CE0F0
:102A3000374BD3E9023458E0354B1B8A184602F075
:102A4000C3FA03460C4650E0314B5B8A184602F04D
:102A5000BBFA03460C4648E02D4B9B8A184602F011
:102A6000B3FA03460C4640E07B68013393F900302B
:102A7000062B36D801A252F823F000BF992A00088D
:102A8000A12A0008A92A0008B12A0008B92A0008CA
:102A9000C12A0008C92A00081E4BD3E9003424E0EB
:102AA0001C4BD3E9023420E01A4BD3E904341CE078
:102AB000184BD3E9083418E0164BD3E90C3414E072
:102AC000144BD3E90E3410E0124BB3F870301846B3
:102AD00002F07AFA03460C4607E000BF02E000BFAE
:102AE00000E000BF04A4D4E90034184621460C37A6
:102AF000BD4690BDAFF30080CDCCCCCCCCDC8E40BD
:102B000010000020200000200000002040000020D5
:102B1000580000207000002080B483B000AF7860BF
:102B20007B6893F90030023B032B2FD801A252F8A7
:102B300023F000BF452B0008492B0008592B000843
:102B4000692B0008144B22E07B68013393F90030B5
:102B5000022B18D1104B1AE07B68013393F9003037
:102B6000012B12DD0C4B12E07B68013393F900302E
:102B7000022B04D0062B04D0002B00D006E0074B1C
:102B800005E0054B03E000BF00E000BF044B184622
:102B90000C37BD4680BC7047AC980008B49800085C
:102BA000BC98000890B585B000AFF860C7E9002375
:102BB000FB68D3E90001D7E9082302F00BFD0346C7
:102BC000002B05D0FA68D7E90834C2E900340FE0D9
:102BD000FB68D3E90001D7E9002302F0DDFC0346DE
:102BE000002B00D104E0FA68D7E90034C2E90034D0
:102BF00000BF1437BD4690BDB0B584B000AF78605B
:102C00000B46FB701346BB7097F90330C3F1040306
:102C1000184602F0E9F903460C461A4623464FF0DF
:102C20000000104900F0D8FFC7E902017B68D3E932
:102C3000004597F90230184602F0D6F9D7E9022389
:102C400002F038FA02460B462046294602F080F888
:102C500003460C467A68C2E9003400BF1037BD460F
:102C6000B0BD00BF0000244090B585B000AF7860D3
:102C7000084611461A460346FB700B46BB701346C6
:102C80003B803B88092B03D097F90330042B5BD1A1
:102C90007B681B88FB8197F90330C3F10403184656
:102CA00002F0A2F903460C461A4623464FF00000F4
:102CB000274900F091FF03460C461846214602F0D2
:102CC000A9FC0346BB81B7F90E20B7F90C3092FB83
:102CD000F3F3FB81B7F90E201E4B83FB021399100F
:102CE000D317C91A0B469B000B445B00D31AFB8118
:102CF0007B681A88F989BB8911FB03F39BB2D31A4D
:102D00009AB27B681A8097F902309AB2FB89134411
:102D10009BB2FB81B7F90E203B889A4202DD00236B
:102D2000FB8105E0B7F90E30002B01DA3B88FB810F
:102D30007B681A88F989BB8911FB03F39BB21344A2
:102D40009AB27B681A8000E000BF1437BD4690BD80
:102D5000000024406766666690B585B002AF3A60B1
:102D60001A460346FB710B46BB7113467B713B68E9
:102D700093F90030052B00F2618201A252F823F092
:102D8000992D0008272E0008152F00082B2F00086A
:102D9000B52F0008CD3000083B68013393F90030AF
:102DA000002B02D0012B17D02FE07A79FB79134446
:102DB000DBB25BB297F906201946AF48FFF71CFF5C
:102DC000AE4BD3E90034CDE90034A7A3D3E9002307
:102DD000A948FFF7E7FE18E07A79FB791344DBB2E4
:102DE0005BB297F906201946A448FFF705FFA34BED
:102DF000D3E902129EA4D4E90034CDE9003413468D
:102E00000A469E48FFF7CEFE00BF9C4BD3E9021254
:102E10009A4BD3E90034CDE9003413460A4698486A
:102E2000FFF7C0FE0AE23B68013393F90030032B41
:102E300000F2FF8101A252F823F000BF4D2E0008DE
:102E40007F2E0008B12E0008E32E00087A79FB7966
:102E50001344DBB25BB297F9062019468948FFF7A5
:102E6000CBFE884BD3E902124FF00003864CCDE92C
:102E7000003413460A468348FFF794FE49E07A7906
:102E8000FB791344DBB25BB297F9062019467F4801
:102E9000FFF7B2FE7B4BD3E904127A4BD3E900343F
:102EA000CDE9003413460A467848FFF77BFE30E050
:102EB0007A79FB791344DBB25BB297F906201946A5
:102EC0007348FFF799FE6F4BD3E906126D4BD3E9B8
:102ED0000234CDE9003413460A466D48FFF762FE1E
:102EE00017E07A79FB791344DBB25BB297F90620DD
:102EF00019466848FFF780FE624BD3E90434CDE9F8
:102F000000344FF000024FF000036248FFF74AFE22
:102F100000BF8EE197F9062097F9051002235E485D
:102F2000FFF7A2FE00F04AFB88E13B68013393F90A
:102F30000030012B1CD0022B32D0002B00D07DE1C1
:102F40007A79FB791344DBB25BB297F90620194614
:102F50005248FFF751FE46A4D4E90034CDE90034CD
:102F60004FF000024FF000034C48FFF71BFE20E03B
:102F70007A79FB791344DBB25BB297F906201946E4
:102F80004748FFF739FE3AA4D4E90034CDE90034CC
:102F90004FF000024FF000034148FFF703FE08E046
:102FA00097F9062097F9051001233E48FFF75CFECC
:102FB00000BF43E13B68013393F90030042B00F27A
:102FC0003A8101A252F823F0DD2F00080F300008EB
:102FD0003F30000851300008B93000087A79FB7999
:102FE0001344DBB25BB297F9062019462E48FFF76F
:102FF00003FE2D4BD3E902121DA4D4E90034CDE920
:10300000003413460A462848FFF7CCFD5DE07A7984
:10301000FB791344DBB25BB297F9062019462348CB
:10302000FFF7EAFD204BD3E90034CDE900344FF03F
:1030300000024FF000031D48FFF7B4FD45E097F98B
:10304000062097F9051009231948FFF70DFE3CE00B
:1030500097F9062097F9051009231648FFF704FE93
:1030600033E000BFAFF300809A99999999F958C05D
:1030700033333333333F8F401800002010000020DB
:1030800008000020200000200000594028000020F7
:103090003000002038000020000000204000002008
:1030A0004800002050000020580000206000002050
:1030B000680000206A00002097F9062097F90510A3
:1030C00001236548FFF7D0FD00BFB4E03B68013342
:1030D00093F90030062B00F2B08001A252F823F0E1
:1030E000FD3000082D3100085D3100088D310008E9
:1030F000BD310008EF3100081F3200087A79FB79F2
:103100001344DBB25BB297F9062019465348FFF728
:1031100073FD4DA4D4E90034CDE900344FF0000232
:103120004FF000034D48FFF73DFD81E07A79FB79D0
:103130001344DBB25BB297F9062019464848FFF703
:103140005BFD43A4D4E90034CDE900344FF0000224
:103150004FF000034248FFF725FD69E07A79FB79DB
:103160001344DBB25BB297F9062019463D48FFF7DE
:1031700043FD35A4D4E90034CDE900344FF000021A
:103180004FF000033748FFF70DFD51E07A79FB79E6
:103190001344DBB25BB297F9062019463248FFF7B9
:1031A0002BFD2BA4D4E90034CDE900344FF000020C
:1031B0004FF000032C48FFF7F5FC39E07A79FB79F2
:1031C0001344DBB25BB297F9062019462748FFF794
:1031D00013FD224BD3E90E124FF00003244CCDE92E
:1031E000003413460A462148FFF7DCFC20E07A79D8
:1031F000FB791344DBB25BB297F9062019461D48F0
:10320000FFF7FAFC154BD3E90C34CDE900344FF04D
:1032100000024FF000031748FFF7C4FC08E097F9DD
:10322000062097F9051001231348FFF71DFD00BF85
:1032300003E000BF02E000BF00E000BF00BF0C37AA
:10324000BD4690BDAFF300808FC2F5285CFF5840AB
:1032500033333333333F8F406C0000207000002045
:10326000780000208000002090000020A0000020B6
:1032700000005940A8000020E000002000000000ED
:1032800090B587B002AF0346FB712B4BD3E9000129
:10329000294BD3E902341A46234601F057FD034671
:1032A0000C46184621464FF00002244B02F02CF841
:1032B00003460C46C7E902341DA3D3E90023D7E92E
:1032C000020102F069F90346002B04D018A4D4E9E6
:1032D0000034C7E9023497F90730184601F084FE3C
:1032E000D7E9022301F0E6FE03460C4618462146C4
:1032F000134BD3E900341A46234601F029FD034657
:103300000C460F4AC2E900340B4BD3E902120A4BB8
:10331000D3E90034CDE9003413460A460848FFF7E4
:1033200041FC00BF1437BD4690BD00BFAFF3008025
:103330009A9999999999B93F100000200000594035
:1033400008000020B0B584B002AF0346FB71354BD6
:103350001B88012B0FD0022B3FD0002B00D05DE04B
:10336000314B9B7C002B0CBF01230023DBB21A46A0
:103370002D4B9A7452E097F90730002B0FDD2B4B41
:10338000DB7D002B03D0294B0022DA7516E0274B9A
:103390009B7D002B12D1254B01229A750EE0234B09
:1033A0009B7D002B03D0214B00229A7506E01F4B1A
:1033B000DB7D002B02D11D4B0122DA751B4B9B7D5F
:1033C000002B2AD0194BDB7D002B26D0174B002277
:1033D0009A75164B0022DA751FE0154BD3E90A45A2
:1033E00097F90730184601F0FFFD02460B462046CC
:1033F000294601F0ADFC03460C460D4AC2E90A34E9
:103400004FF000030B4CCDE900344FF000024FF0B9
:1034100000030948FFF7C6FB00E000BF00BF083704
:10342000BD46B0BD00000020400000205800002034
:1034300070000020000059409800002090B583B033
:1034400000AF7860144B1B88002B02D0012B08D0F2
:1034500013E0124B9B7C1A461149786802F028F958
:1034600015E0104B9B7D1A460E4BDB7DD31A1A4696
:103470000B49786802F01CF909E00B4BD3E90A34D8
:103480001A4623460949786802F012F900BF00BFC6
:103490000C37BD4690BD00BF00000020400000205A
:1034A000C49800085800002070000020BC98000854
:1034B00090B484B000AF03460A46FB711346BB715B
:1034C0000023FB60BB7903F003039B000F2202FA89
:1034D00003F3FB601649BB799B08DBB21846144A1C
:1034E000BB799B08DBB2023352F82320FB68DB4335
:1034F0001A40831C41F823200D48BB799B08DBB29E
:103500001C460B4ABB799B08DBB2023352F82320DE
:10351000F979BB7903F003039B0001FA03F31A4323
:10352000A31C40F8232000BF1037BD4690BC704755
:103530000000014080B483B000AF1C4B1B781A46DA
:103540001B4B19881B4B23F81210184B1B780133A7
:10355000DAB2164B1A70154B1B78C72B02D9134BD6
:1035600000221A7000237B6000237B800EE0B7F9F5
:103570000230104A32F813301A467B6813447B60DD
:10358000B7F902309BB201339BB27B80B7F90230AE
:10359000C72BECDD7B68084AA2FB03239B099BB287
:1035A00018460C37BD4680BC704700BF980C002001
:1035B000C20A0020080B00201F85EB5180B500AF28
:1035C000FDF7ACF800F054F800F068F900BF80BDDA
:1035D00080B483B000AF78607B681B78002B10D07C
:1035E0007B689A787B685B789A4206D27B689B7886
:1035F0000133DAB27B689A7009E07B680122DA70E5
:1036000005E07B680022DA707B6800229A7000BFB8
:103610000C37BD4680BC704780B483B000AF786083
:103620000B467B8013463B807B689B8A9AB27B88E3
:1036300013409BB23A889A4214D07B689B8A9BB213
:103640001AB2B7F90230DB431BB213401BB29AB275
:103650007B689A827B689B8A9AB23B8813439AB2B2
:103660007B689A8200BF0C37BD4680BC704700BFA4
:1036700080B500AF0C4B00229A750B4B0022DA7517
:103680000A4B00221A800A4B00221A7000223021B5
:103690000848FFF7C1FF00224FF440610648FFF7DA
:1036A000BBFF00BF80BD00BF58000020A80C002059
:1036B000AA0C002000080048001000482DE9F8433B
:1036C00000AF6F4B1B78002B00F0D6806D4B9B8AB0
:1036D000002B0CD06C4BD3E900016C4BD3E90034C8
:1036E0001A46234601F032FB03460C460BE0674BBB
:1036F000D3E90001644BD3E900341A46234601F0B4
:1037000025FB03460C46624AC2E90034604BD3E90C
:103710000034984624F000495A4BD3E902341A4643
:1037200023464046494601F037FF0346002B0DD0A3
:10373000584B1B78002B09D1524B00229A75514BE4
:103740000022DA75544B00221A8096E0504BD3E9E0
:1037500000341D4624F000464A4BD3E900341A4693
:1037600023462846314601F035FF0346002B2FD073
:10377000494B1B88002B2BD1454BD3E9000101237A
:103780001C464FF000024FF0000301F023FF0346F8
:10379000002B01D100231C46E3B21A46394B9A751F
:1037A0003B4BD3E9000101231C464FF000024FF0D0
:1037B000000301F0F1FE0346002B01D100231C465B
:1037C000E3B21A462F4BDA75334B00221A8054E0CD
:1037D000314B1B8801339AB22F4B1A80294B1A8A1E
:1037E0002D4B1B889A4206D9264B00229A75254BF1
:1037F0000022DA7541E0274B1B78002B2AD1244B9D
:10380000D3E9000101231C464FF000024FF00003F2
:1038100001F0E0FE0346002B01D100231C46E3B279
:103820001A46184B9A751A4BD3E9000101231C461E
:103830004FF000024FF0000301F0AEFE0346002BF4
:1038400001D100231C46E3B21A460E4BDA75114B28
:1038500001221A70104B1B881A460A4B1B8A194604
:10386000084B5B8A0B449A4207DD0B4B00221A80FF
:10387000084B00221A7000E000BFBDE8F88300BFCB
:103880000200002058000020C80A00200800002084
:10389000A00C0020AA0C0020A80C002090B400AFBF
:1038A000114A4FF000034FF00004C2E90A340F4BF5
:1038B00000221A800C4A4FF000034FF00004C2E9C6
:1038C0001034094A4FF000034FF00004C2E91234EB
:1038D000054A4FF000034FF00004C2E9143400BF62
:1038E000BD4690BC704700BF70000020C40A002095
:1038F0002DE9B04300AF564BD3E906014FF000026B
:103900004FF0000301F03EFE0346002B40F09D8087
:103910004F4BD3E902014FF000024FF0000301F0DA
:1039200031FE0346002B1FD0494BD3E90045484BDD
:10393000D3E90401464BD3E9062301F0E5FC024636
:103940000B46104619464FF00002424B01F000FAB8
:1039500002460B462046294601F0ACFB03460C46C6
:103960003B4AC2E9163430E0394BD3E90045384BC5
:10397000D3E90601364BD3E9022301F0C5FC024628
:103980000B46104619464FF00002324B01F0E0F9A9
:1039900002460B46904699462D4BD3E904012C4B29
:1039A000D3E9062301F0B0FC02460B4640464946E7
:1039B00001F0CEF902460B462046294601F07AFB7B
:1039C00003460C46224AC2E91634214BD3E900458E
:1039D0001F4BD3E9040102460B4601F0B9F9024638
:1039E0000B46104619461A4BD3E9062301F08CFC0E
:1039F00002460B464FF00000174901F0A7F90246B6
:103A00000B462046294601F055FB03460C46104A5A
:103A1000C2E918340E4BD3E900010D4BD3E904344D
:103A20001A46234601F046FB03460C46184621463B
:103A3000074BD3E906341A46234601F065FC0346DA
:103A40000C46034AC2E91A3400E000BFBDE8B08367
:103A5000700000200000F03F0000F0BF2DE9F843A7
:103A600000AF584B1B78002B00F0A780564BB3F8E3
:103A70007030002B0CD0554BD3E90001544BD3E9E7
:103A800000341A46234601F061F903460C460BE068
:103A90004F4BD3E900014D4BD3E900341A4623467E
:103AA00001F054F903460C464A4AC2E90034494B36
:103AB000D3E900341D4624F00046434BD3E90834D3
:103AC0001A4623462846314601F066FD0346002B80
:103AD00075D13D4BD3E912343B4AC2E914343A4B19
:103AE000D3E91034384AC2E912343A4BD3E90034EE
:103AF000354AC2E91034344BD3E90A45324BD3E995
:103B00001601314BD3E9102301F0D4FA02460B46DB
:103B1000904699462C4BD3E918012B4BD3E912233D
:103B200001F0C8FA02460B464046494601F010F93A
:103B300002460B4690469946234BD3E91A01224B85
:103B4000D3E9142301F0B6FA02460B464046494633
:103B500001F0FEF802460B462046294601F0F8F82F
:103B600003460C46184AC2E90A34174BD3E90A0146
:103B7000154BD3E90C341A46234601F02BFD0346BE
:103B8000002B06D0104BD3E90C340F4AC2E90A349B
:103B900016E00D4BD3E90A010B4BD3E90E341A465C
:103BA000234601F0F9FC0346002B09D0064BD3E96C
:103BB0000E34054AC2E90A3402E000BF00E000BF4B
:103BC000BDE8F8830200002070000020C80A002031
:103BD00008000020B00C00202DE9F04FDFF8E4923F
:103BE0008DB006460F4614461D4600F06DF999F952
:103BF0000080B8F1FF3FCDE9000146D022462B46B8
:103C00002046294601F0F0FC834600283DD132468B
:103C10003B463046394601F0E7FC0022824600234D
:103C2000002840F084803046394601F0ABFC002883
:103C300030D0002200232046294601F0A3FC834611
:103C4000A8B10122984B029200210022CDF828A0B1
:103C5000CDE90467CDE90645CDE908120393B8F133
:103C6000000F53D0914900200DB0BDE8F08F2046E1
:103C7000294600F047FF40B1002200232046294694
:103C800001F08AFC002840F0B780DDE900010DB0AA
:103C9000BDE8F08FDDE9000100F034FF8046002828
:103CA0005DD04FF0000A4FF0000B52465B46DDE955
:103CB000000101F067FC0028E7D03046394600F0EB
:103CC00021FF0028E1D02046294600F01BFF0028F4
:103CD000DBD099F90030744A039204210022022BB0
:103CE000CDE90467CDE90645CDE908AB02910A921A
:103CF00003D002A800F00CFF70B901F0D3FC22231E
:103D0000036009E000230024CDE9083402A800F094
:103D1000FFFE002800F086800A9B1BB101F0C2FC68
:103D20000A9B0360DDE908010DB0BDE8F08F204675
:103D3000294601F027FC0028A7D05C495A4BCDF852
:103D400028B001220020B8F1020FCDE90467CDE9C7
:103D5000064502920393CDE90801D7D197E7304693
:103D6000394600F0CFFE00289BD02046294600F0BF
:103D7000C9FE002895D0DDE900231046194601F060
:103D800033FC002873D1032399F900800293464B3A
:103D90000A900393CDE90467CDE90645002200238C
:103DA00030463946B8F1000F41D1414F4FF06046DF
:103DB000CDE9086701F0F0FB00289AD000223D4BC6
:103DC0002046294601F076F904460D4600F0A8FE8B
:103DD00002460B462046294601F0D4FB002843D179
:103DE000354B99F900804FF06042CDE90823B8F1D6
:103DF000020F7FF47EAF80E799F900302A4ACDF8B0
:103E000028B00121CDE90467CDE90645029103926E
:103E1000002B3FF477AF29490020022BCDE90801A0
:103E20007FF474AF01F03EFC2123036074E7244F5C
:103E30000026CDE9086701F0AFFB0028D7D00022AB
:103E40001C4B2046294601F035F904460D4600F08A
:103E500067FE02460B462046294601F093FB18B93F
:103E6000164B0022CDE9082399F90080BFE799F9A4
:103E700000900D4BCDF828800122CDE90467CDE9F3
:103E8000064502920393B9F1000F3FF43BAF0022C5
:103E900000231046194601F037FAB9F1020FCDE9B7
:103EA0000801BFD032E700BFCC9800080000F03F07
:103EB000FFFFEF470000E03FFFFFEFC70000F0FF0C
:103EC0000000F07FD00100202DE9F04F23F00048E2
:103ED00058EA020993B03CD0714C21F00046A6424A
:103EE00083460D460CDD06F1404606F5801656EA7F
:103EF0000B0038D16B498346584613B0BDE8F08FAC
:103F00009A4696462BD0A045EDDC654CA04578D06E
:103F1000002D0F468146CDE9002376DB0024BEF15B
:103F2000000F27D15E4B984500F08B805D4B984584
:103F300052D0BAF1804F00F0C2835B4B9A4519D141
:103F4000002D17DB4846394613B0BDE8F04F00F0AE
:103F500015BDCB465349584613B0BDE8F08F002835
:103F6000C1D1B045D1DD514813B0BDE8F04F00F0EC
:103F7000D1BD00244846394600F0C0FDBBF1000F1A
:103F80001CD0ED0F013D54EA050370D0484B984515
:103F900040F3948003F10473984540F30584454B46
:103FA0009E4270DDBAF1000F70DD3BA3D3E9002320
:103FB0001046194601F07EF883469DE726B1394B3D
:103FC00025F040429A42DCD1BAF1000FC0F2B08332
:103FD000002D08DB83468FE7BAF1000FC0F256844C
:103FE000CB46394688E706F1404606F5801656EA84
:103FF000040300F07B84012CECD1834601F10041E5
:104000007AE7BEF1000F83D06DE72B4B98452CDC8F
:10401000A3F15473984581DD4FEA2853A3F2FF338F
:10402000142B40F34B84C3F134032EFA03F202FA4B
:1040300003F39E457FF472AF02F00102C2F1020465
:104040006DE706F1404303F5801353EA0B0300F0DC
:104050003383184B9E4240F36083BAF1000F15DBA7
:10406000DDE900349B46214646E7022457E74A46ED
:1040700048463B46394600F069FE02460B4601F0D1
:1040800043F9834638E7BAF1000F8EDB4FF0000B9F
:10409000594631E7AFF300809C7500883CE4377ED9
:1040A0000000F07F0000F03F0000E03F149900089E
:1040B0000000E041FFFFEF3FFFFF3F43B6F5801FE9
:1040C0004FF0000205DAD44B00F0F4FF6FF0340239
:1040D0000E463315D14FC6F31306A3F2FF33134434
:1040E00046F07F5ABE421A460D934AF4401A40F3F6
:1040F000C183CB4B9E4240F3FD83134601330D93A6
:10410000C84B0022CDE9062300270026CDE9086729
:10411000CDE90E67AAF5801A00270246534651469C
:10412000CDE90A23DDE9062300F010FEDDE90623D0
:1041300080468946DDE90A0100F00AFE02460B4688
:104140000020B84901F0E0F80A460146CDE9101216
:10415000134649460246404600F0ACFF4FEA6A0368
:1041600043F000538C46834603F50023CDE904BC9D
:10417000DA468B46D9190023CDE902AB0293DDE97B
:1041800002AB002006460F4602460B4650465946F3
:1041900000F090FF02460B464046494600F0D6FD2F
:1041A000DDE90623804689463046394600F0CEFDDB
:1041B00002460B46DDE90A0100F0C8FD52465B46A7
:1041C00000F078FF02460B464046494600F0BEFD2F
:1041D000DDE9102300F06EFFDDE90467CDE906019B
:1041E00032463B463046394600F064FF78A3D3E9B7
:1041F000002306460F4600F05DFF77A3D3E90023B6
:1042000000F0A6FD32463B4600F054FF74A3D3E90C
:10421000002300F09DFD32463B4600F04BFF72A3A9
:10422000D3E9002300F094FD32463B4600F042FF04
:104230006FA3D3E9002300F08BFD32463B4600F02C
:1042400039FF6DA3D3E9002300F082FD324680469A
:1042500089463B463046394600F02CFF02460B4665
:104260004046494600F026FF524606460F465B464A
:10427000DDE9040100F06CFDDDE9062300F01AFF22
:1042800032463B4600F064FD5246804689465B4616
:104290005046594600F00EFF0022634BCDE90A015B
:1042A00000F056FD42464B4600F052FD02980F4684
:1042B000064632463B465046594600F0FBFE002279
:1042C00082468B46584B3046394600F03FFDDDE9CB
:1042D0000A2300F03BFD02460B464046494600F0EB
:1042E00035FDDDE9042300F0E5FE324680468946CF
:1042F0003B46DDE9060100F0DDFE02460B46404686
:10430000494600F025FD8046894602460B46504648
:104310005946CDE904AB00F01BFDDDE902AB38A343
:10432000D3E9002350460F4600F0C4FEDDE9042324
:10433000CDE902013946504600F008FD02460B4621
:104340004046494600F002FD2FA3D3E9002300F0C8
:10435000B1FE2FA3D3E90023804689465046394653
:1043600000F0A8FE02460B464046494600F0F0FC2D
:10437000DDE90E2300F0ECFC80460D98894600F044
:1043800033FE424606460F464B46DDE9020100F089
:10439000DFFCDDE9082300F0DBFC32463B4600F0A1
:1043A000D7FC32463B4650468B4600F0CFFCDDE959
:1043B000082300F0CBFCDDE9022300F0C7FC024635
:1043C0000B464046494600F0C1FC80462EE000BF47
:1043D000EF4E454A287ECA3F65DBC9934A86CD3FEA
:1043E00001411DA96074D13F4D268F515555D53FD0
:1043F000FFAB6FDBB66DDB3F033333333333E33F68
:10440000000000E009C7EE3FFD033ADC09C7EE3FBC
:10441000F5015B14E02F3EBE000040438E98030080
:1044200079B60B000000F03F000008408946013CCF
:1044300054EA0503DDE9000114BFD54CD54C002337
:10444000CDE9043403460C46CDE90234002302933F
:10445000DDE9024522462B4600F078FC52465B46D9
:1044600000F028FEDDE9002306460F464046494697
:1044700000F020FE02460B463046394600F068FC4C
:10448000224606460F462B4650465946CDE9006760
:1044900000F010FE0B4602468046894630463946FB
:1044A00000F056FCBC4B994206460D460C4640F3C4
:1044B0000E8101F13F4303F5E003034340F0EF8138
:1044C0009FA3D3E90023DDE9000100F041FC42464F
:1044D00082468B464B463046294600F037FC024662
:1044E0000B465046594601F075F8002840F0D78138
:1044F0002F463B154FF48012A3F2FE3342FA03F32A
:104500002344C3F30A52A54EA2F2FF321641C3F36D
:10451000130B0020C2F1140523EA06014BF4801BA3
:1045200002460B46002C4BFA05FB40464946B8BFF5
:10453000CBF1000B00F00AFC02460B468046894690
:10454000DDE9000100F004FC4FEA0B5A00247EA3D1
:10455000D3E9002320460D4600F0ACFD4246064656
:104560000F464B462046294600F0F0FB02460B461C
:10457000DDE9000100F0EAFB75A3D3E9002300F0B8
:1045800099FD75A3D3E90023804689462046294634
:1045900000F090FD02460B464046494600F0D8FB2D
:1045A0008046894602460B463046394600F0D0FB2D
:1045B00032463B4604460D4600F0C8FB02460B4619
:1045C0004046494600F0C2FB2246804689462B46BB
:1045D0002046294600F06EFD61A3D3E9002306467C
:1045E0000F4600F067FD60A3D3E9002300F0AEFBA7
:1045F00032463B4600F05EFD5DA3D3E9002300F0A8
:10460000A7FB32463B4600F055FD5BA3D3E90023F0
:1046100000F09CFB32463B4600F04CFD58A3D3E92A
:10462000002300F095FB32463B4600F043FD024676
:104630000B462046294600F089FB06460F460246F7
:104640000B462046294600F035FD0022CDE9000149
:104650004FF080433046394600F078FB02460B4667
:10466000DDE9000100F050FE424606460F464B468B
:104670002046294600F01EFD42464B4600F068FBEE
:1046800002460B463046394600F060FB22462B4678
:1046900000F05CFB02460B4600203D4900F056FB53
:1046A0008A44BAF5801FC0F236815146DDE9042301
:1046B00000F000FD83461FE4F34635491CE44A46FA
:1046C00048463B46394600F0F5FC834614E4344B3B
:1046D00021F000479F4240F30081324B0B440343DB
:1046E0000CD142464B4600F031FB02460B46DDE959
:1046F000000100F05BFF00283FF4FBAE22A3D3E9EA
:104700000023DDE9040100F0D5FC1FA3D3E9002359
:1047100000F0D0FC8346FFF7EFBBBAF1000FBFF605
:10472000B5ACDDE900349B4604F10041FFF7E4BB82
:1047300002460B460020164900F0E6FD48E400BFA3
:10474000FE822B654715973C00000000432EE63F94
:10475000EF39FAFE422EE63F396CA80C615C20BEB0
:10476000D0A4BE726937663EF16BD2C541BDBB3E77
:104770002CDE25AF6A56113F93BDBE166CC1663F55
:104780003E5555555555C53F59F3F8C21F6EA50105
:104790000000F03F0000F0BFFFFF8F40FFFF0F0061
:1047A000FFCB904000346F3F6F4B9E427FF76BAC66
:1047B0006E4B9E423FF7F6AB00226C4B00F0C6FA00
:1047C0005BA3D3E9002306460F4600F073FC5AA30F
:1047D000D3E90023804689463046394600F06AFC1A
:1047E000002282468B46624B3046394600F062FC1E
:1047F00002460B4652A1D1E9000100F0A7FA324669
:104800003B4600F057FC02460B460020594900F099
:104810009DFA3246CDE902013B463046394600F06A
:1048200049FC02460B46DDE9020100F043FC46A3C9
:10483000D3E9002300F03EFC02460B4650465946A1
:1048400000F084FA02460B4606460F4640464946AB
:1048500000F07EFA42464B46002082468B4600F02E
:1048600075FA02460B463046394600F06FFA80462C
:104870008946DCE500220023CDE90823CDE90E239B
:104880003A4B00220027CDE9062346E44A463B4640
:104890000020364900F038FD8346FFF72DBB2CA3DE
:1048A000D3E90023DDE9040100F004FC28A3D3E9E7
:1048B000002300F0FFFB8346FFF71EBBBEF1000F95
:1048C0007FF457ABC3F1140348FA03F202FA03F37F
:1048D000984524D07446FFF729BB264B9F423FF7EB
:1048E00008AEDDE902349A469B462FE602460B46A7
:1048F000FFF7C1BB18A3D3E90023CDE9082318A310
:10490000D3E90023CDE90E231B4B00224FF480276F
:10491000CDE9062301E45A4600F08EF9C6E602F01E
:104920000102C2F10204FFF701BB00BFAFF3008038
:10493000000000604715F73F44DF5DF80BAE543EC2
:10494000555555555555D53FFE822B654715F73FB3
:104950009C7500883CE4377E0000004003B8E23FCD
:1049600006D0CF43EBFD4C3EFEFFEF3F0000F03F93
:104970000000D03F0000E03F0000F83F2DE9F84381
:104980005D4EB6460E4076450C46054600F09580D5
:1049900000290B46024673DD0F157ED0A7F2FF37C4
:1049A000C3F31303F80743F4801364D403EBD27109
:1049B00000260B447F105200B64616204FF400111B
:1049C0000EEB01049C424FEAD2754FEA420203DC2F
:1049D0001B1B04EB010E0E44013805EB43034FEAA9
:1049E0005101EDD1844620244FF0004109E020D050
:1049F00003EBD275013C4FEA51012B444FEA4202CE
:104A000020D09E4501EB0C05F1DA002D05EB010CE1
:104A100009DBF0469542CEEB030300D9013B521B64
:104A20000844C646E4E7BCF1000FF2DB0EF10108D2
:104A3000F0E7954217D8002D05EB010C47DB9846AF
:104A40000023ECE7134310D14008731003F17F53A8
:104A500003F50013F20703EB075948BF40F000408D
:104A60004946BDE8F8837346C2E7411C33D000F0E5
:104A700001031844E8E75B0003EBD273520095E7AB
:104A800021F000460643ECD069BB0F46D30A153F20
:104A90005205002BFAD0DD0220D4002100E00146AF
:104AA0005B00DC0201F10100F9D5C0F1200422FA1B
:104AB00004F423437F1A824070E702460B4600F05D
:104AC000F9FA2A46234600F043F9BDE8F883BCF121
:104AD000000FABDAB3E701362046B6E720244FF0EB
:104AE000FF310020E3E702460B4600F02FF90246B3
:104AF0000B4600F009FCB4E70000F07F21F0004114
:104B0000704700BF41F0004101F58010C00F7047B1
:104B10000020704700200149704700BF0000F87F67
:104B2000F0B5C1F30A5EAEF2FF36132E83B0024633
:104B30000B460C464FEAD17507462EDC002E49DBAA
:104B40003B49314103EA010010432BD049080B4097
:104B500053EA02070CD04FF48023132E24EA0101FC
:104B600043FA06F444EA01040CBF4FF00047002763
:104B7000304B03EBC5052146D5E9004538462246B2
:104B80002B4600F0E5F8CDE9000122462B46DDE991
:104B9000000100F0DBF803B0F0BD332E06DDB6F502
:104BA000806F42D01046194603B0F0BDAEF2134EEE
:104BB0004FF0FF3121FA0EF10842F3D049080842C4
:104BC000D6D04FF0804320EA010143FA0EFE4EEAB0
:104BD0000107CDE721F000410143E3D0C3F3130106
:104BE000144E41EA000CCCF1000106EBC506D6E9F3
:104BF000006741EA0C0C5C0C4FEA1C3C0CF4002CE6
:104C000064044CEA040132463B4600F0A1F8CDE9C9
:104C100000013B463246DDE9000100F097F821F043
:104C2000004444EAC5731946BEE700F091F8BBE7BB
:104C3000FFFF0F00D0980008F8B5C1F30A560446EC
:104C40000D460B46174606BB21F00043034325D013
:104C50000022354B00F02EFA344A974204460D46A6
:104C60000B462ADBC1F30A56363E3E4440F2FE7242
:104C7000964228DC002E12DD23F0FF4323F4E003EC
:104C800043EA065520462946F8BD40F2FF72964297
:104C9000EBD102460B4600F05BF8F8BDF8BD16F10B
:104CA000350F1DDA4CF250339F4222462B4625DC4D
:104CB00019A1D1E9000100F03DF817A3D3E90023C1
:104CC00000F0F8F9F8BD22462B4615A1D1E9000104
:104CD00000F030F812A3D3E9002300F0EBF9F8BD9F
:104CE00023F0FF4323F4E003363643EA065520461B
:104CF000294600220E4B00F0DDF9F8BD08A1D1E9EC
:104D0000000100F017F806A3D3E9002300F0D2F960
:104D1000F8BD00BFAFF3008059F3F8C21F6EA501C4
:104D20009C7500883CE4377E00005043B03CFFFF98
:104D30000000903C03F0004321F0004242EA0301EE
:104D4000704700BF81F0004102E000BF83F00043E4
:104D500030B54FEA41044FEA430594EA050F08BF16
:104D600090EA020F1FBF54EA000C55EA020C7FEADA
:104D7000645C7FEA655C00F0E2804FEA5454D4EB57
:104D80005555B8BF6D420CDD2C4480EA020281EA21
:104D9000030382EA000083EA010180EA020281EA59
:104DA0000303362D88BF30BD11F0004F4FEA0131AB
:104DB0004FF4801C4CEA113102D0404261EB4101BA
:104DC00013F0004F4FEA03334CEA133302D0524240
:104DD00063EB430394EA050F00F0A780A4F10104FC
:104DE000D5F1200E0DDB02FA0EFC22FA05F2801836
:104DF00041F1000103FA0EF2801843FA05F359411C
:104E00000EE0A5F120050EF1200E012A03FA0EFC9A
:104E100028BF4CF0020C43FA05F3C01851EBE371C4
:104E200001F0004507D54FF0000EDCF1000C7EEBE1
:104E300000006EEB0101B1F5801F1BD3B1F5001F1F
:104E40000CD349085FEA30004FEA3C0C04F101043E
:104E50004FEA445212F5800F80F09A80BCF1004F67
:104E600008BF5FEA500C50F1000041EB045141EAE9
:104E7000050130BD5FEA4C0C404141EB010111F4EA
:104E8000801FA4F10104E9D191F0000F04BF014695
:104E90000020B1FA81F308BF2033A3F10B03B3F173
:104EA00020020CDA0C3208DD02F1140CC2F10C0203
:104EB00001FA0CF021FA02F10CE002F11402D8BF61
:104EC000C2F1200C01FA02F120FA0CFCDCBF41EA2D
:104ED0000C019040E41AA2BF01EB0451294330BDFC
:104EE0006FEA04041F3C1CDA0C340EDC04F11404D9
:104EF000C4F1200220FA04F001FA02F340EA0300B0
:104F000021FA04F345EA030130BDC4F10C04C4F1F5
:104F1000200220FA02F001FA04F340EA03002946D5
:104F200030BD21FA04F0294630BD94F0000F83F41F
:104F3000801306BF81F480110134013D4EE77FEA02
:104F4000645C18BF7FEA655C29D094EA050F08BF4E
:104F500090EA020F05D054EA000C04BF194610462F
:104F600030BD91EA030F1EBF0021002030BD5FEA73
:104F7000545C05D14000494128BF41F0004130BD9B
:104F800014F580043CBF01F5801130BD01F00045EF
:104F900045F0FE4141F470014FF0000030BD7FEA62
:104FA000645C1ABF194610467FEA655C1CBF0B465D
:104FB000024650EA013406BF52EA033591EA030F74
:104FC00041F4002130BD00BF90F0000F04BF00216C
:104FD000704730B54FF4806404F132044FF000059F
:104FE0004FF0000150E700BF90F0000F04BF002118
:104FF000704730B54FF4806404F1320410F000457E
:1050000048BF40424FF000013EE700BF42004FEA78
:10501000E2014FEA31014FEA02701FBF12F07F43F5
:1050200093F07F4F81F06051704792F0000F14BFF2
:1050300093F07F4F704730B54FF4607401F0004536
:1050400021F0004120E700BF50EA010208BF70478D
:1050500030B54FF000050AE050EA010208BF704782
:1050600030B511F0004502D5404261EB41014FF4EB
:10507000806404F132045FEA915C3FF4DCAE4FF0EF
:1050800003025FEADC0C18BF03325FEADC0C18BFD6
:10509000033202EBDC02C2F1200300FA03FC20FA27
:1050A00002F001FA03FE40EA0E0021FA02F1144474
:1050B000C1E600BF70B54FF0FF0C4CF4E06C1CEA89
:1050C00011541DBF1CEA135594EA0C0F95EA0C0FFE
:1050D00000F0DEF82C4481EA030621EA4C5123EA71
:1050E0004C5350EA013518BF52EA033541F48011A0
:1050F00043F4801338D0A0FB02CE4FF00005E1FB53
:1051000002E506F00042E0FB03E54FF00006E1FB9C
:1051100003569CF0000F18BF4EF0010EA4F1FF04DF
:10512000B6F5007F64F5407404D25FEA4E0E6D411F
:1051300046EB060642EAC62141EA55514FEAC52030
:1051400040EA5E504FEACE2EB4F1FD0C88BFBCF5AC
:10515000E06F1ED8BEF1004F08BF5FEA500E50F15D
:10516000000041EB045170BD06F0004646EA010123
:1051700040EA020081EA0301B4EB5C04C2BFD4EB55
:105180000C0541EA045170BD41F480114FF0000E4E
:10519000013C00F3AB8014F1360FDEBF002001F0BC
:1051A000004170BDC4F10004203C35DA0C341BDC36
:1051B00004F11404C4F1200500FA05F320FA04F008
:1051C00001FA05F240EA020001F0004221F000413C
:1051D00010EBD37021FA04F642EB06015EEA430EAF
:1051E00008BF20EAD37070BDC4F10C04C4F12005DF
:1051F00000FA04F320FA05F001FA04F240EA020092
:1052000001F0004110EBD37041F100015EEA430E62
:1052100008BF20EAD37070BDC4F1200500FA05F282
:105220004EEA020E20FA04F301FA05F243EA020301
:1052300021FA04F001F0004121FA04F220EA020010
:1052400000EBD3705EEA430E08BF20EAD37070BD56
:1052500094F0000F0FD101F00046400041EB010136
:1052600011F4801F08BF013CF7D041EA060195F018
:10527000000F18BF704703F00046520043EB0303D2
:1052800013F4801F08BF013DF7D043EA06037047BF
:1052900094EA0C0F0CEA135518BF95EA0C0F0CD0CA
:1052A00050EA410618BF52EA4306D1D181EA030110
:1052B00001F000414FF0000070BD50EA410606BF0A
:1052C0001046194652EA430619D094EA0C0F02D14F
:1052D00050EA013613D195EA0C0F05D152EA033694
:1052E0001CBF104619460AD181EA030101F00041B2
:1052F00041F0FE4141F470014FF0000070BD41F0FB
:10530000FE4141F4780170BD70B54FF0FF0C4CF4D4
:10531000E06C1CEA11541DBF1CEA135594EA0C0FF3
:1053200095EA0C0F00F0A7F8A4EB050481EA030E40
:1053300052EA03354FEA013100F088804FEA033327
:105340004FF0805545EA131343EA12634FEA0222F5
:1053500045EA111545EA10654FEA00260EF00041B6
:105360009D4208BF964244F1FD0404F5407402D208
:105370005B084FEA3202B61A65EB03055B084FEA99
:1053800032024FF480104FF4002CB6EB020E75EB96
:10539000030E22BFB61A754640EA0C005B084FEABE
:1053A0003202B6EB020E75EB030E22BFB61A75463B
:1053B00040EA5C005B084FEA3202B6EB020E75EB86
:1053C000030E22BFB61A754640EA9C005B084FEAFE
:1053D0003202B6EB020E75EB030E22BFB61A75460B
:1053E00040EADC0055EA060E18D04FEA051545EAFA
:1053F00016754FEA06164FEAC30343EA52734FEAA3
:10540000C2025FEA1C1CC0D111F4801F0BD141EA1B
:1054100000014FF000004FF0004CB6E711F4801F80
:1054200004BF01430020B4F1FD0C88BFBCF5E06F60
:105430003FF6AFAEB5EB030C04BFB6EB020C5FEA70
:10544000500C50F1000041EB045170BD0EF0004EC5
:105450004EEA113114EB5C04C2BFD4EB0C0541EAF7
:10546000045170BD41F480114FF0000E013C90E6F4
:1054700045EA060E8DE60CEA135594EA0C0F08BFB8
:1054800095EA0C0F3FF43BAF94EA0C0F0AD150EAB7
:1054900001347FF434AF95EA0C0F7FF425AF10464A
:1054A00019462CE795EA0C0F06D152EA03353FF472
:1054B000FDAE1046194622E750EA410618BF52EAEF
:1054C00043067FF4C5AE50EA41047FF40DAF52EAC3
:1054D00043057FF4EBAE12E74FF0FF3C06E000BF60
:1054E0004FF0010C02E000BF4FF0010C4DF804CD6D
:1054F0004FEA410C7FEA6C5C4FEA430C18BF7FEA2D
:105500006C5C1BD001B050EA410C0CBF52EA430C5A
:1055100091EA030F02BF90EA020F0020704710F1DA
:10552000000F91EA030F58BF994208BF90422CBF69
:10553000D8176FEAE37040F0010070474FEA410C62
:105540007FEA6C5C02D150EA013C07D14FEA430C80
:105550007FEA6C5CD6D152EA033CD3D05DF8040BF1
:10556000704700BF8446104662468C461946634623
:1055700000E000BF01B5FFF7B7FF002848BF10F1FA
:10558000000F01BD4DF808EDFFF7F4FF0CBF01203F
:1055900000205DF808FB00BF4DF808EDFFF7EAFFBB
:1055A00034BF012000205DF808FB00BF4DF808ED76
:1055B000FFF7E0FF94BF012000205DF808FB00BF6B
:1055C0004DF808EDFFF7CEFF94BF012000205DF8F5
:1055D00008FB00BF4DF808EDFFF7C4FF34BF012002
:1055E00000205DF808FB00BF4FEA410C7FEA6C5CCD
:1055F00002D150EA013C0AD14FEA430C7FEA6C5CCD
:1056000002D152EA033C02D14FF0000070474FF044
:10561000010070474FEA410212F5001215D211D570
:105620006FF47873B3EB625212D94FEAC12343F09F
:10563000004343EA505311F0004F23FA02F018BF21
:10564000404270474FF00000704750EA013005D1EA
:1056500011F0004008BF6FF0004070474FF00000AD
:10566000704700BF4A0011D212F5001211D20DD5B9
:105670006FF47873B3EB62520ED44FEAC12343F058
:10568000004343EA505323FA02F070474FF0000002
:10569000704750EA013002D14FF0FF3070474FF0B1
:1056A00000007047014B1868704700BF00060020DB
:1056B0000EB4F0B59CB021AB0F4953F8042B019305
:1056C00005466FF00044086802954FF402774FF6E4
:1056D000FF7602A90695ADF8147004940794ADF80E
:1056E000166000F00BF8029B00221A701CB0BDE897
:1056F000F04003B0704700BF000600202DE9F04FD6
:10570000C1B00C46099115460E930A9002F004FBB5
:1057100003681793184603F0D3F9A38916901E0661
:1057200003D52369002B01F0198100231A46129337
:105730002593249319930B93DFF864A4149230AB50
:10574000239399461592A84698F800304446EBB149
:10575000252B02D11AE0252B03D014F8013F002B92
:10576000F9D1C8EB04058DB1249B259AC9F80080B6
:1057700001332A44072BC9F804502592249300F3DF
:10578000A68009F108090B9B2B440B932378002B6F
:1057900000F0A68000231A468DF86F3019460C934E
:1057A00007934FF0FF3B637804F101085D4608F171
:1057B0000108A3F12000582800F22584DFE810F04A
:1057C00088032304230490032304230423042304D1
:1057D000230423049703A50323045D00E2002304AC
:1057E000FE00050105010501050105010501050191
:1057F00005010501230423042304230423042304B3
:1058000023042304230423041501810223048102B9
:105810002304230423042304C60223042304CD0207
:1058200023042304230423042304F702230423046E
:10583000250323042304230423042304230423042F
:105840002304230423046603790381028102810275
:105850008103790323042304D1032304DB03A3007E
:105860006400EE032304F5032304AA0323042304A2
:10587000BC030C980E9340420C90079B43F004032A
:10588000079398F8003092E70E98AB460021046821
:105890008DF86F10071D0798302378228B458DF8FF
:1058A00070304FF000058DF8712040F00203C0F217
:1058B000C78320F0800343F00203079354EA0503F3
:1058C0000E9700F093830F461192B348CEE223AABD
:1058D00009990A9803F062F948B90DF1C00952E735
:1058E000259B23B10A98099923AA03F057F9099B2C
:1058F0009B8913F0400F0B9B18BF4FF0FF331846E6
:1059000041B0BDE8F08F1193AB46002A41F02382ED
:10591000079A12F0200300F02E820E9F073727F01F
:105920000703002703F10801BB450E91D3E90045A9
:105930008DF86F70C0F2528722F08003079354EA0B
:10594000050300F0758330AEE20842EA4572E908CB
:1059500004F007030D461446303354EA050206F8F6
:10596000013DF1D1079AD10740F18480302B00F03E
:1059700081803022731E06F8012C30AAD21A0D92B3
:105980001E467AE098F800302A2B08F1010401F055
:10599000B181A3F13000092898BF002501F264818C
:1059A00014F8013B05EB850500EB4505A3F130003C
:1059B0000928F5D945EAE575A046FAE6079B43F0C4
:1059C0008003079398F80030F1E6A3F1300000233C
:1059D0001C4618F8013B04EB840400EB4404A3F1DB
:1059E00030000928F5D90C94E3E61193AB46002A60
:1059F00041F0C981079B43F010030793079B98066A
:105A000040F130850E9F073727F00707D7E90023BD
:105A100007F108010E9114461D46002A73F1000398
:105A2000C0F25B85BBF1000F9DF86F70C0F2388546
:105A3000079B23F08003079354EA050300F0DB8102
:105A4000002D08BF0A2CC0F0DB8130AE204629466D
:105A50000A22002303F02AFD303206F8012D2046E9
:105A6000294600230A2203F021FD04460D4654EA8C
:105A70000503EBD130AB9B1B0D930D9B5B45B8BF72
:105A80005B4608930023139317B1089B01330893D7
:105A9000079B13F002030F9302D0089B0233089375
:105AA000079B13F08403109340F0D7820C9B089A55
:105AB0009D1A002D40F3D182102D2599249A374F3D
:105AC00027DD189648461024B946099E2F460A9DA0
:105AD00004E0103F102F00F1080016DD01322F4BBB
