:020000040800F2
:1000000000A0002041230008852300088523000864
:1000100085230008852300088523000800000000D0
:100020000000000000000000000000008523000820
:1000300085230008000000008523000885230008B0
:1000400085230008852300088523000885230008F0
:1000500085230008852300088523000885230008E0
:1000600085230008852300088523000885230008D0
:1000700085230008852300088523000885230008C0
:1000800085230008852300088523000885230008B0
:10009000852300088523000885230008FD0F00083C
:1000A0008523000885230008852300088523000890
:1000B00085230008210B0008A10C000885230008F7
:1000C0008523000885230008852300088523000870
:1000D0008523000885230008852300088523000860
:1000E0008523000885230008852300088523000850
:1000F0008523000885230008852300088523000840
:10010000000000000000000000000000852300083F
:10011000852300088523000885230008E10E0008D8
:10012000852300088523000885230008852300080F
:10013000852300088523000800000000000000005F
:10014000852300088523000885230008000000009F
:10015000000000000000000000000000000000009F
:10016000000000000000000085230008852300082F
:1001700085230008000000000000000000000000CF
:10018000000000008523000880B485B000AF7860CF
:100190000023FB607B681B0FFB60FB68002B06D015
:1001A0000B4A0B4BDB6A23F47853D36205E0084A11
:1001B000074BDB6A23F4F873D3620549044BDA6A10
:1001C0007B681343CB6200BF1437BD4680BC7047C9
:1001D0000010024080B483B000AF78600B46FB7023
:1001E000FB78002B06D00949084B5A697B681343FA
:1001F0004B6106E00549054B5A697B68DB431340B8
:100200004B6100BF0C37BD4680BC704700100240F8
:1002100080B483B000AF78600B46FB70FB78002B96
:1002200006D00949084B9A697B6813438B6106E045
:100230000549054B9A697B68DB4313408B6100BF1E
:100240000C37BD4680BC70470010024080B483B0BC
:1002500000AF78600B46FB70FB78002B06D0094995
:10026000084BDA697B681343CB6106E00549054B0F
:10027000DA697B68DB431340CB6100BF0C37BD46B6
:1002800080BC70470010024080B500AF074B0022D1
:100290009A7400221021064802F00AFF00224FF44F
:1002A0008061044802F004FF00BF80BD40000020D0
:1002B0000008004800100048F8B500AF264B1B7836
:1002C000002B46D0254B1B8A002B0CD0244BD3E9A6
:1002D0000001244BD3E900341A46234604F0A2FA65
:1002E00003460C460BE01F4BD3E900011C4BD3E93E
:1002F00000341A46234604F095FA03460C461A4A7F
:10030000C2E90034154BD3E90001174BD3E900349F
:100310001A46234604F0ACFE0346002B03D00F4BD5
:1003200001229A7416E00D4BD3E902341D4684F085
:1003300000460D4BD3E900341A4623462846314681
:1003400004F0AAFE0346002B04D0044B00229A744A
:1003500000E000BFF8BD00BF020000204000002008
:10036000680A002008000020580A002080B485B0E8
:1003700000AF786039600023FB607B68DB68FB605E
:10038000FA68194B1340FB603B681A683B685B686E
:100390001A433B689B681A433B68DB681A433B6817
:1003A0001B691A433B685B691A433B689B691343AB
:1003B000FA681343FB607B68FA68DA607B681B6B42
:1003C000FB60FB6823F00F03FB603B681B7F013B76
:1003D0001A46FB681343FB607B68FA681A6300BF28
:1003E0001437BD4680BC704707C0FFFD80B485B0A0
:1003F00000AF786039600023FB607B68B3F1A04FE9
:1004000003D07B681C4A934207D11C4B9B68FB605E
:10041000FA681B4B1340FB6006E01A4B9B68FB60BD
:10042000FA68174B1340FB603B681A683B685B68CF
:100430001A433B689B681A433B68DB681B031A43FB
:100440003B681B7C1B021343FA681343FB607B6809
:10045000B3F1A04F03D07B68074A934203D1074A08
:10046000FB68936002E0074AFB68936000BF1437A3
:10047000BD4680BC704700BF000100500003005023
:10048000E010FCFF0007005080B483B000AF78603C
:100490000B46FB70FB78002B06D07B689B6843F013
:1004A00001027B689A6005E07B689B6843F002026A
:1004B0007B689A6000BF0C37BD4680BC704700BFA8
:1004C00080B485B000AF7860084611461A460346EE
:1004D000FB700B46BB7013467B700023FB60002350
:1004E000BB60BB78042B21D87B681B6BFB60BA78A0
:1004F00013465B0013445B001A461F239340BB6006
:10050000BB68DB43FA681340FB60F978BA7813469E
:100510005B0013445B0001FA03F3BB60FA68BB683D
:100520001343FB607B68FA681A6374E0BB78092B9D
:1005300023D87B685B6BFB60BB785A1F13465B005C
:1005400013445B001A461F239340BB60BB68DB4328
:10055000FA681340FB60F978BB785A1F13465B00BA
:1005600013445B0001FA03F3BB60FA68BB681343F2
:10057000FB607B68FA685A634DE0BB780E2B25D888
:100580007B689B6BFB60BB78A3F10A0213465B00A0
:1005900013445B001A461F239340BB60BB68DB43D8
:1005A000FA681340FB60F978BB78A3F10A0213469E
:1005B0005B0013445B0001FA03F3BB60FA68BB689D
:1005C0001343FB607B68FA689A6324E07B68DB6B0B
:1005D000FB60BB78A3F10F0213465B0013445B0082
:1005E0001A461F239340BB60BB68DB43FA68134085
:1005F000FB60F978BB78A3F10F0213465B0013444C
:100600005B0001FA03F3BB60FA68BB681343FB604D
:100610007B68FA68DA63FB78092B23D97B689B69CE
:10062000FB60FB78A3F10A0213465B001344072228
:1006300002FA03F3BB607B689A69BB68DB431A402C
:100640007B689A617B6899697878FB78A3F10A02E4
:1006500013465B00134400FA03F341EA03027B688C
:100660009A611FE07B685B69FB60FB785A1E13464A
:100670005B001344382202FA03F3BB607B685A69BB
:10068000BB68DB431A407B685A617B68596978789C
:10069000FA7813465B00134400FA03F341EA0302BD
:1006A0007B685A6100BF1437BD4680BC704700BFED
:1006B00080B483B000AF78607B689B6843F004022D
:1006C0007B689A6000BF0C37BD4680BC704700BF96
:1006D00080B483B000AF78600B46FB70FB78002BD2
:1006E00006D07B68DB6843F001027B68DA6005E0D6
:1006F0007B68DB6823F001027B68DA6000BF0C379F
:10070000BD4680BC704700BF80B483B000AF786046
:1007100039607B68DB6823F002027B68DA607B6803
:10072000DA683B681A437B68DA6000BF0C37BD4665
:1007300080BC704780B483B000AF78607B681B7862
:100740002D3B482B00F2C68001A252F823F000BFD7
:10075000D1080008D5080008D50800087508000869
:10076000790800087D08000881080008850800084D
:10077000890800088D0800089108000895080008FD
:1007800099080008D5080008D5080008D508000811
:10079000D5080008D5080008D5080008D5080008C5
:1007A000C9080008D5080008D5080008D5080008C1
:1007B000A5080008D5080008D5080008B5080008F5
:1007C00079080008D5080008D50800089D08000829
:1007D000D5080008D508000875080008A908000811
:1007E000D5080008D508000889080008D5080008C1
:1007F000A1080008D5080008D5080008D508000899
:10080000D5080008D5080008D5080008D508000854
:10081000D5080008D5080008D5080008D508000844
:10082000D5080008C1080008D5080008AD08000870
:10083000D5080008D508000899080008D508000860
:10084000D5080008D5080008D5080008D508000814
:10085000D5080008CD080008C5080008D50800081C
:10086000D5080008B9080008D5080008BD08000828
:10087000B10800083F232EE006232CE05B232AE08A
:100880004F2328E0662326E06D2324E07D2322E029
:10089000072320E07F231EE06F231CE038231AE0AB
:1008A0003E2318E0792316E0732314E05E2312E060
:1008B0001C2310E076230EE050230CE078230AE09E
:1008C0007C2308E05C2306E0772304E0542302E065
:1008D000402300E0002318460C37BD4680BC70471B
:1008E00080B582B000AF786039601AE03868FFF7F1
:1008F00021FF03461A467B681A703B6801333B6050
:100900003B681B782E2B09D17B681B7863F07F0333
:10091000DAB27B681A703B6801333B607B68013355
:100920007B603B681B78002BE0D100BF0837BD46D9
:1009300080BD00BF80B487B000AF7860396000230D
:100940007B6100233B610023FB6000237B617EE031
:1009500001227B6902FA03F33B613B681A683B6939
:100960001340FB60FA683B699A426DD13B681B7982
:10097000012B03D03B681B79022B36D17B689A6828
:100980007B695B00032101FA03F3DB431A407B68B8
:100990009A607B689A683B685B7919467B695B0063
:1009A00001FA03F31A437B689A607B689B889AB2CA
:1009B0007B699BB2012101FA03F39BB2DB439BB23B
:1009C00013409AB27B689A807B689B889BB21AB26C
:1009D0003B689B7919467B699BB201FA03F31BB212
:1009E00013431BB29AB27B689A807B681A687B6952
:1009F0005B00032101FA03F3DB431A407B681A60B2
:100A00007B681A683B681B7919467B695B0001FAB1
:100A100003F31A437B681A607B68DA687B699BB2D0
:100A20005B00032101FA03F3DB431A407B68DA60C1
:100A30007B68DA683B68DB7919467B695B0001FA01
:100A400003F31A437B68DA607B6901337B617B695E
:100A50000F2B7FF67DAF00BF1C37BD4680BC7047B3
:100A600080B485B000AF78600B467B8013467B7006
:100A70000023FB600023BB607A787B8803F00703C8
:100A80009B0002FA03F3FB607B88DB089BB21846ED
:100A90007B88DB089BB21A467B68083253F8222019
:100AA0007B8803F007039B000F2101FA03F3DB436C
:100AB00002EA03017B6800F1080243F822107B88F8
:100AC000DB089BB21A467B68083253F82220FB6889
:100AD0001343BB607B88DB089BB21A467B680832F5
:100AE000B96843F8221000BF1437BD4680BC704778
:100AF00080B500AF00F0FCFB00F090FC00F0C8FCFB
:100B000000F0FEFC00F074FD00F0CAFD00F024FED1
:100B100002F0A0FA02F064FCFEE700BF0000000053
:100B2000F8B500AF0121524801F0F8FB02F04EFA8F
:100B30000346184603F0C4FF05460E464D4BD3E965
:100B400000014C4BD3E902341A46234603F06AFEF7
:100B500003460C461A4623462846314604F016F84A
:100B600003460C46184621463FA3D3E9002304F070
:100B700037F903460C46184621463E4BD3E902346A
:100B80001A46234603F050FE03460C463A4AC2E991
:100B900000343A4B1B88002B02D0012B18D03DE0CB
:100BA000FFF78AFB364B9B7C9BB21B019BB21A461C
:100BB0001021344802F07CFA314B9B7C9BB29B02A3
:100BC0009BB21A464FF480612F4802F071FA47E059
:100BD00002F0BCFA02F002FB2C4B1B7E1B011AB286
:100BE0002A4B5B7E5B011BB213431BB29BB21A46BE
:100BF0003021244802F05CFA244B1B7E9B021AB27F
:100C0000224B5B7EDB021BB213431BB29BB21A4624
:100C10004FF440611C4802F04BFA21E01C4B1B785A
:100C20000133DAB21A4B1A70194B1B78192B16D9EB
:100C3000174B00221A7002F07DFC164BD3E90A0113
:100C40004FF00002144B03F0A1FF03460C46184678
:100C5000214604F073FA03469AB2104B1A8000BF83
:100C600000BFF8BDAFF300800000000000FEAF4001
:100C70000004004010000020680A0020000000204E
:100C800040000020000800480010004858000020E4
:100C90007D0A00207800002000002440640A002023
:100CA000F8B500AF01217B4801F038FB7A4BD3E95E
:100CB00000017A4BD3E902341A46234603F0B2FD11
:100CC00003460C46184621464FF00002744B03F0D1
:100CD0005DFF03460C461D462646704BD3E90001D6
:100CE0006E4BD3E902341A46234603F09BFD0346BC
:100CF0000C461A4623462846314604F071F803464E
:100D00000C461846214604F019FA0346DAB2654B40
:100D10001A70644B1B78184603F0D2FE624BD3E97D
:100D20000034012215461A46234604F0BFF9034653
:100D3000002B01D100231D46EBB21A465B4B1A7003
:100D4000584B1B78184603F0BBFE574BD3E90234CF
:100D5000012215461A46234604F0A8F90346002B43
:100D600001D100231D46EBB21A46514B1A704D4B70
:100D70001B78184603F0A4FE4B4BD3E90434012240
:100D800015461A46234604F073F90346002B01D199
:100D900000231D46EBB21A46464B1A70414B1B7896
:100DA000184603F08DFE404BD3E906340122154668
:100DB0001A46234604F05CF90346002B01D10023B8
:100DC0001D46EBB21A463C4B1A703C4802F04CF9F7
:100DD0003B4802F049F93B4802F046F93A4802F034
:100DE00043F93A4802F040F9394802F03DF92F48FA
:100DF00002F03AF92E4802F037F92E4802F034F9A1
:100E00002D4802F031F9334B93F900309BB21B02AD
:100E10009BB21A464FF480712F4802F049F9234BD8
:100E2000DB781B031AB2224BDB785B031BB2134344
:100E30001AB2204BDB789B031BB213431AB21E4B32
:100E4000DB78DB031BB213431BB29BB21A464FF491
:100E50007041214802F02CF9144BDB781AB2144B84
:100E6000DB785B001BB213431AB2124BDB789B009A
:100E70001BB213431AB2104BDB78DB001BB21343D7
:100E80001BB29BB21A460F21144802F011F900BFA1
:100E9000F8BD00BF00080040680A002010000020D4
:100EA000000059407F0A0020200000200801002097
:100EB0000C0100201001002014010020F00000208F
:100EC000F4000020F8000020FC00002000010020B9
:100ED0000401002002000020001000480008004823
:100EE00098B500AF01213D4801F018FA3C4B1B7842
:100EF0003B2B06D83A4B1B780133DAB2384B1A70C9
:100F00000CE0374B00221A70364B1B78002B0CBFBD
:100F100001230023DBB21A46324B1A70324B1B7886
:100F2000002B0DD100F09CFE034619462F48FFF719
:100F3000D7FC00F0E1FE034619462D48FFF7D0FC30
:100F40002C49294B1B781A46284B9B5C1AB2264B1E
:100F50001B781846264B1B5C1B021BB213431BB2AB
:100F60009BB28B82244B244A928A92B2D2B292B222
:100F70009A821D4B1B780833012202FA03F400F019
:100F80003BFF03461A46184B1B789A4203D1154B78
:100F90001B78002B01D0012200E00022124B1B78AD
:100FA0000C3302FA03F344EA03001349124B9B8A01
:100FB0009BB21AB203B213431BB29BB28B820A4B91
:100FC0001B780133DAB2084B1A70074B1B78032BDE
:100FD00002D9054B00221A7000BF98BD00140040D2
:100FE0007C0A00207E0A0020700A0020740A00207B
:100FF000780A0020000C00480004004880B500AFCB
:10100000052000F0C5FC062000F0C2FC072000F01F
:10101000BFFC082000F0BCFC4FF090431B8A9BB241
:1010200003F02003002B01D0012300E00023DAB2FB
:101030006B4B1A704FF090431B8A9BB203F0400336
:10104000002B01D0012300E00023DAB2654B1A70B7
:101050004FF090431B8A9BB203F08003002B01D01A
:10106000012300E00023DAB25F4B1A704FF0904387
:101070001B8A9BB203F48073002B01D0012300E094
:101080000023DAB2594B1A704FF090431B8A9BB27F
:1010900003F08003002B01D0012300E00023DAB22B
:1010A000534B1A704FF090431B8A9BB203F480732A
:1010B000002B01D0012300E00023DAB24D4B1A705F
:1010C000474BDB78002B0CD04FF090431B8A9BB230
:1010D00003F02003002B04D100F0DAFC404B002287
:1010E000DA70404BDB78002B0CD04FF090431B8A1A
:1010F0009BB203F04003002B04D100F009FD394BF3
:101100000022DA703A4BDB78002B10D04FF090437E
:101110001B8A9BB203F08003002B08D1364B0122BF
:101120001A70334B0022DA702F4B0022DA70314BE9
:10113000DB78002B23D04FF090431B8A9BB203F443
:101140008073002B1BD12C4B93F90030002B05D062
:10115000294B00221A7000F033FE0AE0274B93F966
:101160000030002B0CBF01230023DBB25AB2234B0B
:101170001A70204B0022DA701C4B0022DA701A4BD6
:10118000DB78002B12D04FF090431B8A9BB203F008
:101190008003002B0AD100F0FDFC134B0022DA7013
:1011A000174B00221A70174B00221A700F4BDB7876
:1011B000002B12D04FF090431B8A9BB203F4807334
:1011C000002B0AD100F014FD084B0022DA700C4B02
:1011D00000221A700B4B00221A7000BF80BD00BFA6
:1011E000F0000020F4000020FC000020F8000020A7
:1011F0000401002000010020600A002002000020FD
:101200007E0A00207C0A002080B485B000AF7860A0
:1012100039600023FB607B681B68FB60FB6823F47C
:10122000FF4323F07003FB603B689A683B681B6ACE
:101230001A433B681B691A433B685B691A433B6866
:101240009B691A433B68DB691A433B685B6A1A4334
:101250003B689B6A1343FA681343FB607B68FA6838
:101260001A603B689B891A467B685A603B681A681B
:101270007B689A603B685A687B68DA6000BF143705
:10128000BD4680BC704700BF80B483B000AF7860BB
:101290000B46FB70FB78002B06D07B681B6843F085
:1012A00001027B681A6006E07B681A684FF6FE73DD
:1012B00013407A68136000BF0C37BD4680BC70478E
:1012C00080B483B000AF0346FB71084997F907303B
:1012D0005B09FA7902F01F02012000FA02F241F8DC
:1012E000232000BF0C37BD4680BC704700E100E002
:1012F00080B582B000AF01214FF40030FEF76AFFE5
:1013000001214FF48020FEF765FF01214FF40020FA
:10131000FEF760FF01214FF48010FEF75BFF012113
:101320004FF40010FEF756FF02233B6003233B718E
:101330003B4619464FF09040FFF7FCFA4FF4F0732C
:101340003B6000233B7102237B710223FB713B4610
:1013500019464FF09040FFF7EDFA4FF400733B60F1
:1013600002233B7101237B710023BB713B4619466D
:101370004FF09040FFF7DEFA062209214FF090402F
:10138000FFF76EFB4FF47F433B6001233B7101236A
:101390007B710023BB710023FB713B4619461B4840
:1013A000FFF7C8FA3F233B6001233B7101237B71A8
:1013B0000023BB710023FB713B4619461448FFF71D
:1013C000B9FA4FF6FF733B6001233B7101237B7138
:1013D0000023BB710023FB713B4619460D48FFF704
:1013E000A9FA4FF47F433B6001233B7101237B71DA
:1013F0000023BB710023FB713B4619460648FFF7EB
:1014000099FA00BF0837BD4680BD00BF0004004800
:1014100000080048000C00480010004880B582B069
:1014200000AF01210120FEF7F3FE0521002001F0AD
:101430008BFD0621002001F087FD0721002001F02F
:1014400083FD0821002001F07FFD00233B71102364
:101450007B710123BB7105233B603B46184600F0BE
:101460009DF906233B603B46184600F097F9072399
:101470003B603B46184600F091F908233B603B4631
:10148000184600F08BF900BF0837BD4680BD00BF8D
:1014900080B582B000AF1D233B7100237B71002318
:1014A000BB710123FB713B1D184600F083FD1E2319
:1014B0003B7100237B710323BB710123FB713B1D37
:1014C000184600F077FD37233B7100237B71022320
:1014D000BB710123FB713B1D184600F06BFD172308
:1014E0003B7100237B710123BB710123FB713B1D09
:1014F000184600F05FFD00BF0837BD4680BD00BF45
:1015000080B584B000AF01214FF40060FEF780FE8B
:1015100001210220FEF79AFE01210420FEF796FE2B
:1015200001212020FEF792FE0023FB802423BB80B4
:101530004FF47A73BB603B1D1946294800F09CFDAF
:101540000121274800F00EFE0121254800F0AAFEE7
:101550000023FB8048F6A043BB800223BB6001232D
:10156000BB813B1D19461F4800F086FD01211D4827
:1015700000F0F8FD012201211A4800F0AFFE00231F
:10158000FB8048F6A043BB803223BB600023BB81B5
:101590003B1D1946144800F06FFD0121124800F070
:1015A000E1FD01220121104800F098FE0023FB809C
:1015B00048F6A043BB800523BB603B1D19460B4882
:1015C00000F05AFD0121094800F0CCFD0122012163
:1015D000064800F083FE00BF1037BD4680BD00BF47
:1015E000002C0140000400400008004000140040AE
:1015F00080B58EB000AF01214FF08050FEF7EAFDBC
:101600004FF49870FEF7C0FD00237B600023BB60A1
:101610004FF40043FB6002233B6100233B753B1DFD
:1016200019464FF0A040FEF7E1FE01214FF0A04027
:10163000FFF74EF802214FF0A040FFF765F84FF496
:101640000053BB610023FB6100233B6200237B62EC
:101650000023BB620023FB6200233B63012387F866
:10166000343007F1180319464FF0A040FEF77EFE14
:1016700001214FF0A040FEF707FF032301220221C2
:101680004FF0A040FEF71CFF1220FFF719FE4FF0AD
:10169000A040FFF70DF800BF3837BD4680BD00BF42
:1016A00080B58CB000AF01210120FEF793FD244BE3
:1016B0007B60244BBB600023FB6001233B82002343
:1016C0007B610023BB614FF48073FB614FF4806347
:1016D0003B6220237B624FF40053BB620023FB621A
:1016E0003B1D19461848FFF78FFD184B7B60184BC0
:1016F000BB600023FB6001233B8200237B6100234E
:10170000BB614FF48073FB614FF480633B62202325
:101710007B624FF40053BB624FF48043FB623B1D7E
:1017200019460C48FFF770FD01210748FFF7ACFD93
:1017300001210848FFF7A8FD00BF3037BD4680BD36
:1017400040000050620A002008000240640A0020A5
:10175000382C01403000024080B586B000AF4FF415
:101760007A73FB6060237B6001233B8104237B81D0
:1017700000233B8200237B824FF48073BB824FF4B3
:101780000073FB823B1D1946034800F00BFD00BFB0
:101790001837BD4680BD00BF002C014080B485B025
:1017A00000AF78600023FB60754BFB607B689B7922
:1017B000002B00F0C8807B681B685B0903F1007395
:1017C00003F502635B0118467B681B685B0903F144
:1017D000007303F502635B011A687B681B6803F002
:1017E0001F03012101FA03F3DB43134003607B680D
:1017F0001B685B095A01634B134418467B681B68DE
:101800005B095A015F4B13441A687B681B6803F03D
:101810001F03012101FA03F3DB43134003607B68DC
:101820001B791A467B681B685B095B011344FA68E5
:101830001344FB60FB68FA6812687968096801F074
:101840001F01012000FA01F10A431A604C4BFB60B2
:101850007B681B685B095A014B4B134418467B6835
:101860001B685B095A01484B13441A687B681B6864
:1018700003F01F03012101FA03F3DB43134003606C
:101880007B681B685B095A01404B134418467B6810
:101890001B685B095A013D4B13441A687B681B683F
:1018A00003F01F03012101FA03F3DB43134003603C
:1018B0007B685B79102B2ED17B681B685B095A0112
:1018C000314B134418467B681B685B095A012E4B49
:1018D00013441B687A68126802F01F02012101FAA2
:1018E00002F2134303607B681B685B095A01274BB4
:1018F000134418467B681B685B095A01234B134449
:101900001B687A68126802F01F02012101FA02F2D4
:10191000134303602FE07B685B791A467B681B6882
:101920005B095B011344FA681344FB60FB68FA68C7
:1019300012687968096801F01F01012000FA01F1BD
:101940000A431A6017E07B681B791A467B681B689C
:101950005B095B011344FA681344FB60FB68FA6897
:1019600011687A68126802F01F02012000FA02F280
:10197000D2430A401A6000BF1437BD4680BC70478E
:101980000004014004040140080401400C0401402B
:1019900080B483B000AF78607B685B095A01074B65
:1019A000134419467B6803F01F03012202FA03F374
:1019B0000B6000BF0C37BD4680BC7047140401406B
:1019C00080B483B000AF0346FB710A4B93F900303B
:1019D000002B02D0012B02D006E0052305E097F989
:1019E0000730054AD35600E0002318460C37BD46A1
:1019F00080BC7047830A0020D801002090B585B0D4
:101A000000AF0346FB71204B93F90030013B23EA02
:101A1000E373FB731C4B93F900301A461B4B9B5628
:101A20001A4697F907301344002B08DA97F90F305C
:101A3000164AD3561846FFF7C3FF034620E0124B61
:101A400093F900301A46114B9B561A4697F9073006
:101A5000D41897F90F300D4AD3561846FFF7B0FF48
:101A600003469C4201DD00230AE0074B93F9003056
:101A70001A46064B9B56DAB2FB791344DBB25BB2D3
:101A800018461437BD4690BD830A0020800A002006
:101A900098B500AF194B93F90030002B21D0184BAB
:101AA00093F90030002B0FDD164800F069FD034666
:101AB00004331B78303BDBB258B2114B93F9003042
:101AC000104A012100F07CFE0F4B93F900301C46B8
:101AD0004FF0FF30FFF792FF03461A46094B1A55A5
:101AE0000AE00A4B1B78002B03D0012001F0E4F838
:101AF00002E0012001F05AF900BF98BD600A002001
:101B0000840A0020800A0020830A002002000020AE
:101B100098B500AF1A4B93F90030002B21D0194B28
:101B200093F90030002B10DD174800F029FD034623
:101B300004331B78303BDBB258B2124B93F90030C0
:101B4000114A4FF0FF3100F03BFE104B93F900308B
:101B50001C460120FFF752FF03461A460A4B1A554E
:101B60000CE00B4B1B78002B04D04FF0FF3001F042
:101B7000A3F803E04FF0FF3001F018F900BF98BD63
:101B8000600A0020840A0020800A0020830A0020C6
:101B90000200002080B400AF124B93F90030002BFC
:101BA0001CD0114B93F90030012B09DC0E4B93F93B
:101BB0000030DBB20133DBB25AB20B4B1A700DE0CE
:101BC0000A4B93F90030032B08DC084B93F90030E3
:101BD000DBB20133DBB25AB2044B1A7000BFBD4610
:101BE00080BC7047600A0020830A0020840A00201D
:101BF00080B400AF164B93F90030002B23D0154B67
:101C000093F90030002B15D1134B93F90030002BC2
:101C100019DD114B93F900301A46104B00219954ED
:101C20000D4B93F90030DBB2013BDBB25AB20A4BE9
:101C30001A7008E0074B93F90030DBB2013BDBB2CE
:101C40005AB2044B1A7000BFBD4680BC704700BF3B
:101C5000600A0020840A0020830A0020800A0020F5
:101C600098B500AF1A4B93F90030002B24D0194BD4
:101C700093F90030012B05D0022B0BD0002B19D18A
:101C8000154B23E0154B93F900301A46144B53F8CB
:101C900022301BE0114B93F9003019460F4B93F99A
:101CA000013018460F4A0B46DB005B1A034452F81A
:101CB00023300BE00C4B09E00C4BD3E900341A46FF
:101CC00023460B490B4803F05FFA0A4B184698BDB0
:101CD000600A0020830A00208C930008800A0020FC
:101CE000180100203001002094930008680A0020A9
:101CF0009C930008880A0020B0B500AF264B93F9EA
:101D00000030002B33D0254B93F90030012B0BD042
:101D1000022B19D0002B28D1214B93F900301A4601
:101D2000204B53F8223035E01D4B93F90030194613
:101D30001B4B93F9013018461B4A0B46DB005B1A1C
:101D4000034452F8233025E0154800F019FC0546FD
:101D5000134800F019FB03460C461A462346294651
:101D6000124803F011FA114B14E0114B12E0114B21
:101D70001B78002B0AD0104BD3E90A341A462346AD
:101D80000E490A4803F000FA084B03E0074801F047
:101D9000A1F8064B1846B0BD600A0020830A002057
:101DA000800A00201801002030010020880A00204D
:101DB0009493000802000020780000209C93000803
:101DC00080B400AF094B00221A70084B00225A70F1
:101DD000064B00229A70064B00221A70054B002217
:101DE0001A7000BFBD4680BC704700BF800A00204B
:101DF000830A0020840A002080B400AF044B93F9CA
:101E00000030DBB2013BDBB21846BD4680BC7047F8
:101E1000840A002080B500AF1B4A1B4B1B6843F0AF
:101E2000010313601849184B5A68184B13404B6054
:101E3000154A154B1B6823F0847323F48033136019
:101E4000114A114B1B6823F4802313600E4A0E4B7A
:101E50005B6823F4FE0353600B4A0B4BDB6A23F0F1
:101E60000F03D3620849084B1A6B094B13400B63ED
:101E7000054B00229A6000F00FF8064B4FF000620D
:101E80009A6000BF80BD00BF001002400CC07FF808
:101E9000CCFC00FF00ED00E080B483B000AF002375
:101EA0007B6000233B60324A314B1B6843F4803334
:101EB00013602F4B1B6803F400333B607B680133D6
:101EC0007B603B68002B03D17B68B3F5A06FF0D13A
:101ED000274B1B6803F40033002B02D001233B6027
:101EE00001E000233B603B68012B3CD1214B1222D7
:101EF0001A601F4A1E4B5B6853601D4A1C4B5B688F
:101F000053601B4A1A4B5B6843F480635360184A62
:101F1000174B5B6823F47C135360154A144B5B68C2
:101F200043F4E8135360124A114B1B6843F080736B
:101F3000136000BF0E4B1B6803F00073002BF9D039
:101F40000B4A0B4B5B6823F003035360084A084BB2
:101F50005B6843F00203536000BF054B5B6803F00E
:101F60000C03082BF9D100BF0C37BD4680BC70476D
:101F7000001002400020024080B485B000AF7860BD
:101F80000A4B1B68002B02D1084B094A1A60074B09
:101F90001B68FB60054B1A687B681344034A136097
:101FA000FB6818461437BD4680BC7047900A002075
:101FB000700C002080B487B000AF786000237B6194
:101FC00000233B610F23FB607B68DB78002B3AD05A
:101FD000274BDB68DB4303F4E0631B0A7B617B690F
:101FE000C3F104033B61FA687B6922FA03F3FB60E7
:101FF0007B685B781A463B6902FA03F37B617B6876
:102000009B781A46FB6813407A6913437B617B69AE
:102010001B017B61174A7B681B787969C9B213443D
:102020000A4683F80023134A7B681B785B09DBB2FE
:1020300018467B681B7803F01F03012101FA03F3A4
:1020400042F820300FE00B497B681B785B09DBB25C
:1020500018467B681B7803F01F0301229A4000F1A9
:10206000200341F8232000BF1C37BD4680BC7047C9
:1020700000ED00E000E100E080B485B000AF7860E2
:1020800039600023FB817B681B88FB817B682C4ABD
:1020900093420FD07B682B4A93420BD07B68B3F1FD
:1020A000804F07D07B68284A934203D07B68274A39
:1020B000934208D1FB8923F07003FB813B685A8867
:1020C000FB891343FB817B68214A93420CD07B68D8
:1020D000204A934208D0FB8923F44073FB813B687C
:1020E0001A89FB891343FB817B68FA891A803B6854
:1020F0005A687B68DA623B681A887B681A857B6855
:102100000F4A93420FD07B680E4A93420BD07B68F4
:10211000114A934207D07B68104A934203D07B68F0
:102120000F4A934204D13B689B7A9AB27B681A8625
:102130007B6801225A6100BF1437BD4680BC7047DE
:10214000002C014000340140000400400008004021
:1021500000100040001400400040014000440140D5
:102160000048014080B483B000AF78600B46FB703C
:10217000FB78002B08D07B681B889BB243F00103DF
:102180009AB27B681A8007E07B681B889BB223F0B9
:1021900001039AB27B681A8000BF0C37BD4680BC31
:1021A000704700BF80B487B000AF7860396000230B
:1021B000FB6000237B6100233B617B681B6A23F08B
:1021C00010027B681A627B681B6A7B617B685B68B4
:1021D0003B617B689B69FB60FB6823F0807323F4A1
:1021E000E043FB60FB6823F44073FB603B681B68C3
:1021F0001B02FA681343FB607B6923F020037B61B9
:102200003B689B891B017A6913437B613B689B8810
:102210001B017A6913437B617B68204A934203D098
:102220007B681F4A934227D17B6923F080037B613F
:102230003B68DB891B017A6913437B617B6923F06F
:1022400040037B613B68DB881B017A6913437B6138
:102250003B6923F480633B613B6923F400633B618A
:102260003B681B8A9B003A6913433B613B685B8A6E
:102270009B003A6913433B617B683A695A607B680B
:10228000FA689A613B689A687B689A637B687A69A6
:102290001A6200BF1C37BD4680BC7047002C01404D
:1022A0000034014080B483B000AF78600B46FB700F
:1022B000FB78002B06D07B685B6C43F400427B68A4
:1022C0005A6405E07B685B6CC3F30E027B685A645A
:1022D00000BF0C37BD4680BC704700BF80B483B0E0
:1022E00000AF78600B467B8013467B707B78002BB9
:1022F00006D07B68DA687B881A437B68DA6007E07F
:102300007B68DB687A88D24392B21A407B68DA60D5
:1023100000BF0C37BD4680BC704700BF80B483B09F
:1023200000AF78600B467B807B88DB439BB21A460C
:102330007B681A6100BF0C37BD4680BC704700BF88
:10234000002103E00A4B5B584350043109480A4B13
:1023500042189A42F6D3094A02E0002342F8043BAD
:10236000074B9A42F9D3FFF755FDFEF7C1FB7047C3
:102370006495000800000020540A0020580A00203C
:10238000700C0020FEE7000090B583B000AF7860CD
:102390007B6893F90030052B00F2D88001A252F837
:1023A00023F000BFBD230008DF2300082524000818
:1023B000352400086B240008D12400087B68013311
:1023C00093F90030002B02D0012B04D0BEE0664B05
:1023D000D3E90234BDE0644BD3E90034B9E07B6853
:1023E000013393F90030032B00F2AB8001A252F8C5
:1023F00023F000BF052400080D2400081524000860
:102400001D240008594BD3E90034A2E0574BD3E90F
:1024100002349EE0554BD3E904349AE0534BD3E9A0
:10242000063496E0524B1B88184602F039FB0346EF
:102430000C468EE07B68013393F90030012B08D005
:10244000022B0AD0002B00D080E04A4BD3E90034A5
:102450007FE0484BD3E902347BE0464B1B8A1846A9
:1024600002F01EFB03460C4673E07B68013393F9D0
:102470000030042B67D801A252F823F09124000801
:1024800099240008A1240008B1240008C1240008F0
:10249000394BD3E900345CE0374BD3E9023458E0E0
:1024A000354B1B8A184602F0FBFA03460C4650E0F7
:1024B000314B5B8A184602F0F3FA03460C4648E0BB
:1024C0002D4BDB8A184602F0EBFA03460C4640E03F
:1024D0007B68013393F90030062B36D801A252F8FD
:1024E00023F000BF01250008092500081125000878
:1024F0001925000821250008292500083125000894
:102500001E4BD3E9003424E01C4BD3E9023420E015
:102510001A4BD3E904341CE0184BD3E9083418E013
:10252000164BD3E90C3414E0144BD3E90E3410E00D
:10253000124BB3F87030184602F0B2FA03460C465C
:1025400007E000BF02E000BF00E000BF04A4D4E940
:102550000034184621460C37BD4690BDAFF30080CD
:10256000CDCCCCCCCCDC8E40100000202000002054
:1025700000000020400000205800002078000020CB
:1025800080B483B000AF78607B6893F90030023B81
:10259000032B2DD801A252F823F000BFAD2500086F
:1025A000B1250008C1250008D1250008134B20E003
:1025B0007B68013393F90030022B16D10F4B18E0E2
:1025C0007B68013393F90030012B10DD0B4B10E0D9
:1025D0007B68013393F90030002B02D0062B02D028
:1025E00006E0074B05E0054B03E000BF00E000BF3D
:1025F000044B18460C37BD4680BC7047A4930008B6
:10260000AC930008B493000890B585B000AFF860B3
:10261000C7E90023FB68D3E90001D7E9082302F0EA
:1026200045FD0346002B05D0FA68D7E90834C2E916
:1026300000340FE0FB68D3E90001D7E9002302F082
:1026400017FD0346002B00D104E0FA68D7E90034F7
:10265000C2E9003400BF1437BD4690BDB0B584B0A8
:1026600000AF78600B46FB701346BB7097F90330E0
:10267000C3F10403184602F023FA03460C461A4637
:1026800023464FF00000104901F012F8C7E902019B
:102690007B68D3E9004597F90230184602F010FA3A
:1026A000D7E9022302F072FA02460B462046294679
:1026B00002F0BAF803460C467A68C2E9003400BF5B
:1026C0001037BD46B0BD00BF0000244090B585B0B6
:1026D00000AF7860084611461A460346FB700B4669
:1026E000BB7013463B803B88092B03D097F903301E
:1026F000042B5BD17B681B88FB8197F90330C3F106
:102700000403184602F0DCF903460C461A46234639
:102710004FF00000274900F0CBFF03460C46184657
:10272000214602F0E3FC0346BB81B7F90E20B7F95E
:102730000C3092FBF3F3FB81B7F90E201E4B83FBA9
:1027400002139910D317C91A0B469B000B445B0068
:10275000D31AFB817B681A88F989BB8911FB03F3C3
:102760009BB2D31A9AB27B681A8097F902309AB258
:10277000FB8913449BB2FB81B7F90E203B889A4238
:1027800002DD0023FB8105E0B7F90E30002B01DAF2
:102790003B88FB817B681A88F989BB8911FB03F3AD
:1027A0009BB213449AB27B681A8000E000BF1437D2
:1027B000BD4690BD000024406766666600000000CC
:1027C00090B585B002AF3A601A460346FB710B46DE
:1027D000BB7113467B713B6893F90030052B00F207
:1027E0004F8201A252F823F0012800087528000842
:1027F0006129000877290008012A0008112B000828
:102800003B68013393F90030002B02D0012B17D025
:1028100036E27A79FB791344DBB25BB297F9062092
:102820001946AB48FFF71AFFAA4BD3E90034CDE9AC
:102830000034A3A3D3E90023A548FFF7E5FE18E081
:102840007A79FB791344DBB25BB297F9062019461B
:10285000A048FFF703FF9F4BD3E902129AA4D4E9E3
:102860000034CDE9003413460A469A48FFF7CCFEFF
:1028700000BF05E23B68013393F90030032B00F2FF
:10288000FA8101A252F823F099280008CB28000809
:10289000FD2800082F2900087A79FB791344DBB260
:1028A0005BB297F9062019468B48FFF7D7FE8A4B93
:1028B000D3E902124FF00003884CCDE900341346EF
:1028C0000A468548FFF7A0FE49E07A79FB79134470
:1028D000DBB25BB297F9062019468148FFF7BEFECE
:1028E0007D4BD3E904127C4BD3E90034CDE90034AD
:1028F00013460A467A48FFF787FE30E07A79FB797B
:102900001344DBB25BB297F9062019467548FFF70E
:10291000A5FE714BD3E906126F4BD3E90234CDE922
:10292000003413460A466F48FFF76EFE17E07A79C7
:10293000FB791344DBB25BB297F9062019466A486B
:10294000FFF78CFE644BD3E90434CDE900344FF03B
:1029500000024FF000036448FFF756FE00BF8AE113
:1029600097F9062097F9051002236048FFF7AEFE9D
:1029700000F070FB84E13B68013393F90030012BD8
:102980001CD0022B32D0002B00D079E17A79FB7970
:102990001344DBB25BB297F9062019465448FFF79F
:1029A0005DFE49A4D4E90034CDE900344FF00002C3
:1029B0004FF000034E48FFF727FE20E07A79FB79BD
:1029C0001344DBB25BB297F9062019464948FFF77A
:1029D00045FE3DA4D4E90034CDE900344FF00002B7
:1029E0004FF000034348FFF70FFE08E097F9062079
:1029F00097F9051001234048FFF768FE00BF3FE14B
:102A00003B68013393F90030042B00F2368101A2B8
:102A100052F823F0292A0008592A0008892A0008B8
:102A20009B2A0008AD2A00087A79FB791344DBB2AF
:102A30005BB297F9062019463048FFF70FFE22A433
:102A4000D4E90034CDE900344FF000024FF0000328
:102A50002A48FFF7D9FD32E07A79FB791344DBB2DB
:102A60005BB297F9062019462548FFF7F7FD16A433
:102A7000D4E90034CDE900344FF000024FF00003F8
:102A80001F48FFF7C1FD1AE097F9062097F90510D6
:102A900009231C48FFF71AFE11E097F9062097F961
:102AA000051009231848FFF711FE08E097F90620E2
:102AB00097F9051001231548FFF708FE00BFDCE079
:102AC0009A99999999F958C033333333333F8F40EA
:102AD00018000020100000202000002000005940B5
:102AE00028000020300000203800002000000020D6
:102AF0004000002048000020500000205800002026
:102B000060000020680000206A0000206E000020A5
:102B10003B68013393F90030062B00F2B08001A22C
:102B200052F823F0412B0008712B0008A12B00085C
:102B3000D12B0008012C0008332C0008632C00085E
:102B40007A79FB791344DBB25BB297F90620194618
:102B50005148FFF783FD4CA4D4E90034CDE900349B
:102B60004FF000024FF000034B48FFF74DFD81E0AE
:102B70007A79FB791344DBB25BB297F906201946E8
:102B80004648FFF76BFD42A4D4E90034CDE9003498
:102B90004FF000024FF000034048FFF735FD69E0B9
:102BA0007A79FB791344DBB25BB297F906201946B8
:102BB0003B48FFF753FD36A4D4E90034CDE9003497
:102BC0004FF000024FF000033548FFF71DFD51E0C4
:102BD0007A79FB791344DBB25BB297F90620194688
:102BE0003048FFF73BFD2AA4D4E90034CDE9003496
:102BF0004FF000024FF000032A48FFF705FD39E0CF
:102C00007A79FB791344DBB25BB297F90620194657
:102C10002548FFF723FD204BD3E90E124FF00003A8
:102C2000224CCDE9003413460A461F48FFF7ECFC5E
:102C300020E07A79FB791344DBB25BB297F9062086
:102C400019461B48FFF70AFD134BD3E90C34CDE9B5
:102C500000344FF000024FF000031548FFF7D4FC9A
:102C600008E097F9062097F9051001231148FFF7AE
:102C70002DFD00BF03E000BF02E000BF00E000BF89
:102C800000BF0C37BD4690BD8FC2F5285CFF584091
:102C900033333333333F8F407800002080000020EF
:102CA0008800002098000020A80000200000594063
:102CB000B0000020E800002090B585B000AF0346CA
:102CC000FB71374BD3E90001354BD3E902341A4687
:102CD000234601F0A7FD03460C46184621464FF057
:102CE0000002304B02F07CF803460C46C7E9023480
:102CF00029A3D3E90023D7E9020102F0B9F9034679
:102D0000002B04D024A4D4E90034C7E9023497F995
:102D10000730184601F0D4FED7E9022301F036FF50
:102D200003460C46184621461F4BD3E900341A4689
:102D3000234601F079FD03460C461B4AC2E90034E4
:102D4000174BD3E90001184BD3E900341A46234648
:102D500002F08EF90346002B06D0114BD3E9003464
:102D6000114AC2E9003413E00D4BD3E902010E4BC6
:102D7000D3E900341A46234602F098F90346002BA3
:102D800000D105E0064BD3E90234074AC2E900341A
:102D900000BF1437BD4690BD9A9999999999B93F4A
:102DA000100000200000594008000020B0B582B09B
:102DB00000AF0346FB71424B1B88012B0FD0022B47
:102DC0003FD0002B00D077E03E4B9B7C002B0CBF0C
:102DD00001230023DBB21A463A4B9A746CE097F950
:102DE0000730002B0FDD384B5B7E002B03D0364BBA
:102DF00000225A7616E0344B1B7E002B12D1324B48
:102E000001221A760EE0304B1B7E002B03D02E4B96
:102E100000221A7606E02C4B5B7E002B02D12A4B57
:102E200001225A76284B1B7E002B44D0264B5B7E1A
:102E3000002B40D0244B00221A76234B00225A76D6
:102E400039E0224BD3E90A4597F90730184601F0DB
:102E500037FE02460B462046294601F0E5FC0346B4
:102E60000C461A4AC2E90A34184BD3E90A014FF05A
:102E70000002174B02F01AF90346002B06D0134A42
:102E80004FF00003124CC2E90A3415E00F4BD3E9AE
:102E90000A014FF000024FF0000302F0E9F8034688
:102EA000002B00D108E0094A4FF000034FF0000466
:102EB000C2E90A3400E000BF00BF0837BD46B0BD1C
:102EC0000000002040000020580000207800002072
:102ED0000000594090B583B000AF7860144B1B8858
:102EE000002B02D0012B08D013E0124B9B7C1A461A
:102EF0001149786802F048F915E0104B1B7E1A461C
:102F00000E4B5B7ED31A1A460B49786802F03CF9E7
:102F100009E00B4BD3E90A341A462346094978687D
:102F200002F032F900BF00BF0C37BD4690BD00BFB4
:102F30000000002040000020BC9300085800002042
:102F400078000020B493000890B484B000AF03462A
:102F50000A46FB711346BB710023FB60BB7903F08B
:102F600003039B000F2202FA03F3FB601649BB79AF
:102F70009B08DBB21846144ABB799B08DBB20233CC
:102F800052F82320FB68DB431A40831C41F82320BE
:102F90000D48BB799B08DBB21C460B4ABB799B08EA
:102FA000DBB2023352F82320F979BB7903F0030333
:102FB0009B0001FA03F31A43A31C40F8232000BF2F
:102FC0001037BD4690BC70470000014080B483B00C
:102FD00000AF00237B60C7237B8025E0B7F9023078
:102FE000002B07D1B7F90230174A1188174A22F887
:102FF00013100AE0B7F90230B7F90220013A134979
:1030000031F81210114A22F81310B7F902300F4AA2
:1030100032F813301A467B6813447B60B7F90230EC
:103020009BB2013B9BB27B80B7F90230002BD5DA13
:103030007B68074AA2FB03239B099BB218460C3707
:10304000BD4680BC704700BF620A0020940A002081
:103050001F85EB5180B500AFFDF716F900F054F86D
:1030600000F094F900BF80BD80B483B000AF7860F9
:103070007B681B78002B10D07B689A787B685B7824
:103080009A4206D27B689B780133DAB27B689A70E9
:1030900009E07B680122DA7005E07B680022DA70C3
:1030A0007B6800229A7000BF0C37BD4680BC704719
:1030B00080B483B000AF78600B467B8013463B80C2
:1030C0007B689B8A9AB27B8813409BB23A889A426B
:1030D00014D07B689B8A9BB21AB2B7F90230DB43EB
:1030E0001BB213401BB29AB27B689A827B689B8AA0
:1030F0009AB23B8813439AB27B689A8200BF0C371E
:10310000BD4680BC704700BF80B500AF0C4B0022AD
:103110009A820B4B00221A76094B00225A76084BF2
:1031200000229A76002230210648FFF7C1FF0022D4
:103130004FF440610448FFF7BBFF00BF80BD00BFF4
:10314000580000200008004800100048B0B500AF4B
:103150001D4B1B78002B34D01C4BD3E900011C4BBA
:10316000D3E9002301F05EFB02460B46144623F030
:103170000045184BC3E90045174BD3E90201154B35
:10318000D3E900341A46234601F090FF0346002B92
:103190000CD1114BD3E900010E4BD3E900341A4690
:1031A000234601F065FF0346002B03D00A4B0022A3
:1031B0009A8207E0084B9B8A01339AB2064B9A82A7
:1031C00000E000BFB0BD00BF02000020680A002080
:1031D00008000020280C0020580000202DE9F843AA
:1031E00000AF654B1B78002B00F0C280634BDB8A7D
:1031F000002B0CD0624BD3E90001624BD3E90034C1
:103200001A46234601F00EFB03460C460BE05D4BCD
:10321000D3E900015A4BD3E900341A46234601F0A2
:1032200001FB03460C46584AC2E90034564BD3E929
:103230000034984624F00049504BD3E902341A4632
:1032400023464046494601F013FF0346002B06D0B3
:103250004A4B00221A76494B00225A7689E04A4BA3
:10326000D3E900341D4624F00046444BD3E9003432
:103270001A4623462846314601F018FF0346002B24
:1032800028D0414BD3E9000101231C464FF0000236
:103290004FF0000301F00AFF0346002B01D1002389
:1032A0001C46E3B21A46354B1A76374BD3E9000178
:1032B00001231C464FF000024FF0000301F0D8FE3E
:1032C0000346002B01D100231C46E3B21A462B4BC8
:1032D0005A764EE0294B9A8A284B1B8A9A4206D28C
:1032E000264B00221A76254B00225A7641E0234BCA
:1032F0009B7E002B2AD1244BD3E9000101231C46DD
:103300004FF000024FF0000301F0D0FE0346002B07
:1033100001D100231C46E3B21A46184B1A761A4B09
:10332000D3E9000101231C464FF000024FF00003D7
:1033300001F09EFE0346002B01D100231C46E3B2A0
:103340001A460E4B5A760D4B01229A760B4B9B8AEE
:103350001A460A4B1B8A1946084B5B8A0B449A4251
:1033600007DD064B00229A82044B00229A7600E089
:1033700000BFBDE8F88300BF020000205800002015
:10338000680A002008000020280C002090B400AF3C
:10339000114A4FF000034FF00004C2E90A340F4B0A
:1033A00000221A800C4A4FF000034FF00004C2E9DB
:1033B0001034094A4FF000034FF00004C2E9123400
:1033C000054A4FF000034FF00004C2E9143400BF77
:1033D000BD4690BC704700BF78000020640A002002
:1033E0002DE9F84300AF524BD3E906014FF000023C
:1033F0004FF0000301F032FE0346002B40F09480B2
:103400004B4BD3E900894A4BD3E90401484BD3E93C
:1034100006341A46234601F0E3FC03460C461A46DE
:1034200023464046494601F0FFF903460C46404A10
:10343000C2E916343E4BD3E902014FF000024FF0CF
:10344000000301F033FE0346002B38D0384BD3E99C
:103450000601374BD3E902341A46234601F0C0FC7B
:1034600003460C4618462146314BD3E900341A4630
:10347000234601F0D7F903460C461D4626462C4B41
:10348000D3E9040102460B4601F0CEF903460C468F
:1034900018462146264BD3E906341A46234601F046
:1034A0009FFC03460C461A4623462846314601F047
:1034B000B9F903460C461E4AC2E9183424E01C4BF5
:1034C000D3E900341D4684F00046194BD3E90401CA
:1034D00002460B4601F0A8F903460C461846214661
:1034E000134BD3E906341A46234601F079FC034610
:1034F0000C461A4623462846314601F093F9034606
:103500000C460B4AC2E91834094BD3E90401084BB5
:10351000D3E906341A46234601F062FC03460C4602
:10352000034AC2E91A3400E000BFBDE8F88300BFD7
:10353000780000202DE9F84300AF584B1B78002B92
:1035400000F0A780564BB3F87030002B0CD0554BD1
:10355000D3E90001544BD3E900341A46234601F065
:1035600061F903460C460BE04F4BD3E900014D4B8C
:10357000D3E900341A46234601F054F903460C46B9
:103580004A4AC2E90034494BD3E900341D4624F0CD
:103590000046434BD3E908341A46234628463146B1
:1035A00001F066FD0346002B75D13D4BD3E9123483
:1035B0003B4AC2E914343A4BD3E91034384AC2E9E1
:1035C00012343A4BD3E90034354AC2E91034344B53
:1035D000D3E90A45324BD3E91601314BD3E9102325
:1035E00001F0D4FA02460B46904699462C4BD3E99B
:1035F00018012B4BD3E9122301F0C8FA02460B46FF
:103600004046494601F010F902460B46904699465D
:10361000234BD3E91A01224BD3E9142301F0B6FA64
:1036200002460B464046494601F0FEF802460B466C
:103630002046294601F0F8F803460C46184AC2E92C
:103640000A34174BD3E90A01154BD3E90C341A4657
:10365000234601F02BFD0346002B06D0104BD3E987
:103660000C340F4AC2E90A3416E00D4BD3E90A01C3
:103670000B4BD3E90E341A46234601F0F9FC0346FE
:10368000002B09D0064BD3E90E34054AC2E90A34AF
:1036900002E000BF00E000BFBDE8F88302000020A8
:1036A00078000020680A002008000020300C00206C
:1036B0002DE9F04FDFF8E4928DB006460F46144630
:1036C0001D4600F06DF999F90080B8F1FF3FCDE992
:1036D000000146D022462B462046294601F0F0FC48
:1036E000834600283DD132463B463046394601F0FC
:1036F000E7FC002282460023002840F08480304608
:10370000394601F0ABFC002830D0002200232046CF
:10371000294601F0A3FC8346A8B10122984B0292EE
:1037200000210022CDF828A0CDE90467CDE90645A7
:10373000CDE908120393B8F1000F53D0914900204E
:103740000DB0BDE8F08F2046294600F047FF40B19C
:10375000002200232046294601F08AFC002840F080
:10376000B780DDE900010DB0BDE8F08FDDE90001B3
:1037700000F034FF804600285DD04FF0000A4FF083
:10378000000B52465B46DDE9000101F067FC0028B2
:10379000E7D03046394600F021FF0028E1D020462E
:1037A000294600F01BFF0028DBD099F90030744A4D
:1037B000039204210022022BCDE90467CDE90645DE
:1037C000CDE908AB02910A9203D002A800F00CFFE9
:1037D00070B901F0D3FC2223036009E00023002428
:1037E000CDE9083402A800F0FFFE002800F0868032
:1037F0000A9B1BB101F0C2FC0A9B0360DDE90801D2
:103800000DB0BDE8F08F2046294601F027FC0028C6
:10381000A7D05C495A4BCDF828B001220020B8F15E
:10382000020FCDE90467CDE9064502920393CDE985
:103830000801D7D197E73046394600F0CFFE00287F
:103840009BD02046294600F0C9FE002895D0DDE92E
:1038500000231046194601F033FC002873D10323DE
:1038600099F900800293464B0A900393CDE90467CF
:10387000CDE906450022002330463946B8F1000F55
:1038800041D1414F4FF06046CDE9086701F0F0FBB0
:1038900000289AD000223D4B2046294601F076F9B7
:1038A00004460D4600F0A8FE02460B462046294677
:1038B00001F0D4FB002843D1354B99F900804FF03B
:1038C0006042CDE90823B8F1020F7FF47EAF80E7B4
:1038D00099F900302A4ACDF828B00121CDE90467D2
:1038E000CDE9064502910392002B3FF477AF2949B9
:1038F0000020022BCDE908017FF474AF01F03EFCFB
:103900002123036074E7244F0026CDE9086701F006
:10391000AFFB0028D7D000221C4B2046294601F0DF
:1039200035F904460D4600F067FE02460B46204678
:10393000294601F093FB18B9164B0022CDE9082364
:1039400099F90080BFE799F900900D4BCDF82880D8
:103950000122CDE90467CDE9064502920393B9F14E
:10396000000F3FF43BAF002200231046194601F040
:1039700037FAB9F1020FCDE90801BFD032E700BF35
:10398000C49300080000F03FFFFFEF470000E03F56
:10399000FFFFEFC70000F0FF0000F07FDE01002016
:1039A0002DE9F04F23F0004858EA020993B03CD0CB
:1039B000714C21F00046A64283460D460CDD06F10F
:1039C000404606F5801656EA0B0038D16B4983460F
:1039D000584613B0BDE8F08F9A4696462BD0A045C6
:1039E000EDDC654CA04578D0002D0F468146CDE931
:1039F000002376DB0024BEF1000F27D15E4B9845F3
:103A000000F08B805D4B984552D0BAF1804F00F0AA
:103A1000C2835B4B9A4519D1002D17DB48463946C6
:103A200013B0BDE8F04F00F015BDCB4653495846E2
:103A300013B0BDE8F08F0028C1D1B045D1DD5148A9
:103A400013B0BDE8F04F00F0D1BD00244846394620
:103A500000F0C0FDBBF1000F1CD0ED0F013D54EA9A
:103A6000050370D0484B984540F3948003F10473EC
:103A7000984540F30584454B9E4270DDBAF1000F36
:103A800070DD3BA3D3E900231046194601F07EF810
:103A900083469DE726B1394B25F040429A42DCD15E
:103AA000BAF1000FC0F2B083002D08DB83468FE728
:103AB000BAF1000FC0F25684CB46394688E706F1CA
:103AC000404606F5801656EA040300F07B84012C7C
:103AD000ECD1834601F100417AE7BEF1000F83D0BB
:103AE0006DE72B4B98452CDCA3F15473984581DD91
:103AF0004FEA2853A3F2FF33142B40F34B84C3F156
:103B000034032EFA03F202FA03F39E457FF472AFF8
:103B100002F00102C2F102046DE706F1404303F531
:103B2000801353EA0B0300F03383184B9E4240F39B
:103B30006083BAF1000F15DBDDE900349B462146B6
:103B400046E7022457E74A4648463B46394600F0D6
:103B500069FE02460B4601F043F9834638E7BAF1A5
:103B6000000F8EDB4FF0000B594631E7AFF30080BA
:103B70009C7500883CE4377E0000F07F0000F03F39
:103B80000000E03F0C9400080000E041FFFFEF3F21
:103B9000FFFF3F43B6F5801F4FF0000205DAD44B1C
:103BA00000F0F4FF6FF034020E463315D14FC6F328
:103BB0001306A3F2FF33134446F07F5ABE421A465F
:103BC0000D934AF4401A40F3C183CB4B9E4240F31D
:103BD000FD83134601330D93C84B0022CDE9062324
:103BE00000270026CDE90867CDE90E67AAF5801AFF
:103BF0000027024653465146CDE90A23DDE9062354
:103C000000F010FEDDE9062380468946DDE90A0161
:103C100000F00AFE02460B460020B84901F0E0F829
:103C20000A460146CDE9101213464946024640466F
:103C300000F0ACFF4FEA6A0343F000538C46834622
:103C400003F50023CDE904BCDA468B46D9190023DD
:103C5000CDE902AB0293DDE902AB002006460F4638
:103C600002460B465046594600F090FF02460B466E
:103C70004046494600F0D6FDDDE9062380468946E8
:103C80003046394600F0CEFD02460B46DDE90A011A
:103C900000F0C8FD52465B4600F078FF02460B4636
:103CA0004046494600F0BEFDDDE9102300F06EFFFE
:103CB000DDE90467CDE9060132463B463046394628
:103CC00000F064FF78A3D3E9002306460F4600F016
:103CD0005DFF77A3D3E9002300F0A6FD32463B4603
:103CE00000F054FF74A3D3E9002300F09DFD324699
:103CF0003B4600F04BFF72A3D3E9002300F094FD94
:103D000032463B4600F042FF6FA3D3E9002300F0A8
:103D10008BFD32463B4600F039FF6DA3D3E900230B
:103D200000F082FD3246804689463B4630463946A1
:103D300000F02CFF02460B464046494600F026FFA5
:103D4000524606460F465B46DDE9040100F06CFD75
:103D5000DDE9062300F01AFF32463B4600F064FD21
:103D60005246804689465B465046594600F00EFF53
:103D70000022634BCDE90A0100F056FD42464B4656
:103D800000F052FD02980F46064632463B4650462A
:103D9000594600F0FBFE002282468B46584B3046C7
:103DA000394600F03FFDDDE90A2300F03BFD024605
:103DB0000B464046494600F035FDDDE9042300F09E
:103DC000E5FE3246804689463B46DDE9060100F0C5
:103DD000DDFE02460B464046494600F025FD804682
:103DE000894602460B4650465946CDE904AB00F0E1
:103DF0001BFDDDE902AB38A3D3E9002350460F4693
:103E000000F0C4FEDDE90423CDE902013946504645
:103E100000F008FD02460B464046494600F002FD10
:103E20002FA3D3E9002300F0B1FE2FA3D3E9002391
:103E3000804689465046394600F0A8FE02460B46A9
:103E40004046494600F0F0FCDDE90E2300F0ECFCB2
:103E500080460D98894600F033FE424606460F46DE
:103E60004B46DDE9020100F0DFFCDDE9082300F04C
:103E7000DBFC32463B4600F0D7FC32463B46504620
:103E80008B4600F0CFFCDDE9082300F0CBFCDDE938
:103E9000022300F0C7FC02460B464046494600F0AC
:103EA000C1FC80462EE000BFEF4E454A287ECA3F47
:103EB00065DBC9934A86CD3F01411DA96074D13F9E
:103EC0004D268F515555D53FFFAB6FDBB66DDB3FB0
:103ED000033333333333E33F000000E009C7EE3FE1
:103EE000FD033ADC09C7EE3FF5015B14E02F3EBE4F
:103EF000000040438E98030079B60B000000F03FAD
:103F0000000008408946013C54EA0503DDE9000150
:103F100014BFD54CD54C0023CDE9043403460C46E0
:103F2000CDE9023400230293DDE9024522462B4607
:103F300000F078FC52465B4600F028FEDDE90023E5
:103F400006460F464046494600F020FE02460B4614
:103F50003046394600F068FC224606460F462B469E
:103F600050465946CDE9006700F010FE0B46024668
:103F7000804689463046394600F056FCBC4B994293
:103F800006460D460C4640F30E8101F13F4303F512
:103F9000E003034340F0EF819FA3D3E90023DDE971
:103FA000000100F041FC424682468B464B463046BB
:103FB000294600F037FC02460B465046594601F0B0
:103FC00075F8002840F0D7812F463B154FF480123A
:103FD000A3F2FE3342FA03F32344C3F30A52A54E7D
:103FE000A2F2FF321641C3F3130B0020C2F11405F5
:103FF00023EA06014BF4801B02460B46002C4BFAC9
:1040000005FB40464946B8BFCBF1000B00F00AFC67
:1040100002460B4680468946DDE9000100F004FCBB
:104020004FEA0B5A00247EA3D3E9002320460D4615
:1040300000F0ACFD424606460F464B462046294658
:1040400000F0F0FB02460B46DDE9000100F0EAFB60
:1040500075A3D3E9002300F099FD75A3D3E90023EC
:10406000804689462046294600F090FD02460B46D0
:104070004046494600F0D8FB8046894602460B463A
:104080003046394600F0D0FB32463B4604460D46EA
:1040900000F0C8FB02460B464046494600F0C2FB12
:1040A0002246804689462B462046294600F06EFD72
:1040B00061A3D3E9002306460F4600F067FD60A325
:1040C000D3E9002300F0AEFB32463B4600F05EFD34
:1040D0005DA3D3E9002300F0A7FB32463B4600F086
:1040E00055FD5BA3D3E9002300F09CFB32463B4621
:1040F00000F04CFD58A3D3E9002300F095FB3246B5
:104100003B4600F043FD02460B462046294600F0A0
:1041100089FB06460F4602460B462046294600F01C
:1041200035FD0022CDE900014FF08043304639468D
:1041300000F078FB02460B46DDE9000100F050FE7E
:10414000424606460F464B462046294600F01EFDD5
:1041500042464B4600F068FB02460B463046394665
:1041600000F060FB22462B4600F05CFB02460B464B
:1041700000203D4900F056FB8A44BAF5801FC0F28A
:1041800036815146DDE9042300F000FD83461FE43B
:10419000F34635491CE44A4648463B46394600F05A
:1041A000F5FC834614E4344B21F000479F4240F372
:1041B0000081324B0B4403430CD142464B4600F086
:1041C00031FB02460B46DDE9000100F05BFF0028F1
:1041D0003FF4FBAE22A3D3E90023DDE9040100F0A4
:1041E000D5FC1FA3D3E9002300F0D0FC8346FFF7E2
:1041F000EFBBBAF1000FBFF6B5ACDDE900349B466A
:1042000004F10041FFF7E4BB02460B4600201649CB
:1042100000F0E6FD48E400BFFE822B654715973CA1
:1042200000000000432EE63FEF39FAFE422EE63F43
:10423000396CA80C615C20BED0A4BE726937663EA2
:10424000F16BD2C541BDBB3E2CDE25AF6A56113F96
:1042500093BDBE166CC1663F3E5555555555C53F7D
:1042600059F3F8C21F6EA5010000F03F0000F0BF37
:10427000FFFF8F40FFFF0F00FFCB904000346F3FE8
:104280006F4B9E427FF76BAC6E4B9E423FF7F6AB97
:1042900000226C4B00F0C6FA5BA3D3E9002306466C
:1042A0000F4600F073FC5AA3D3E9002380468946E9
:1042B0003046394600F06AFC002282468B46624B4B
:1042C0003046394600F062FC02460B4652A1D1E965
:1042D000000100F0A7FA32463B4600F057FC0246C8
:1042E0000B460020594900F09DFA3246CDE9020103
:1042F0003B463046394600F049FC02460B46DDE9B4
:10430000020100F043FC46A3D3E9002300F03EFC89
:1043100002460B465046594600F084FA02460B46C8
:1043200006460F464046494600F07EFA42464B4656
:10433000002082468B4600F075FA02460B46304656
:10434000394600F06FFA80468946DCE500220023FA
:10435000CDE90823CDE90E233A4B00220027CDE911
:10436000062346E44A463B460020364900F038FD25
:104370008346FFF72DBB2CA3D3E90023DDE904011D
:1043800000F004FC28A3D3E9002300F0FFFB8346E0
:10439000FFF71EBBBEF1000F7FF457ABC3F1140350
:1043A00048FA03F202FA03F3984524D07446FFF763
:1043B00029BB264B9F423FF708AEDDE902349A46FF
:1043C0009B462FE602460B46FFF7C1BB18A3D3E975
:1043D0000023CDE9082318A3D3E90023CDE90E2358
:1043E0001B4B00224FF48027CDE9062301E45A46F7
:1043F00000F08EF9C6E602F00102C2F10204FFF7F6
:1044000001BB00BFAFF30080000000604715F73F1D
:1044100044DF5DF80BAE543E555555555555D53FC7
:10442000FE822B654715F73F9C7500883CE4377E7C
:104430000000004003B8E23F06D0CF43EBFD4C3E06
:10444000FEFFEF3F0000F03F0000D03F0000E03FE4
:104450000000F83F2DE9F8435D4EB6460E40764524
:104460000C46054600F0958000290B46024673DD98
:104470000F157ED0A7F2FF37C3F31303F80743F4F9
:10448000801364D403EBD27100260B447F105200DA
:10449000B64616204FF400110EEB01049C424FEA81
:1044A000D2754FEA420203DC1B1B04EB010E0E44E3
:1044B000013805EB43034FEA5101EDD18446202436
:1044C0004FF0004109E020D003EBD275013C4FEAE8
:1044D00051012B444FEA420220D09E4501EB0C05CE
:1044E000F1DA002D05EB010C09DBF0469542CEEB2D
:1044F000030300D9013B521B0844C646E4E7BCF164
:10450000000FF2DB0EF10108F0E7954217D8002DFD
:1045100005EB010C47DB98460023ECE7134310D171
:104520004008731003F17F5303F50013F20703EB08
:10453000075948BF40F000404946BDE8F88373463C
:10454000C2E7411C33D000F001031844E8E75B00E8
:1045500003EBD273520095E721F000460643ECD0FE
:1045600069BB0F46D30A153F5205002BFAD0DD0276
:1045700020D4002100E001465B00DC0201F10100D3
:10458000F9D5C0F1200422FA04F423437F1A8240B3
:1045900070E702460B4600F0F9FA2A46234600F07F
:1045A00043F9BDE8F883BCF1000FABDAB3E701369D
:1045B0002046B6E720244FF0FF310020E3E7024613
:1045C0000B4600F02FF902460B4600F009FCB4E759
:1045D0000000F07F21F00041704700BF41F0004132
:1045E00001F58010C00F704700207047002001497E
:1045F000704700BF0000F87FF0B5C1F30A5EAEF26D
:10460000FF36132E83B002460B460C464FEAD17597
:1046100007462EDC002E49DB3B49314103EA01000D
:1046200010432BD049080B4053EA02070CD04FF43B
:104630008023132E24EA010143FA06F444EA01041C
:104640000CBF4FF000470027304B03EBC505214658
:10465000D5E90045384622462B4600F0E5F8CDE97D
:10466000000122462B46DDE9000100F0DBF803B033
:10467000F0BD332E06DDB6F5806F42D010461946E8
:1046800003B0F0BDAEF2134E4FF0FF3121FA0EF140
:104690000842F3D049080842D6D04FF0804320EAC0
:1046A000010143FA0EFE4EEA0107CDE721F0004179
:1046B0000143E3D0C3F31301144E41EA000CCCF1E3
:1046C000000106EBC506D6E9006741EA0C0C5C0C5C
:1046D0004FEA1C3C0CF4002C64044CEA0401324602
:1046E0003B4600F0A1F8CDE900013B463246DDE94A
:1046F000000100F097F821F0004444EAC573194620
:10470000BEE700F091F8BBE7FFFF0F00C893000879
:10471000F8B5C1F30A5604460D460B46174606BBCC
:1047200021F00043034325D00022354B00F02EFA40
:10473000344A974204460D460B462ADBC1F30A561B
:10474000363E3E4440F2FE72964228DC002E12DDD8
:1047500023F0FF4323F4E00343EA065520462946AD
:10476000F8BD40F2FF729642EBD102460B4600F0D4
:104770005BF8F8BDF8BD16F1350F1DDA4CF2503379
:104780009F4222462B4625DC19A1D1E9000100F009
:104790003DF817A3D3E9002300F0F8F9F8BD22464D
:1047A0002B4615A1D1E9000100F030F812A3D3E99E
:1047B000002300F0EBF9F8BD23F0FF4323F4E003FE
:1047C000363643EA06552046294600220E4B00F0B5
:1047D000DDF9F8BD08A1D1E9000100F017F806A342
:1047E000D3E9002300F0D2F9F8BD00BFAFF3008099
:1047F00059F3F8C21F6EA5019C7500883CE4377E12
:1048000000005043B03CFFFF0000903C03F0004329
:1048100021F0004242EA0301704700BF81F00041ED
:1048200002E000BF83F0004330B54FEA41044FEA95
:10483000430594EA050F08BF90EA020F1FBF54EA30
:10484000000C55EA020C7FEA645C7FEA655C00F0CC
:10485000E2804FEA5454D4EB5555B8BF6D420CDD9D
:104860002C4480EA020281EA030382EA000083EA20
:10487000010180EA020281EA0303362D88BF30BDC0
:1048800011F0004F4FEA01314FF4801C4CEA113116
:1048900002D0404261EB410113F0004F4FEA033375
:1048A0004CEA133302D0524263EB430394EA050F00
:1048B00000F0A780A4F10104D5F1200E0DDB02FA6F
:1048C0000EFC22FA05F2801841F1000103FA0EF203
:1048D000801843FA05F359410EE0A5F120050EF1C9
:1048E000200E012A03FA0EFC28BF4CF0020C43FAFA
:1048F00005F3C01851EBE37101F0004507D54FF007
:10490000000EDCF1000C7EEB00006EEB0101B1F556
:10491000801F1BD3B1F5001F0CD349085FEA30009C
:104920004FEA3C0C04F101044FEA445212F5800FA7
:1049300080F09A80BCF1004F08BF5FEA500C50F144
:10494000000041EB045141EA050130BD5FEA4C0C27
:10495000404141EB010111F4801FA4F10104E9D1B0
:1049600091F0000F04BF01460020B1FA81F308BFA7
:104970002033A3F10B03B3F120020CDA0C3208DD73
:1049800002F1140CC2F10C0201FA0CF021FA02F14E
:104990000CE002F11402D8BFC2F1200C01FA02F1BE
:1049A00020FA0CFCDCBF41EA0C019040E41AA2BFE3
:1049B00001EB0451294330BD6FEA04041F3C1CDAAB
:1049C0000C340EDC04F11404C4F1200220FA04F0CB
:1049D00001FA02F340EA030021FA04F345EA030175
:1049E00030BDC4F10C04C4F1200220FA02F001FA37
:1049F00004F340EA0300294630BD21FA04F02946B9
:104A000030BD94F0000F83F4801306BF81F4801151
:104A10000134013D4EE77FEA645C18BF7FEA655CC4
:104A200029D094EA050F08BF90EA020F05D054EA96
:104A3000000C04BF1946104630BD91EA030F1EBF9B
:104A40000021002030BD5FEA545C05D1400049419F
:104A500028BF41F0004130BD14F580043CBF01F592
:104A6000801130BD01F0004545F0FE4141F4700178
:104A70004FF0000030BD7FEA645C1ABF1946104653
:104A80007FEA655C1CBF0B46024650EA013406BF54
:104A900052EA033591EA030F41F4002130BD00BF13
:104AA00090F0000F04BF0021704730B54FF48064D0
:104AB00004F132044FF000054FF0000150E700BF51
:104AC00090F0000F04BF0021704730B54FF48064B0
:104AD00004F1320410F0004548BF40424FF000019D
:104AE0003EE700BF42004FEAE2014FEA31014FEAE0
:104AF00002701FBF12F07F4393F07F4F81F060512F
:104B0000704792F0000F14BF93F07F4F704730B59D
:104B10004FF4607401F0004521F0004120E700BF30
:104B200050EA010208BF704730B54FF000050AE0B7
:104B300050EA010208BF704730B511F0004502D5B8
:104B4000404261EB41014FF4806404F132045FEABA
:104B5000915C3FF4DCAE4FF003025FEADC0C18BF5F
:104B600003325FEADC0C18BF033202EBDC02C2F155
:104B7000200300FA03FC20FA02F001FA03FE40EAE7
:104B80000E0021FA02F11444C1E600BF70B54FF0E7
:104B9000FF0C4CF4E06C1CEA11541DBF1CEA1355C9
:104BA00094EA0C0F95EA0C0F00F0DEF82C4481EA31
:104BB000030621EA4C5123EA4C5350EA013518BF51
:104BC00052EA033541F4801143F4801338D0A0FB3E
:104BD00002CE4FF00005E1FB02E506F00042E0FBEB
:104BE00003E54FF00006E1FB03569CF0000F18BFF1
:104BF0004EF0010EA4F1FF04B6F5007F64F5407499
:104C000004D25FEA4E0E6D4146EB060642EAC6212B
:104C100041EA55514FEAC52040EA5E504FEACE2E98
:104C2000B4F1FD0C88BFBCF5E06F1ED8BEF1004F9B
:104C300008BF5FEA500E50F1000041EB045170BD17
:104C400006F0004646EA010140EA020081EA03015B
:104C5000B4EB5C04C2BFD4EB0C0541EA045170BD57
:104C600041F480114FF0000E013C00F3AB8014F1D1
:104C7000360FDEBF002001F0004170BDC4F100041A
:104C8000203C35DA0C341BDC04F11404C4F120059B
:104C900000FA05F320FA04F001FA05F240EA0200F6
:104CA00001F0004221F0004110EBD37021FA04F62C
:104CB00042EB06015EEA430E08BF20EAD37070BDE6
:104CC000C4F10C04C4F1200500FA04F320FA05F045
:104CD00001FA04F240EA020001F0004110EBD37047
:104CE00041F100015EEA430E08BF20EAD37070BDB7
:104CF000C4F1200500FA05F24EEA020E20FA04F390
:104D000001FA05F243EA020321FA04F001F000413E
:104D100021FA04F220EA020000EBD3705EEA430EAF
:104D200008BF20EAD37070BD94F0000F0FD101F0DE
:104D30000046400041EB010111F4801F08BF013C17
:104D4000F7D041EA060195F0000F18BF704703F055
:104D50000046520043EB030313F4801F08BF013DDC
:104D6000F7D043EA0603704794EA0C0F0CEA135598
:104D700018BF95EA0C0F0CD050EA410618BF52EA52
:104D80004306D1D181EA030101F000414FF0000058
:104D900070BD50EA410606BF1046194652EA430666
:104DA00019D094EA0C0F02D150EA013613D195EADA
:104DB0000C0F05D152EA03361CBF104619460AD122
:104DC00081EA030101F0004141F0FE4141F470012C
:104DD0004FF0000070BD41F0FE4141F4780170BD1C
:104DE00070B54FF0FF0C4CF4E06C1CEA11541DBF81
:104DF0001CEA135594EA0C0F95EA0C0F00F0A7F883
:104E0000A4EB050481EA030E52EA03354FEA0131AF
:104E100000F088804FEA03334FF0805545EA1313C2
:104E200043EA12634FEA022245EA111545EA10658A
:104E30004FEA00260EF000419D4208BF964244F121
:104E4000FD0404F5407402D25B084FEA3202B61A40
:104E500065EB03055B084FEA32024FF480104FF414
:104E6000002CB6EB020E75EB030E22BFB61A754688
:104E700040EA0C005B084FEA3202B6EB020E75EB1B
:104E8000030E22BFB61A754640EA5C005B084FEA83
:104E90003202B6EB020E75EB030E22BFB61A754650
:104EA00040EA9C005B084FEA3202B6EB020E75EB5B
:104EB000030E22BFB61A754640EADC0055EA060E1C
:104EC00018D04FEA051545EA16754FEA06164FEA5F
:104ED000C30343EA52734FEAC2025FEA1C1CC0D10B
:104EE00011F4801F0BD141EA00014FF000004FF098
:104EF000004CB6E711F4801F04BF01430020B4F159
:104F0000FD0C88BFBCF5E06F3FF6AFAEB5EB030C10
:104F100004BFB6EB020C5FEA500C50F1000041EB0D
:104F2000045170BD0EF0004E4EEA113114EB5C04DA
:104F3000C2BFD4EB0C0541EA045170BD41F48011AD
:104F40004FF0000E013C90E645EA060E8DE60CEAB5
:104F5000135594EA0C0F08BF95EA0C0F3FF43BAFD2
:104F600094EA0C0F0AD150EA01347FF434AF95EA89
:104F70000C0F7FF425AF104619462CE795EA0C0F6D
:104F800006D152EA03353FF4FDAE1046194622E73A
:104F900050EA410618BF52EA43067FF4C5AE50EA14
:104FA00041047FF40DAF52EA43057FF4EBAE12E704
:104FB0004FF0FF3C06E000BF4FF0010C02E000BFE5
:104FC0004FF0010C4DF804CD4FEA410C7FEA6C5CC8
:104FD0004FEA430C18BF7FEA6C5C1BD001B050EA6B
:104FE000410C0CBF52EA430C91EA030F02BF90EA56
:104FF000020F0020704710F1000F91EA030F58BF15
:10500000994208BF90422CBFD8176FEAE37040F076
:10501000010070474FEA410C7FEA6C5C02D150EA14
:10502000013C07D14FEA430C7FEA6C5CD6D152EACF
:10503000033CD3D05DF8040B704700BF8446104694
:1050400062468C461946634600E000BF01B5FFF793
:10505000B7FF002848BF10F1000F01BD4DF808ED63
:10506000FFF7F4FF0CBF012000205DF808FB00BF34
:105070004DF808EDFFF7EAFF34BF012000205DF88E
:1050800008FB00BF4DF808EDFFF7E0FF94BF0120DB
:1050900000205DF808FB00BF4DF808EDFFF7CEFFDC
:1050A00094BF012000205DF808FB00BF4DF808ED1B
:1050B000FFF7C4FF34BF012000205DF808FB00BFEC
:1050C0004FEA410C7FEA6C5C02D150EA013C0AD104
:1050D0004FEA430C7FEA6C5C02D152EA033C02D1F6
:1050E0004FF0000070474FF0010070474FEA410257
:1050F00012F5001215D211D56FF47873B3EB62522A
:1051000012D94FEAC12343F0004343EA505311F050
:10511000004F23FA02F018BF404270474FF00000E2
:10512000704750EA013005D111F0004008BF6FF020
:10513000004070474FF00000704700BF4A0011D296
:1051400012F5001211D20DD56FF47873B3EB6252E1
:105150000ED44FEAC12343F0004343EA505323FAED
:1051600002F070474FF00000704750EA013002D162
:105170004FF0FF3070474FF000007047014B186848
:10518000704700BF080600200EB4F0B59CB021ABFC
:105190000F4953F8042B019305466FF0004408684B
:1051A00002954FF402774FF6FF7602A90695ADF807
:1051B000147004940794ADF8166000F00BF8029B8D
:1051C00000221A701CB0BDE8F04003B0704700BF69
:1051D000080600202DE9F04FC1B00C460991154694
:1051E0000E930A9002F004FB03681793184603F02D
:1051F000E7F9A38916901E0603D52369002B01F059
:10520000198100231A4612932593249319930B9323
:10521000DFF864A4149230AB239399461592A84604
:1052200098F800304446EBB1252B02D11AE0252B2B
:1052300003D014F8013F002BF9D1C8EB04058DB160
:10524000249B259AC9F8008001332A44072BC9F80A
:1052500004502592249300F3A68009F108090B9BC2
:105260002B440B932378002B00F0A68000231A46D2
:105270008DF86F3019460C9307934FF0FF3B63781E
:1052800004F101085D4608F10108A3F12000582847
:1052900000F22584DFE810F0880323042304900340
:1052A0002304230423042304230423049703A503D2
:1052B00023045D00E2002304FE0005010501050151
:1052C000050105010501050105010501230423046C
:1052D0002304230423042304230423042304230496
:1052E00015018102230481022304230423042304DF
:1052F000C60223042304CD0223042304230423042D
:105300002304F70223042304250323042304230492
:105310002304230423042304230423042304660313
:10532000790381028102810281037903230423042A
:10533000D1032304DB03A3006400EE032304F5037D
:105340002304AA0323042304BC030C980E934042B5
:105350000C90079B43F00403079398F8003092E702
:105360000E98AB46002104688DF86F10071D079852
:10537000302378228B458DF870304FF000058DF882
:10538000712040F00203C0F2C78320F0800343F095
:105390000203079354EA05030E9700F093830F4628
:1053A0001192B348CEE223AA09990A9803F076F93C
:1053B00048B90DF1C00952E7259B23B10A98099914
:1053C00023AA03F06BF9099B9B8913F0400F0B9BF9
:1053D00018BF4FF0FF33184641B0BDE8F08F11936E
:1053E000AB46002A41F02382079A12F0200300F016
:1053F0002E820E9F073727F00703002703F10801CD
:10540000BB450E91D3E900458DF86F70C0F252870D
:1054100022F08003079354EA050300F0758330AE51
:10542000E20842EA4572E90804F007030D46144613
:10543000303354EA050206F8013DF1D1079AD1074D
:1054400040F18480302B00F081803022731E06F8FA
:10545000012C30AAD21A0D921E467AE098F800303C
:105460002A2B08F1010401F0B181A3F130000928D1
:1054700098BF002501F2648114F8013B05EB850516
:1054800000EB4505A3F130000928F5D945EAE5759B
:10549000A046FAE6079B43F08003079398F8003094
:1054A000F1E6A3F1300000231C4618F8013B04EBA1
:1054B000840400EB4404A3F130000928F5D90C94CE
:1054C000E3E61193AB46002A41F0C981079B43F004
:1054D00010030793079B980640F130850E9F07370E
:1054E00027F00707D7E9002307F108010E911446BA
:1054F0001D46002A73F10003C0F25B85BBF1000F6B
:105500009DF86F70C0F23885079B23F080030793E6
:1055100054EA050300F0DB81002D08BF0A2CC0F01F
:10552000DB8130AE204629460A22002303F03EFDEF
:10553000303206F8012D2046294600230A2203F0C6
:1055400035FD04460D4654EA0503EBD130AB9B1BF9
:105550000D930D9B5B45B8BF5B46089300231393E7
:1055600017B1089B01330893079B13F002030F93B5
:1055700002D0089B02330893079B13F08403109317
:1055800040F0D7820C9B089A9D1A002D40F3D182DF
:10559000102D2599249A374F27DD18964846102458
:1055A000B946099E2F460A9D04E0103F102F00F1D6
:1055B000080016DD01322F4B24921031072A259165
:1055C00080E81800F1DD23AA3146284603F066F88A
:1055D00000287FF4F8AE103F102F2599249A30A8A8
:1055E000E8DC189E3D464F46814601326C18072A7A
:1055F00025942492C9F80070C9F8045000F3288457
:105600009DF86F7009F1080977B1249B01330134CB
:105610000DF16F010122072B2594249389E80600E0
:1056200000F3A08309F108090F9B6BB1249B0133A0
:1056300002341CA90222072B2594249389E8060032
:1056400000F39C8309F10809109B802B00F0D582A0
:105650000D9BC3EB0B07002F39DD074A249B0F92EC
:10566000102F28DD22464FF0100B0A9D099C0AE0FE
:105670001094000830940008DC930008103F102FAD
:1056800009F1080916DD01331032072B2592249306
:1056900089E8000CF2DD23AA2146284602F0FEFF2D
:1056A00000287FF490AE103F102F259A249B0DF117
:1056B000C009E8DC144601330F9A24933C44072BBD
:1056C000259489E8840000F3418309F10809079BC8
:1056D000DA0500F13082249B0D99C9F8006001338E
:1056E0000C44072B2594C9F80410249300F3188365
:1056F00009F10809079B59073FD50C9B089A9D1A89
:10570000002D3ADD102D249BBC4F23DD22461026B0
:10571000DDF828B0099C04E0103D102D09F10809BE
:1057200017DD0133B54924931032072B259289E800
:105730004200F1DD23AA2146584602F0AFFF0028BF
:105740007FF441AE103D102D259A249B0DF1C00928
:10575000E7DC144601332C44072B25942493C9F825
:105760000070C9F8045008DD23AA09990A9802F0CC
:1057700095FF00287FF427AE259C0B9B0C9A089977
:105780008A42ACBF9B185B180B93002C40F0D4826C
:10579000002324930DF1C00942E51193AB46002A82
:1057A00041F059800E9F073727F0070303F10802E5
:1057B0000E921A6814925B681593159B149D23F042
:1057C0000044284621464FF0FF328D4BFFF778FC0E
:1057D000002840F0C184284621464FF0FF32884B14
:1057E000FFF750FC002840F0B78414981599002268
:1057F0000023FFF73DFC002840F04B879DF86F70B9
:10580000804E814B079921F0800107911199032265
:105810004FF0000B08924729D8BF1E460D92CDF8D5
:105820004CB09DE6079B43F00803079398F80030BF
:1058300029E51193AB46002A41F00980079B43F00C
:1058400010030793079A12F020037FF4D2AD079953
:1058500011F0100200F007850E988DF86F30BBF143
:10586000000F046800F104074FF00005C0F2218525
:105870000A4622F08002079254EA05020E9700F0D1
:1058800043811F46CBE51193AB46002A40F0D787F2
:10589000079B43F010030793079A12F0200300F0D0
:1058A00032830E9F073727F00703002703F1080113
:1058B000BB450E91D3E900458DF86F70C0F25C8353
:1058C00022F08003079354EA05037FF425AEBBF171
:1058D000000F00F0FE80002440AE303406F8414D49
:1058E00034E61193AB46002A40F0A587079B474852
:1058F0009D0640F197800E9F073727F00703D3E9F5
:10590000004503F108020E92079A12F0010700F019
:10591000418254EA050300F0F5849DF844208DF897
:1059200071200027079A8DF86F703023BB458DF8E2
:10593000703042F00203C0F2A98622F0800343F0E7
:105940000203079330AE230904F00F0143EA057305
:105950002A091C461546435C06F8013D54EA050336
:10596000F1D1F3E50E9911930A688DF89820002380
:105970000A461F468DF86F30043201230893BB4658
:1059800013970E920D9326AEEEE51193AB46002AC7
:105990003FF4A0AD8DF86F109CE5079B43F04003EA
:1059A000079398F800306EE498F8003000297FF4EF
:1059B0006AAC0122202166E4079B43F001030793B0
:1059C00098F800305FE40E9C23680C93184600287A
:1059D000234603F10403FFF6B8AC0E9398F80030A9
:1059E00051E498F8003001222B214CE41193AB468E
:1059F000002A3FF451AF8DF86F104DE73094000846
:105A0000FFFFEF7FF0930008EC930008FC93000881
:105A10001193AB46002A40F00387079B99489D06E7
:105A20003FF569AF079BDC0640F15E840E9A134692
:105A3000043314680E93002566E798F800306C2B49
:105A400000F0E184079840F0100007901BE4002A62
:105A500040F0DB86079B9B0640F12F840E9A0B9942
:105A60001368CD170846043229460E92C3E9000197
:105A7000FFF7D6BB079B43F02003079398F800304D
:105A800001E40E9A1193166800248DF86F40171DDB
:105A9000002E00F0BD85002DC0F20F852A4621465C
:105AA000304602F065F9002800F00486831B0D9350
:105AB000A34623EAE3730E970893CDF84CB09DF804
:105AC0006F704DE56F481192BBF1000F40F073818C
:105AD0005F464FF0000BCDF834B030AE39E511938E
