:020000040800F2
:1000000000A0002081240008C5240008C5240008A1
:10001000C5240008C5240008C5240008000000000D
:10002000000000000000000000000000C5240008DF
:10003000C524000800000000C5240008C5240008ED
:10004000C5240008C5240008C5240008C5240008EC
:10005000C5240008C5240008C5240008C5240008DC
:10006000C5240008C5240008C5240008C5240008CC
:10007000C5240008C5240008C5240008C5240008BC
:10008000C5240008C5240008C5240008C5240008AC
:10009000C5240008C5240008C52400086509000817
:1000A000C5240008C5240008C5240008C52400088C
:1000B000C524000829060008D9060008C524000840
:1000C000C5240008C5240008C5240008C52400086C
:1000D000C5240008C5240008C5240008C52400085C
:1000E000C5240008C5240008C5240008C52400084C
:1000F000C5240008C5240008C5240008C52400083C
:10010000000000000000000000000000C5240008FE
:10011000C5240008C5240008C524000849080008B3
:10012000C5240008C5240008C5240008C52400080B
:10013000C5240008C52400080000000000000000DD
:10014000C5240008C5240008C524000800000000DC
:10015000000000000000000000000000000000009F
:100160000000000000000000C5240008C5240008AD
:10017000C52400080000000000000000000000008E
:1001800000000000C524000880B483B000AF786090
:100190000B46FB70FB78002B06D00949084B5A69C7
:1001A0007B6813434B6106E00549054B5A697B6840
:1001B000DB4313404B6100BF0C37BD4680BC70472A
:1001C0000010024080B483B000AF78600B46FB7033
:1001D000FB78002B06D00949084B9A697B681343CA
:1001E0008B6106E00549054B9A697B68DB43134048
:1001F0008B6100BF0C37BD4680BC704700100240C9
:1002000080B483B000AF78600B46FB70FB78002BA6
:1002100006D00949084BDA697B681343CB6106E0D5
:100220000549054BDA697B68DB431340CB6100BFAE
:100230000C37BD4680BC704700100240F8B500AFD7
:10024000244B1B8A002B0CD0234BD3E90001234BFA
:10025000D3E900341A46234603F018FD03460C4642
:100260000BE01E4BD3E900011B4BD3E900341A46C7
:10027000234603F00BFD03460C46194AC2E900343D
:10028000144BD3E90001164BD3E900341A46234638
:1002900004F022F90346002B03D00E4B01229A747E
:1002A00015E00C4BD3E902341D4684F000460C4B9C
:1002B000D3E900341A4623462846314604F02AF989
:1002C0000346002B00D102E0024B00229A7400BFCB
:1002D000F8BD00BF680A0020500A0020580A00201C
:1002E000400A002080B483B000AF78607B681B7840
:1002F0002D3B482B00F2C68001A252F823F000BF2C
:10030000810400088504000885040008250400080D
:10031000290400082D0400083104000835040008F1
:10032000390400083D0400084104000845040008A1
:1003300049040008850400088504000885040008B5
:100340008504000885040008850400088504000869
:100350007904000885040008850400088504000865
:100360005504000885040008850400086504000899
:100370002904000885040008850400084D040008CD
:1003800085040008850400082504000859040008B5
:100390008504000885040008390400088504000865
:1003A000510400088504000885040008850400083D
:1003B00085040008850400088504000885040008F9
:1003C00085040008850400088504000885040008E9
:1003D0008504000871040008850400085D04000815
:1003E0008504000885040008490400088504000805
:1003F00085040008850400088504000885040008B9
:10040000850400087D0400087504000885040008C0
:100410008504000869040008850400086D040008CC
:10042000610400083F232EE006232CE05B232AE032
:100430004F2328E0662326E06D2324E07D2322E07D
:10044000072320E07F231EE06F231CE038231AE0FF
:100450003E2318E0792316E0732314E05E2312E0B4
:100460001C2310E076230EE050230CE078230AE0F2
:100470007C2308E05C2306E0772304E0542302E0B9
:10048000402300E0002318460C37BD4680BC70476F
:1004900080B582B000AF786039601AE03868FFF745
:1004A00021FF03461A467B681A703B6801333B60A4
:1004B0003B681B782E2B09D17B681B7863F07F0388
:1004C000DAB27B681A703B6801333B607B680133AA
:1004D0007B603B681B78002BE0D100BF0837BD462E
:1004E00080BD00BF80B487B000AF78603960002362
:1004F0007B6100233B610023FB6000237B617EE086
:1005000001227B6902FA03F33B613B681A683B698D
:100510001340FB60FA683B699A426DD13B681B79D6
:10052000012B03D03B681B79022B36D17B689A687C
:100530007B695B00032101FA03F3DB431A407B680C
:100540009A607B689A683B685B7919467B695B00B7
:1005500001FA03F31A437B689A607B689B889AB21E
:100560007B699BB2012101FA03F39BB2DB439BB28F
:1005700013409AB27B689A807B689B889BB21AB2C0
:100580003B689B7919467B699BB201FA03F31BB266
:1005900013431BB29AB27B689A807B681A687B69A6
:1005A0005B00032101FA03F3DB431A407B681A6006
:1005B0007B681A683B681B7919467B695B0001FA06
:1005C00003F31A437B681A607B68DA687B699BB225
:1005D0005B00032101FA03F3DB431A407B68DA6016
:1005E0007B68DA683B68DB7919467B695B0001FA56
:1005F00003F31A437B68DA607B6901337B617B69B3
:100600000F2B7FF67DAF00BF1C37BD4680BC704707
:1006100080B500AF00F0AEFA00F022FB00F05AFB0C
:1006200000F090FBFEE700BF80B500AF012123483A
:1006300001F014FF224B93F90030002B39D0214BED
:100640001B88002B02D0012B0DD021E0FFF7F6FD17
:100650001D4B9B7C9BB21B019BB21A4610211B4871
:1006600001F098FF28E001F0D5FF02F013F8184BD5
:100670001B7E1B011AB2164B5B7E5B011BB2134340
:100680001BB29BB21A463021104801F083FF13E0E1
:10069000104B1B780133DAB20E4B1A700D4B1B78DE
:1006A000192B08D90B4B00221A7002F0E5F800BF95
:1006B00001E000BF00E000BF80BD00BF00040040BB
:1006C0004A0A0020480A0020680A00200008004862
:1006D000380000208D0A0020B0B500AF4B4B1B68DE
:1006E00001334A4A13600121494801F0B7FE494BE2
:1006F000D3E90001484BD3E90034012215461A46DC
:10070000234603F0E9FE0346002B01D100231D46DA
:10071000EBB21A46414B1A703E4BD3E902013E4BF5
:10072000D3E90034012215461A46234603F0D4FECD
:100730000346002B01D100231D46EBB21A46384B6D
:100740001A70344BD3E90401334BD3E9003401224E
:1007500015461A46234603F0DDFE0346002B01D161
:1007600000231D46EBB21A462E4B1A70294BD3E9D3
:100770000601294BD3E90034012215461A462346C7
:1007800003F0C8FE0346002B01D100231D46EBB247
:100790001A46254B1A70254801F0D8FE244801F06E
:1007A000D5FE244801F0D2FE234801F0CFFE2348B5
:1007B00001F0CCFE224801F0C9FE184801F0C6FE47
:1007C000174801F0C3FE174801F0C0FE164801F0BB
:1007D000BDFE124BDB781AB2114BDB785B001BB20B
:1007E00013431AB20F4BDB789B001BB213431AB2B0
:1007F0000D4BDB78DB001BB213431BB29BB21A46D6
:100800000F21104801F0C6FE00BFB0BD900A0020C5
:100810000008004018000020500A0020E8000020D6
:10082000EC000020F0000020F4000020D0000020A8
:10083000D4000020D8000020DC000020E0000020D0
:10084000E40000200008004898B500AF01213D48B1
:1008500001F004FE3C4B1B787C2B06D83A4B1B78EE
:100860000133DAB2384B1A700CE0374B00221A70A1
:10087000364B1B78002B0CBF01230023DBB21A463A
:10088000324B1A70324B1B78002B0DD101F0FAFA63
:10089000034619462F48FFF7FBFD01F03FFB0346D7
:1008A00019462D48FFF7F4FD2C49294B1B781A46B1
:1008B000284B9B5C1AB2264B1B781846264B1B5CB8
:1008C0001B021BB213431BB29BB28B82244B244AE4
:1008D000928A92B2D2B292B29A821D4B1B7808339E
:1008E000012202FA03F401F0C3FB03461A46184B37
:1008F0001B789A4203D1154B1B78002B01D00122A3
:1009000000E00022124B1B780C3302FA03F344EA96
:1009100003001349124B9B8A9BB21AB203B21343D2
:100920001BB29BB28B820A4B1B780133DAB2084BA5
:100930001A70074B1B78032B02D9054B00221A7043
:1009400000BF98BD001400408C0A00208E0A0020D1
:10095000800A0020840A0020880A0020000C004839
:100960000004004880B500AF052000F041FB0620E0
:1009700000F03EFB072000F03BFB082000F038FBB6
:100980004FF090431B8A9BB203F02003002B01D051
:10099000012300E00023DAB26C4B1A704FF0904351
:1009A0001B8A9BB203F04003002B01D0012300E01F
:1009B0000023DAB2664B1A704FF090431B8A9BB249
:1009C00003F08003002B01D0012300E00023DAB202
:1009D000604B1A704FF090431B8A9BB203F48073F4
:1009E000002B01D0012300E00023DAB25A4B1A7029
:1009F0004FF090431B8A9BB203F08003002B01D081
:100A0000012300E00023DAB2544B1A704FF09043F8
:100A10001B8A9BB203F48073002B01D0012300E0FA
:100A20000023DAB24E4B1A70484BDB78002B0CD007
:100A30004FF090431B8A9BB203F02003002B04D19C
:100A400001F040F9414B0022DA70414BDB78002B7A
:100A50000CD04FF090431B8A9BB203F04003002B55
:100A600004D101F06BF93A4B0022DA70394BDB7894
:100A7000002B16D0394BDB78002B12D14FF090436E
:100A80001B8A9BB203F08003002B0AD101F094F97A
:100A9000304B0022DA70334B00221A70324B0022A6
:100AA0001A702D4BDB78002B16D02D4BDB78002BEA
:100AB00012D14FF090431B8A9BB203F48073002B3A
:100AC0000AD101F0A7F9244B0022DA70254B00224D
:100AD0001A70254B00221A70204BDB78002B0DD0AA
:100AE0004FF090431B8A9BB203F08003002B05D18B
:100AF0001E4B01221A70194B0022DA70184BDB785A
:100B0000002B20D04FF090431B8A9BB203F48073DC
:100B1000002B18D1154B93F90030002B05D0134B47
:100B200000221A7001F088FA0AE0114B93F90030A4
:100B3000002B0CBF01230023DBB25AB20C4B1A70FE
:100B4000074B0022DA7000BF80BD00BFD00000203C
:100B5000D4000020DC000020D8000020E4000020A9
:100B6000E00000208E0A00208C0A002000000020F7
:100B70004A0A002080B582B000AF01214FF4003056
:100B8000FFF702FB01214FF48020FFF7FDFA01215E
:100B90004FF40020FFF7F8FA01214FF48010FFF71F
:100BA000F3FA01214FF40010FFF7EEFA4FF4F0735F
:100BB0003B6000233B7102237B710223FB713B46A8
:100BC00019464FF09040FFF78DFC4FF47F433B6098
:100BD00001233B7101237B710023BB710023FB7157
:100BE0003B4619461A48FFF77DFC3F233B60012333
:100BF0003B7101237B710023BB710023FB713B46DA
:100C000019461448FFF76EFC4FF6FF733B60012353
:100C10003B7101237B710023BB710023FB713B46B9
:100C200019460D48FFF75EFC4FF47F433B600123FC
:100C30003B7101237B710023BB710023FB713B4699
:100C400019460648FFF74EFC00BF0837BD4680BD79
:100C50000004004800080048000C0048001000484C
:100C600080B582B000AF01210120FFF7ABFA05216A
:100C7000002001F029FC0621002001F025FC0721BD
:100C8000002001F021FC0821002001F01DFC0023C0
:100C90003B7110237B710123BB7105233B603B46F5
:100CA000184600F0ABF806233B603B46184600F0C0
:100CB000A5F807233B603B46184600F09FF8082341
:100CC0003B603B46184600F099F800BF0837BD4628
:100CD00080BD00BF80B582B000AF1D233B710023F3
:100CE0007B710023BB710123FB713B1D184601F092
:100CF0009DFA1E233B7100237B710323BB710123EB
:100D0000FB713B1D184601F091FA37233B7100231C
:100D10007B710223BB710123FB713B1D184601F05F
:100D200085FA17233B7100237B710123BB710123DB
:100D3000FB713B1D184601F079FA00BF0837BD462C
:100D400080BD00BF80B584B000AF01210220FFF755
:100D500057FA01210420FFF753FA01212020FFF761
:100D60004FFA0023FB8048F6A043BB800223BB6000
:100D70000123BB813B1D19461D4801F0B9FA012131
:100D80001B4801F02BFB01220121194801F046FB11
:100D90000023FB8048F6A043BB803223BB600023C6
:100DA000BB813B1D1946134801F0A2FA01211148ED
:100DB00001F014FB012201210E4801F02FFB00235A
:100DC000FB8048F6A043BB800523BB603B1D194652
:100DD000094801F08DFA0121074801F0FFFA0122CC
:100DE0000121054801F01AFB00BF1037BD4680BD48
:100DF00000040040000800400014004080B485B0AA
:100E000000AF78600023FB60754BFB607B689B79CB
:100E1000002B00F0C8807B681B685B0903F100733E
:100E200003F502635B0118467B681B685B0903F1ED
:100E3000007303F502635B011A687B681B6803F0AB
:100E40001F03012101FA03F3DB43134003607B68B6
:100E50001B685B095A01634B134418467B681B6887
:100E60005B095A015F4B13441A687B681B6803F0E7
:100E70001F03012101FA03F3DB43134003607B6886
:100E80001B791A467B681B685B095B011344FA688F
:100E90001344FB60FB68FA6812687968096801F01E
:100EA0001F01012000FA01F10A431A604C4BFB605C
:100EB0007B681B685B095A014B4B134418467B68DF
:100EC0001B685B095A01484B13441A687B681B680E
:100ED00003F01F03012101FA03F3DB431340036016
:100EE0007B681B685B095A01404B134418467B68BA
:100EF0001B685B095A013D4B13441A687B681B68E9
:100F000003F01F03012101FA03F3DB4313400360E5
:100F10007B685B79102B2ED17B681B685B095A01BB
:100F2000314B134418467B681B685B095A012E4BF2
:100F300013441B687A68126802F01F02012101FA4B
:100F400002F2134303607B681B685B095A01274B5D
:100F5000134418467B681B685B095A01234B1344F2
:100F60001B687A68126802F01F02012101FA02F27E
:100F7000134303602FE07B685B791A467B681B682C
:100F80005B095B011344FA681344FB60FB68FA6871
:100F900012687968096801F01F01012000FA01F167
:100FA0000A431A6017E07B681B791A467B681B6846
:100FB0005B095B011344FA681344FB60FB68FA6841
:100FC00011687A68126802F01F02012000FA02F22A
:100FD000D2430A401A6000BF1437BD4680BC704738
:100FE0000004014004040140080401400C040140D5
:100FF00080B483B000AF78607B685B095A01074B0F
:10100000134419467B6803F01F03012202FA03F31D
:101010000B6000BF0C37BD4680BC70471404014014
:1010200098B500AF704B93F90030052B00F2D280D9
:1010300001A252F823F000BF5110000871100008FF
:10104000B5100008C5100008F91000085D1100086F
:10105000654B93F90130002B02D0012B04D0B9E08D
:10106000624BD3E90234B8E0604BD3E90034B4E01A
:101070005D4B93F90130032B00F2A78001A252F8D7
:1010800023F000BF951000089D100008A51000086F
:10109000AD100008564BD3E900349EE0544BD3E921
:1010A00002349AE0524BD3E9043496E0504BD3E932
:1010B000063492E04F4B1B88184602F025FF03468A
:1010C0000C468AE0484B93F90130012B08D0022BE3
:1010D0000AD0002B00D07DE0474BD3E900347CE000
:1010E000454BD3E9023478E0434B1B8A184602F0A3
:1010F0000BFF03460C4670E03B4B93F90130042B89
:1011000065D801A252F823F01D110008251100082E
:101110002D1100083D1100084D110008374BD3E98F
:1011200000345AE0354BD3E9023456E0334B1B8A86
:10113000184602F0E9FE03460C464EE02F4B5B8A50
:10114000184602F0E1FE03460C4646E02B4BDB8AD4
:10115000184602F0D9FE03460C463EE0224B93F9B6
:101160000130062B35D801A252F823F0891100086E
:101170009111000899110008A1110008A911000897
:10118000B1110008B91100081D4BD3E9003424E067
:101190001B4BD3E9023420E0194BD3E904341CE0A3
:1011A000174BD3E9083418E0154BD3E90C3414E09D
:1011B000134BD3E90E3410E0114BB3F870301846DE
:1011C00002F0A2FE03460C4607E000BF02E000BFAB
:1011D00000E000BF02A4D4E900341846214698BDBF
:1011E000CDCCCCCCCCDC8E40940A00200800002072
:1011F00018000020480A0020680A0020380000205B
:101200005800002080B400AF1A4B93F90030023B25
:10121000032B2AD801A252F823F000BF2D12000898
:10122000311200083F1200084D120008124B1DE059
:10123000104B93F90130022B14D10F4B16E00D4BDC
:1012400093F90130012B0FDD0B4B0FE0094B93F9A4
:101250000130002B02D0062B02D006E0074B05E040
:10126000054B03E000BF00E000BF054B1846BD463C
:1012700080BC7047940A00208C870008948700087F
:101280009C870008B0B586B000AF78600B46FB7055
:101290001346BB7097F90330C3F10403184602F0FC
:1012A00043FE03460C461A4623464FF000003749DA
:1012B00001F032FCC7E902017B68D3E90001D7E9FC
:1012C000022302F0C1FF03460C461846214601F0F6
:1012D0009BFB03460C461846214603F03BF90346A8
:1012E000FB82B7F916202A4B83FB02139910D31700
:1012F000C91A0B469B000B445B00D31AFB827B6828
:10130000D3E90045B7F91630184602F00DFED7E9CB
:10131000022302F06FFE02460B462046294602F0E9
:10132000B5FC03460C467A68C2E9003497F90230EE
:101330009AB2FB8A13449BB2FB82B7F91630092B91
:1013400002DD0023FB8205E0B7F91630002B01DA3D
:101350000923FB827B68D3E90045B7F916301846AC
:1013600002F0E2FDD7E9022302F044FE02460B46FA
:101370002046294602F08CFC03460C467A68C2E9F6
:10138000003400BF1837BD46B0BD00BF0000244088
:101390006766666690B585B000AF7860084611460E
:1013A0001A460346FB700B46BB7013463B803B88D6
:1013B000092B03D097F90330042B5BD17B681B8882
:1013C000FB8197F90330C3F10403184602F0ACFD2A
:1013D00003460C461A4623464FF00000274901F009
:1013E0009BFB03460C461846214603F0B3F8034620
:1013F000BB81B7F90E20B7F90C3092FBF3F3FB81F8
:10140000B7F90E201E4B83FB02139910D317C91A8C
:101410000B469B000B445B00D31AFB817B681A8848
:10142000F989BB8911FB03F39BB2D31A9AB27B688B
:101430001A8097F902309AB2FB8913449BB2FB8160
:10144000B7F90E203B889A4202DD0023FB8105E0BC
:10145000B7F90E30002B01DA3B88FB817B681A88D4
:10146000F989BB8911FB03F39BB213449AB27B68E1
:101470001A8000E000BF1437BD4690BD0000244034
:101480006766666690B583B000AF03460A46FB7197
:101490001346BB71A24B93F90030052B00F2768204
:1014A00001A252F823F000BFC11400085F15000824
:1014B000EB1600080D1700089B1700083B180008E2
:1014C000974B93F90130002B02D0012B23D05DE222
:1014D000944B93F90030DAB2FB791344DBB25BB280
:1014E00097F9062019469048FFF7CCFE8F4BD3E9B9
:1014F00002018E4BD3E900341A46234603F00AF862
:101500000346002B00D129E0884BD3E90034874AF9
:10151000C2E9023422E0834B93F90030DAB2FB795E
:101520001344DBB25BB297F9062019467F48FFF7F8
:10153000A9FE7E4BD3E900017C4BD3E902341A4665
:10154000234602F0C9FF0346002B00D105E0774B8C
:10155000D3E90234754AC2E9003400BF16E2704B89
:1015600093F90130032B00F20C8201A252F823F010
:1015700081150008C715000835160008A3160008D5
:10158000684B93F90030DAB2FB791344DBB25BB2FB
:1015900097F9062019466648FFF774FE644BD3E9B5
:1015A0000001634BD3E902341A46234602F094FF4C
:1015B0000346002B00D197E05D4BD3E902345C4A2F
:1015C000C2E9003490E0574B93F90030DAB2FB796E
:1015D0001344DBB25BB297F9062019465548FFF772
:1015E00051FE534BD3E90201514BD3E900341A4663
:1015F000234602F08FFF0346002B06D04C4BD3E965
:1016000000344B4AC2E902346EE0494BD3E902018F
:10161000474BD3E904341A46234602F05DFF0346E4
:10162000002B00D160E0424BD3E90434404AC2E9C8
:10163000023459E03B4B93F90030DAB2FB791344A2
:10164000DBB25BB297F9062019463B48FFF71AFE5A
:10165000374BD3E90401364BD3E902341A4623460B
:1016600002F058FF0346002B06D0314BD3E9023479
:101670002F4AC2E9043437E02D4BD3E904012C4B47
:10168000D3E906341A46234602F026FF0346002B10
:1016900000D129E0264BD3E90634254AC2E90434B7
:1016A00022E0204B93F90030DAB2FB791344DBB22D
:1016B0005BB297F9062019462048FFF7E3FD1C4B63
:1016C000D3E906011A4BD3E904341A46234602F043
:1016D00021FF0346002B00D105E0154BD3E904346C
:1016E000134AC2E9063400BF4BE10E4B93F90010D8
:1016F00097F9062002231248FFF74CFE114B0022F7
:101700009A7400F073FF01F093F83FE1044B93F9F2
:101710000130012B27D0022B34D0002B14D035E11F
:10172000940A0020980A00201000002008000020E1
:101730001800002020000020280000203000002099
:10174000480A0020680A0020924B93F90030DAB270
:10175000FB791344DBB25BB297F9062019468E4839
:10176000FFF790FD18E08B4B93F90030DAB2FB796C
:101770001344DBB25BB297F9062019468748FFF79E
:1017800081FD09E0834B93F9001097F906200123AE
:101790008348FFF7FFFD00BFF8E0824B93F901306B
:1017A000042B00F2F08001A252F823F0C1170008C8
:1017B000DF170008FD170008111800082518000899
:1017C000744B93F90030DAB2FB791344DBB25BB2AD
:1017D00097F9062019467448FFF754FD2CE06D4B2D
:1017E00093F90030DAB2FB791344DBB25BB297F9BC
:1017F000062019466D48FFF745FD1DE0654B93F93E
:10180000001097F9062009236948FFF7C3FD13E08C
:10181000604B93F9001097F9062009236548FFF7FC
:10182000B9FD09E05B4B93F9001097F906200123FD
:101830006148FFF7AFFD00BFA5E05A4B93F90130B7
:10184000062B00F2A28001A252F823F069180008CA
:1018500087180008A5180008C3180008E118000838
:10186000271900086D1900084A4B93F90030DAB2C5
:10187000FB791344DBB25BB297F9062019464F4857
:10188000FFF700FD7CE0434B93F90030DAB2FB79BF
:101890001344DBB25BB297F9062019464848FFF7BC
:1018A000F1FC6DE03B4B93F90030DAB2FB79134465
:1018B000DBB25BB297F9062019464248FFF7E2FC1B
:1018C0005EE0344B93F90030DAB2FB791344DBB2BB
:1018D0005BB297F9062019463B48FFF7D3FC4FE06F
:1018E0002C4B93F90030DAB2FB791344DBB25BB2D4
:1018F00097F9062019463548FFF7C4FC2F4BD3E96A
:101900000C012E4BD3E90E341A46234602F0E4FDB7
:101910000346002B00D133E0284BD3E90E34274A8D
:10192000C2E90C342CE01B4B93F90030DAB2FB799E
:101930001344DBB25BB297F9062019462448FFF73F
:10194000A1FC1E4BD3E90E011C4BD3E90C341A4603
:10195000234602F0DFFD0346002B00D110E0174BB9
:10196000D3E90C34154AC2E90E3409E0094B93F966
:10197000001097F9062001231648FFF70BFD00BF62
:1019800003E000BF02E000BF00E000BF00BF0C3773
:10199000BD4690BD980A0020680A0020700A002009
:1019A000780A0020940A002038000020400000201F
:1019B000480000204A0000204E000020580000206F
:1019C00060000020680000207800002088000020CF
:1019D00090000020C800002090B585B000AF0346FD
:1019E000FB71374BD3E90001354BD3E902341A467A
:1019F000234602F04BF903460C46184621464FF0A9
:101A00000002304B02F020FC03460C46C7E90234CA
:101A100029A3D3E90023D7E9020102F05DFD0346C3
:101A2000002B04D024A4D4E90034C7E9023497F988
:101A30000730184602F078FAD7E9022302F0DAFA02
:101A400003460C46184621461F4BD3E900341A467C
:101A5000234602F01DF903460C461B4AC2E9003436
:101A6000174BD3E90001184BD3E900341A4623463B
:101A700002F032FD0346002B06D0114BD3E90034AF
:101A8000114AC2E9003413E00D4BD3E902010E4BB9
:101A9000D3E900341A46234602F03CFD0346002BEE
:101AA00000D105E0064BD3E90234074AC2E900340D
:101AB00000BF1437BD4690BD9A9999999999B93F3D
:101AC0000800002000005940580A0020B0B582B03C
:101AD00000AF0346FB71424B1B88012B0FD0022B3A
:101AE0003FD0002B00D077E03E4B9B7C002B0CBFFF
:101AF00001230023DBB21A463A4B9A746CE097F943
:101B00000730002B0FDD384B5B7E002B03D0364BAC
:101B100000225A7616E0344B1B7E002B12D1324B3A
:101B200001221A760EE0304B1B7E002B03D02E4B89
:101B300000221A7606E02C4B5B7E002B02D12A4B4A
:101B400001225A76284B1B7E002B44D0264B5B7E0D
:101B5000002B40D0244B00221A76234B00225A76C9
:101B600039E0224BD3E90A4597F90730184602F0CD
:101B7000DBF902460B462046294602F089F8034667
:101B80000C461A4AC2E90A34184BD3E90A014FF04D
:101B90000002174B02F0BEFC0346002B06D0134A8E
:101BA0004FF00003124CC2E90A3415E00F4BD3E9A1
:101BB0000A014FF000024FF0000302F08DFC0346D3
:101BC000002B00D108E0094A4FF000034FF0000459
:101BD000C2E90A3400E000BF00BF0837BD46B0BD0F
:101BE000480A0020680A0020380000205800002021
:101BF0000000594080B483B000AF0346FB710A4B2C
:101C000093F90030002B02D0012B02D006E005230F
:101C100005E097F90730054AD35600E0002318463F
:101C20000C37BD4680BC7047970A0020F8000020A2
:101C300090B585B000AF0346FB71204B93F900309F
:101C4000013B23EAE373FB731C4B93F900301A4604
:101C50001B4B9B561A4697F907301344002B08DAA2
:101C600097F90F30164AD3561846FFF7C3FF0346BD
:101C700020E0124B93F900301A46114B9B561A463E
:101C800097F90730D41897F90F300D4AD3561846F4
:101C9000FFF7B0FF03469C4201DD00230AE0074B3B
:101CA00093F900301A46064B9B56DAB2FB7913447F
:101CB000DBB25BB218461437BD4690BD970A0020D0
:101CC000940A002098B500AF174B93F90030002B11
:101CD0001DD0164B93F90030002B0BDDFFF792FA65
:101CE000034604331B78303BDBB25BB2012118465C
:101CF000FFF7C8FB0E4B93F900301C464FF0FF3046
:101D0000FFF796FF03461A460A4B1A550AE00A4B9C
:101D10001B78002B03D00120FFF75EFE02E00120BC
:101D2000FFF7D4FE00BF98BD00000020980A0020F5
:101D3000970A0020940A00204A0A002098B500AFB4
:101D4000184B93F90030002B1DD0174B93F900303E
:101D5000002B0CDDFFF756FA034604331B78303BAB
:101D6000DBB25BB24FF0FF311846FFF78BFB0F4B36
:101D700093F900301C460120FFF75AFF03461A462C
:101D80000B4B1A550CE00B4B1B78002B04D04FF07B
:101D9000FF30FFF721FE03E04FF0FF30FFF796FE24
:101DA00000BF98BD00000020980A0020970A00207C
:101DB000940A00204A0A002080B400AF124B93F925
:101DC0000030002B1CD0114B93F90030012B09DCA3
:101DD0000E4B93F90030DBB20133DBB25AB20B4B3E
:101DE0001A700DE00A4B93F90030032B08DC084B06
:101DF00093F90030DBB20133DBB25AB2044B1A70F4
:101E000000BFBD4680BC704700000020970A00203C
:101E1000980A002080B400AF164B93F90030002BD5
:101E200023D0154B93F90030002B15D1134B93F9A8
:101E30000030002B19DD114B93F900301A46104B7E
:101E4000002199540D4B93F90030DBB2013BDBB21A
:101E50005AB20A4B1A7008E0074B93F90030DBB214
:101E6000013BDBB25AB2044B1A7000BFBD4680BCC6
:101E7000704700BF00000020980A0020970A002049
:101E8000940A002098B500AF1A4B93F90030002B4C
:101E900024D0194B93F90030012B05D0022B0BD025
:101EA000002B19D1154B23E0154B93F900301A463E
:101EB000144B53F822301BE0114B93F900301946B4
:101EC0000F4B93F9013018460F4A0B46DB005B1AA3
:101ED000034452F823300BE00C4B09E00C4BD3E9E0
:101EE00000341A4623460B490B4802F061FB0A4BAB
:101EF000184698BD00000020970A0020A48700081B
:101F0000940A00200001002018010020AC8700087E
:101F1000500A00209C8700089C0A0020B0B500AF42
:101F2000364B93F90030002B31D0354B93F900300C
:101F3000012B0BD0022B19D0002B26D1314B93F95A
:101F400000301A46304B53F8223055E02D4B93F9B0
:101F5000003019462B4B93F9013018462B4A0B469B
:101F6000DB005B1A034452F8233045E0FFF74AF9DF
:101F70000546FFF755F803460C461A462346294600
:101F8000234802F015FB224B36E0224B34E0224B73
:101F90001B78002B0AD0214BD3E900341A46234684
:101FA0001F491B4802F004FB194B25E01D4B1B8801
:101FB000002B02D0012B08D013E01B4B9B7C1A4650
:101FC0001A49134802F0F4FA15E0194B1B7E1A4621
:101FD000174B5B7ED31A1A4614490D4802F0E8FAF3
:101FE00009E0144BD3E90A341A4623460C49084841
:101FF00002F0DEFA00BF064B1846B0BD000000201C
:10200000970A0020940A00200001002018010020F7
:102010009C0A0020AC8700084A0A0020580A0020C9
:102020009C870008480A0020680A0020B48700083E
:10203000380000205800002080B400AF094B002277
:102040001A70084B00225A70064B00229A70064BF9
:1020500000221A70054B00221A7000BFBD4680BCDA
:10206000704700BF940A0020970A0020980A0020B9
:1020700080B400AF044B93F90030DBB2013BDBB21C
:102080001846BD4680BC7047980A002080B500AF56
:102090001B4A1B4B1B6843F0010313601849184B84
:1020A0005A68184B13404B60154A154B1B6823F0B8
:1020B000847323F480331360114A114B1B6823F49B
:1020C000802313600E4A0E4B5B6823F4FE035360BB
:1020D0000B4A0B4BDB6A23F00F03D3620849084B12
:1020E0001A6B094B13400B63054B00229A6000F0FA
:1020F0000FF8064B4FF000629A6000BF80BD00BF32
:10210000001002400CC07FF8CCFC00FF00ED00E0A6
:1021100080B483B000AF00237B6000233B60324A71
:10212000314B1B6843F4803313602F4B1B6803F45F
:1021300000333B607B6801337B603B68002B03D13D
:102140007B68B3F5A06FF0D1274B1B6803F4003315
:10215000002B02D001233B6001E000233B603B6881
:10216000012B3CD1214B12221A601F4A1E4B5B6887
:1021700053601D4A1C4B5B6853601B4A1A4B5B68DB
:1021800043F480635360184A174B5B6823F47C1355
:102190005360154A144B5B6843F4E8135360124ACA
:1021A000114B1B6843F08073136000BF0E4B1B681C
:1021B00003F00073002BF9D00B4A0B4B5B6823F044
:1021C00003035360084A084B5B6843F00203536003
:1021D00000BF054B5B6803F00C03082BF9D100BF6F
:1021E0000C37BD4680BC7047001002400020024002
:1021F00080B485B000AF78600A4B1B68002B02D119
:10220000084B094A1A60074B1B68FB60054B1A68AC
:102210007B681344034A1360FB6818461437BD46B5
:1022200080BC7047A40A0020F00A002080B487B068
:1022300000AF786000237B6100233B610F23FB60CC
:102240007B68DB78002B3AD0274BDB68DB4303F459
:10225000E0631B0A7B617B69C3F104033B61FA689D
:102260007B6922FA03F3FB607B685B781A463B6963
:1022700002FA03F37B617B689B781A46FB68134084
:102280007A6913437B617B691B017B61174A7B6819
:102290001B787969C9B213440A4683F80023134AAC
:1022A0007B681B785B09DBB218467B681B7803F000
:1022B0001F03012101FA03F342F820300FE00B491C
:1022C0007B681B785B09DBB218467B681B7803F0E0
:1022D0001F0301229A4000F1200341F8232000BF90
:1022E0001C37BD4680BC704700ED00E000E100E017
:1022F00080B485B000AF786039600023FB817B68D3
:102300001B88FB817B682C4A93420FD07B682B4A49
:1023100093420BD07B68B3F1804F07D07B68284A8B
:10232000934203D07B68274A934208D1FB8923F06C
:102330007003FB813B685A88FB891343FB817B68F0
:10234000214A93420CD07B68204A934208D0FB89F3
:1023500023F44073FB813B681A89FB891343FB819B
:102360007B68FA891A803B685A687B68DA623B6846
:102370001A887B681A857B680F4A93420FD07B6866
:102380000E4A93420BD07B68114A934207D07B6878
:10239000104A934203D07B680F4A934204D13B68B2
:1023A0009B7A9AB27B681A867B6801225A6100BFC9
:1023B0001437BD4680BC7047002C014000340140FA
:1023C00000040040000800400010004000140040DD
:1023D00000400140004401400048014080B483B007
:1023E00000AF78600B46FB70FB78002B08D07B6851
:1023F0001B889BB243F001039AB27B681A8007E006
:102400007B681B889BB223F001039AB27B681A8019
:1024100000BF0C37BD4680BC704700BF80B483B09E
:1024200000AF78600B467B8013467B707B78002B77
:1024300006D07B68DA687B881A437B68DA6007E03D
:102440007B68DB687A88D24392B21A407B68DA6094
:1024500000BF0C37BD4680BC704700BF80B483B05E
:1024600000AF78600B467B807B88DB439BB21A46CB
:102470007B681A6100BF0C37BD4680BC704700BF47
:10248000002103E00A4B5B584350043109480A4BD2
:1024900042189A42F6D3094A02E0002342F8043B6C
:1024A000074B9A42F9D3FFF7F1FDFEF7B1F87047F9
:1024B0005C890008000000203C0A0020400A00203F
:1024C000F00A0020FEE7000090B484B000AF03469D
:1024D0000A46FB711346BB710023FB60BB7903F016
:1024E00003039B000F2202FA03F3FB601649BB793A
:1024F0009B08DBB21846144ABB799B08DBB2023357
:1025000052F82320FB68DB431A40831C41F8232048
:102510000D48BB799B08DBB21C460B4ABB799B0874
:10252000DBB2023352F82320F979BB7903F00303BD
:102530009B0001FA03F31A43A31C40F8232000BFB9
:102540001037BD4690BC70470000014080B483B096
:1025500000AF78607B681B78002B10D07B689A787E
:102560007B685B789A4206D27B689B780133DAB24B
:102570007B689A7009E07B680122DA7005E07B686D
:102580000022DA707B6800229A7000BF0C37BD46CB
:1025900080BC704780B483B000AF78600B467B800E
:1025A00013463B807B689B8A9AB27B8813409BB220
:1025B0003A889A4214D07B689B8A9BB21AB2B7F9C8
:1025C0000230DB431BB213401BB29AB27B689A8283
:1025D0007B689B8A9AB27B8813439AB27B689A8203
:1025E00000BF0C37BD4680BC704700BF80B400AF51
:1025F000074B00229A82064B00221A76044B0022D7
:102600005A76034B00229A7600BFBD4680BC7047C5
:1026100038000020B0B500AF1A4BD3E900011A4BC7
:10262000D3E9002301F032FB02460B46144623F0A7
:102630000045164BC3E90045154BD3E90201134B86
:10264000D3E900341A46234601F064FF0346002B09
:102650000CD10F4BD3E900010C4BD3E900341A46DF
:10266000234601F039FF0346002B03D0084B00221C
:102670009A8205E0064B9B8A01339AB2044B9A82F8
:10268000B0BD00BF500A0020580A0020A80A002050
:10269000380000202DE9F84300AF614BDB8A002BA6
:1026A0000CD0604BD3E900015F4BD3E900341A46EC
:1026B000234601F0EBFA03460C460BE05A4BD3E9F4
:1026C0000001584BD3E900341A46234601F0DEFAE4
:1026D00003460C46554AC2E90034544BD3E9003452
:1026E000984624F000494E4BD3E902341A4623465B
:1026F0004046494601F0F0FE0346002B06D0484B09
:1027000000221A76464B00225A7687E0474BD3E9DF
:1027100000341D4624F00046414BD3E900341A46EC
:1027200023462846314601F0F5FE0346002B28D00B
:102730003E4BD3E9000101231C464FF000024FF04D
:10274000000301F0E7FE0346002B01D100231C46E5
:10275000E3B21A46324B1A76344BD3E90001012317
:102760001C464FF000024FF0000301F0B5FE034697
:10277000002B01D100231C46E3B21A46284B5A769F
:102780004CE0274B9A8A264B1B8A9A4206D2244B4E
:1027900000221A76224B00225A763FE0204B9B7E85
:1027A000002B2AD1214BD3E9000101231C464FF015
:1027B00000024FF0000301F0ADFE0346002B01D1F3
:1027C00000231C46E3B21A46154B1A76174BD3E981
:1027D000000101231C464FF000024FF0000301F0FE
:1027E0007BFE0346002B01D100231C46E3B21A46B0
:1027F0000B4B5A760A4B01229A76094B9B8A1A4652
:10280000074B1B8A1946064B5B8A0B449A4205DD2F
:10281000034B00229A82024B00229A76BDE8F8838D
:1028200038000020500A0020580A0020A80A002082
:1028300090B400AF0F4A4FF000034FF00004C2E91C
:102840000A340C4A4FF000034FF00004C2E9103480
:10285000084A4FF000034FF00004C2E91234054A61
:102860004FF000034FF00004C2E9143400BFBD462E
:1028700090BC7047580000202DE9F84300AF5B4B37
:10288000D3E900015A4BD3E900341A46234601F03C
:10289000FDF903460C46574AC2E90034554BD3E9CB
:1028A00000341D4624F00046534BD3E908341A4641
:1028B00023462846314601F00FFE0346002B40F028
:1028C00091804D4BD3E912344B4AC2E914344A4B40
:1028D000D3E91034484AC2E91234474BB3F8703098
:1028E000184601F021FB434BD3E900341A46234636
:1028F00001F080FB03460C46184621464FF00002CB
:102900004FF0000301F0DEFD0346002B03D14FF032
:1029100000033A4C02E04FF00003394C364AC2E95A
:102920001034354BD3E90A45334BD3E91601324B0A
:10293000D3E9102301F05EFB02460B469046994610
:102940002D4BD3E918012C4BD3E9122301F052FB94
:1029500002460B464046494601F09AF902460B46AC
:1029600090469946244BD3E91A01234BD3E914230B
:1029700001F040FB02460B464046494601F088F90B
:1029800002460B462046294601F082F903460C46D2
:10299000194AC2E90A34184BD3E90A01164BD3E9A4
:1029A0000C341A46234601F0B5FD0346002B05D032
:1029B000114BD3E90C34104AC2E90A340E4BD3E967
:1029C0000A010D4BD3E90E341A46234601F084FD6B
:1029D0000346002B07D0084BD3E90E34064AC2E960
:1029E0000A3400E000BFBDE8F88300BF580A0020A9
:1029F000500A0020B00A0020580000200000F0BF5C
:102A00000000F03F00000000C1F30A522DE9F84336
:102A1000A2F2FF36132E0B460D46044688460746A3
:102A200021DC002E4EDB3A4A42FA06F901EA09029D
:102A3000024386461CD034A3D3E9002301F028F9D1
:102A40000022002301F066FD48B1002D04DD4FF4A3
:102A5000801343FA06F6B04428EA090500273846F1
:102A60002946BDE8F883332E06DDB6F5806F3CD0ED
:102A700020461946BDE8F883A2F213424FF0FF3911
:102A800029FA02F910EA090FF2D01FA3D3E90023B3
:102A900001F0FEF80022002301F03CFD0028DED00A
:102AA000002D09DD142E2BD00123C6F1340603FAC4
:102AB00006F6371928BF9844454627EA09073846DD
:102AC0002946CEE710A3D3E9002301F0E1F8002264
:102AD000002301F01FFD0028C1D0002D0CDB55EABA
:102AE000040707D000270B4DB9E702460B4601F05B
:102AF000CFF8BFE73D46B2E700274FF00045AEE70D
:102B000005F10108D8E700BF9C7500883CE4377EDA
:102B1000FFFF0F000000F03F2DE9F04FDFF8E492D7
:102B20008DB006460F4614461D4600F06DF999F922
:102B30000080B8F1FF3FCDE9000146D022462B4688
:102B40002046294601F0F0FC834600283DD132465C
:102B50003B463046394601F0E7FC0022824600231E
:102B6000002840F084803046394601F0ABFC002854
:102B700030D0002200232046294601F0A3FC8346E2
:102B8000A8B10122984B029200210022CDF828A082
:102B9000CDE90467CDE90645CDE908120393B8F104
:102BA000000F53D0914900200DB0BDE8F08F2046B2
:102BB000294600F047FF40B1002200232046294665
:102BC00001F08AFC002840F0B780DDE900010DB07B
:102BD000BDE8F08FDDE9000100F034FF80460028F9
:102BE0005DD04FF0000A4FF0000B52465B46DDE926
:102BF000000101F067FC0028E7D03046394600F0BC
:102C000021FF0028E1D02046294600F01BFF0028C4
:102C1000DBD099F90030744A039204210022022B80
:102C2000CDE90467CDE90645CDE908AB02910A92EA
:102C300003D002A800F00CFF70B901F0B3FC22230E
:102C4000036009E000230024CDE9083402A800F065
:102C5000FFFE002800F086800A9B1BB101F0A2FC59
:102C60000A9B0360DDE908010DB0BDE8F08F204646
:102C7000294601F027FC0028A7D05C495A4BCDF823
:102C800028B001220020B8F1020FCDE90467CDE998
:102C9000064502920393CDE90801D7D197E7304664
:102CA000394600F0CFFE00289BD02046294600F090
:102CB000C9FE002895D0DDE900231046194601F031
:102CC00033FC002873D1032399F900800293464B0B
:102CD0000A900393CDE90467CDE90645002200235D
:102CE00030463946B8F1000F41D1414F4FF06046B0
:102CF000CDE9086701F0F0FB00289AD000223D4B97
:102D00002046294601F076F904460D4600F0A8FE5B
:102D100002460B462046294601F0D4FB002843D149
:102D2000354B99F900804FF06042CDE90823B8F1A6
:102D3000020F7FF47EAF80E799F900302A4ACDF880
:102D400028B00121CDE90467CDE90645029103923F
:102D5000002B3FF477AF29490020022BCDE9080171
:102D60007FF474AF01F01EFC2123036074E7244F4D
:102D70000026CDE9086701F0AFFB0028D7D000227C
:102D80001C4B2046294601F035F904460D4600F05B
:102D900067FE02460B462046294601F093FB18B910
:102DA000164B0022CDE9082399F90080BFE799F975
:102DB00000900D4BCDF828800122CDE90467CDE9C4
:102DC000064502920393B9F1000F3FF43BAF002296
:102DD00000231046194601F037FAB9F1020FCDE988
:102DE0000801BFD032E700BFBC8700080000F03FF9
:102DF000FFFFEF470000E03FFFFFEFC70000F0FFDD
:102E00000000F07FC00100202DE9F04F23F00048C2
:102E100058EA020993B03CD0714C21F00046A6421A
:102E200083460D460CDD06F1404606F5801656EA4F
:102E30000B0038D16B498346584613B0BDE8F08F7C
:102E40009A4696462BD0A045EDDC654CA04578D03F
:102E5000002D0F468146CDE9002376DB0024BEF12C
:102E6000000F27D15E4B984500F08B805D4B984555
:102E700052D0BAF1804F00F0C2835B4B9A4519D112
:102E8000002D17DB4846394613B0BDE8F04F00F07F
:102E900015BDCB465349584613B0BDE8F08F002806
:102EA000C1D1B045D1DD514813B0BDE8F04F00F0BD
:102EB000D1BD00244846394600F0C0FDBBF1000FEB
:102EC0001CD0ED0F013D54EA050370D0484B9845E6
:102ED00040F3948003F10473984540F30584454B17
:102EE0009E4270DDBAF1000F70DD3BA3D3E90023F1
:102EF0001046194601F07EF883469DE726B1394B0E
:102F000025F040429A42DCD1BAF1000FC0F2B08302
:102F1000002D08DB83468FE7BAF1000FC0F256841C
:102F2000CB46394688E706F1404606F5801656EA54
:102F3000040300F07B84012CECD1834601F10041B5
:102F40007AE7BEF1000F83D06DE72B4B98452CDC60
:102F5000A3F15473984581DD4FEA2853A3F2FF3360
:102F6000142B40F34B84C3F134032EFA03F202FA1C
:102F700003F39E457FF472AF02F00102C2F1020436
:102F80006DE706F1404303F5801353EA0B0300F0AD
:102F90003383184B9E4240F36083BAF1000F15DB78
:102FA000DDE900349B46214646E7022457E74A46BE
:102FB00048463B46394600F069FE02460B4601F0A2
:102FC00043F9834638E7BAF1000F8EDB4FF0000B70
:102FD000594631E7AFF300809C7500883CE4377EAA
:102FE0000000F07F0000F03F0000E03F0488000890
:102FF0000000E041FFFFEF3FFFFF3F43B6F5801FBA
:103000004FF0000205DAD44B00F0F4FF6FF0340209
:103010000E463315D14FC6F31306A3F2FF33134404
:1030200046F07F5ABE421A460D934AF4401A40F3C6
:10303000C183CB4B9E4240F3FD83134601330D9376
:10304000C84B0022CDE9062300270026CDE90867FA
:10305000CDE90E67AAF5801A00270246534651466D
:10306000CDE90A23DDE9062300F010FEDDE90623A1
:1030700080468946DDE90A0100F00AFE02460B4659
:103080000020B84901F0E0F80A460146CDE91012E7
:10309000134649460246404600F0ACFF4FEA6A0339
:1030A00043F000538C46834603F50023CDE904BC6E
:1030B000DA468B46D9190023CDE902AB0293DDE94C
:1030C00002AB002006460F4602460B4650465946C4
:1030D00000F090FF02460B464046494600F0D6FD00
:1030E000DDE90623804689463046394600F0CEFDAC
:1030F00002460B46DDE90A0100F0C8FD52465B4678
:1031000000F078FF02460B464046494600F0BEFDFF
:10311000DDE9102300F06EFFDDE90467CDE906016B
:1031200032463B463046394600F064FF78A3D3E987
:10313000002306460F4600F05DFF77A3D3E9002386
:1031400000F0A6FD32463B4600F054FF74A3D3E9DD
:10315000002300F09DFD32463B4600F04BFF72A37A
:10316000D3E9002300F094FD32463B4600F042FFD5
:103170006FA3D3E9002300F08BFD32463B4600F0FD
:1031800039FF6DA3D3E9002300F082FD324680466B
:1031900089463B463046394600F02CFF02460B4636
:1031A0004046494600F026FF524606460F465B461B
:1031B000DDE9040100F06CFDDDE9062300F01AFFF3
:1031C00032463B4600F064FD5246804689465B46E7
:1031D0005046594600F00EFF0022634BCDE90A012C
:1031E00000F056FD42464B4600F052FD02980F4655
:1031F000064632463B465046594600F0FBFE00224A
:1032000082468B46584B3046394600F03FFDDDE99B
:103210000A2300F03BFD02460B464046494600F0BB
:1032200035FDDDE9042300F0E5FE3246804689469F
:103230003B46DDE9060100F0DDFE02460B46404656
:10324000494600F025FD8046894602460B46504619
:103250005946CDE904AB00F01BFDDDE902AB38A314
:10326000D3E9002350460F4600F0C4FEDDE90423F5
:10327000CDE902013946504600F008FD02460B46F2
:103280004046494600F002FD2FA3D3E9002300F099
:10329000B1FE2FA3D3E90023804689465046394624
:1032A00000F0A8FE02460B464046494600F0F0FCFE
:1032B000DDE90E2300F0ECFC80460D98894600F015
:1032C00033FE424606460F464B46DDE9020100F05A
:1032D000DFFCDDE9082300F0DBFC32463B4600F072
:1032E000D7FC32463B4650468B4600F0CFFCDDE92A
:1032F000082300F0CBFCDDE9022300F0C7FC024606
:103300000B464046494600F0C1FC80462EE000BF17
:10331000EF4E454A287ECA3F65DBC9934A86CD3FBA
:1033200001411DA96074D13F4D268F515555D53FA0
:10333000FFAB6FDBB66DDB3F033333333333E33F38
:10334000000000E009C7EE3FFD033ADC09C7EE3F8D
:10335000F5015B14E02F3EBE000040438E98030051
:1033600079B60B000000F03F000008408946013CA0
:1033700054EA0503DDE9000114BFD54CD54C002308
:10338000CDE9043403460C46CDE902340023029310
:10339000DDE9024522462B4600F078FC52465B46AA
:1033A00000F028FEDDE9002306460F464046494668
:1033B00000F020FE02460B463046394600F068FC1D
:1033C000224606460F462B4650465946CDE9006731
:1033D00000F010FE0B4602468046894630463946CC
:1033E00000F056FCBC4B994206460D460C4640F395
:1033F0000E8101F13F4303F5E003034340F0EF8109
:103400009FA3D3E90023DDE9000100F041FC42461F
:1034100082468B464B463046294600F037FC024632
:103420000B465046594601F075F8002840F0D78108
:103430002F463B154FF48012A3F2FE3342FA03F3FA
:103440002344C3F30A52A54EA2F2FF321641C3F33E
:10345000130B0020C2F1140523EA06014BF4801B74
:1034600002460B46002C4BFA05FB40464946B8BFC6
:10347000CBF1000B00F00AFC02460B468046894661
:10348000DDE9000100F004FC4FEA0B5A00247EA3A2
:10349000D3E9002320460D4600F0ACFD4246064627
:1034A0000F464B462046294600F0F0FB02460B46ED
:1034B000DDE9000100F0EAFB75A3D3E9002300F089
:1034C00099FD75A3D3E90023804689462046294605
:1034D00000F090FD02460B464046494600F0D8FBFE
:1034E0008046894602460B463046394600F0D0FBFE
:1034F00032463B4604460D4600F0C8FB02460B46EA
:103500004046494600F0C2FB2246804689462B468B
:103510002046294600F06EFD61A3D3E9002306464C
:103520000F4600F067FD60A3D3E9002300F0AEFB77
:1035300032463B4600F05EFD5DA3D3E9002300F078
:10354000A7FB32463B4600F055FD5BA3D3E90023C1
:1035500000F09CFB32463B4600F04CFD58A3D3E9FB
:10356000002300F095FB32463B4600F043FD024647
:103570000B462046294600F089FB06460F460246C8
:103580000B462046294600F035FD0022CDE900011A
:103590004FF080433046394600F078FB02460B4638
:1035A000DDE9000100F050FE424606460F464B465C
:1035B0002046294600F01EFD42464B4600F068FBBF
:1035C00002460B463046394600F060FB22462B4649
:1035D00000F05CFB02460B4600203D4900F056FB24
:1035E0008A44BAF5801FC0F236815146DDE90423D2
:1035F00000F000FD83461FE4F34635491CE44A46CB
:1036000048463B46394600F0F5FC834614E4344B0B
:1036100021F000479F4240F30081324B0B440343AB
:103620000CD142464B4600F031FB02460B46DDE929
:10363000000100F05BFF00283FF4FBAE22A3D3E9BA
:103640000023DDE9040100F0D5FC1FA3D3E900232A
:1036500000F0D0FC8346FFF7EFBBBAF1000FBFF6D6
:10366000B5ACDDE900349B4604F10041FFF7E4BB53
:1036700002460B460020164900F0E6FD48E400BF74
:10368000FE822B654715973C00000000432EE63F65
:10369000EF39FAFE422EE63F396CA80C615C20BE81
:1036A000D0A4BE726937663EF16BD2C541BDBB3E48
:1036B0002CDE25AF6A56113F93BDBE166CC1663F26
:1036C0003E5555555555C53F59F3F8C21F6EA501D6
:1036D0000000F03F0000F0BFFFFF8F40FFFF0F0032
:1036E000FFCB904000346F3F6F4B9E427FF76BAC37
:1036F0006E4B9E423FF7F6AB00226C4B00F0C6FAD1
:103700005BA3D3E9002306460F4600F073FC5AA3DF
:10371000D3E90023804689463046394600F06AFCEA
:10372000002282468B46624B3046394600F062FCEE
:1037300002460B4652A1D1E9000100F0A7FA324639
:103740003B4600F057FC02460B460020594900F06A
:103750009DFA3246CDE902013B463046394600F03B
:1037600049FC02460B46DDE9020100F043FC46A39A
:10377000D3E9002300F03EFC02460B465046594672
:1037800000F084FA02460B4606460F46404649467C
:1037900000F07EFA42464B46002082468B4600F0FF
:1037A00075FA02460B463046394600F06FFA8046FD
:1037B0008946DCE500220023CDE90823CDE90E236C
:1037C0003A4B00220027CDE9062346E44A463B4611
:1037D0000020364900F038FD8346FFF72DBB2CA3AF
:1037E000D3E90023DDE9040100F004FC28A3D3E9B8
:1037F000002300F0FFFB8346FFF71EBBBEF1000F66
:103800007FF457ABC3F1140348FA03F202FA03F34F
:10381000984524D07446FFF729BB264B9F423FF7BB
:1038200008AEDDE902349A469B462FE602460B4677
:10383000FFF7C1BB18A3D3E90023CDE9082318A3E0
:10384000D3E90023CDE90E231B4B00224FF4802740
:10385000CDE9062301E45A4600F08EF9C6E602F0EF
:103860000102C2F10204FFF701BB00BFAFF3008009
:10387000000000604715F73F44DF5DF80BAE543E93
:10388000555555555555D53FFE822B654715F73F84
:103890009C7500883CE4377E0000004003B8E23F9E
:1038A00006D0CF43EBFD4C3EFEFFEF3F0000F03F64
:1038B0000000D03F0000E03F0000F83F2DE9F84352
:1038C0005D4EB6460E4076450C46054600F09580A6
:1038D00000290B46024673DD0F157ED0A7F2FF3795
:1038E000C3F31303F80743F4801364D403EBD271DA
:1038F00000260B447F105200B64616204FF40011EC
:103900000EEB01049C424FEAD2754FEA420203DCFF
:103910001B1B04EB010E0E44013805EB43034FEA79
:103920005101EDD1844620244FF0004109E020D020
:1039300003EBD275013C4FEA51012B444FEA42029E
:1039400020D09E4501EB0C05F1DA002D05EB010CB2
:1039500009DBF0469542CEEB030300D9013B521B35
:103960000844C646E4E7BCF1000FF2DB0EF10108A3
:10397000F0E7954217D8002D05EB010C47DB984680
:103980000023ECE7134310D14008731003F17F5379
:1039900003F50013F20703EB075948BF40F000405E
:1039A0004946BDE8F8837346C2E7411C33D000F0B6
:1039B00001031844E8E75B0003EBD273520095E77C
:1039C00021F000460643ECD069BB0F46D30A153FF1
:1039D0005205002BFAD0DD0220D4002100E0014680
:1039E0005B00DC0201F10100F9D5C0F1200422FAEC
:1039F00004F423437F1A824070E702460B4600F02E
:103A0000F9FA2A46234600F043F9BDE8F883BCF1F1
:103A1000000FABDAB3E701362046B6E720244FF0BB
:103A2000FF310020E3E702460B4600F02FF9024683
:103A30000B4600F009FCB4E70000F07F21F00041E4
:103A4000704700BF41F0004101F58010C00F704782
:103A50000020704700200149704700BF0000F87F38
:103A6000F0B5C1F30A5EAEF2FF36132E83B0024604
:103A70000B460C464FEAD17507462EDC002E49DB7B
:103A80003B49314103EA010010432BD049080B4068
:103A900053EA02070CD04FF48023132E24EA0101CD
:103AA00043FA06F444EA01040CBF4FF00047002734
:103AB000304B03EBC5052146D5E900453846224683
:103AC0002B4600F0E5F8CDE9000122462B46DDE962
:103AD000000100F0DBF803B0F0BD332E06DDB6F5D3
:103AE000806F42D01046194603B0F0BDAEF2134EBF
:103AF0004FF0FF3121FA0EF10842F3D04908084295
:103B0000D6D04FF0804320EA010143FA0EFE4EEA80
:103B10000107CDE721F000410143E3D0C3F31301D6
:103B2000144E41EA000CCCF1000106EBC506D6E9C3
:103B3000006741EA0C0C5C0C4FEA1C3C0CF4002CB6
:103B400064044CEA040132463B4600F0A1F8CDE99A
:103B500000013B463246DDE9000100F097F821F014
:103B6000004444EAC5731946BEE700F091F8BBE78C
:103B7000FFFF0F00C0870008F8B5C1F30A560446DE
:103B80000D460B46174606BB21F00043034325D0E4
:103B90000022354B00F02EFA344A974204460D4677
:103BA0000B462ADBC1F30A56363E3E4440F2FE7213
:103BB000964228DC002E12DD23F0FF4323F4E003BD
:103BC00043EA065520462946F8BD40F2FF72964268
:103BD000EBD102460B4600F05BF8F8BDF8BD16F1DC
:103BE000350F1DDA4CF250339F4222462B4625DC1E
:103BF00019A1D1E9000100F03DF817A3D3E9002392
:103C000000F0F8F9F8BD22462B4615A1D1E90001D4
:103C100000F030F812A3D3E9002300F0EBF9F8BD6F
:103C200023F0FF4323F4E003363643EA06552046EB
:103C3000294600220E4B00F0DDF9F8BD08A1D1E9BC
:103C4000000100F017F806A3D3E9002300F0D2F931
:103C5000F8BD00BFAFF3008059F3F8C21F6EA50195
:103C60009C7500883CE4377E00005043B03CFFFF69
:103C70000000903C03F0004321F0004242EA0301BF
:103C8000704700BF81F0004102E000BF83F00043B5
:103C900030B54FEA41044FEA430594EA050F08BFE7
:103CA00090EA020F1FBF54EA000C55EA020C7FEAAB
:103CB000645C7FEA655C00F0E2804FEA5454D4EB28
:103CC0005555B8BF6D420CDD2C4480EA020281EAF2
:103CD000030382EA000083EA010180EA020281EA2A
:103CE0000303362D88BF30BD11F0004F4FEA01317C
:103CF0004FF4801C4CEA113102D0404261EB41018B
:103D000013F0004F4FEA03334CEA133302D0524210
:103D100063EB430394EA050F00F0A780A4F10104CC
:103D2000D5F1200E0DDB02FA0EFC22FA05F2801806
:103D300041F1000103FA0EF2801843FA05F35941EC
:103D40000EE0A5F120050EF1200E012A03FA0EFC6B
:103D500028BF4CF0020C43FA05F3C01851EBE37195
:103D600001F0004507D54FF0000EDCF1000C7EEBB2
:103D700000006EEB0101B1F5801F1BD3B1F5001FF0
:103D80000CD349085FEA30004FEA3C0C04F101040F
:103D90004FEA445212F5800F80F09A80BCF1004F38
:103DA00008BF5FEA500C50F1000041EB045141EABA
:103DB000050130BD5FEA4C0C404141EB010111F4BB
:103DC000801FA4F10104E9D191F0000F04BF014666
:103DD0000020B1FA81F308BF2033A3F10B03B3F144
:103DE00020020CDA0C3208DD02F1140CC2F10C02D4
:103DF00001FA0CF021FA02F10CE002F11402D8BF32
:103E0000C2F1200C01FA02F120FA0CFCDCBF41EAFD
:103E10000C019040E41AA2BF01EB0451294330BDCC
:103E20006FEA04041F3C1CDA0C340EDC04F11404A9
:103E3000C4F1200220FA04F001FA02F340EA030080
:103E400021FA04F345EA030130BDC4F10C04C4F1C6
:103E5000200220FA02F001FA04F340EA03002946A6
:103E600030BD21FA04F0294630BD94F0000F83F4F0
:103E7000801306BF81F480110134013D4EE77FEAD3
:103E8000645C18BF7FEA655C29D094EA050F08BF1F
:103E900090EA020F05D054EA000C04BF1946104600
:103EA00030BD91EA030F1EBF0021002030BD5FEA44
:103EB000545C05D14000494128BF41F0004130BD6C
:103EC00014F580043CBF01F5801130BD01F00045C0
:103ED00045F0FE4141F470014FF0000030BD7FEA33
:103EE000645C1ABF194610467FEA655C1CBF0B462E
:103EF000024650EA013406BF52EA033591EA030F45
:103F000041F4002130BD00BF90F0000F04BF00213C
:103F1000704730B54FF4806404F132044FF000056F
:103F20004FF0000150E700BF90F0000F04BF0021E8
:103F3000704730B54FF4806404F1320410F000454E
:103F400048BF40424FF000013EE700BF42004FEA49
:103F5000E2014FEA31014FEA02701FBF12F07F43C6
:103F600093F07F4F81F06051704792F0000F14BFC3
:103F700093F07F4F704730B54FF4607401F0004507
:103F800021F0004120E700BF50EA010208BF70475E
:103F900030B54FF000050AE050EA010208BF704753
:103FA00030B511F0004502D5404261EB41014FF4BC
:103FB000806404F132045FEA915C3FF4DCAE4FF0C0
:103FC00003025FEADC0C18BF03325FEADC0C18BFA7
:103FD000033202EBDC02C2F1200300FA03FC20FAF8
:103FE00002F001FA03FE40EA0E0021FA02F1144445
:103FF000C1E600BF70B54FF0FF0C4CF4E06C1CEA5A
:1040000011541DBF1CEA135594EA0C0F95EA0C0FCE
:1040100000F0DEF82C4481EA030621EA4C5123EA41
:104020004C5350EA013518BF52EA033541F4801170
:1040300043F4801338D0A0FB02CE4FF00005E1FB23
:1040400002E506F00042E0FB03E54FF00006E1FB6D
:1040500003569CF0000F18BF4EF0010EA4F1FF04B0
:10406000B6F5007F64F5407404D25FEA4E0E6D41F0
:1040700046EB060642EAC62141EA55514FEAC52001
:1040800040EA5E504FEACE2EB4F1FD0C88BFBCF57D
:10409000E06F1ED8BEF1004F08BF5FEA500E50F12E
:1040A000000041EB045170BD06F0004646EA0101F4
:1040B00040EA020081EA0301B4EB5C04C2BFD4EB26
:1040C0000C0541EA045170BD41F480114FF0000E1F
:1040D000013C00F3AB8014F1360FDEBF002001F08D
:1040E000004170BDC4F10004203C35DA0C341BDC07
:1040F00004F11404C4F1200500FA05F320FA04F0D9
:1041000001FA05F240EA020001F0004221F000410C
:1041100010EBD37021FA04F642EB06015EEA430E7F
:1041200008BF20EAD37070BDC4F10C04C4F12005AF
:1041300000FA04F320FA05F001FA04F240EA020062
:1041400001F0004110EBD37041F100015EEA430E33
:1041500008BF20EAD37070BDC4F1200500FA05F253
:104160004EEA020E20FA04F301FA05F243EA0203D2
:1041700021FA04F001F0004121FA04F220EA0200E1
:1041800000EBD3705EEA430E08BF20EAD37070BD27
:1041900094F0000F0FD101F00046400041EB010107
:1041A00011F4801F08BF013CF7D041EA060195F0E9
:1041B000000F18BF704703F00046520043EB0303A3
:1041C00013F4801F08BF013DF7D043EA0603704790
:1041D00094EA0C0F0CEA135518BF95EA0C0F0CD09B
:1041E00050EA410618BF52EA4306D1D181EA0301E1
:1041F00001F000414FF0000070BD50EA410606BFDB
:104200001046194652EA430619D094EA0C0F02D11F
:1042100050EA013613D195EA0C0F05D152EA033664
:104220001CBF104619460AD181EA030101F0004182
:1042300041F0FE4141F470014FF0000070BD41F0CB
:10424000FE4141F4780170BD70B54FF0FF0C4CF4A5
:10425000E06C1CEA11541DBF1CEA135594EA0C0FC4
:1042600095EA0C0F00F0A7F8A4EB050481EA030E11
:1042700052EA03354FEA013100F088804FEA0333F8
:104280004FF0805545EA131343EA12634FEA0222C6
:1042900045EA111545EA10654FEA00260EF0004187
:1042A0009D4208BF964244F1FD0404F5407402D2D9
:1042B0005B084FEA3202B61A65EB03055B084FEA6A
:1042C00032024FF480104FF4002CB6EB020E75EB67
:1042D000030E22BFB61A754640EA0C005B084FEA8F
:1042E0003202B6EB020E75EB030E22BFB61A75460C
:1042F00040EA5C005B084FEA3202B6EB020E75EB57
:10430000030E22BFB61A754640EA9C005B084FEACE
:104310003202B6EB020E75EB030E22BFB61A7546DB
:1043200040EADC0055EA060E18D04FEA051545EACA
:1043300016754FEA06164FEAC30343EA52734FEA73
:10434000C2025FEA1C1CC0D111F4801F0BD141EAEC
:1043500000014FF000004FF0004CB6E711F4801F51
:1043600004BF01430020B4F1FD0C88BFBCF5E06F31
:104370003FF6AFAEB5EB030C04BFB6EB020C5FEA41
:10438000500C50F1000041EB045170BD0EF0004E96
:104390004EEA113114EB5C04C2BFD4EB0C0541EAC8
:1043A000045170BD41F480114FF0000E013C90E6C5
:1043B00045EA060E8DE60CEA135594EA0C0F08BF89
:1043C00095EA0C0F3FF43BAF94EA0C0F0AD150EA88
:1043D00001347FF434AF95EA0C0F7FF425AF10461B
:1043E00019462CE795EA0C0F06D152EA03353FF443
:1043F000FDAE1046194622E750EA410618BF52EAC0
:1044000043067FF4C5AE50EA41047FF40DAF52EA93
:1044100043057FF4EBAE12E74FF0FF3C06E000BF30
:104420004FF0010C02E000BF4FF0010C4DF804CD3D
:104430004FEA410C7FEA6C5C4FEA430C18BF7FEAFD
:104440006C5C1BD001B050EA410C0CBF52EA430C2B
:1044500091EA030F02BF90EA020F0020704710F1AB
:10446000000F91EA030F58BF994208BF90422CBF3A
:10447000D8176FEAE37040F0010070474FEA410C33
:104480007FEA6C5C02D150EA013C07D14FEA430C51
:104490007FEA6C5CD6D152EA033CD3D05DF8040BC2
:1044A000704700BF8446104662468C4619466346F4
:1044B00000E000BF01B5FFF7B7FF002848BF10F1CB
:1044C000000F01BD4DF808EDFFF7F4FF0CBF012010
:1044D00000205DF808FB00BF4DF808EDFFF7EAFF8C
:1044E00034BF012000205DF808FB00BF4DF808ED47
:1044F000FFF7E0FF94BF012000205DF808FB00BF3C
:104500004DF808EDFFF7CEFF94BF012000205DF8C5
:1045100008FB00BF4DF808EDFFF7C4FF34BF0120D2
:1045200000205DF808FB00BF4FEA410C7FEA6C5C9D
:1045300002D150EA013C0AD14FEA430C7FEA6C5C9D
:1045400002D152EA033C02D14FF0000070474FF015
:10455000010070474FEA410212F5001215D211D541
:104560006FF47873B3EB625212D94FEAC12343F070
:10457000004343EA505311F0004F23FA02F018BFF2
:10458000404270474FF00000704750EA013005D1BB
:1045900011F0004008BF6FF0004070474FF000007E
:1045A000704700BF014B1868704700BFF00500203E
:1045B0000EB4F0B59CB021AB0F4953F8042B019316
:1045C00005466FF00044086802954FF402774FF6F5
:1045D000FF7602A90695ADF8147004940794ADF81F
:1045E000166000F00BF8029B00221A701CB0BDE8A8
:1045F000F04003B0704700BFF00500202DE9F04FF8
:10460000C1B00C46099115460E930A9002F004FBC6
:1046100003681793184603F0D3F9A38916901E0672
:1046200003D52369002B01F0198100231A46129348
:104630002593249319930B93DFF864A4149230AB61
:10464000239399461592A84698F800304446EBB15A
:10465000252B02D11AE0252B03D014F8013F002BA3
:10466000F9D1C8EB04058DB1249B259AC9F80080C7
:1046700001332A44072BC9F804502592249300F3F0
:10468000A68009F108090B9B2B440B932378002B80
:1046900000F0A68000231A468DF86F3019460C935F
:1046A00007934FF0FF3B637804F101085D4608F182
:1046B0000108A3F12000582800F22584DFE810F05B
:1046C00088032304230490032304230423042304E2
:1046D000230423049703A50323045D00E2002304BD
:1046E000FE000501050105010501050105010501A2
:1046F00005010501230423042304230423042304C4
:1047000023042304230423041501810223048102CA
:104710002304230423042304C60223042304CD0218
:1047200023042304230423042304F702230423047F
:104730002503230423042304230423042304230440
:104740002304230423046603790381028102810286
:104750008103790323042304D1032304DB03A3008F
:104760006400EE032304F5032304AA0323042304B3
:10477000BC030C980E9340420C90079B43F004033B
:10478000079398F8003092E70E98AB460021046832
:104790008DF86F10071D0798302378228B458DF810
:1047A00070304FF000058DF8712040F00203C0F228
:1047B000C78320F0800343F00203079354EA050304
:1047C0000E9700F093830F461192B348CEE223AACE
:1047D00009990A9803F062F948B90DF1C00952E746
:1047E000259B23B10A98099923AA03F057F9099B3D
:1047F0009B8913F0400F0B9B18BF4FF0FF331846F7
:1048000041B0BDE8F08F1193AB46002A41F02382FE
:10481000079A12F0200300F02E820E9F073727F030
:104820000703002703F10801BB450E91D3E90045BA
:104830008DF86F70C0F2528722F08003079354EA1C
:10484000050300F0758330AEE20842EA4572E908DC
:1048500004F007030D461446303354EA050206F807
:10486000013DF1D1079AD10740F18480302B00F04F
:1048700081803022731E06F8012C30AAD21A0D92C4
:104880001E467AE098F800302A2B08F1010401F066
:10489000B181A3F13000092898BF002501F264819D
:1048A00014F8013B05EB850500EB4505A3F130004D
:1048B0000928F5D945EAE575A046FAE6079B43F0D5
:1048C0008003079398F80030F1E6A3F1300000234D
:1048D0001C4618F8013B04EB840400EB4404A3F1EC
:1048E00030000928F5D90C94E3E61193AB46002A71
:1048F00041F0C981079B43F010030793079B98067B
:1049000040F130850E9F073727F00707D7E90023CE
:1049100007F108010E9114461D46002A73F10003A9
:10492000C0F25B85BBF1000F9DF86F70C0F2388557
:10493000079B23F08003079354EA050300F0DB8113
:10494000002D08BF0A2CC0F0DB8130AE204629467E
:104950000A22002303F02AFD303206F8012D2046FA
:10496000294600230A2203F021FD04460D4654EA9D
:104970000503EBD130AB9B1B0D930D9B5B45B8BF83
:104980005B4608930023139317B1089B01330893E8
:10499000079B13F002030F9302D0089B0233089386
:1049A000079B13F08403109340F0D7820C9B089A66
:1049B0009D1A002D40F3D182102D2599249A374F4E
:1049C00027DD189648461024B946099E2F460A9DB1
:1049D00004E0103F102F00F1080016DD01322F4BCC
:1049E00024921031072A259180E81800F1DD23AACE
:1049F0003146284603F052F800287FF4F8AE103F05
:104A0000102F2599249A30A8E8DC189E3D464F4681
:104A1000814601326C18072A25942492C9F8007047
:104A2000C9F8045000F328849DF86F7009F1080953
:104A300077B1249B013301340DF16F010122072B63
:104A40002594249389E8060000F3A08309F108095E
:104A50000F9B6BB1249B013302341CA90222072B4C
:104A60002594249389E8060000F39C8309F1080942
:104A7000109B802B00F0D5820D9BC3EB0B07002F02
:104A800039DD074A249B0F92102F28DD22464FF074
:104A9000100B0A9D099C0AE0088800082888000875
:104AA000D4870008103F102F09F1080916DD0133E3
:104AB0001032072B2592249389E8000CF2DD23AAFB
:104AC0002146284602F0EAFF00287FF490AE103F0E
:104AD000102F259A249B0DF1C009E8DC1446013300
:104AE0000F9A24933C44072B259489E8840000F313
:104AF000418309F10809079BDA0500F13082249B04
:104B00000D99C9F8006001330C44072B2594C9F8AE
:104B10000410249300F3188309F10809079B59072F
:104B20003FD50C9B089A9D1A002D3ADD102D249B31
:104B3000BC4F23DD22461026DDF828B0099C04E096
:104B4000103D102D09F1080917DD0133B5492493F3
:104B50001032072B259289E84200F1DD23AA214675
:104B6000584602F09BFF00287FF441AE103D102D07
:104B7000259A249B0DF1C009E7DC144601332C442F
:104B8000072B25942493C9F80070C9F8045008DD58
:104B900023AA09990A9802F081FF00287FF427AE22
:104BA000259C0B9B0C9A08998A42ACBF9B185B18FA
:104BB0000B93002C40F0D482002324930DF1C00904
:104BC00042E51193AB46002A41F059800E9F07370A
:104BD00027F0070303F108020E921A6814925B682B
:104BE0001593159B149D23F00044284621464FF051
:104BF000FF328D4BFFF798FC002840F0C184284617
:104C000021464FF0FF32884BFFF770FC002840F040
:104C1000B7841498159900220023FFF75DFC002843
:104C200040F04B879DF86F70804E814B079921F0C3
:104C300080010791119903224FF0000B0892472938
:104C4000D8BF1E460D92CDF84CB09DE6079B43F0B1
:104C50000803079398F8003029E51193AB46002A22
:104C600041F00980079B43F010030793079A12F065
:104C700020037FF4D2AD079911F0100200F00785F0
:104C80000E988DF86F30BBF1000F046800F1040737
:104C90004FF00005C0F221850A4622F080020792FB
:104CA00054EA05020E9700F043811F46CBE51193AD
:104CB000AB46002A40F0D787079B43F010030793C9
:104CC000079A12F0200300F032830E9F073727F077
:104CD0000703002703F10801BB450E91D3E9004506
:104CE0008DF86F70C0F25C8322F08003079354EA62
:104CF00005037FF425AEBBF1000F00F0FE80002419
:104D000040AE303406F8414D34E61193AB46002AEC
:104D100040F0A587079B47489D0640F197800E9F6E
:104D2000073727F00703D3E9004503F108020E9285
:104D3000079A12F0010700F0418254EA050300F0DF
:104D4000F5849DF844208DF871200027079A8DF88E
:104D50006F703023BB458DF8703042F00203C0F213
:104D6000A98622F0800343F00203079330AE2309A3
:104D700004F00F0143EA05732A091C461546435CFB
:104D800006F8013D54EA0503F1D1F3E50E991193BC
:104D90000A688DF8982000230A461F468DF86F3068
:104DA000043201230893BB4613970E920D9326AE4F
:104DB000EEE51193AB46002A3FF4A0AD8DF86F10DD
:104DC0009CE5079B43F04003079398F800306EE49E
:104DD00098F8003000297FF46AAC0122202166E4B3
:104DE000079B43F00103079398F800305FE40E9CA3
:104DF00023680C9318460028234603F10403FFF6AA
:104E0000B8AC0E9398F8003051E498F800300122C5
:104E10002B214CE41193AB46002A3FF451AF8DF89F
:104E20006F104DE728880008FFFFEF7FE887000834
:104E3000E4870008F48700081193AB46002A40F08D
:104E40000387079B99489D063FF569AF079BDC06E2
:104E500040F15E840E9A1346043314680E930025C5
:104E600066E798F800306C2B00F0E184079840F07A
:104E7000100007901BE4002A40F0DB86079B9B068E
:104E800040F12F840E9A0B991368CD17084604320F
:104E900029460E92C3E90001FFF7D6BB079B43F0FA
:104EA0002003079398F8003001E40E9A11931668D6
:104EB00000248DF86F40171D002E00F0BD85002DD9
:104EC000C0F20F852A462146304602F061F90028DB
:104ED00000F00486831B0D93A34623EAE3730E9729
:104EE0000893CDF84CB09DF86F704DE56F48119266
:104EF000BBF1000F40F073815F464FF0000BCDF81F
:104F000034B030AE39E51193002A40F0B086119AE2
:104F1000002A3FF465AC002301211F4608918DF85B
:104F200098208DF86F309B4613930D9126AE2FE598
:104F3000BBF1000F00F0DD8500270024002582E48E
:104F40005A480793119254EA05030E974FF0000751
:104F50007FF40CAF0024002508E7259C68E5119B31
:104F6000652B40F3A9801498159900220023FFF7C0
:104F7000A9FA002800F03581249B4D4AC9F8002089
:104F8000013301340122072B25942493C9F804200E
:104F900000F3E68309F108091D9B129A934203DB93
:104FA000079BDB077FF5BAAD249B1699179AC9F8C2
:104FB000002001330C44072B2594C9F804102493D6
:104FC00000F33F8409F10809129B5D1E002D7FF755
:104FD000A5AD384A249B0F92102D40F3E681102690
:104FE0000A9FDDF824B005E009F10809103D102DF5
:104FF00040F3DB8101331034072B25942493C9F847
:1050000000A0C9F80460EFDD23AA5946384602F033
:1050100045FD00287FF4EBAB259C249B0DF1C009D6
:10502000E4E70C9B089A9F1A002F7FF725AD214AD1
:10503000249B0F92102F2BDD4A462146B94610259E
:1050400037460A9C099E06E0A9F11009B9F1100F34
:1050500002F1080218DD01331031072B259124934A
:10506000C2F800A05560EFDD23AA3146204602F0C9
:1050700015FD00287FF4BBABA9F11009B9F1100FA1
:105080002599249B30AAE6DC3E460C464F469146C5
:1050900001330F9A24933C44072B259489E884001C
:1050A00000F3458209F10809E6E400BF088800081A
:1050B00024880008D4870008129B249D012B40F30C
:1050C0000882013501340123072D25942495C9F860
:1050D0000060C9F8043000F30D8209F10809169A3E
:1050E000179BC9F8003001351444072D25942495E9
:1050F000C9F8042000F30E8209F10809002314986E
:1051000015990022FFF7DEF9129B002840F0C380BA
:10511000013B013501361C44072D24952594C9F81F
:105120000060C9F8043000F3F58009F10809199A04
:10513000C9F80420013514441FAB072D259424958C
:10514000C9F800307FF7E8AC23AA09990A9802F061
:10515000A5FC00287FF44BAB259C0DF1C009DDE4D4
:1051600023AA09990A9802F099FC00283FF424AD7B
:10517000FFF73DBB23AA09990A9802F08FFC00288B
:105180007FF435AB259C0DF1C009B4E423AA09993D
:105190000A9802F083FC00287FF429AB259C0DF1CE
:1051A000C00955E423AA09990A9802F077FC00285F
:1051B0007FF41DAB259C0DF1C00959E4BBF1000F34
:1051C0008DF86F70C0F2D88222F08003079354EA02
:1051D00005037FF4CBADBBF1000F3FF48DAE00278C
:1051E000B8E61D9D002D40F3CA82139B129A93428C
:1051F000A8BF1346002B1D460DDD249BC9F8006097
:1052000001332C44072B2594C9F80450249300F350
:105210009C8309F10809139B002DA8BF5B1B002B81
:105220001D4640F3F680BA4A249B0F92102D40F39E
:105230008A8222461027DDF828B0099C05E009F192
:105240000809103D102D40F37D8201331032072BE9
:1052500025922493C9F800A0C9F80470EFDD23AAB1
:105260002146584602F01AFC00287FF4C0AA259A6D
:10527000249B0DF1C009E4E723AA09990A9802F0DA
:105280000DFC00287FF4B3AA9DF86F70259C0DF1EA
:10529000C009FFF7CDBB5E1E002E7FF748AF9C4BC9
:1052A0000F93102E2CDDCDF834801027B046DDF89A
:1052B00028B0099E06E0A8F11008B8F1100F09F116
:1052C00008091ADD01351034072D25942495C9F8F5
:1052D00000A0C9F80470EEDD23AA3146584602F05A
:1052E000DDFB00287FF483AAA8F11008B8F1100FA5
:1052F000259C249D0DF1C009E4DC4646DDF8348090
:105300000F9B01353444072D2594249589E84800E6
:105310007FF70BAF23AA09990A9802F0BFFB002878
:105320007FF465AA259C249D0DF1C009FFE607992D
:1053300011F0100200F008810E988DF86F30BBF16B
:10534000000F046800F104074FF0000526DB0A4651
:1053500022F08002079254EA05020E971F467FF45E
:10536000EFAAC8E4079BD9062AD4079B5A0627D57B
:105370000E99B1F900400431E51722462B460E91F3
:10538000FFF7CBBA0E998DF86F30BBF1000F0C68A8
:1053900001F104074FF0000580F247820E971F4687
:1053A00054EA05037FF4CCAAAAE401330F9A2493AC
:1053B0002C44072B259489E824007FF7ADABC3E686
:1053C0000E9A146813460433E51722460E93002AFA
:1053D0002B4673F10003BFF6A5AA64424FF02D07D8
:1053E00065EB4505BBF1000F8DF86F70FFF6A8AABD
:1053F000079B23F080030793FFF7A2BA23AA09991A
:105400000A9802F04BFB00287FF4F1A9259C0DF1CE
:10541000C009139A1D9B32441746129A934247DBE8
:10542000079AD50744D412990E44F51BCB1A9D4216
:10543000A8BF1D46002D2E460DDD249AC9F8007028
:1054400001322C44072A2594C9F80450249200F311
:105450000B8309F10809002EACBF9D1B1D46002DD2
:105460007FF75CAB2A4A249B0F92102D9DDD1026FE
:105470000A9FDDF824B004E009F10809103D102D61
:1054800093DD01331034072B25942493C9F800A031
:10549000C9F80460F0DD23AA5946384602F0FEFA46
:1054A00000287FF4A4A9259C249B0DF1C009E5E701
:1054B000249A16981799C9F8001001320444072A53
:1054C0002594C9F80400249200F3A98209F108097F
:1054D000A9E7079BD8073FF5F4AD01350134012357
:1054E000072D25942495C9F80060C9F804307FF78A
:1054F0001CAE0FE723AA09990A9802F0CFFA0028F8
:105500007FF475A9259C249D0DF1C009E7E500BF36
:10551000D487000823AA09990A9802F0BFFA002844
:105520007FF465A9259C249D0DF1C009E6E523AA19
:1055300009990A9802F0B2FA00287FF458A9259C2C
:105540000DF1C009FFF798BA079911F040033FF435
:1055500019AF0E988DF86F20BBF1000F048800F191
:1055600004074FF00005C0F2B98121F080030793D2
:1055700054EA05030E9717467FF4E2A9FFF7BBBB79
:10558000149C22462046159C23462146FEF7CCFF5C
:10559000002840F01783119BBBF1FF3F23F020034D
:1055A0000D9300F07082472B00F09281079B43F42B
:1055B00080731093159B1F1E149B0893BBBF3B4623
:1055C00003F1004700232D230F93119B662B00F05E
:1055D0005D82462B00F051810D9B089A452B21A836
:1055E0001EA90CBF0BF101055D46049003911DA897
:1055F00002213B460290019500910A9800F0E0FBE1
:10560000119B672B064640F09082079BDA0740F11A
:10561000AF8274190898394600220023FEF752FF22
:10562000002840F09081219B9C4206D930215A1CD1
:1056300021921970219B9C42F9D89B1B12930D9BC0
:10564000472B00F07981119B652B40F37D82119BE4
:10565000662B1D9B139300F05B82139A12998A426A
:10566000C0F23082079BD90700F1848222EAE273FC
:105670000D92672211920F9A002A40F053810893ED
:10568000109B079393469DF86F70FFF77DB90799BC
:1056900011F0400315D00E988DF86F20BBF1000F6C
:1056A000048800F104074FF0000516DB21F08003A9
:1056B000079354EA05030E973FF43AAC1746FFF7F9
:1056C000C2B80E998DF86F30BBF1000F0C6801F174
:1056D00004074FF0000580F2A5800E970027FFF722
:1056E000B2B8079BDF060BD4079B5E0608D50E9A5F
:1056F000136804320E92BDF82C201A80FEF7A4BF66
:105700000E9A136804320E920B9A1A60FEF79CBF31
:105710000E9A079B13F0400F134603F104030CBFCE
:10572000146814880E930025FFF702BB0027BB45C1
:105730008DF86F70FFF60EAC079B23F08003079384
:10574000FFF7D6BB144601330F9A24932C44072B42
:10575000259489E824003FF751AE09F1080958E67D
:1057600023AA09990A9802F099F900287FF43FA822
:10577000259C0DF1C0090FE40E9FFFF7E4BB249BAD
:10578000B54AC9F80020013301340122072B2594C2
:105790002493C9F8042000F38E8009F108092DB97B
:1057A000129B1BB9079BDF077FF5B8A9249B1699AD
:1057B000179AC9F8002001330C44072B2594C9F827
:1057C0000410249300F3C28109F108096D42002DF1
:1057D00040F39B80A14A0F92102D40F3C3802246D4
:1057E0001027DDF828B0099C05E009F10809103DF3
:1057F000102D40F3B68001331032072B25922493ED
:10580000C9F800A0C9F80470EFDD23AA2146584664
:1058100002F044F900287EF4EAAF259A249B0DF1AA
:10582000C009E4E7079AFFF738BA079A90E5079BA3
:1058300043F02003079308F1010898F80030FEF7C1
:1058400036BF23AA09990A9802F028F900287EF4A5
:10585000CEAF259C0DF1C009FFF7B6BB40210A98D9
:1058600001F0DEF9099A10601061002800F0E5816E
:10587000099A40235361FEF7D8BE21A81EA90490BF
:1058800003911DA803210290089ACDF804B03B466D
:1058900000910A9800F094FA5D460646119B462B4B
:1058A00006EB05047FF4B6AE3378302B00F07C8134
:1058B0001D9D2C44AEE623AA09990A9802F0EEF841
:1058C00000287EF494AF1D9D259C0DF1C00966E76C
:1058D000BBF1000F08BF4FF0010B67E60E971746AC
:1058E0005EE5304602F06CF8A34603460D90FFF7E4
:1058F000F4BA23AA09990A9802F0D0F800287EF495
:1059000076AF259C249B0DF1C0091299C9F800605F
:1059100001330C44072B25942493C9F804107FF716
:10592000FBA811E42D270893109B07938DF86F7047
:105930004FF0000BFFF729B81D9BDD1C1EDB9B45BC
:105940001CDB139389E6234677E623AA09990A9874
:1059500002F0A4F800287EF44AAF259C0DF1C0099E
:1059600059E4144601330F9A24932C44072B2594B1
:1059700089E82400BDDC09F10809C6E7119A023A5A
:105980001192013B002B9DF844201D93B8BF5B4250
:105990008DF87C20B4BF2D222B22092B8DF87D2081
:1059A00040F3F1800DF18B0004462D4A82FB032168
:1059B000DA17C2EBA10202EB8201A3EB410303F170
:1059C0003001092A134604F8011DEEDC214630336C
:1059D000DAB201F8012D884240F23A810DF17E01E0
:1059E000234601E013F8012B01F8012B9842F9D16D
:1059F000431C1B1B0DF17E0213441FAA9B1A129A13
:105A00001993012A13440D9340F3EA800D9B169AD3
:105A1000134400220D93139223EAE3732BE623AA87
:105A200009990A9802F03AF800287EF4E0AE1D9B2E
:105A3000259C0DF1C009F6E4062D2B4628BF062350
:105A40000D9323EAE373B3460E97139637460893F4
:105A5000044EFEF799BF00BF24880008D4870008D1
:105A6000676666661C88000823AA09990A9802F0EE
:105A700015F800287EF4BBAE1D9B129A259CD31A04
:105A80000DF1C009E7E44FF0060B8FE521A81EA930
:105A9000049003911DA803210290089ACDF804B048
:105AA0003B4600910A9800F08BF95D46064600EBF4
:105AB0000B04F9E60793FFF759B92D278DF86F709E
:105AC000FFF7B2B8169A129B1344139A0D93002A4B
:105AD0007EDD672223EAE3731192CCE525EAE573C4
