:020000040800F2
:1000000000A00020F50200083903000839030008A9
:100010003903000839030008390300080000000014
:10002000000000000000000000000000390300088C
:1000300039030008000000003903000839030008F4
:1000400039030008390300083903000839030008A0
:100050003903000839030008390300083903000890
:100060003903000839030008390300083903000880
:100070003903000839030008390300083903000870
:100080003903000839030008390300083903000860
:100090003903000839030008390300083903000850
:1000A0003903000839030008390300083903000840
:1000B0003903000839030008390300083903000830
:1000C0003903000839030008390300083903000820
:1000D0003903000839030008390300083903000810
:1000E0003903000839030008390300083903000800
:1000F00039030008390300083903000839030008F0
:1001000000000000000000000000000039030008AB
:1001100039030008390300083903000839030008CF
:1001200039030008390300083903000839030008BF
:100130003903000839030008000000000000000037
:1001400039030008390300083903000800000000E3
:10015000000000000000000000000000000000009F
:100160000000000000000000390300083903000807
:10017000390300080000000000000000000000003B
:10018000000000003903000880B400AFFEE700BFA4
:1001900080B500AF1B4A1B4B1B6843F00103136083
:1001A0001849184B5A68184B13404B60154A154BA9
:1001B0001B6823F0847323F480331360114A114BBE
:1001C0001B6823F4802313600E4A0E4B5B6823F4F4
:1001D000FE0353600B4A0B4BDB6A23F00F03D36221
:1001E0000849084B1A6B094B13400B63054B00225F
:1001F0009A6000F00FF8064B4FF000629A6000BF63
:1002000080BD00BF001002400CC07FF8CCFC00FF96
:1002100000ED00E080B483B000AF00237B600023DA
:100220003B60324A314B1B6843F4803313602F4BE1
:100230001B6803F400333B607B6801337B603B68E1
:10024000002B03D17B68B3F5A06FF0D1274B1B685F
:1002500003F40033002B02D001233B6001E00023B4
:100260003B603B68012B3CD1214B12221A601F4A94
:100270001E4B5B6853601D4A1C4B5B6853601B4AF6
:100280001A4B5B6843F480635360184A174B5B68F2
:1002900023F47C135360154A144B5B6843F4E81352
:1002A0005360124A114B1B6843F08073136000BF08
:1002B0000E4B1B6803F00073002BF9D00B4A0B4B5D
:1002C0005B6823F003035360084A084B5B6843F004
:1002D0000203536000BF054B5B6803F00C03082B5F
:1002E000F9D100BF0C37BD4680BC704700100240FA
:1002F00000200240002103E00A4B5B5843500431C8
:1003000009480A4B42189A42F6D3094A02E00023F0
:1003100042F8043B074B9A42F9D3FFF739FFFFF746
:1003200033FF70473A03000800000020000000205F
:0A0330000000002000000020FEE79E
:0400000508000000EF
:00000001FF
