:020000040800F2
:1000000000A00020B51E0008F91E0008F91E000817
:10001000F91E0008F91E0008F91E00080000000083
:10002000000000000000000000000000F91E0008B1
:10003000F91E000800000000F91E0008F91E000863
:10004000F91E0008F91E0008F91E0008F91E000834
:10005000F91E0008F91E0008F91E0008F91E000824
:10006000F91E0008F91E0008F91E0008F91E000814
:10007000F91E0008F91E0008F91E0008F91E000804
:10008000F91E0008F91E0008F91E0008F91E0008F4
:10009000F91E0008F91E0008F91E00084D060008A8
:1000A000F91E0008F91E0008F91E0008F91E0008D4
:1000B000F91E0008F91E0008F91E0008F91E0008C4
:1000C000F91E0008F91E0008F91E0008F91E0008B4
:1000D000F91E0008F91E0008F91E0008F91E0008A4
:1000E000F91E0008F91E0008F91E0008F91E000894
:1000F000F91E0008F91E0008F91E0008F91E000884
:10010000000000000000000000000000F91E0008D0
:10011000F91E0008F91E0008F91E000881050008F4
:10012000F91E0008F91E0008F91E0008F91E000853
:10013000F91E0008F91E0008000000000000000081
:10014000F91E0008F91E0008F91E00080000000052
:10015000000000000000000000000000000000009F
:100160000000000000000000F91E0008F91E000851
:10017000F91E000800000000000000000000000060
:1001800000000000F91E000880B483B000AF786062
:100190000B46FB70FB78002B06D00949084B5A69C7
:1001A0007B6813434B6106E00549054B5A697B6840
:1001B000DB4313404B6100BF0C37BD4680BC70472A
:1001C0000010024080B483B000AF78600B46FB7033
:1001D000FB78002B06D00949084B9A697B681343CA
:1001E0008B6106E00549054B9A697B68DB43134048
:1001F0008B6100BF0C37BD4680BC704700100240C9
:1002000080B483B000AF78600B46FB70FB78002BA6
:1002100006D00949084BDA697B681343CB6106E0D5
:100220000549054BDA697B68DB431340CB6100BFAE
:100230000C37BD4680BC70470010024080B483B0CC
:1002400000AF78607B681B782D3B482B00F2C6809E
:1002500001A252F823F000BFD9030008DD03000813
:10026000DD0300087D030008810300088503000802
:10027000890300088D030008910300089503000816
:10028000990300089D030008A1030008DD0300088E
:10029000DD030008DD030008DD030008DD030008BE
:1002A000DD030008DD030008D1030008DD030008BA
:1002B000DD030008DD030008AD030008DD030008CE
:1002C000DD030008BD03000881030008DD0300080A
:1002D000DD030008A5030008DD030008DD030008B6
:1002E0007D030008B1030008DD030008DD030008FA
:1002F00091030008DD030008A9030008DD030008DE
:10030000DD030008DD030008DD030008DD0300084D
:10031000DD030008DD030008DD030008DD0300083D
:10032000DD030008DD030008DD030008C903000841
:10033000DD030008B5030008DD030008DD03000845
:10034000A1030008DD030008DD030008DD03000849
:10035000DD030008DD030008DD030008D503000805
:10036000CD030008DD030008DD030008C103000819
:10037000DD030008C5030008B90300083F232EE091
:1003800006232CE05B232AE04F2328E0662326E0A7
:100390006D2324E07D2322E0072320E07F231EE05D
:1003A0006F231CE038231AE03E2318E0792316E07F
:1003B000732314E05E2312E01C2310E076230EE08A
:1003C00050230CE078230AE07C2308E05C2306E05D
:1003D000772304E0542302E0402300E00023184682
:1003E0000C37BD4680BC704780B582B000AF7860E6
:1003F00039601AE03868FFF721FF03461A467B6828
:100400001A703B6801333B603B681B782E2B09D187
:100410007B681B7863F07F03DAB27B681A703B68F5
:1004200001333B607B6801337B603B681B78002BAA
:10043000E0D100BF0837BD4680BD00BF80B487B0A3
:1004400000AF7860396000237B6100233B610023AB
:10045000FB6000237B617EE001227B6902FA03F3EB
:100460003B613B681A683B691340FB60FA683B6973
:100470009A426DD13B681B79012B03D03B681B79F5
:10048000022B36D17B689A687B695B00032101FAF5
:1004900003F3DB431A407B689A607B689A683B6889
:1004A0005B7919467B695B0001FA03F31A437B68A9
:1004B0009A607B689B889AB27B699BB2012101FAA2
:1004C00003F39BB2DB439BB213409AB27B689A80E2
:1004D0007B689B889BB21AB23B689B7919467B6903
:1004E0009BB201FA03F31BB213431BB29AB27B68AF
:1004F0009A807B681A687B695B00032101FA03F329
:10050000DB431A407B681A607B681A683B681B797A
:1005100019467B695B0001FA03F31A437B681A6092
:100520007B68DA687B699BB25B00032101FA03F305
:10053000DB431A407B68DA607B68DA683B68DB790A
:1005400019467B695B0001FA03F31A437B68DA60A2
:100550007B6901337B617B690F2B7FF67DAF00BF29
:100560001C37BD4680BC704780B500AF00F0B0F8C6
:1005700000F00EF900F046F900F064F9FEE700BF64
:1005800098B500AF01212B4801F082FC2A4B1B7863
:10059000002B0DD101F0DEF9034619462748FFF77D
:1005A00023FF01F023FA034619462548FFF71CFFF5
:1005B0002449214B1B781A46204B9B5C1AB21E4BD8
:1005C0001B7818461E4B1B5C1B021BB213431BB24D
:1005D0009BB28B821C4B1C4A928A92B2D2B292B2CC
:1005E0009A821948184B9B8A9BB21AB2124B1B78FD
:1005F0000833012101FA03F319B20F4B1B780C33B6
:10060000012404FA03F31BB20B431BB213431BB2C6
:100610009BB28382084B1B780133DAB2064B1A7007
:10062000054B1B78032B02D9034B00221A7000BF25
:1006300098BD00BF00140040580A00205C0A00204A
:10064000600A0020000C00480004004880B500AF9C
:10065000052000F013FA062000F010FA072000F041
:100660000DFA082000F00AFA4FF090431B8A9BB263
:1006700003F02003002B01D001F092F84FF09043DB
:100680001B8A9BB203F04003002B01D001F0C4F899
:100690004FF090431B8A9BB203F08003002B01D0E4
:1006A00001F0F8F84FF090431B8A9BB203F480737B
:1006B000002B01D001F01CF9044A044B9B8A9BB229
:1006C00083F480739BB2938200BF80BD001000480A
:1006D00080B582B000AF01214FF40030FFF754FD28
:1006E00001214FF48020FFF74FFD01214FF48010CE
:1006F000FFF74AFD01214FF40010FFF745FD4FF4CD
:10070000F0733B6000233B7102237B710223FB717A
:100710003B4619464FF09040FFF790FE4FF47F4361
:100720003B6001233B7101237B710023BB710023DC
:10073000FB713B4619461348FFF780FE4FF6FF73E7
:100740003B6001233B7101237B710023BB710023BC
:10075000FB713B4619460C48FFF770FE4FF47F4390
:100760003B6001233B7101237B710023BB7100239C
:10077000FB713B4619460548FFF760FE00BF08378E
:10078000BD4680BD00040048000C00480010004831
:1007900080B582B000AF01210120FFF713FD0521D4
:1007A000002001F0ABFB0621002001F0A7FB072190
:1007B000002001F0A3FB0821002001F09FFB002393
:1007C0003B7108237B710123BB7105233B603B46D2
:1007D000184600F059F806233B603B46184600F0E7
:1007E00053F807233B603B46184600F04DF80823BA
:1007F0003B603B46184600F047F800BF0837BD464F
:1008000080BD00BF80B582B000AF37233B710023AD
:100810007B710023BB710123FB713B1D184601F066
:100820001FFA17233B7100237B710123BB71012346
:10083000FB713B1D184601F013FA00BF0837BD4697
:1008400080BD00BF80B584B000AF01212020FFF73C
:10085000D7FC0023FB8048F6A043BB800523BB6088
:100860003B1D1946074801F05DFA0121054801F0DA
:10087000CFFA01220121034801F0EAFA00BF103744
:10088000BD4680BD0014004080B485B000AF7860E4
:100890000023FB60754BFB607B689B79002B00F0AD
:1008A000C8807B681B685B0903F1007303F5026372
:1008B0005B0118467B681B685B0903F1007303F555
:1008C00002635B011A687B681B6803F01F03012148
:1008D00001FA03F3DB43134003607B681B685B0989
:1008E0005A01634B134418467B681B685B095A0125
:1008F0005F4B13441A687B681B6803F01F030121D8
:1009000001FA03F3DB43134003607B681B791A464B
:100910007B681B685B095B011344FA681344FB6046
:10092000FB68FA6812687968096801F01F01012004
:1009300000FA01F10A431A604C4BFB607B681B68AC
:100940005B095A014B4B134418467B681B685B09D3
:100950005A01484B13441A687B681B6803F01F0355
:10096000012101FA03F3DB43134003607B681B683A
:100970005B095A01404B134418467B681B685B09AE
:100980005A013D4B13441A687B681B6803F01F0330
:10099000012101FA03F3DB43134003607B685B79B9
:1009A000102B2ED17B681B685B095A01314B134415
:1009B00018467B681B685B095A012E4B13441B6861
:1009C0007A68126802F01F02012101FA02F2134351
:1009D00003607B681B685B095A01274B1344184668
:1009E0007B681B685B095A01234B13441B687A68B8
:1009F000126802F01F02012101FA02F213430360A0
:100A00002FE07B685B791A467B681B685B095B019A
:100A10001344FA681344FB60FB68FA68126879684B
:100A2000096801F01F01012000FA01F10A431A6070
:100A300017E07B681B791A467B681B685B095B01C2
:100A40001344FA681344FB60FB68FA6811687A681B
:100A5000126802F01F02012000FA02F2D2430A409B
:100A60001A6000BF1437BD4680BC704700040140C7
:100A700004040140080401400C04014080B483B028
:100A800000AF78607B685B095A01074B1344194635
:100A90007B6803F01F03012202FA03F30B6000BF1F
:100AA0000C37BD4680BC70471404014000000000B4
:100AB00098B500AF704B93F90030052B00F2D2804F
:100AC00001A252F823F000BFE10A0008010B000860
:100AD000450B0008550B0008890B0008ED0B0008BA
:100AE000654B93F90130002B02D0012B04D0B9E003
:100AF000624BD3E90234B8E0604BD3E90034B4E090
:100B00005D4B93F90130032B00F2A78001A252F84C
:100B100023F000BF250B00082D0B0008350B000843
:100B20003D0B0008564BD3E900349EE0544BD3E90B
:100B300002349AE0524BD3E9043496E0504BD3E9A7
:100B4000063492E04F4B1B88184602F011FC034616
:100B50000C468AE0484B93F90130012B08D0022B58
:100B60000AD0002B00D07DE0474BD3E900347CE075
:100B7000454BD3E9023478E0434B1B8A184602F018
:100B8000F7FB03460C4670E03B4B93F90130042B16
:100B900065D801A252F823F0AD0B0008B50B000890
:100BA000BD0B0008CD0B0008DD0B0008374BD3E967
:100BB00000345AE0354BD3E9023456E0334B1B8AFC
:100BC000184602F0D5FB03460C464EE02F4B5B8ADD
:100BD000184602F0CDFB03460C4646E02B4BDB8A61
:100BE000184602F0C5FB03460C463EE0224B93F943
:100BF0000130062B35D801A252F823F0190C000859
:100C0000210C0008290C0008310C0008390C0008E0
:100C1000410C0008490C00081D4BD3E9003424E0C6
:100C20001B4BD3E9023420E0194BD3E904341CE018
:100C3000174BD3E9083418E0154BD3E90C3414E012
:100C4000134BD3E90E3410E0114BB3F87030184653
:100C500002F08EFB03460C4607E000BF02E000BF37
:100C600000E000BF02A4D4E900341846214698BD34
:100C7000CDCCCCCCCCDC8E40680A0020000000201B
:100C800010000020200A0020400A00203000002030
:100C90005000002080B400AF1A4B93F90030023BA3
:100CA000032B2AD801A252F823F000BFBD0C000884
:100CB000C10C0008CF0C0008DD0C0008124B1DE031
:100CC000104B93F90130022B14D10F4B16E00D4B52
:100CD00093F90130012B0FDD0B4B0FE0094B93F91A
:100CE0000130002B02D0062B02D006E0074B05E0B6
:100CF000054B03E000BF00E000BF054B1846BD46B2
:100D000080BC7047680A00200C7C0008147C000836
:100D10001C7C0008B0B584B000AF78600B46FB7057
:100D20001346BB707B68D3E900341846214602F0B5
:100D300045FE0346FB8197F90330C3F104031846CF
:100D400002F026FB03460C461A4623464FF00000ED
:100D5000324901F015F903460C461846214602F0C7
:100D60002DFE0346BB81B7F90E20B7F90C3092FB7C
:100D7000F3F3FB81B7F90E20294B83FB0213991083
:100D8000D317C91A0B469B000B445B00D31AFB8197
:100D90007B68D3E90045B7F90E30B7F90C2002FBA8
:100DA00003F3184602F0F4FA02460B4620462946A1
:100DB00002F0A0F903460C467A68C2E9003497F9BC
:100DC00002309AB2FB8913449BB2FB81B7F90E3013
:100DD000092B02DD0023FB8105E0B7F90E30002B63
:100DE00001DA0923FB817B68D3E90045B7F90E30AE
:100DF000B7F90C2002FB03F3184602F0C9FA0246C9
:100E00000B462046294602F077F903460C467A68DD
:100E1000C2E9003400BF1037BD46B0BD0000244019
:100E20006766666690B585B000AF78600846114683
:100E30001A460346FB700B46BB7013463B803B884B
:100E4000092B03D097F90330042B5BD17B681B88F7
:100E5000FB8197F90330C3F10403184602F098FAB6
:100E600003460C461A4623464FF00000274901F07E
:100E700087F803460C461846214602F09FFD0346BC
:100E8000BB81B7F90E20B7F90C3092FBF3F3FB816D
:100E9000B7F90E201E4B83FB02139910D317C91A02
:100EA0000B469B000B445B00D31AFB817B681A88BE
:100EB000F989BB8911FB03F39BB2D31A9AB27B6801
:100EC0001A8097F902309AB2FB8913449BB2FB81D6
:100ED000B7F90E203B889A4202DD0023FB8105E032
:100EE000B7F90E30002B01DA3B88FB817B681A884A
:100EF000F989BB8911FB03F39BB213449AB27B6857
:100F00001A8000E000BF1437BD4690BD00002440A9
:100F10006766666690B583B000AF03460A46FB710C
:100F20001346BB71A14B93F90030052B00F28D8263
:100F300001A252F823F000BF510F0008EF0F000884
:100F40007B110008991100082D120008ED1200080D
:100F5000964B93F90130002B02D0012B23D074E281
:100F6000934B93F90030DAB2FB79D31ADBB25BB260
:100F700097F9062019468F48FFF7CCFE8E4BD3E930
:100F800002018D4BD3E900341A46234602F0F6FCE9
:100F90000346002B00D129E0874BD3E90034864A71
:100FA000C2E9023422E0824B93F90030DAB2FB79D5
:100FB000D31ADBB25BB297F9062019467E48FFF7D9
:100FC000A9FE7D4BD3E900017B4BD3E902341A46DD
:100FD000234602F0B5FC0346002B00D105E0764B1A
:100FE000D3E90234744AC2E9003400BF2DE26F4BEA
:100FF00093F90130032B00F2238201A252F823F06F
:101000001110000857100008C5100008331100081F
:10101000674B93F90030DAB2FB79D31ADBB25BB2DB
:1010200097F9062019466548FFF774FE634BD3E92C
:101030000001624BD3E902341A46234602F080FCD9
:101040000346002B00D197E05C4BD3E902345B4AA6
:10105000C2E9003490E0564B93F90030DAB2FB79E4
:10106000D31ADBB25BB297F9062019465448FFF752
:1010700051FE524BD3E90201504BD3E900341A46DA
:10108000234602F07BFC0346002B06D04B4BD3E9F2
:1010900000344A4AC2E902346EE0484BD3E9020107
:1010A000464BD3E904341A46234602F049FC034672
:1010B000002B00D160E0414BD3E904343F4AC2E940
:1010C000023459E03A4B93F90030DAB2FB79D31A83
:1010D000DBB25BB297F9062019463A48FFF71AFED1
:1010E000364BD3E90401354BD3E902341A46234683
:1010F00002F044FC0346002B06D0304BD3E9023407
:101100002E4AC2E9043437E02C4BD3E904012B4BBF
:10111000D3E906341A46234602F012FC0346002B9C
:1011200000D129E0254BD3E90634244AC2E904342E
:1011300022E01F4B93F90030DAB2FB79D31ADBB20D
:101140005BB297F9062019461F48FFF7E3FD1B4BDA
:10115000D3E90601194BD3E904341A46234602F0B9
:101160000DFC0346002B00D105E0144BD3E90434F9
:10117000124AC2E9063400BF62E10D4B93F9003018
:10118000DAB2FB79D31ADBB259B297F906200223FF
:101190000E48FFF747FE58E1044B93F90130012B4D
:1011A00025D0022B32D0002B12D04EE1680A00204D
:1011B0006C0A002008000020000000201000002021
:1011C000180000202000002028000020200A002015
:1011D000A04B93F90030DAB2FB79D31ADBB25BB2E1
:1011E00097F9062019469C48FFF794FD1DE0994B9E
:1011F00093F90030DAB2FB79D31ADBB25BB297F91C
:10120000062019469548FFF785FD0EE0914B93F9AE
:101210000030DAB2FB79D31ADBB259B297F9062063
:1012200001238F48FFF7FEFD00BF0EE18D4B93F9C0
:101230000130042B00F2068101A252F823F000BF16
:10124000551200087312000891120008AF1200082E
:10125000CD1200087F4B93F90030DAB2FB79D31A34
:10126000DBB25BB297F9062019467F48FFF752FDC3
:101270003BE0784B93F90030DAB2FB79D31ADBB25A
:101280005BB297F9062019467848FFF743FD2CE03A
:10129000704B93F90030DAB2FB79D31ADBB259B252
:1012A00097F9062009237248FFF7BCFD1DE0694B42
:1012B00093F90030DAB2FB79D31ADBB259B297F95D
:1012C000062009236B48FFF7ADFD0EE0614B93F953
:1012D0000030DAB2FB79D31ADBB259B297F90620A3
:1012E00001236548FFF79EFD00BFABE05D4B93F91E
:1012F0000130062B00F2A88001A252F823F000BFB3
:101300001D1300083B130008591300087713000849
:1013100095130008DB130008211400084D4B93F9C6
:101320000030DAB2FB79D31ADBB25BB297F9062050
:1013300019465248FFF7EEFC81E0464B93F9003026
:10134000DAB2FB79D31ADBB25BB297F90620194601
:101350004B48FFF7DFFC72E03E4B93F90030DAB206
:10136000FB79D31ADBB25BB297F9062019464548E0
:10137000FFF7D0FC63E0374B93F90030DAB2FB792A
:10138000D31ADBB25BB297F9062019463E48FFF745
:10139000C1FC54E02F4B93F90030DAB2FB79D31A39
:1013A000DBB25BB297F9062019463848FFF7B2FC6A
:1013B000324BD3E90C01314BD3E90E341A462346A4
:1013C00002F0BEFA0346002B00D138E02B4BD3E9E4
:1013D0000E342A4AC2E90C3431E01E4B93F9003036
:1013E000DAB2FB79D31ADBB25BB297F90620194661
:1013F0002748FFF78FFC214BD3E90E011F4BD3E9A0
:101400000C341A46234602F0B9FA0346002B00D1E9
:1014100015E01A4BD3E90C34184AC2E90E340EE039
:101420000C4B93F90030DAB2FB79D31ADBB259B224
:1014300097F9062001231748FFF7F4FC00BF03E0EB
:1014400000BF02E000BF00E000BF00BF0C37BD4698
:1014500090BD00BF6C0A0020400A0020480A00200E
:10146000500A0020680A00203000002038000020C8
:1014700040000020420000204600002050000020D4
:101480005800002060000020700000208000002034
:1014900088000020C000002090B585B000AF034652
:1014A000FB71374BD3E90001354BD3E902341A46BF
:1014B000234601F01FFE03460C46184621464FF016
:1014C0000002304B02F0F4F803460C46C7E9023440
:1014D00029A3D3E90023D7E9020102F031FA034638
:1014E000002B04D024A4D4E90034C7E9023497F9CE
:1014F0000730184601F04CFFD7E9022301F0AEFF98
:1015000003460C46184621461F4BD3E900341A46C1
:10151000234601F0F1FD03460C461B4AC2E90034A4
:10152000174BD3E90001184BD3E900341A46234680
:1015300002F006FA0346002B06D0114BD3E9003423
:10154000114AC2E9003413E00D4BD3E902010E4BFE
:10155000D3E900341A46234602F010FA0346002B62
:1015600000D105E0064BD3E90234074AC2E9003452
:1015700000BF1437BD4690BD9A9999999999B93F82
:101580000000002000005940300A002090B583B0D0
:1015900000AF0346FB714B4B1B88012B1FD0022B66
:1015A00053D0002B00D088E0474BD3E900014FF027
:1015B00000024FF0000302F0B9F90346002B07D1F7
:1015C000414A4FF000034FF00004C2E9003474E0D8
:1015D0003D4A4FF000033D4CC2E900346DE097F9FD
:1015E0000730184601F0D4FE374BD3E900341A46D1
:1015F000234601F081FD03460C46334AC2E900341C
:10160000314BD3E900014FF00002304B02F0B6F944
:101610000346002B06D02C4A4FF000032B4CC2E9A6
:1016200000344AE0284BD3E900014FF00002284B78
:1016300002F086F90346002B00D13EE0224A4FF02B
:101640000003234CC2E9003437E097F9073018460D
:1016500001F09EFE1C4BD3E900341A46234601F0EC
:101660004BFD03460C46184AC2E90034164BD3E939
:1016700000014FF00002174B02F080F90346002BE7
:1016800006D0114A4FF00003124CC2E9003413E0B7
:101690000D4BD3E900014FF000024FF0000302F0C0
:1016A0004FF90346002B00D106E0074A4FF0000334
:1016B0004FF00004C2E9003400BF00BF0C37BD4644
:1016C00090BD00BF200A0020380A00200000F03F33
:1016D0000000F0BF0000594090B482B000AF034654
:1016E000FB712C4B93F900301A462B4B9B561A4634
:1016F00097F907301344002B18DA264B93F9003082
:101700001946244B93F90030013B234AD35618461F
:10171000224A0B465B000B445B001344034493F9DD
:101720000030DBB2013BDBB25BB22DE0194B93F929
:1017300000301A46184B9B561A4697F907301A4440
:10174000144B93F900301846124B93F90030013BCB
:101750001149CB561C46114903465B0003445B000C
:101760000B44234493F90030013B9A4201DD0023EE
:101770000AE0084B93F900301A46074B9B56DAB241
:10178000FB791344DBB25BB218460837BD4690BC08
:10179000704700BF6B0A0020680A0020CC000020C0
:1017A00098B500AF174B93F90030002B1DD0164BA6
:1017B00093F90030002B0BDDFFF76CFA034603337F
:1017C0001B78313BDBB25BB201211846FFF7A2FB6D
:1017D0000E4B93F900301C464FF0FF30FFF77CFFB3
:1017E00003461A460A4B1A550AE00A4B1B78002B8F
:1017F00003D00120FFF750FE02E00120FFF7C6FEF4
:1018000000BF98BDC80000206C0A00206B0A0020B1
:10181000680A0020220A002098B500AF184B93F9FF
:101820000030002B1DD0174B93F90030002B0CDD3E
:10183000FFF730FA034603331B78313BDBB25BB270
:101840004FF0FF311846FFF765FB0F4B93F900305F
:101850001C460120FFF740FF03461A460B4B1A5562
:101860000CE00B4B1B78002B04D04FF0FF30FFF740
:1018700013FE03E04FF0FF30FFF788FE00BF98BD76
:10188000C80000206C0A00206B0A0020680A0020B3
:10189000220A002080B400AF124B93F90030002BD5
:1018A0001CD0114B93F90030012B09DC0E4B93F93E
:1018B0000030DBB20133DBB25AB20B4B1A700DE0D1
:1018C0000A4B93F90030022B08DC084B93F90030E7
:1018D000DBB20133DBB25AB2044B1A7000BFBD4613
:1018E00080BC7047C80000206B0A00206C0A0020F2
:1018F00080B400AF144B93F90030002B1FD0134B72
:1019000093F90030002B09D1114B93F90030DBB271
:10191000013BDBB25AB20E4B1A7008E00B4B93F945
:101920000030DBB2013BDBB25AB2084B1A70084BF5
:1019300093F90030002B02DA054B00221A7000BF29
:10194000BD4680BC704700BFC80000206C0A002064
:101950006B0A002098B500AF1A4B93F90030002BAA
:1019600024D0194B93F90030012B05D0022B0BD05A
:10197000002B19D1154B23E0154B93F900301A4673
:10198000144B53F822301BE0114B93F900301946E9
:101990000F4B93F9013018460F4A0B46DB005B1AD8
:1019A000034452F823300BE00C4B09E00C4BD3E915
:1019B00000341A4623460B490B4802F02DF80A4B17
:1019C000184698BDC80000206B0A0020247C00083F
:1019D000680A0020E0000020F80000202C7C0008AD
:1019E000280A00201C7C0008700A0020B0B500AF57
:1019F000284B93F90030002B31D0274B93F900305E
:101A0000012B0BD0022B19D0002B26D1234B93F99D
:101A100000301A46224B53F8223039E01F4B93F91D
:101A2000003019461D4B93F9013018461D4A0B46EC
:101A3000DB005B1A034452F8233029E0FFF72AF950
:101A40000546FFF735F803460C461A462346294655
:101A5000154801F0E1FF144B1AE0144B18E0144B49
:101A60001B78002B0AD0134BD3E900341A462346C7
:101A700011490D4801F0D0FF0B4B09E00F4BD3E9A2
:101A800000341A4623460C49074801F0C5FF064BAF
:101A90001846B0BDC80000206B0A0020680A00206C
:101AA000E0000020F8000020700A00202C7C0008D4
:101AB000220A0020300A00201C7C0008380A00207E
:101AC00080B500AF1B4A1B4B1B6843F0010313603A
:101AD0001849184B5A68184B13404B60154A154B60
:101AE0001B6823F0847323F480331360114A114B75
:101AF0001B6823F4802313600E4A0E4B5B6823F4AB
:101B0000FE0353600B4A0B4BDB6A23F00F03D362D7
:101B10000849084B1A6B094B13400B63054B002215
:101B20009A6000F00FF8064B4FF000629A6000BF19
:101B300080BD00BF001002400CC07FF8CCFC00FF4D
:101B400000ED00E080B483B000AF00237B60002391
:101B50003B60324A314B1B6843F4803313602F4B98
:101B60001B6803F400333B607B6801337B603B6898
:101B7000002B03D17B68B3F5A06FF0D1274B1B6816
:101B800003F40033002B02D001233B6001E000236B
:101B90003B603B68012B3CD1214B12221A601F4A4B
:101BA0001E4B5B6853601D4A1C4B5B6853601B4AAD
:101BB0001A4B5B6843F480635360184A174B5B68A9
:101BC00023F47C135360154A144B5B6843F4E81309
:101BD0005360124A114B1B6843F08073136000BFBF
:101BE0000E4B1B6803F00073002BF9D00B4A0B4B14
:101BF0005B6823F003035360084A084B5B6843F0BB
:101C00000203536000BF054B5B6803F00C03082B15
:101C1000F9D100BF0C37BD4680BC704700100240B0
:101C20000020024080B485B000AF78600A4B1B688A
:101C3000002B02D1084B094A1A60074B1B68FB6056
:101C4000054B1A687B681344034A1360FB68184607
:101C50001437BD4680BC7047780A0020B40A0020C3
:101C600080B487B000AF786000237B6100233B61C4
:101C70000F23FB607B68DB78002B3AD0274BDB68B7
:101C8000DB4303F4E0631B0A7B617B69C3F104035C
:101C90003B61FA687B6922FA03F3FB607B685B783F
:101CA0001A463B6902FA03F37B617B689B781A460C
:101CB000FB6813407A6913437B617B691B017B617D
:101CC000174A7B681B787969C9B213440A4683F8BE
:101CD0000023134A7B681B785B09DBB218467B68DC
:101CE0001B7803F01F03012101FA03F342F82030AF
:101CF0000FE00B497B681B785B09DBB218467B68F9
:101D00001B7803F01F0301229A4000F1200341F8E1
:101D1000232000BF1C37BD4680BC704700ED00E0AB
:101D200000E100E080B485B000AF78603960002346
:101D3000FB817B681B88FB817B682C4A93420FD018
:101D40007B682B4A93420BD07B68B3F1804F07D05E
:101D50007B68284A934203D07B68274A934208D184
:101D6000FB8923F07003FB813B685A88FB8913438E
:101D7000FB817B68214A93420CD07B68204A9342C6
:101D800008D0FB8923F44073FB813B681A89FB89E7
:101D90001343FB817B68FA891A803B685A687B6829
:101DA000DA623B681A887B681A857B680F4A93421F
:101DB0000FD07B680E4A93420BD07B68114A934246
:101DC00007D07B68104A934203D07B680F4A934246
:101DD00004D13B689B7A9AB27B681A867B680122A1
:101DE0005A6100BF1437BD4680BC7047002C0140CB
:101DF0000034014000040040000800400010004092
:101E000000140040004001400044014000480140EF
:101E100080B483B000AF78600B46FB70FB78002B7A
:101E200008D07B681B889BB243F001039AB27B68A1
:101E30001A8007E07B681B889BB223F001039AB2EB
:101E40007B681A8000BF0C37BD4680BC704700BF5E
:101E500080B483B000AF78600B467B8013467B7004
:101E60007B78002B06D07B68DA687B881A437B6816
:101E7000DA6007E07B68DB687A88D24392B21A4066
:101E80007B68DA6000BF0C37BD4680BC704700BF7E
:101E900080B483B000AF78600B467B807B88DB43E7
:101EA0009BB21A467B681A6100BF0C37BD4680BCE6
:101EB000704700BF002103E00A4B5B5843500431D8
:101EC00009480A4B42189A42F6D3094A02E0002315
:101ED00042F8043B074B9A42F9D3FFF7F1FDFEF7B6
:101EE00043FB7047D47D0008000000201C0A00203E
:101EF000200A0020B40A0020FEE7000090B484B05D
:101F000000AF03460A46FB711346BB710023FB601A
:101F1000BB7903F003039B000F2202FA03F3FB607B
:101F20001649BB799B08DBB21846144ABB799B085B
:101F3000DBB2023352F82320FB68DB431A40831CD8
:101F400041F823200D48BB799B08DBB21C460B4AA5
:101F5000BB799B08DBB2023352F82320F979BB79B5
:101F600003F003039B0001FA03F31A43A31C40F898
:101F7000232000BF1037BD4690BC704700000140D1
:101F80002DE9F04FDFF8E4928DB006460F46144677
:101F90001D4600F06DF999F90080B8F1FF3FCDE9D9
:101FA000000146D022462B462046294601F0F0FC8F
:101FB000834600283DD132463B463046394601F043
:101FC000E7FC002282460023002840F0848030464F
:101FD000394601F0ABFC002830D000220023204617
:101FE000294601F0A3FC8346A8B10122984B029236
:101FF00000210022CDF828A0CDE90467CDE90645EF
:10200000CDE908120393B8F1000F53D09149002095
:102010000DB0BDE8F08F2046294600F047FF40B1E3
:10202000002200232046294601F08AFC002840F0C7
:10203000B780DDE900010DB0BDE8F08FDDE90001FA
:1020400000F034FF804600285DD04FF0000A4FF0CA
:10205000000B52465B46DDE9000101F067FC0028F9
:10206000E7D03046394600F021FF0028E1D0204675
:10207000294600F01BFF0028DBD099F90030744A94
:10208000039204210022022BCDE90467CDE9064525
:10209000CDE908AB02910A9203D002A800F00CFF30
:1020A00070B901F0B3FC2223036009E0002300248F
:1020B000CDE9083402A800F0FFFE002800F0868079
:1020C0000A9B1BB101F0A2FC0A9B0360DDE9080139
:1020D0000DB0BDE8F08F2046294601F027FC00280E
:1020E000A7D05C495A4BCDF828B001220020B8F1A6
:1020F000020FCDE90467CDE9064502920393CDE9CD
:102100000801D7D197E73046394600F0CFFE0028C6
:102110009BD02046294600F0C9FE002895D0DDE975
:1021200000231046194601F033FC002873D1032325
:1021300099F900800293464B0A900393CDE9046716
:10214000CDE906450022002330463946B8F1000F9C
:1021500041D1414F4FF06046CDE9086701F0F0FBF7
:1021600000289AD000223D4B2046294601F076F9FE
:1021700004460D4600F0A8FE02460B4620462946BE
:1021800001F0D4FB002843D1354B99F900804FF082
:102190006042CDE90823B8F1020F7FF47EAF80E7FB
:1021A00099F900302A4ACDF828B00121CDE9046719
:1021B000CDE9064502910392002B3FF477AF294900
:1021C0000020022BCDE908017FF474AF01F01EFC62
:1021D0002123036074E7244F0026CDE9086701F04E
:1021E000AFFB0028D7D000221C4B2046294601F027
:1021F00035F904460D4600F067FE02460B462046C0
:10220000294601F093FB18B9164B0022CDE90823AB
:1022100099F90080BFE799F900900D4BCDF828801F
:102220000122CDE90467CDE9064502920393B9F195
:10223000000F3FF43BAF002200231046194601F087
:1022400037FAB9F1020FCDE90801BFD032E700BF7C
:10225000347C00080000F03FFFFFEF470000E03F44
:10226000FFFFEFC70000F0FF0000F07FA00100209B
:102270002DE9F04F23F0004858EA020993B03CD012
:10228000714C21F00046A64283460D460CDD06F156
:10229000404606F5801656EA0B0038D16B49834656
:1022A000584613B0BDE8F08F9A4696462BD0A0450D
:1022B000EDDC654CA04578D0002D0F468146CDE978
:1022C000002376DB0024BEF1000F27D15E4B98453A
:1022D00000F08B805D4B984552D0BAF1804F00F0F2
:1022E000C2835B4B9A4519D1002D17DB484639460E
:1022F00013B0BDE8F04F00F015BDCB46534958462A
:1023000013B0BDE8F08F0028C1D1B045D1DD5148F0
:1023100013B0BDE8F04F00F0D1BD00244846394667
:1023200000F0C0FDBBF1000F1CD0ED0F013D54EAE1
:10233000050370D0484B984540F3948003F1047333
:10234000984540F30584454B9E4270DDBAF1000F7D
:1023500070DD3BA3D3E900231046194601F07EF857
:1023600083469DE726B1394B25F040429A42DCD1A5
:10237000BAF1000FC0F2B083002D08DB83468FE76F
:10238000BAF1000FC0F25684CB46394688E706F111
:10239000404606F5801656EA040300F07B84012CC3
:1023A000ECD1834601F100417AE7BEF1000F83D002
:1023B0006DE72B4B98452CDCA3F15473984581DDD8
:1023C0004FEA2853A3F2FF33142B40F34B84C3F19D
:1023D00034032EFA03F202FA03F39E457FF472AF40
:1023E00002F00102C2F102046DE706F1404303F579
:1023F000801353EA0B0300F03383184B9E4240F3E3
:102400006083BAF1000F15DBDDE900349B462146FD
:1024100046E7022457E74A4648463B46394600F01D
:1024200069FE02460B4601F043F9834638E7BAF1EC
:10243000000F8EDB4FF0000B594631E7AFF3008001
:102440009C7500883CE4377E0000F07F0000F03F80
:102450000000E03F7C7C00080000E041FFFFEF3F10
:10246000FFFF3F43B6F5801F4FF0000205DAD44B63
:1024700000F0F4FF6FF034020E463315D14FC6F36F
:102480001306A3F2FF33134446F07F5ABE421A46A6
:102490000D934AF4401A40F3C183CB4B9E4240F364
:1024A000FD83134601330D93C84B0022CDE906236B
:1024B00000270026CDE90867CDE90E67AAF5801A46
:1024C0000027024653465146CDE90A23DDE906239B
:1024D00000F010FEDDE9062380468946DDE90A01A9
:1024E00000F00AFE02460B460020B84901F0E0F871
:1024F0000A460146CDE910121346494602464046B7
:1025000000F0ACFF4FEA6A0343F000538C46834669
:1025100003F50023CDE904BCDA468B46D919002324
:10252000CDE902AB0293DDE902AB002006460F467F
:1025300002460B465046594600F090FF02460B46B5
:102540004046494600F0D6FDDDE90623804689462F
:102550003046394600F0CEFD02460B46DDE90A0161
:1025600000F0C8FD52465B4600F078FF02460B467D
:102570004046494600F0BEFDDDE9102300F06EFF45
:10258000DDE90467CDE9060132463B46304639466F
:1025900000F064FF78A3D3E9002306460F4600F05D
:1025A0005DFF77A3D3E9002300F0A6FD32463B464A
:1025B00000F054FF74A3D3E9002300F09DFD3246E0
:1025C0003B4600F04BFF72A3D3E9002300F094FDDB
:1025D00032463B4600F042FF6FA3D3E9002300F0F0
:1025E0008BFD32463B4600F039FF6DA3D3E9002353
:1025F00000F082FD3246804689463B4630463946E9
:1026000000F02CFF02460B464046494600F026FFEC
:10261000524606460F465B46DDE9040100F06CFDBC
:10262000DDE9062300F01AFF32463B4600F064FD68
:102630005246804689465B465046594600F00EFF9A
:102640000022634BCDE90A0100F056FD42464B469D
:1026500000F052FD02980F46064632463B46504671
:10266000594600F0FBFE002282468B46584B30460E
:10267000394600F03FFDDDE90A2300F03BFD02464C
:102680000B464046494600F035FDDDE9042300F0E5
:10269000E5FE3246804689463B46DDE9060100F00C
:1026A000DDFE02460B464046494600F025FD8046C9
:1026B000894602460B4650465946CDE904AB00F028
:1026C0001BFDDDE902AB38A3D3E9002350460F46DA
:1026D00000F0C4FEDDE90423CDE90201394650468D
:1026E00000F008FD02460B464046494600F002FD58
:1026F0002FA3D3E9002300F0B1FE2FA3D3E90023D9
:10270000804689465046394600F0A8FE02460B46F0
:102710004046494600F0F0FCDDE90E2300F0ECFCF9
:1027200080460D98894600F033FE424606460F4625
:102730004B46DDE9020100F0DFFCDDE9082300F093
:10274000DBFC32463B4600F0D7FC32463B46504667
:102750008B4600F0CFFCDDE9082300F0CBFCDDE97F
:10276000022300F0C7FC02460B464046494600F0F3
:10277000C1FC80462EE000BFEF4E454A287ECA3F8E
:1027800065DBC9934A86CD3F01411DA96074D13FE5
:102790004D268F515555D53FFFAB6FDBB66DDB3FF7
:1027A000033333333333E33F000000E009C7EE3F28
:1027B000FD033ADC09C7EE3FF5015B14E02F3EBE96
:1027C000000040438E98030079B60B000000F03FF4
:1027D000000008408946013C54EA0503DDE9000198
:1027E00014BFD54CD54C0023CDE9043403460C4628
:1027F000CDE9023400230293DDE9024522462B464F
:1028000000F078FC52465B4600F028FEDDE900232C
:1028100006460F464046494600F020FE02460B465B
:102820003046394600F068FC224606460F462B46E5
:1028300050465946CDE9006700F010FE0B460246AF
:10284000804689463046394600F056FCBC4B9942DA
:1028500006460D460C4640F30E8101F13F4303F559
:10286000E003034340F0EF819FA3D3E90023DDE9B8
:10287000000100F041FC424682468B464B46304602
:10288000294600F037FC02460B465046594601F0F7
:1028900075F8002840F0D7812F463B154FF4801281
:1028A000A3F2FE3342FA03F32344C3F30A52A54EC4
:1028B000A2F2FF321641C3F3130B0020C2F114053C
:1028C00023EA06014BF4801B02460B46002C4BFA10
:1028D00005FB40464946B8BFCBF1000B00F00AFCAF
:1028E00002460B4680468946DDE9000100F004FC03
:1028F0004FEA0B5A00247EA3D3E9002320460D465D
:1029000000F0ACFD424606460F464B46204629469F
:1029100000F0F0FB02460B46DDE9000100F0EAFBA7
:1029200075A3D3E9002300F099FD75A3D3E9002333
:10293000804689462046294600F090FD02460B4617
:102940004046494600F0D8FB8046894602460B4681
:102950003046394600F0D0FB32463B4604460D4631
:1029600000F0C8FB02460B464046494600F0C2FB59
:102970002246804689462B462046294600F06EFDB9
:1029800061A3D3E9002306460F4600F067FD60A36C
:10299000D3E9002300F0AEFB32463B4600F05EFD7B
:1029A0005DA3D3E9002300F0A7FB32463B4600F0CD
:1029B00055FD5BA3D3E9002300F09CFB32463B4668
:1029C00000F04CFD58A3D3E9002300F095FB3246FC
:1029D0003B4600F043FD02460B462046294600F0E8
:1029E00089FB06460F4602460B462046294600F064
:1029F00035FD0022CDE900014FF0804330463946D5
:102A000000F078FB02460B46DDE9000100F050FEC5
:102A1000424606460F464B462046294600F01EFD1C
:102A200042464B4600F068FB02460B4630463946AC
:102A300000F060FB22462B4600F05CFB02460B4692
:102A400000203D4900F056FB8A44BAF5801FC0F2D1
:102A500036815146DDE9042300F000FD83461FE482
:102A6000F34635491CE44A4648463B46394600F0A1
:102A7000F5FC834614E4344B21F000479F4240F3B9
:102A80000081324B0B4403430CD142464B4600F0CD
:102A900031FB02460B46DDE9000100F05BFF002838
:102AA0003FF4FBAE22A3D3E90023DDE9040100F0EB
:102AB000D5FC1FA3D3E9002300F0D0FC8346FFF729
:102AC000EFBBBAF1000FBFF6B5ACDDE900349B46B1
:102AD00004F10041FFF7E4BB02460B460020164913
:102AE00000F0E6FD48E400BFFE822B654715973CE9
:102AF00000000000432EE63FEF39FAFE422EE63F8B
:102B0000396CA80C615C20BED0A4BE726937663EE9
:102B1000F16BD2C541BDBB3E2CDE25AF6A56113FDD
:102B200093BDBE166CC1663F3E5555555555C53FC4
:102B300059F3F8C21F6EA5010000F03F0000F0BF7E
:102B4000FFFF8F40FFFF0F00FFCB904000346F3F2F
:102B50006F4B9E427FF76BAC6E4B9E423FF7F6ABDE
:102B600000226C4B00F0C6FA5BA3D3E900230646B3
:102B70000F4600F073FC5AA3D3E900238046894630
:102B80003046394600F06AFC002282468B46624B92
:102B90003046394600F062FC02460B4652A1D1E9AC
:102BA000000100F0A7FA32463B4600F057FC02460F
:102BB0000B460020594900F09DFA3246CDE902014A
:102BC0003B463046394600F049FC02460B46DDE9FB
:102BD000020100F043FC46A3D3E9002300F03EFCD1
:102BE00002460B465046594600F084FA02460B4610
:102BF00006460F464046494600F07EFA42464B469E
:102C0000002082468B4600F075FA02460B4630469D
:102C1000394600F06FFA80468946DCE50022002341
:102C2000CDE90823CDE90E233A4B00220027CDE958
:102C3000062346E44A463B460020364900F038FD6C
:102C40008346FFF72DBB2CA3D3E90023DDE9040164
:102C500000F004FC28A3D3E9002300F0FFFB834627
:102C6000FFF71EBBBEF1000F7FF457ABC3F1140397
:102C700048FA03F202FA03F3984524D07446FFF7AA
:102C800029BB264B9F423FF708AEDDE902349A4646
:102C90009B462FE602460B46FFF7C1BB18A3D3E9BC
:102CA0000023CDE9082318A3D3E90023CDE90E239F
:102CB0001B4B00224FF48027CDE9062301E45A463E
:102CC00000F08EF9C6E602F00102C2F10204FFF73D
:102CD00001BB00BFAFF30080000000604715F73F65
:102CE00044DF5DF80BAE543E555555555555D53F0F
:102CF000FE822B654715F73F9C7500883CE4377EC4
:102D00000000004003B8E23F06D0CF43EBFD4C3E4D
:102D1000FEFFEF3F0000F03F0000D03F0000E03F2B
:102D20000000F83F2DE9F8435D4EB6460E4076456B
:102D30000C46054600F0958000290B46024673DDDF
:102D40000F157ED0A7F2FF37C3F31303F80743F440
:102D5000801364D403EBD27100260B447F10520021
:102D6000B64616204FF400110EEB01049C424FEAC8
:102D7000D2754FEA420203DC1B1B04EB010E0E442A
:102D8000013805EB43034FEA5101EDD1844620247D
:102D90004FF0004109E020D003EBD275013C4FEA2F
:102DA00051012B444FEA420220D09E4501EB0C0515
:102DB000F1DA002D05EB010C09DBF0469542CEEB74
:102DC000030300D9013B521B0844C646E4E7BCF1AB
:102DD000000FF2DB0EF10108F0E7954217D8002D45
:102DE00005EB010C47DB98460023ECE7134310D1B9
:102DF0004008731003F17F5303F50013F20703EB50
:102E0000075948BF40F000404946BDE8F883734683
:102E1000C2E7411C33D000F001031844E8E75B002F
:102E200003EBD273520095E721F000460643ECD045
:102E300069BB0F46D30A153F5205002BFAD0DD02BD
:102E400020D4002100E001465B00DC0201F101001A
:102E5000F9D5C0F1200422FA04F423437F1A8240FA
:102E600070E702460B4600F0F9FA2A46234600F0C6
:102E700043F9BDE8F883BCF1000FABDAB3E70136E4
:102E80002046B6E720244FF0FF310020E3E702465A
:102E90000B4600F02FF902460B4600F009FCB4E7A0
:102EA0000000F07F21F00041704700BF41F0004179
:102EB00001F58010C00F70470020704700200149C5
:102EC000704700BF0000F87FF0B5C1F30A5EAEF2B4
:102ED000FF36132E83B002460B460C464FEAD175DF
:102EE00007462EDC002E49DB3B49314103EA010055
:102EF00010432BD049080B4053EA02070CD04FF483
:102F00008023132E24EA010143FA06F444EA010463
:102F10000CBF4FF000470027304B03EBC50521469F
:102F2000D5E90045384622462B4600F0E5F8CDE9C4
:102F3000000122462B46DDE9000100F0DBF803B07A
:102F4000F0BD332E06DDB6F5806F42D0104619462F
:102F500003B0F0BDAEF2134E4FF0FF3121FA0EF187
:102F60000842F3D049080842D6D04FF0804320EA07
:102F7000010143FA0EFE4EEA0107CDE721F00041C0
:102F80000143E3D0C3F31301144E41EA000CCCF12A
:102F9000000106EBC506D6E9006741EA0C0C5C0CA3
:102FA0004FEA1C3C0CF4002C64044CEA0401324649
:102FB0003B4600F0A1F8CDE900013B463246DDE991
:102FC000000100F097F821F0004444EAC573194667
:102FD000BEE700F091F8BBE7FFFF0F00387C000868
:102FE000F8B5C1F30A5604460D460B46174606BB14
:102FF00021F00043034325D00022354B00F02EFA88
:10300000344A974204460D460B462ADBC1F30A5662
:10301000363E3E4440F2FE72964228DC002E12DD1F
:1030200023F0FF4323F4E00343EA065520462946F4
:10303000F8BD40F2FF729642EBD102460B4600F01B
:103040005BF8F8BDF8BD16F1350F1DDA4CF25033C0
:103050009F4222462B4625DC19A1D1E9000100F050
:103060003DF817A3D3E9002300F0F8F9F8BD224694
:103070002B4615A1D1E9000100F030F812A3D3E9E5
:10308000002300F0EBF9F8BD23F0FF4323F4E00345
:10309000363643EA06552046294600220E4B00F0FC
:1030A000DDF9F8BD08A1D1E9000100F017F806A389
:1030B000D3E9002300F0D2F9F8BD00BFAFF30080E0
:1030C00059F3F8C21F6EA5019C7500883CE4377E59
:1030D00000005043B03CFFFF0000903C03F0004371
:1030E00021F0004242EA0301704700BF81F0004135
:1030F00002E000BF83F0004330B54FEA41044FEADD
:10310000430594EA050F08BF90EA020F1FBF54EA77
:10311000000C55EA020C7FEA645C7FEA655C00F013
:10312000E2804FEA5454D4EB5555B8BF6D420CDDE4
:103130002C4480EA020281EA030382EA000083EA67
:10314000010180EA020281EA0303362D88BF30BD07
:1031500011F0004F4FEA01314FF4801C4CEA11315D
:1031600002D0404261EB410113F0004F4FEA0333BC
:103170004CEA133302D0524263EB430394EA050F47
:1031800000F0A780A4F10104D5F1200E0DDB02FAB6
:103190000EFC22FA05F2801841F1000103FA0EF24A
:1031A000801843FA05F359410EE0A5F120050EF110
:1031B000200E012A03FA0EFC28BF4CF0020C43FA41
:1031C00005F3C01851EBE37101F0004507D54FF04E
:1031D000000EDCF1000C7EEB00006EEB0101B1F59E
:1031E000801F1BD3B1F5001F0CD349085FEA3000E4
:1031F0004FEA3C0C04F101044FEA445212F5800FEF
:1032000080F09A80BCF1004F08BF5FEA500C50F18B
:10321000000041EB045141EA050130BD5FEA4C0C6E
:10322000404141EB010111F4801FA4F10104E9D1F7
:1032300091F0000F04BF01460020B1FA81F308BFEE
:103240002033A3F10B03B3F120020CDA0C3208DDBA
:1032500002F1140CC2F10C0201FA0CF021FA02F195
:103260000CE002F11402D8BFC2F1200C01FA02F105
:1032700020FA0CFCDCBF41EA0C019040E41AA2BF2A
:1032800001EB0451294330BD6FEA04041F3C1CDAF2
:103290000C340EDC04F11404C4F1200220FA04F012
:1032A00001FA02F340EA030021FA04F345EA0301BC
:1032B00030BDC4F10C04C4F1200220FA02F001FA7E
:1032C00004F340EA0300294630BD21FA04F0294600
:1032D00030BD94F0000F83F4801306BF81F4801199
:1032E0000134013D4EE77FEA645C18BF7FEA655C0C
:1032F00029D094EA050F08BF90EA020F05D054EADE
:10330000000C04BF1946104630BD91EA030F1EBFE2
:103310000021002030BD5FEA545C05D140004941E6
:1033200028BF41F0004130BD14F580043CBF01F5D9
:10333000801130BD01F0004545F0FE4141F47001BF
:103340004FF0000030BD7FEA645C1ABF194610469A
:103350007FEA655C1CBF0B46024650EA013406BF9B
:1033600052EA033591EA030F41F4002130BD00BF5A
:1033700090F0000F04BF0021704730B54FF4806417
:1033800004F132044FF000054FF0000150E700BF98
:1033900090F0000F04BF0021704730B54FF48064F7
:1033A00004F1320410F0004548BF40424FF00001E4
:1033B0003EE700BF42004FEAE2014FEA31014FEA27
:1033C00002701FBF12F07F4393F07F4F81F0605176
:1033D000704792F0000F14BF93F07F4F704730B5E5
:1033E0004FF4607401F0004521F0004120E700BF78
:1033F00050EA010208BF704730B54FF000050AE0FF
:1034000050EA010208BF704730B511F0004502D5FF
:10341000404261EB41014FF4806404F132045FEA01
:10342000915C3FF4DCAE4FF003025FEADC0C18BFA6
:1034300003325FEADC0C18BF033202EBDC02C2F19C
:10344000200300FA03FC20FA02F001FA03FE40EA2E
:103450000E0021FA02F11444C1E600BF70B54FF02E
:10346000FF0C4CF4E06C1CEA11541DBF1CEA135510
:1034700094EA0C0F95EA0C0F00F0DEF82C4481EA78
:10348000030621EA4C5123EA4C5350EA013518BF98
:1034900052EA033541F4801143F4801338D0A0FB85
:1034A00002CE4FF00005E1FB02E506F00042E0FB32
:1034B00003E54FF00006E1FB03569CF0000F18BF38
:1034C0004EF0010EA4F1FF04B6F5007F64F54074E0
:1034D00004D25FEA4E0E6D4146EB060642EAC62173
:1034E00041EA55514FEAC52040EA5E504FEACE2EE0
:1034F000B4F1FD0C88BFBCF5E06F1ED8BEF1004FE3
:1035000008BF5FEA500E50F1000041EB045170BD5E
:1035100006F0004646EA010140EA020081EA0301A2
:10352000B4EB5C04C2BFD4EB0C0541EA045170BD9E
:1035300041F480114FF0000E013C00F3AB8014F118
:10354000360FDEBF002001F0004170BDC4F1000461
:10355000203C35DA0C341BDC04F11404C4F12005E2
:1035600000FA05F320FA04F001FA05F240EA02003D
:1035700001F0004221F0004110EBD37021FA04F673
:1035800042EB06015EEA430E08BF20EAD37070BD2D
:10359000C4F10C04C4F1200500FA04F320FA05F08C
:1035A00001FA04F240EA020001F0004110EBD3708E
:1035B00041F100015EEA430E08BF20EAD37070BDFE
:1035C000C4F1200500FA05F24EEA020E20FA04F3D7
:1035D00001FA05F243EA020321FA04F001F0004186
:1035E00021FA04F220EA020000EBD3705EEA430EF7
:1035F00008BF20EAD37070BD94F0000F0FD101F026
:103600000046400041EB010111F4801F08BF013C5E
:10361000F7D041EA060195F0000F18BF704703F09C
:103620000046520043EB030313F4801F08BF013D23
:10363000F7D043EA0603704794EA0C0F0CEA1355DF
:1036400018BF95EA0C0F0CD050EA410618BF52EA99
:103650004306D1D181EA030101F000414FF000009F
:1036600070BD50EA410606BF1046194652EA4306AD
:1036700019D094EA0C0F02D150EA013613D195EA21
:103680000C0F05D152EA03361CBF104619460AD169
:1036900081EA030101F0004141F0FE4141F4700173
:1036A0004FF0000070BD41F0FE4141F4780170BD63
:1036B00070B54FF0FF0C4CF4E06C1CEA11541DBFC8
:1036C0001CEA135594EA0C0F95EA0C0F00F0A7F8CA
:1036D000A4EB050481EA030E52EA03354FEA0131F7
:1036E00000F088804FEA03334FF0805545EA13130A
:1036F00043EA12634FEA022245EA111545EA1065D2
:103700004FEA00260EF000419D4208BF964244F168
:10371000FD0404F5407402D25B084FEA3202B61A87
:1037200065EB03055B084FEA32024FF480104FF45B
:10373000002CB6EB020E75EB030E22BFB61A7546CF
:1037400040EA0C005B084FEA3202B6EB020E75EB62
:10375000030E22BFB61A754640EA5C005B084FEACA
:103760003202B6EB020E75EB030E22BFB61A754697
:1037700040EA9C005B084FEA3202B6EB020E75EBA2
:10378000030E22BFB61A754640EADC0055EA060E63
:1037900018D04FEA051545EA16754FEA06164FEAA6
:1037A000C30343EA52734FEAC2025FEA1C1CC0D152
:1037B00011F4801F0BD141EA00014FF000004FF0DF
:1037C000004CB6E711F4801F04BF01430020B4F1A0
:1037D000FD0C88BFBCF5E06F3FF6AFAEB5EB030C58
:1037E00004BFB6EB020C5FEA500C50F1000041EB55
:1037F000045170BD0EF0004E4EEA113114EB5C0422
:10380000C2BFD4EB0C0541EA045170BD41F48011F4
:103810004FF0000E013C90E645EA060E8DE60CEAFC
:10382000135594EA0C0F08BF95EA0C0F3FF43BAF19
:1038300094EA0C0F0AD150EA01347FF434AF95EAD0
:103840000C0F7FF425AF104619462CE795EA0C0FB4
:1038500006D152EA03353FF4FDAE1046194622E781
:1038600050EA410618BF52EA43067FF4C5AE50EA5B
:1038700041047FF40DAF52EA43057FF4EBAE12E74B
:103880004FF0FF3C06E000BF4FF0010C02E000BF2C
:103890004FF0010C4DF804CD4FEA410C7FEA6C5C0F
:1038A0004FEA430C18BF7FEA6C5C1BD001B050EAB2
:1038B000410C0CBF52EA430C91EA030F02BF90EA9D
:1038C000020F0020704710F1000F91EA030F58BF5C
:1038D000994208BF90422CBFD8176FEAE37040F0BE
:1038E000010070474FEA410C7FEA6C5C02D150EA5C
:1038F000013C07D14FEA430C7FEA6C5CD6D152EA17
:10390000033CD3D05DF8040B704700BF84461046DB
:1039100062468C461946634600E000BF01B5FFF7DA
:10392000B7FF002848BF10F1000F01BD4DF808EDAA
:10393000FFF7F4FF0CBF012000205DF808FB00BF7B
:103940004DF808EDFFF7EAFF34BF012000205DF8D5
:1039500008FB00BF4DF808EDFFF7E0FF94BF012022
:1039600000205DF808FB00BF4DF808EDFFF7CEFF23
:1039700094BF012000205DF808FB00BF4DF808ED62
:10398000FFF7C4FF34BF012000205DF808FB00BF33
:103990004FEA410C7FEA6C5C02D150EA013C0AD14B
:1039A0004FEA430C7FEA6C5C02D152EA033C02D13D
:1039B0004FF0000070474FF0010070474FEA41029E
:1039C00012F5001215D211D56FF47873B3EB625271
:1039D00012D94FEAC12343F0004343EA505311F098
:1039E000004F23FA02F018BF404270474FF000002A
:1039F000704750EA013005D111F0004008BF6FF068
:103A0000004070474FF00000704700BF014B18683E
:103A1000704700BFD00500200EB4F0B59CB021ABBC
:103A20000F4953F8042B019305466FF000440868D2
:103A300002954FF402774FF6FF7602A90695ADF88E
:103A4000147004940794ADF8166000F00BF8029B14
:103A500000221A701CB0BDE8F04003B0704700BFF0
:103A6000D00500202DE9F04FC1B00C460991154654
:103A70000E930A9002F004FB03681793184603F0B4
:103A8000DFF9A38916901E0603D52369002B01F0E8
:103A9000198100231A4612932593249319930B93AB
:103AA000DFF864A4149230AB239399461592A8468C
:103AB00098F800304446EBB1252B02D11AE0252BB3
:103AC00003D014F8013F002BF9D1C8EB04058DB1E8
:103AD000249B259AC9F8008001332A44072BC9F892
:103AE00004502592249300F3A68009F108090B9B4A
:103AF0002B440B932378002B00F0A68000231A465A
:103B00008DF86F3019460C9307934FF0FF3B6378A5
:103B100004F101085D4608F10108A3F120005828CE
:103B200000F22584DFE810F08803230423049003C7
:103B30002304230423042304230423049703A50359
:103B400023045D00E2002304FE00050105010501D8
:103B500005010501050105010501050123042304F3
:103B6000230423042304230423042304230423041D
:103B70001501810223048102230423042304230466
:103B8000C60223042304CD022304230423042304B4
:103B90002304F7022304230425032304230423041A
:103BA000230423042304230423042304230466039B
:103BB00079038102810281028103790323042304B2
:103BC000D1032304DB03A3006400EE032304F50305
:103BD0002304AA0323042304BC030C980E9340423D
:103BE0000C90079B43F00403079398F8003092E78A
:103BF0000E98AB46002104688DF86F10071D0798DA
:103C0000302378228B458DF870304FF000058DF809
:103C1000712040F00203C0F2C78320F0800343F01C
:103C20000203079354EA05030E9700F093830F46AF
:103C30001192B348CEE223AA09990A9803F06EF9CB
:103C400048B90DF1C00952E7259B23B10A9809999B
:103C500023AA03F063F9099B9B8913F0400F0B9B88
:103C600018BF4FF0FF33184641B0BDE8F08F1193F5
:103C7000AB46002A41F02382079A12F0200300F09D
:103C80002E820E9F073727F00703002703F1080154
:103C9000BB450E91D3E900458DF86F70C0F2528795
:103CA00022F08003079354EA050300F0758330AED9
:103CB000E20842EA4572E90804F007030D4614469B
:103CC000303354EA050206F8013DF1D1079AD107D5
:103CD00040F18480302B00F081803022731E06F882
:103CE000012C30AAD21A0D921E467AE098F80030C4
:103CF0002A2B08F1010401F0B181A3F13000092859
:103D000098BF002501F2648114F8013B05EB85059D
:103D100000EB4505A3F130000928F5D945EAE57522
:103D2000A046FAE6079B43F08003079398F800301B
:103D3000F1E6A3F1300000231C4618F8013B04EB28
:103D4000840400EB4404A3F130000928F5D90C9455
:103D5000E3E61193AB46002A41F0C981079B43F08B
:103D600010030793079B980640F130850E9F073795
:103D700027F00707D7E9002307F108010E91144641
:103D80001D46002A73F10003C0F25B85BBF1000FF2
:103D90009DF86F70C0F23885079B23F0800307936E
:103DA00054EA050300F0DB81002D08BF0A2CC0F0A7
:103DB000DB8130AE204629460A22002303F036FD7F
:103DC000303206F8012D2046294600230A2203F04E
:103DD0002DFD04460D4654EA0503EBD130AB9B1B89
:103DE0000D930D9B5B45B8BF5B460893002313936F
:103DF00017B1089B01330893079B13F002030F933D
:103E000002D0089B02330893079B13F0840310939E
:103E100040F0D7820C9B089A9D1A002D40F3D18266
:103E2000102D2599249A374F27DD189648461024DF
:103E3000B946099E2F460A9D04E0103F102F00F15D
:103E4000080016DD01322F4B24921031072A2591EC
:103E500080E81800F1DD23AA3146284603F05EF819
:103E600000287FF4F8AE103F102F2599249A30A82F
:103E7000E8DC189E3D464F46814601326C18072A01
:103E800025942492C9F80070C9F8045000F32884DE
:103E90009DF86F7009F1080977B1249B0133013453
:103EA0000DF16F010122072B2594249389E8060068
:103EB00000F3A08309F108090F9B6BB1249B013328
:103EC00002341CA90222072B2594249389E80600BA
:103ED00000F39C8309F10809109B802B00F0D58228
:103EE0000D9BC3EB0B07002F39DD074A249B0F9274
:103EF000102F28DD22464FF0100B0A9D099C0AE086
:103F0000807C0008A07C00084C7C0008103F102F2B
:103F100009F1080916DD01331032072B259224938D
:103F200089E8000CF2DD23AA2146284602F0F6FFBC
:103F300000287FF490AE103F102F259A249B0DF19E
:103F4000C009E8DC144601330F9A24933C44072B44
:103F5000259489E8840000F3418309F10809079B4F
:103F6000DA0500F13082249B0D99C9F80060013315
:103F70000C44072B2594C9F80410249300F31883EC
:103F800009F10809079B59073FD50C9B089A9D1A10
:103F9000002D3ADD102D249BBC4F23DD2246102638
:103FA000DDF828B0099C04E0103D102D09F1080946
:103FB00017DD0133B54924931032072B259289E888
:103FC0004200F1DD23AA2146584602F0A7FF00284F
:103FD0007FF441AE103D102D259A249B0DF1C009B0
:103FE000E7DC144601332C44072B25942493C9F8AD
:103FF0000070C9F8045008DD23AA09990A9802F054
:104000008DFF00287FF427AE259C0B9B0C9A089906
:104010008A42ACBF9B185B180B93002C40F0D482F3
:10402000002324930DF1C00942E51193AB46002A09
:1040300041F059800E9F073727F0070303F108026C
:104040000E921A6814925B681593159B149D23F0C9
:104050000044284621464FF0FF328D4BFFF798FC75
:10406000002840F0C184284621464FF0FF32884B9B
:10407000FFF770FC002840F0B784149815990022CF
:104080000023FFF75DFC002840F04B879DF86F7020
:10409000804E814B079921F08001079111990322ED
:1040A0004FF0000B08924729D8BF1E460D92CDF85D
:1040B0004CB09DE6079B43F00803079398F8003047
:1040C00029E51193AB46002A41F00980079B43F094
:1040D00010030793079A12F020037FF4D2AD0799DB
:1040E00011F0100200F007850E988DF86F30BBF1CB
:1040F000000F046800F104074FF00005C0F22185AD
:104100000A4622F08002079254EA05020E9700F058
:1041100043811F46CBE51193AB46002A40F0D78779
:10412000079B43F010030793079A12F0200300F057
:1041300032830E9F073727F00703002703F108019A
:10414000BB450E91D3E900458DF86F70C0F25C83DA
:1041500022F08003079354EA05037FF425AEBBF1F8
:10416000000F00F0FE80002440AE303406F8414DD0
:1041700034E61193AB46002A40F0A587079B4748D9
:104180009D0640F197800E9F073727F00703D3E97C
:10419000004503F108020E92079A12F0010700F0A1
:1041A000418254EA050300F0F5849DF844208DF81F
:1041B00071200027079A8DF86F703023BB458DF86A
:1041C000703042F00203C0F2A98622F0800343F06F
:1041D0000203079330AE230904F00F0143EA05738D
:1041E0002A091C461546435C06F8013D54EA0503BE
:1041F000F1D1F3E50E9911930A688DF89820002308
:104200000A461F468DF86F30043201230893BB46DF
:1042100013970E920D9326AEEEE51193AB46002A4E
:104220003FF4A0AD8DF86F109CE5079B43F0400371
:10423000079398F800306EE498F8003000297FF476
:104240006AAC0122202166E4079B43F00103079337
:1042500098F800305FE40E9C23680C931846002801
:10426000234603F10403FFF6B8AC0E9398F8003030
:1042700051E498F8003001222B214CE41193AB4615
:10428000002A3FF451AF8DF86F104DE7A07C000875
:10429000FFFFEF7F607C00085C7C00086C7C0008FE
:1042A0001193AB46002A40F00387079B99489D066F
:1042B0003FF569AF079BDC0640F15E840E9A13461A
:1042C000043314680E93002566E798F800306C2BD1
:1042D00000F0E184079840F0100007901BE4002AEA
:1042E00040F0DB86079B9B0640F12F840E9A0B99CA
:1042F0001368CD170846043229460E92C3E900011F
:10430000FFF7D6BB079B43F02003079398F80030D4
:1043100001E40E9A1193166800248DF86F40171D62
:10432000002E00F0BD85002DC0F20F852A462146E3
:10433000304602F065F9002800F00486831B0D93D7
:10434000A34623EAE3730E970893CDF84CB09DF88B
:104350006F704DE56F481192BBF1000F40F0738113
:104360005F464FF0000BCDF834B030AE39E5119315
:10437000002A40F0B086119A002A3FF465AC002371
:1043800001211F4608918DF898208DF86F309B46CB
:1043900013930D9126AE2FE5BBF1000F00F0DD85E4
:1043A00000270024002582E45A480793119254EA1A
:1043B00005030E974FF000077FF40CAF0024002593
:1043C00008E7259C68E5119B652B40F3A9801498AC
:1043D000159900220023FFF7A9FA002800F0358183
:1043E000249B4D4AC9F80020013301340122072BD8
:1043F00025942493C9F8042000F3E68309F1080901
:104400001D9B129A934203DB079BDB077FF5BAAD36
:10441000249B1699179AC9F8002001330C44072BE6
:104420002594C9F80410249300F33F8409F1080986
:10443000129B5D1E002D7FF7A5AD384A249B0F927D
:10444000102D40F3E68110260A9FDDF824B005E028
:1044500009F10809103D102D40F3DB8101331034C0
:10446000072B25942493C9F800A0C9F80460EFDD58
:1044700023AA5946384602F051FD00287FF4EBABE1
:10448000259C249B0DF1C009E4E70C9B089A9F1A18
:10449000002F7FF725AD214A249B0F92102F2BDD93
:1044A0004A462146B946102537460A9C099E06E031
:1044B000A9F11009B9F1100F02F1080218DD01335A
:1044C0001031072B25912493C2F800A05560EFDD31
:1044D00023AA3146204602F021FD00287FF4BBAB21
:1044E000A9F11009B9F1100F2599249B30AAE6DC37
:1044F0003E460C464F46914601330F9A24933C4466
:10450000072B259489E8840000F3458209F1080906
:10451000E6E400BF807C00089C7C00084C7C00081E
:10452000129B249D012B40F30882013501340123A5
:10453000072D25942495C9F80060C9F8043000F3CC
:104540000D8209F10809169A179BC9F80030013548
:104550001444072D25942495C9F8042000F30E82F5
:1045600009F108090023149815990022FFF7DEF9D4
:10457000129B002840F0C380013B013501361C44EA
:10458000072D24952594C9F80060C9F8043000F37C
:10459000F58009F10809199AC9F804200135144475
:1045A0001FAB072D25942495C9F800307FF7E8ACA0
:1045B00023AA09990A9802F0B1FC00287FF44BABBA
:1045C000259C0DF1C009DDE423AA09990A9802F09F
:1045D000A5FC00283FF424ADFFF73DBB23AA0999B1
:1045E0000A9802F09BFC00287FF435AB259C0DF166
:1045F000C009B4E423AA09990A9802F08FFC0028A4
:104600007FF429AB259C0DF1C00955E423AA099933
:104610000A9802F083FC00287FF41DAB259C0DF165
:10462000C00959E4BBF1000F8DF86F70C0F2D88259
:1046300022F08003079354EA05037FF4CBADBBF16E
:10464000000F3FF48DAE0027B8E61D9D002D40F30E
:10465000CA82139B129A9342A8BF1346002B1D4691
:104660000DDD249BC9F8006001332C44072B2594F1
:10467000C9F80450249300F39C8309F10809139BA3
:10468000002DA8BF5B1B002B1D4640F3F680BA4AE5
:10469000249B0F92102D40F38A8222461027DDF8CA
:1046A00028B0099C05E009F10809103D102D40F3E0
:1046B0007D8201331032072B25922493C9F800A084
:1046C000C9F80470EFDD23AA2146584602F026FC03
:1046D00000287FF4C0AA259A249B0DF1C009E4E7C5
:1046E00023AA09990A9802F019FC00287FF4B3AABA
:1046F0009DF86F70259C0DF1C009FFF7CDBB5E1EC4
:10470000002E7FF748AF9C4B0F93102E2CDDCDF879
:1047100034801027B046DDF828B0099E06E0A8F1E5
:104720001008B8F1100F09F108091ADD013510342D
:10473000072D25942495C9F800A0C9F80470EEDD72
:1047400023AA3146584602F0E9FB00287FF483AAE9
:10475000A8F11008B8F1100F259C249D0DF1C00997
:10476000E4DC4646DDF834800F9B01353444072DE8
:104770002594249589E848007FF70BAF23AA09996F
:104780000A9802F0CBFB00287FF465AA259C249DA3
:104790000DF1C009FFE6079911F0100200F0088141
:1047A0000E988DF86F30BBF1000F046800F104071C
:1047B0004FF0000526DB0A4622F08002079254EAF9
:1047C00005020E971F467FF4EFAAC8E4079BD9069F
:1047D0002AD4079B5A0627D50E99B1F90040043117
:1047E000E51722462B460E91FFF7CBBA0E998DF8AE
:1047F0006F30BBF1000F0C6801F104074FF00005AA
:1048000080F247820E971F4654EA05037FF4CCAA34
:10481000AAE401330F9A24932C44072B259489E8AA
:1048200024007FF7ADABC3E60E9A14681346043339
:10483000E51722460E93002A2B4673F10003BFF6BC
:10484000A5AA64424FF02D0765EB4505BBF1000FAB
:104850008DF86F70FFF6A8AA079B23F080030793DB
:10486000FFF7A2BA23AA09990A9802F057FB002879
:104870007FF4F1A9259C0DF1C009139A1D9B3244C8
:104880001746129A934247DB079AD50744D41299E8
:104890000E44F51BCB1A9D42A8BF1D46002D2E4687
:1048A0000DDD249AC9F8007001322C44072A2594A2
:1048B000C9F80450249200F30B8309F10809002E73
:1048C000ACBF9D1B1D46002D7FF75CAB2A4A249B85
:1048D0000F92102D9DDD10260A9FDDF824B004E014
:1048E00009F10809103D102D93DD01331034072B19
:1048F00025942493C9F800A0C9F80460F0DD23AA28
:104900005946384602F00AFB00287FF4A4A9259CEA
:10491000249B0DF1C009E5E7249A16981799C9F868
:10492000001001320444072A2594C9F80400249297
:1049300000F3A98209F10809A9E7079BD8073FF509
:10494000F4AD013501340123072D25942495C9F8D0
:104950000060C9F804307FF71CAE0FE723AA09995D
:104960000A9802F0DBFA00287FF475A9259C249DA3
:104970000DF1C009E7E500BF4C7C000823AA0999A6
:104980000A9802F0CBFA00287FF465A9259C249DA3
:104990000DF1C009E6E523AA09990A9802F0BEFACA
:1049A00000287FF458A9259C0DF1C009FFF798BA9B
:1049B000079911F040033FF419AF0E988DF86F205E
:1049C000BBF1000F048800F104074FF00005C0F2AE
:1049D000B98121F08003079354EA05030E97174627
:1049E0007FF4E2A9FFF7BBBB149C22462046159C2E
:1049F00023462146FEF7CCFF002840F01783119B89
:104A0000BBF1FF3F23F020030D9300F07082472B92
:104A100000F09281079B43F480731093159B1F1E37
:104A2000149B0893BBBF3B4603F1004700232D2393
:104A30000F93119B662B00F05D82462B00F0518195
:104A40000D9B089A452B21A81EA90CBF0BF101054F
:104A50005D46049003911DA802213B4602900195FA
:104A600000910A9800F0E0FB119B672B064640F08E
:104A70009082079BDA0740F1AF8274190898394693
:104A800000220023FEF752FF002840F09081219B76
:104A90009C4206D930215A1C21921970219B9C42BC
:104AA000F9D89B1B12930D9B472B00F07981119B2A
:104AB000652B40F37D82119B662B1D9B139300F0A9
:104AC0005B82139A12998A42C0F23082079BD907FF
:104AD00000F1848222EAE2730D92672211920F9A0A
:104AE000002A40F053810893109B079393469DF84A
:104AF0006F70FFF77DB9079911F0400315D00E983C
:104B00008DF86F20BBF1000F048800F104074FF00F
:104B1000000516DB21F08003079354EA05030E9786
:104B20003FF43AAC1746FFF7C2B80E998DF86F30D4
:104B3000BBF1000F0C6801F104074FF0000580F293
:104B4000A5800E970027FFF7B2B8079BDF060BD4AE
:104B5000079B5E0608D50E9A136804320E92BDF8C4
:104B60002C201A80FEF7A4BF0E9A136804320E920E
:104B70000B9A1A60FEF79CBF0E9A079B13F0400F2A
:104B8000134603F104030CBF146814880E93002528
:104B9000FFF702BB0027BB458DF86F70FFF60EAC28
:104BA000079B23F080030793FFF7D6BB144601331E
:104BB0000F9A24932C44072B259489E824003FF76F
:104BC00051AE09F1080958E623AA09990A9802F09A
:104BD000A5F900287FF43FA8259C0DF1C0090FE43A
:104BE0000E9FFFF7E4BB249BB54AC9F800200133B0
:104BF00001340122072B25942493C9F8042000F3E3
:104C00008E8009F108092DB9129B1BB9079BDF079C
:104C10007FF5B8A9249B1699179AC9F8002001338B
:104C20000C44072B2594C9F80410249300F3C28187
:104C300009F108096D42002D40F39B80A14A0F92B3
:104C4000102D40F3C38022461027DDF828B0099CC0
:104C500005E009F10809103D102D40F3B68001333D
:104C60001032072B25922493C9F800A0C9F80470CC
:104C7000EFDD23AA2146584602F050F900287EF4C1
:104C8000EAAF259A249B0DF1C009E4E7079AFFF7E4
:104C900038BA079A90E5079B43F02003079308F181
:104CA000010898F80030FEF736BF23AA09990A9840
:104CB00002F034F900287EF4CEAF259C0DF1C00936
:104CC000FFF7B6BB40210A9801F0DEF9099A10609F
:104CD0001061002800F0E581099A40235361FEF736
:104CE000D8BE21A81EA9049003911DA803210290FB
:104CF000089ACDF804B03B4600910A9800F094FA67
:104D00005D460646119B462B06EB05047FF4B6AEC6
:104D10003378302B00F07C811D9D2C44AEE623AA15
:104D200009990A9802F0FAF800287EF494AF1D9DC4
:104D3000259C0DF1C00966E7BBF1000F08BF4FF0DD
:104D4000010B67E60E9717465EE5304602F078F8ED
:104D5000A34603460D90FFF7F4BA23AA09990A98CF
:104D600002F0DCF800287EF476AF259C249B0DF140
:104D7000C0091299C9F8006001330C44072B25942F
:104D80002493C9F804107FF7FBA811E42D2708939A
:104D9000109B07938DF86F704FF0000BFFF729B849
:104DA0001D9BDD1C1EDB9B451CDB139389E6234604
:104DB00077E623AA09990A9802F0B0F800287EF451
:104DC0004AAF259C0DF1C00959E4144601330F9AEE
:104DD00024932C44072B259489E82400BDDC09F199
:104DE0000809C6E7119A023A1192013B002B9DF87F
:104DF00044201D93B8BF5B428DF87C20B4BF2D22A8
:104E00002B22092B8DF87D2040F3F1800DF18B00D2
:104E100004462D4A82FB0321DA17C2EBA10202EB02
:104E20008201A3EB410303F13001092A134604F880
:104E3000011DEEDC21463033DAB201F8012D884243
:104E400040F23A810DF17E01234601E013F8012B77
:104E500001F8012B9842F9D1431C1B1B0DF17E0276
:104E600013441FAA9B1A129A1993012A13440D93F3
:104E700040F3EA800D9B169A134400220D9313927F
:104E800023EAE3732BE623AA09990A9802F046F86D
:104E900000287EF4E0AE1D9B259C0DF1C009F6E4D0
:104EA000062D2B4628BF06230D9323EAE373B34652
:104EB0000E97139637460893044EFEF799BF00BF2E
:104EC0009C7C00084C7C000867666666947C000841
:104ED00023AA09990A9802F021F800287EF4BBAEB3
:104EE0001D9B129A259CD31A0DF1C009E7E44FF0DF
:104EF000060B8FE521A81EA9049003911DA803218C
:104F00000290089ACDF804B03B4600910A9800F050
:104F10008BF95D46064600EB0B04F9E60793FFF7B5
:104F200059B92D278DF86F70FFF7B2B8169A129BFA
:104F30001344139A0D93002A7EDD672223EAE3735C
:104F40001192CCE525EAE5730E9708930D958346FB
:104F500013909DF86F70FEF74BBF079BDB075F4612
:104F600005D540AE302306F8413DFEF737BFCDF8FA
:104F700034B030AEFEF735BF002B7DDDBBF1000F46
:104F80003DD1079AD4073AD41A460D9223EAE37327
:104F9000A5E5119B472B7FF470AD079BDB073FF521
:104FA000B1AE219B9B1B12930D9B472B3FF4F8AE98
:104FB0001D9B1AE723AA09990A9801F0AFFF002860
:104FC0007EF449AE1D9D259C249B0DF1C00931E660
:104FD000A0460025FEF7A1BD219B62E5169A139B12
:104FE000134467220D93119223EAE37377E530337C
:104FF00030228DF87F308DF87E2020AB31E7139B77
:10500000169A9D1805EB0B030D9323EAE37366E5EF
:105010000898394600220023FEF788FC00287FF418
:105020007BAEC5F101051D952C4427E5324E334B6F
:105030009DF86F70FFF72EB8139B0D9AC3F1010313
:105040001A4413460D9278E7079B13F001037FF48F
:1050500011AF13930D9B23EAE37340E50E9898F884
:10506000013005680430002D0E90A046BEF653AD09
:105070004FF0FF35FEF74FBDBBF1000F02D1079B8C
:10508000D80707D5169B5D1C05EB0B030D9323EA90
:10509000E37324E501230D9321E58DF86F10FFF7ED
:1050A00021B90A9A0C2313604FF0FF30FEF7DCBDE4
:1050B0008DF86F10FFF7F9B80DF17E03D1E68DF88A
:1050C0006F10FEF7D9BD8DF86F10FFF757B88DF848
:1050D0006F10FFF725B88DF86F10FFF74CB98DF8FA
:1050E0006F10FEF7F3BF8DF86F10FEF7A3BF8DF8BA
:1050F0006F10FEF733BE00BF687C0008647C0008B8
:1051000002690B69934200F38D802DE9F04F03F1A2
:10511000FF3801F1140700F1140B57F828205BF851
:1051200028304FEA880483B00132B3FBF2F90BEB6D
:105130000403009407EB040A0193B9F1000F39D07E
:105140000025BC46DE462B465CF8046BDEF80020EA
:10515000B4B209FB0455360C2C0C09FB0644ADB265
:105160005B1BA6B213FA82F3C6EB124606EB23468C
:105170009BB243EA0643E2454EF8043B4FEA14452E
:105180004FEA2643E0D2009B5BF8033093B9019CC1
:10519000231F9B450CD254F8043C4BB9A4F10803DF
:1051A00002E01A68043B1AB99B4508F1FF38F8D3AE
:1051B000C0F81080044601F019FD00282EDB09F12B
:1051C00001095D46002357F8041B28688AB29A1A21
:1051D000090C12FA80F2C1EB104303EB224391B2A7
:1051E00041EA0341BA4545F8041B4FEA2343EAD29A
:1051F0005BF828200BEB880382B91A1F93450BD26A
:1052000053F8042C42B9083B02E01A68043B1AB96F
:105210009B4508F1FF38F8D3C4F81080484603B026
:10522000BDE8F08F002070472DE9F04F016C97B07A
:105230008146239C92469B4649B1426C4A600123B9
:1052400093408B6001F0F0FA0023C9F84030BBF1C5
:10525000000FD84633DB00232360A54B1A4608EA2B
:105260000303934214D05046594600220023FEF710
:105270005DFB054648B3229A01231360249B002B53
:1052800000F0C5809B481860013817B0BDE8F08F6A
:10529000229A42F20F731360BAF1000F00F0A2805D
:1052A0009548249B002BF0D0C378002B00F0B180F0
:1052B00000F10803249A136017B0BDE8F08F0123B2
:1052C0002BF000482360C346C7E714AA15AB019230
:1052D000009352465B46484601F032FD5FEA18549F
:1052E000089040F08880149D159C2C4404F23243B1
:1052F000202B40F39182C3F1400304F2124008FADC
:1053000003F82AFA00F040EA0800FEF731F801231A
:10531000013CA1F1F87110930022784BFDF7EAFEF1
:105320006DA3D3E90023FEF799F86DA3D3E9002319
:10533000FDF7E2FE064620460F46FEF729F86AA36F
:10534000D3E90023FEF78AF802460B463046394679
:10535000FDF7D2FE06460F46FEF730FB0022049012
:10536000002330463946FEF7EBFA002840F0308241
:10537000049E162E00F22982614B03EBC603D3E98B
:10538000000152465B46FEF7F9FA002800F0498218
:10539000731E049300230C932C1B631E029300F1D5
:1053A000328200230593049B002BC0F22382029AD1
:1053B0000B9311461944002302910A93209B092B59
:1053C00029D8052B40F35886043B20930025209BC9
:1053D000023B032B00F23586DFE813F02C03280292
:1053E00037035904444B474AC8F31300002814BF3D
:1053F0001846104655E7CBF3130343F07F51109541
:105400005046A4F2FF3441F44011149D84E73E4815
:105410003BE7C31C4EE70021C9F8441048462091E1
:1054200001F0DCF94FF0FF330693209A0D9301232E
:1054300007902192C9F840000993159B002BC0F2F8
:10544000D180049A0E2A00F3CD802D4B03EBC203CA
:10545000D3E90034CDE90234219B002BC0F2008354
:1054600056465F4650465946DDE902AB52465B461A
:10547000FEF71EF9FEF7A2FA0446FDF789FF524631
:105480005B46FDF7EBFF0B46024639463046FDF71B
:1054900031FE079D04F130032B70069B012B06465D
:1054A0000F4605F1010562D00022184BFDF7D6FF2B
:1054B0000022002306460F46FEF738FA00287ED168
:1054C000CDF81490DDF818A0DDF81CB0DDE90289F4
:1054D00029E000BFAFF3008061436F63A787D23F2D
:1054E000B3C8608B288AC63FFB799F501344D33FD3
:1054F0000000F07F9D7C0008BC7C00080000F83FA5
:10550000D07C0008B07C00089C7C0008000024408F
:10551000FDF7A4FF0022002306460F46FEF706FA19
:10552000002840F0B78342464B4630463946FEF7E6
:10553000BFF8FEF743FA0446FDF72AFF42464B4602
:10554000FDF78CFF02460B4630463946FDF7D2FD8B
:1055500004F1300E05F801EBCBEB050ED6450646FF
:105560000F464FF00002B04BD2D1DDF81490324616
:105570003B4630463946FDF7BFFD06460F4602461C
:105580000B46DDE90201FEF7DBF940B932463B4646
:10559000DDE90201FEF7CAF988B1E3070FD515F876
:1055A000014C079A6B1E04E09A4200F02C8413F819
:1055B000014D392C03F10105F6D001341C70089916
:1055C000484601F031F90022049B2A70229A0133E7
:1055D0001360249B002B00F0A78307981D6017B071
:1055E000BDE8F08F099A002A00F01281209A012A62
:1055F00040F35882069B0A9A5F1EBA42C0F2978314
:10560000D71B069B002BC0F28A84059D069B059A3A
:105610001A440592029A01211A444846029201F066
:105620009BF9064665B1029900290B4608DDA9429F
:10563000059AA8BF2B46D21AED1ACB1A05920293EF
:105640000A9B002B40F3FC82099A002A00F0018299
:10565000002F00F0FE8131463A46484601F01EFA1E
:10566000DDF82080014642460646484601F07EF9B4
:1056700041460446484601F0D7F80A9BDB1B0A93D3
:1056800040F0E6810121484601F066F90B9B804617
:10569000002B00F0198201461A46484601F0FEF937
:1056A000209B012B804640F3F8820027D8F8103069
:1056B00008EB8303186901F001F9C0F12000029A98
:1056C000104410F01F0000F0F681C0F12003042BFD
:1056D00040F3CA84059BC0F11C00034405931346A4
:1056E000034405440293059B002B05DD21461A4621
:1056F000484601F023FA0446029B002B05DD414693
:105700001A46484601F01AFA80460C9B002B40F0DE
:105710007C82069B002B40F39582099B002B40F076
:10572000F581DDF81CB0069F5D4602E001F086F8C9
:10573000044641462046FFF7E3FC00F1300A05F835
:1057400001ABCBEB0503BB424FF00A024FF0000365
:1057500021464846EADB079B069A012AACBF9B1804
:1057600001331D464FF0000B21460122484601F04F
:10577000E5F94146089001F039FA002840F30D831D
:1057800015F8012C07996B1E04E08B4200F078821B
:1057900013F8012D392A03F10105F6D001321A70F0
:1057A0004146484601F040F8002E3FF408AFBBF1F7
:1057B000000F05D0B34503D05946484601F034F8F0
:1057C0003146484601F030F8F9E601230C93E3E551
:1057D000DDF810804046FDF7DBFD02460B46304603
:1057E0003946FEF7A3F800287FF4C2AD08F1FF3375
:1057F0000493BDE5059A049BD21A5B420A930023E9
:1058000005920B93DAE55B42059300230293CAE508
:105810000A9F059D099E05E7C3F120080AFA08F0D2
:1058200073E50C90B8E500BF000024400023099305
:10583000049B219A13440D930133002B069340F3EC
:105840008382069C26460021172EC9F844100BD9E6
:10585000012204235B0003F11400B042114602F15F
:105860000102F7D9C9F84410484600F0B7FF0E2CE2
:105870000790C9F840003FF6E0AD002D3FF4DDADE4
:1058800004995746D8460029CDE90E7840F3928214
:10589000914B01F00F020E1103EBC203F006D3E9A6
:1058A000004540F14C828D4B50465946D3E90823C0
:1058B000FDF7FEFE06F00F0682468B464FF003080A
:1058C00086B1864FF10709D520462946D7E900233E
:1058D000FDF7C4FD08F1010804460D46761007F1F6
:1058E0000807EFD122462B4650465946FDF7E0FE09
:1058F00006460F460C9B43B10022794B3046394691
:10590000FEF71EF8002840F020834046FDF740FDDA
:1059100032463B46FDF7A2FD724B0022FDF7ECFB41
:10592000069B0446A1F15075002B00F0DF81049B1B
:10593000DDF818801193099B002B00F09782664BCD
:10594000694903EBC80353E902230020FDF7B0FEC9
:1059500022462B46FDF7CEFB82468B463046394623
:10596000FEF72CF80446FDF713FD02460B463046C1
:105970003946FDF7BFFB3034079DE4B206460F46BB
:105980002C7002460B46504659460135FDF7F6FF8E
:1059900000284CD132463B4600205149FDF7AAFB76
:1059A00002460B4650465946FDF7E8FF002840F0F6
:1059B0000D83B8F1010F40F3B381079B98440DE0CC
:1059C00000204749FDF796FB52465B46FDF7B8FFBE
:1059D000002840F0FB82454500F0A2815046594620
:1059E0000022424BFDF73AFD0022404B82468B4697
:1059F00030463946FDF732FD0F460646FDF7DEFF1D
:105A00000446FDF7C5FC02460B4630463946FDF715
:105A100071FB3034E4B252465B4605F8014B064652
:105A20000F46FDF78DFF32463B460028C8D0119B3C
:105A30000493C4E500230993219B002B40F3898143
:105A40001E461C460D930693FDE601230993F3E7DA
:105A500008940A9A0899484601F020F8044611E68D
:105A6000069B002B3FF7FCAC40F0DA820022204B73
:105A7000DDE90201FDF7F2FC52465B46FDF774FFDB
:105A8000DDF818804646002800F0F280219B079D33
:105A9000DB4304934146484600F0C6FE002E3FF427
:105AA0008EAD8DE6109A002A00F0418203F2334356
:105AB0000A9F059DABE51C20059B03440593029BB3
:105AC0000344054402930EE6209B012B40F382829F
:105AD0000B9F0120F3E500BFD07C0008987D0008F3
